{
  "_format": "hh-sol-artifact-1",
  "contractName": "MockDexRouter",
  "sourceName": "contracts/mocks/MockDex.sol",
  "abi": [
    {
      "inputs": [
        {
          "internalType": "address",
          "name": "_weth",
          "type": "address"
        }
      ],
      "stateMutability": "nonpayable",
      "type": "constructor"
    },
    {
      "inputs": [],
      "name": "WETH",
      "outputs": [
        {
          "internalType": "address",
          "name": "",
          "type": "address"
        }
      ],
      "stateMutability": "view",
      "type": "function"
    },
    {
      "inputs": [
        {
          "internalType": "address",
          "name": "token",
          "type": "address"
        },
        {
          "internalType": "uint256",
          "name": "amountTokenDesired",
          "type": "uint256"
        },
        {
          "internalType": "uint256",
          "name": "",
          "type": "uint256"
        },
        {
          "internalType": "uint256",
          "name": "",
          "type": "uint256"
        },
        {
          "internalType": "address",
          "name": "",
          "type": "address"
        },
        {
          "internalType": "uint256",
          "name": "",
          "type": "uint256"
        }
      ],
      "name": "addLiquidityETH",
      "outputs": [
        {
          "internalType": "uint256",
          "name": "amountToken",
          "type": "uint256"
        },
        {
          "internalType": "uint256",
          "name": "amountETH",
          "type": "uint256"
        },
        {
          "internalType": "uint256",
          "name": "liquidity",
          "type": "uint256"
        }
      ],
      "stateMutability": "payable",
      "type": "function"
    },
    {
      "inputs": [],
      "name": "factory",
      "outputs": [
        {
          "internalType": "address",
          "name": "",
          "type": "address"
        }
      ],
      "stateMutability": "view",
      "type": "function"
    }
  ],
  "bytecode": "0x60c03461010d576001600160401b0390601f610c1638819003918201601f1916830191848311848410176100c25780849260209460405283398101031261010d57516001600160a01b03919082811680820361010d57156100d8576080526040519061065d90818301908111838210176100c25782916105b9833903906000f080156100b6571660a0526040516104a69081610113823960805181818160b401526103e5015260a051818181607e01526103a20152f35b6040513d6000823e3d90fd5b634e487b7160e01b600052604160045260246000fd5b60405162461bcd60e51b815260206004820152600d60248201526c1dd95d1a081c995c5d5a5c9959609a1b6044820152606490fd5b600080fdfe60806040908082526004918236101561001757600080fd5b600091823560e01c908163ad5c4648146103d157508063c45a01551461038e5763f305d7191461004657600080fd5b60c036600319011261038a576001600160a01b03918335838116929190839003610387576024948535946084358181160361038357807f0000000000000000000000000000000000000000000000000000000000000000169484519163e6a4390560e01b83528184840152807f00000000000000000000000000000000000000000000000000000000000000001696878a8501526020978885604481855afa948515610379579289928c95928995869861035a575b50828816156102e3575b5050606490895194859384926323b872dd60e01b8452338b850152891680988401528d60448401525af19081156102d957859161029f575b501561026557803b15610261578380918987518094819363c223428960e01b83528c898401525af180156102575761022a575b50828080809334905af13d15610225573d67ffffffffffffffff8111610213578451906101a6601f8201601f1916880183610414565b815283863d92013e5b156101db57506060945050348310156101d45782915b81519384523490840152820152f35b34916101c5565b825162461bcd60e51b815290810184905260138187015272195d1a081d1c985b9cd9995c8819985a5b1959606a1b6044820152606490fd5b634e487b7160e01b8452604183528784fd5b6101af565b67ffffffffffffffff81949294116102455784529138610170565b5060418792634e487b7160e01b835252fd5b85513d86823e3d90fd5b8380fd5b845162461bcd60e51b81528084018790526015818a0152741d1bdad95b881d1c985b9cd9995c8819985a5b1959605a1b6044820152606490fd5b90508681813d83116102d2575b6102b68183610414565b810103126102ce575180151581036102ce573861013d565b8480fd5b503d6102ac565b86513d87823e3d90fd5b8a51630edef2e760e31b815289810185905296870152306044870152909550909392839160649183915af19081156102d9578992606487938a93859161032d575b50959038610105565b61034d9150843d8611610353575b6103458183610414565b81019061044c565b38610324565b503d61033b565b610372919850853d8711610353576103458183610414565b96386100fb565b88513d89823e3d90fd5b8280fd5b80fd5b5080fd5b503461038a578160031936011261038a57517f00000000000000000000000000000000000000000000000000000000000000006001600160a01b03168152602090f35b83903461038a578160031936011261038a577f00000000000000000000000000000000000000000000000000000000000000006001600160a01b03168152602090f35b90601f8019910116810190811067ffffffffffffffff82111761043657604052565b634e487b7160e01b600052604160045260246000fd5b9081602091031261046b57516001600160a01b038116810361046b5790565b600080fdfea2646970667358221220516f5526aca6617d3759933504908af0a62ced9b28eed791ace9b48d348a749964736f6c634300081800336080806040523461001657610641908161001c8239f35b600080fdfe608060408181526004918236101561001657600080fd5b600092833560e01c91826376f797381461008857505063e6a439051461003b57600080fd5b3461008457806003193601126100845760209181610057610266565b91610060610281565b6001600160a01b039384168252818652828220908416825285522054915191168152f35b5080fd5b83859134610262576060366003190112610262576100a4610266565b6100ac610281565b916001600160a01b036044358181169391929084900361025e578285169083831690828214610231575010156102295781905b169182156101ff578286526020968688528286882095169485885288528286882054166101d3578551916103748084019284841067ffffffffffffffff8511176101c057509183916060936102988439868252878b8301528882015203019086f080156101b657169381815280865283812083825286528484808320926bffffffffffffffffffffffff60a01b938385825416179055808952818120858252895220918254161790557fa92a2b95c8d8436f6ac4c673c61487364f877efb9534d4296fad8ef904546c94858451868152a351908152f35b84513d87823e3d90fd5b634e487b7160e01b8a5260419052602489fd5b855162461bcd60e51b8152908101889052600660248201526565786973747360d01b6044820152606490fd5b845162461bcd60e51b815260208189015260248101889052637a65726f60e01b6044820152606490fd5b9281906100df565b62461bcd60e51b815260208a82015260096024820152681a59195b9d1a58d85b60ba1b6044820152606490fd5b8680fd5b8280fd5b600435906001600160a01b038216820361027c57565b600080fd5b602435906001600160a01b038216820361027c5756fe60e0346100a057601f61037438819003918201601f19168301916001600160401b038311848410176100a5578084926060946040528339810103126100a057610047816100bb565b906100606040610059602084016100bb565b92016100bb565b9160805260a05260c0526040516102a490816100d082396080518160c0015260a051816101c2015260c051818181602101528181610108015261014f0152f35b600080fd5b634e487b7160e01b600052604160045260246000fd5b51906001600160a01b03821682036100a05756fe6080806040526004361015610060575b50361561001b57600080fd5b61004f337f00000000000000000000000000000000000000000000000000000000000000006001600160a01b031614610211565b61005b3460015461024b565b600155005b600090813560e01c90816301809a32146101f1575080633fc8cef3146101ac578063478aa2841461018f578063c223428914610137578063f887ea40146100f25763fc0c546a0361000f57346100ef57806003193601126100ef576040517f00000000000000000000000000000000000000000000000000000000000000006001600160a01b03168152602090f35b80fd5b50346100ef57806003193601126100ef576040517f00000000000000000000000000000000000000000000000000000000000000006001600160a01b03168152602090f35b50346100ef5760203660031901126100ef5761017d337f00000000000000000000000000000000000000000000000000000000000000006001600160a01b031614610211565b61018a600435825461024b565b815580f35b50346100ef57806003193601126100ef5760209054604051908152f35b50346100ef57806003193601126100ef576040517f00000000000000000000000000000000000000000000000000000000000000006001600160a01b03168152602090f35b90503461020d578160031936011261020d576020906001548152f35b5080fd5b1561021857565b60405162461bcd60e51b815260206004820152600b60248201526a37b7363c903937baba32b960a91b6044820152606490fd5b9190820180921161025857565b634e487b7160e01b600052601160045260246000fdfea26469706673582212202fe0f3f04894a9b16067ac041f54db2e17b77a74aa93afe73a0ba74f7a52aac764736f6c63430008180033a26469706673582212204849c7c85866bfde7f9fa508a81d5638e93d0c5317e2062d2fd185fff281ed4764736f6c63430008180033",
  "linkReferences": {},
  "deployedLinkReferences": {}
}