{
  "_format": "hh-sol-artifact-1",
  "contractName": "MockDexFactory",
  "sourceName": "contracts/mocks/MockDex.sol",
  "abi": [
    {
      "anonymous": false,
      "inputs": [
        {
          "indexed": true,
          "internalType": "address",
          "name": "token0",
          "type": "address"
        },
        {
          "indexed": true,
          "internalType": "address",
          "name": "token1",
          "type": "address"
        },
        {
          "indexed": false,
          "internalType": "address",
          "name": "pair",
          "type": "address"
        }
      ],
      "name": "PairCreated",
      "type": "event"
    },
    {
      "inputs": [
        {
          "internalType": "address",
          "name": "tokenA",
          "type": "address"
        },
        {
          "internalType": "address",
          "name": "tokenB",
          "type": "address"
        },
        {
          "internalType": "address",
          "name": "router",
          "type": "address"
        }
      ],
      "name": "createPair",
      "outputs": [
        {
          "internalType": "address",
          "name": "pair",
          "type": "address"
        }
      ],
      "stateMutability": "nonpayable",
      "type": "function"
    },
    {
      "inputs": [
        {
          "internalType": "address",
          "name": "",
          "type": "address"
        },
        {
          "internalType": "address",
          "name": "",
          "type": "address"
        }
      ],
      "name": "getPair",
      "outputs": [
        {
          "internalType": "address",
          "name": "",
          "type": "address"
        }
      ],
      "stateMutability": "view",
      "type": "function"
    }
  ],
  "bytecode": "0x6080806040523461001657610641908161001c8239f35b600080fdfe608060408181526004918236101561001657600080fd5b600092833560e01c91826376f797381461008857505063e6a439051461003b57600080fd5b3461008457806003193601126100845760209181610057610266565b91610060610281565b6001600160a01b039384168252818652828220908416825285522054915191168152f35b5080fd5b83859134610262576060366003190112610262576100a4610266565b6100ac610281565b916001600160a01b036044358181169391929084900361025e578285169083831690828214610231575010156102295781905b169182156101ff578286526020968688528286882095169485885288528286882054166101d3578551916103748084019284841067ffffffffffffffff8511176101c057509183916060936102988439868252878b8301528882015203019086f080156101b657169381815280865283812083825286528484808320926bffffffffffffffffffffffff60a01b938385825416179055808952818120858252895220918254161790557fa92a2b95c8d8436f6ac4c673c61487364f877efb9534d4296fad8ef904546c94858451868152a351908152f35b84513d87823e3d90fd5b634e487b7160e01b8a5260419052602489fd5b855162461bcd60e51b8152908101889052600660248201526565786973747360d01b6044820152606490fd5b845162461bcd60e51b815260208189015260248101889052637a65726f60e01b6044820152606490fd5b9281906100df565b62461bcd60e51b815260208a82015260096024820152681a59195b9d1a58d85b60ba1b6044820152606490fd5b8680fd5b8280fd5b600435906001600160a01b038216820361027c57565b600080fd5b602435906001600160a01b038216820361027c5756fe60e0346100a057601f61037438819003918201601f19168301916001600160401b038311848410176100a5578084926060946040528339810103126100a057610047816100bb565b906100606040610059602084016100bb565b92016100bb565b9160805260a05260c0526040516102a490816100d082396080518160c0015260a051816101c2015260c051818181602101528181610108015261014f0152f35b600080fd5b634e487b7160e01b600052604160045260246000fd5b51906001600160a01b03821682036100a05756fe6080806040526004361015610060575b50361561001b57600080fd5b61004f337f00000000000000000000000000000000000000000000000000000000000000006001600160a01b031614610211565b61005b3460015461024b565b600155005b600090813560e01c90816301809a32146101f1575080633fc8cef3146101ac578063478aa2841461018f578063c223428914610137578063f887ea40146100f25763fc0c546a0361000f57346100ef57806003193601126100ef576040517f00000000000000000000000000000000000000000000000000000000000000006001600160a01b03168152602090f35b80fd5b50346100ef57806003193601126100ef576040517f00000000000000000000000000000000000000000000000000000000000000006001600160a01b03168152602090f35b50346100ef5760203660031901126100ef5761017d337f00000000000000000000000000000000000000000000000000000000000000006001600160a01b031614610211565b61018a600435825461024b565b815580f35b50346100ef57806003193601126100ef5760209054604051908152f35b50346100ef57806003193601126100ef576040517f00000000000000000000000000000000000000000000000000000000000000006001600160a01b03168152602090f35b90503461020d578160031936011261020d576020906001548152f35b5080fd5b1561021857565b60405162461bcd60e51b815260206004820152600b60248201526a37b7363c903937baba32b960a91b6044820152606490fd5b9190820180921161025857565b634e487b7160e01b600052601160045260246000fdfea26469706673582212202fe0f3f04894a9b16067ac041f54db2e17b77a74aa93afe73a0ba74f7a52aac764736f6c63430008180033a26469706673582212204849c7c85866bfde7f9fa508a81d5638e93d0c5317e2062d2fd185fff281ed4764736f6c63430008180033",
  "linkReferences": {},
  "deployedLinkReferences": {}
}