{
  "_format": "hh-sol-artifact-1",
  "contractName": "MockDexPair",
  "sourceName": "contracts/mocks/MockDex.sol",
  "abi": [
    {
      "inputs": [
        {
          "internalType": "address",
          "name": "_token",
          "type": "address"
        },
        {
          "internalType": "address",
          "name": "_weth",
          "type": "address"
        },
        {
          "internalType": "address",
          "name": "_router",
          "type": "address"
        }
      ],
      "stateMutability": "nonpayable",
      "type": "constructor"
    },
    {
      "inputs": [],
      "name": "ethLiquidity",
      "outputs": [
        {
          "internalType": "uint256",
          "name": "",
          "type": "uint256"
        }
      ],
      "stateMutability": "view",
      "type": "function"
    },
    {
      "inputs": [
        {
          "internalType": "uint256",
          "name": "tokenAmount",
          "type": "uint256"
        }
      ],
      "name": "notifyTokenLiquidity",
      "outputs": [],
      "stateMutability": "nonpayable",
      "type": "function"
    },
    {
      "inputs": [],
      "name": "router",
      "outputs": [
        {
          "internalType": "address",
          "name": "",
          "type": "address"
        }
      ],
      "stateMutability": "view",
      "type": "function"
    },
    {
      "inputs": [],
      "name": "token",
      "outputs": [
        {
          "internalType": "address",
          "name": "",
          "type": "address"
        }
      ],
      "stateMutability": "view",
      "type": "function"
    },
    {
      "inputs": [],
      "name": "tokenLiquidity",
      "outputs": [
        {
          "internalType": "uint256",
          "name": "",
          "type": "uint256"
        }
      ],
      "stateMutability": "view",
      "type": "function"
    },
    {
      "inputs": [],
      "name": "weth",
      "outputs": [
        {
          "internalType": "address",
          "name": "",
          "type": "address"
        }
      ],
      "stateMutability": "view",
      "type": "function"
    },
    {
      "stateMutability": "payable",
      "type": "receive"
    }
  ],
  "bytecode": "0x60e0346100a057601f61037438819003918201601f19168301916001600160401b038311848410176100a5578084926060946040528339810103126100a057610047816100bb565b906100606040610059602084016100bb565b92016100bb565b9160805260a05260c0526040516102a490816100d082396080518160c0015260a051816101c2015260c051818181602101528181610108015261014f0152f35b600080fd5b634e487b7160e01b600052604160045260246000fd5b51906001600160a01b03821682036100a05756fe6080806040526004361015610060575b50361561001b57600080fd5b61004f337f00000000000000000000000000000000000000000000000000000000000000006001600160a01b031614610211565b61005b3460015461024b565b600155005b600090813560e01c90816301809a32146101f1575080633fc8cef3146101ac578063478aa2841461018f578063c223428914610137578063f887ea40146100f25763fc0c546a0361000f57346100ef57806003193601126100ef576040517f00000000000000000000000000000000000000000000000000000000000000006001600160a01b03168152602090f35b80fd5b50346100ef57806003193601126100ef576040517f00000000000000000000000000000000000000000000000000000000000000006001600160a01b03168152602090f35b50346100ef5760203660031901126100ef5761017d337f00000000000000000000000000000000000000000000000000000000000000006001600160a01b031614610211565b61018a600435825461024b565b815580f35b50346100ef57806003193601126100ef5760209054604051908152f35b50346100ef57806003193601126100ef576040517f00000000000000000000000000000000000000000000000000000000000000006001600160a01b03168152602090f35b90503461020d578160031936011261020d576020906001548152f35b5080fd5b1561021857565b60405162461bcd60e51b815260206004820152600b60248201526a37b7363c903937baba32b960a91b6044820152606490fd5b9190820180921161025857565b634e487b7160e01b600052601160045260246000fdfea26469706673582212202fe0f3f04894a9b16067ac041f54db2e17b77a74aa93afe73a0ba74f7a52aac764736f6c63430008180033",
  "linkReferences": {},
  "deployedLinkReferences": {}
}