{"contracts/MemeLaunchFactory.sol":{"MemeLaunchFactory":{"abi":[{"inputs":[{"internalType":"address","name":"_feeRecipient","type":"address"},{"internalType":"uint256","name":"_defaultFeeBps","type":"uint256"},{"internalType":"uint256","name":"_defaultVirtualEthReserve","type":"uint256"},{"internalType":"uint256","name":"_defaultVirtualTokenReserve","type":"uint256"},{"internalType":"uint256","name":"_defaultGraduationTargetEth","type":"uint256"},{"internalType":"address","name":"_defaultDexRouter","type":"address"},{"internalType":"address","name":"_defaultLpRecipient","type":"address"}],"stateMutability":"nonpayable","type":"constructor"},{"anonymous":false,"inputs":[{"indexed":false,"internalType":"address","name":"feeRecipient","type":"address"},{"indexed":false,"internalType":"uint256","name":"feeBps","type":"uint256"},{"indexed":false,"internalType":"uint256","name":"virtualEthReserve","type":"uint256"},{"indexed":false,"internalType":"uint256","name":"virtualTokenReserve","type":"uint256"},{"indexed":false,"internalType":"uint256","name":"graduationTargetEth","type":"uint256"},{"indexed":false,"internalType":"address","name":"dexRouter","type":"address"},{"indexed":false,"internalType":"address","name":"lpRecipient","type":"address"}],"name":"DefaultsUpdated","type":"event"},{"anonymous":false,"inputs":[{"indexed":true,"internalType":"uint256","name":"launchId","type":"uint256"},{"indexed":true,"internalType":"address","name":"creator","type":"address"},{"indexed":true,"internalType":"address","name":"token","type":"address"},{"indexed":false,"internalType":"address","name":"pool","type":"address"},{"indexed":false,"internalType":"uint256","name":"totalSupply","type":"uint256"},{"indexed":false,"internalType":"uint256","name":"creatorAllocation","type":"uint256"},{"indexed":false,"internalType":"uint256","name":"feeBps","type":"uint256"},{"indexed":false,"internalType":"uint256","name":"graduationTargetEth","type":"uint256"},{"indexed":false,"internalType":"address","name":"dexRouter","type":"address"},{"indexed":false,"internalType":"address","name":"lpRecipient","type":"address"}],"name":"LaunchCreated","type":"event"},{"anonymous":false,"inputs":[{"indexed":true,"internalType":"address","name":"previousOwner","type":"address"},{"indexed":true,"internalType":"address","name":"newOwner","type":"address"}],"name":"OwnershipTransferred","type":"event"},{"inputs":[],"name":"BPS_DENOMINATOR","outputs":[{"internalType":"uint256","name":"","type":"uint256"}],"stateMutability":"view","type":"function"},{"inputs":[{"internalType":"string","name":"name","type":"string"},{"internalType":"string","name":"symbol","type":"string"},{"internalType":"string","name":"imageURI","type":"string"},{"internalType":"string","name":"description","type":"string"},{"internalType":"uint256","name":"totalSupply","type":"uint256"},{"internalType":"uint256","name":"creatorAllocationBps","type":"uint256"}],"name":"createLaunch","outputs":[{"internalType":"uint256","name":"launchId","type":"uint256"},{"internalType":"address","name":"tokenAddress","type":"address"},{"internalType":"address","name":"poolAddress","type":"address"}],"stateMutability":"nonpayable","type":"function"},{"inputs":[],"name":"defaultDexRouter","outputs":[{"internalType":"address","name":"","type":"address"}],"stateMutability":"view","type":"function"},{"inputs":[],"name":"defaultFeeBps","outputs":[{"internalType":"uint256","name":"","type":"uint256"}],"stateMutability":"view","type":"function"},{"inputs":[],"name":"defaultGraduationTargetEth","outputs":[{"internalType":"uint256","name":"","type":"uint256"}],"stateMutability":"view","type":"function"},{"inputs":[],"name":"defaultLpRecipient","outputs":[{"internalType":"address","name":"","type":"address"}],"stateMutability":"view","type":"function"},{"inputs":[],"name":"defaultVirtualEthReserve","outputs":[{"internalType":"uint256","name":"","type":"uint256"}],"stateMutability":"view","type":"function"},{"inputs":[],"name":"defaultVirtualTokenReserve","outputs":[{"internalType":"uint256","name":"","type":"uint256"}],"stateMutability":"view","type":"function"},{"inputs":[],"name":"feeRecipient","outputs":[{"internalType":"address","name":"","type":"address"}],"stateMutability":"view","type":"function"},{"inputs":[{"internalType":"uint256","name":"launchId","type":"uint256"}],"name":"getLaunch","outputs":[{"components":[{"internalType":"address","name":"token","type":"address"},{"internalType":"address","name":"pool","type":"address"},{"internalType":"address","name":"creator","type":"address"},{"internalType":"string","name":"name","type":"string"},{"internalType":"string","name":"symbol","type":"string"},{"internalType":"string","name":"imageURI","type":"string"},{"internalType":"string","name":"description","type":"string"},{"internalType":"uint256","name":"totalSupply","type":"uint256"},{"internalType":"uint256","name":"creatorAllocation","type":"uint256"},{"internalType":"uint256","name":"createdAt","type":"uint256"}],"internalType":"struct MemeLaunchFactory.LaunchInfo","name":"","type":"tuple"}],"stateMutability":"view","type":"function"},{"inputs":[],"name":"getLaunchCount","outputs":[{"internalType":"uint256","name":"","type":"uint256"}],"stateMutability":"view","type":"function"},{"inputs":[{"internalType":"uint256","name":"offset","type":"uint256"},{"internalType":"uint256","name":"limit","type":"uint256"}],"name":"getLaunches","outputs":[{"components":[{"internalType":"address","name":"token","type":"address"},{"internalType":"address","name":"pool","type":"address"},{"internalType":"address","name":"creator","type":"address"},{"internalType":"string","name":"name","type":"string"},{"internalType":"string","name":"symbol","type":"string"},{"internalType":"string","name":"imageURI","type":"string"},{"internalType":"string","name":"description","type":"string"},{"internalType":"uint256","name":"totalSupply","type":"uint256"},{"internalType":"uint256","name":"creatorAllocation","type":"uint256"},{"internalType":"uint256","name":"createdAt","type":"uint256"}],"internalType":"struct MemeLaunchFactory.LaunchInfo[]","name":"data","type":"tuple[]"}],"stateMutability":"view","type":"function"},{"inputs":[],"name":"owner","outputs":[{"internalType":"address","name":"","type":"address"}],"stateMutability":"view","type":"function"},{"inputs":[{"internalType":"address","name":"token","type":"address"}],"name":"poolByToken","outputs":[{"internalType":"address","name":"pool","type":"address"}],"stateMutability":"view","type":"function"},{"inputs":[{"internalType":"address","name":"newFeeRecipient","type":"address"},{"internalType":"uint256","name":"newFeeBps","type":"uint256"},{"internalType":"uint256","name":"newVirtualEthReserve","type":"uint256"},{"internalType":"uint256","name":"newVirtualTokenReserve","type":"uint256"},{"internalType":"uint256","name":"newGraduationTargetEth","type":"uint256"},{"internalType":"address","name":"newDexRouter","type":"address"},{"internalType":"address","name":"newLpRecipient","type":"address"}],"name":"setDefaults","outputs":[],"stateMutability":"nonpayable","type":"function"},{"inputs":[{"internalType":"address","name":"newOwner","type":"address"}],"name":"transferOwnership","outputs":[],"stateMutability":"nonpayable","type":"function"}],"evm":{"bytecode":{"linkReferences":{},"object":"6080346200028c57601f6200446938819003918201601f191683019291906001600160401b0384118385101762000291578160e092849260409687528339810103126200028c576200005181620002a7565b602080830151908484015160608501516080860151916200008360c06200007b60a08a01620002a7565b9801620002a7565b6001600160a01b03968716979095908815620002485761012c821162000215578215620001d15783156200018d5784156200015757871694856200010c575b5060018060a01b0319973389600054161760005588600154161760015560025560035560045560055583600654161760065516906007541617600755516141ac9081620002bd8239f35b878716620000c2576064908a519062461bcd60e51b82526004820152601560248201527f6c7020726563697069656e7420726571756972656400000000000000000000006044820152fd5b895162461bcd60e51b815260048101879052600f60248201526e1d185c99d95d081c995c5d5a5c9959608a1b6044820152606490fd5b895162461bcd60e51b815260048101879052601660248201527f7669727475616c20746f6b656e207265717569726564000000000000000000006044820152606490fd5b895162461bcd60e51b815260048101879052601460248201527f7669727475616c206574682072657175697265640000000000000000000000006044820152606490fd5b895162461bcd60e51b815260048101879052600c60248201526b0cccaca40e8dede40d0d2ced60a31b6044820152606490fd5b895162461bcd60e51b815260048101879052601660248201527f66656520726563697069656e74207265717569726564000000000000000000006044820152606490fd5b600080fd5b634e487b7160e01b600052604160045260246000fd5b51906001600160a01b03821682036200028c5756fe60a08060405260043610156200001457600080fd5b60006080526080513560e01c9081630b0420bb1462001259575080631036338c14620006d757806313ed4aa614620006ab5780631c8c0d92146200068a5780632ca08d1a14620003fa5780634690484014620003ce5780635930d3ce146200033657806363f0eb0414620003155780638da5cb5b14620002e857806393a8e04d14620002c75780639b3b9f98146200023b5780639ff0251f146200021a578063bcae25a414620001f9578063d578192c14620001cd578063e1a4521814620001ad5763f2fde38b14620000e657600080fd5b34620001a7576020366003190112620001a7576200010362001297565b608051546001600160a01b0380821692620001203385146200150c565b16918215620001715782907f8be0079c531659141344cd1fd0a4f28419497f9722a3daafe3b4186f6b6457e0608051608051a36bffffffffffffffffffffffff60a01b161760805155608051608051f35b60405162461bcd60e51b815260206004820152600e60248201526d1bdddb995c881c995c5d5a5c995960921b6044820152606490fd5b60805180fd5b34620001a757608051366003190112620001a75760206040516127108152f35b34620001a757608051366003190112620001a7576006546040516001600160a01b039091168152602090f35b34620001a757608051366003190112620001a7576020600254604051908152f35b34620001a757608051366003190112620001a7576020600854604051908152f35b34620001a7576040366003190112620001a7576200025e60243560043562001717565b60405160209160208201926020835281518094526040830193602060408260051b860101930191608051955b828710620002985785850386f35b909192938280620002b6600193603f198a8203018652885162001320565b96019201960195929190926200028a565b34620001a757608051366003190112620001a7576020600454604051908152f35b34620001a757608051366003190112620001a757608051546040516001600160a01b039091168152602090f35b34620001a757608051366003190112620001a7576020600554604051908152f35b34620001a7576020366003190112620001a7576004356200035662001546565b5060085481101562000395576200037c6200037562000391926200147d565b5062001648565b60405191829160208352602083019062001320565b0390f35b60405162461bcd60e51b81526020600482015260116024820152701a5b9d985b1a59081b185d5b98da081a59607a1b6044820152606490fd5b34620001a757608051366003190112620001a7576001546040516001600160a01b039091168152602090f35b34620001a75760e0366003190112620001a7576200041762001297565b60249081359060a435608435606480359060448035916001600160a01b03919082871690818803620006855760c4359a848c1694858d0362000685576200046581608051541633146200150c565b8a169384156200064c5761012c8c116200061d578615620005e6578715620005ad5788156200057b57836200053d575b5050600180546001600160a01b031990811690941790555060028990556003849055600485905560058690556006805483169091179055600780549091169091179055604080516001600160a01b039687168152602081019790975286015260608501526080840152811660a083015290911660c08201527fa48f5c9009f921948c2e75757edd140da19ff66523674223ca9369c744c5993e908060e081010390a160805180f35b856200049557741b1c081c9958da5c1a595b9d081c995c5d5a5c9959605a1b9060156040519362461bcd60e51b855260206004860152840152820152fd5b6e1d185c99d95d081c995c5d5a5c9959608a1b90600f6040519362461bcd60e51b855260206004860152840152820152fd5b751d9a5c9d1d585b081d1bdad95b881c995c5d5a5c995960521b9060166040519362461bcd60e51b855260206004860152840152820152fd5b731d9a5c9d1d585b08195d1a081c995c5d5a5c995960621b9060146040519362461bcd60e51b855260206004860152840152820152fd5b6b0cccaca40e8dede40d0d2ced60a31b90600c6040519362461bcd60e51b855260206004860152840152820152fd5b75199959481c9958da5c1a595b9d081c995c5d5a5c995960521b9060166040519362461bcd60e51b855260206004860152840152820152fd5b600080fd5b34620001a757608051366003190112620001a7576020600354604051908152f35b34620001a757608051366003190112620001a7576007546040516001600160a01b039091168152602090f35b34620001a75760c0366003190112620001a7576004356001600160401b038111620001a7576200070c903690600401620012ae565b6024356001600160401b038111620001a7576200072e903690600401620012ae565b6044356001600160401b038111620001a75762000750903690600401620012ae565b94906064356001600160401b038111620001a75762000774903690600401620012ae565b969091861562001224578415620011ed5760843515620011b6576107d060a435116200117b5760405180610c078101106001600160401b03610c078301111762000d5f57610c076200357082396080610c0782015280620007fa620007e26080610c078401018b89620013c9565b610c07830181036020610c0785010152888a620013c9565b6084356040610c0784010152306060610c07840101520390608051f09485156200102757600154600254600354600454600554600654600754604051966001600160a01b0391821696928216959394939291166001600160401b03611d5189019081119089111762000d5f57611d516200181f89398d60018060a01b0316611d51890152306020611d518a0101526040611d51890101526060611d51880101526080611d518701015260a0611d518601015260c0611d518501015260e0611d5184010152610100611d518301015261012081611d518101030190608051f0968715620010275760843560a435608435020460a4350362001163576200090c61271060a4356084350204608435620013ea565b60405163a9059cbb60e01b81526001600160a01b038a811660048301526024820183905260805160209183916044918391908e165af19081156200102757608051916200113f575b5015620011035761271060a435608435020462001034575b6001600160a01b0389163b15620001a757604051639556483760e01b8152600481019190915260805181602481836001600160a01b038e165af1801562001027576200100e575b50608080516001600160a01b03898116909152600960205290516040902080546001600160a01b031916918a1691909117905560085498680100000000000000008a101562000d5f5760018a0160085562000a0e8a6200147d565b505062000a1b8a6200147d565b5080546001600160a01b03199081166001600160a01b038b81169190911783556001830180548316918d1691909117905560028201805490911633179055966001600160401b03821162000d5f57819062000a7a60038a0154620014cf565b601f811162000fb3575b5060805190601f831160011462000f3d576080519262000f31575b50508160011b916000199060031b1c19161760038701555b6001600160401b03821162000d5f57819062000ad76004880154620014cf565b601f811162000ed6575b5060805190601f831160011462000e60576080519262000e54575b50508160011b916000199060031b1c19161760048501555b6001600160401b03821162000d5f57819062000b346005860154620014cf565b601f811162000df9575b5060805190601f831160011462000d83576080519262000d77575b50508160011b916000199060031b1c19161760058301555b6001600160401b03861162000d5f5762000b8f6006830154620014cf565b601f811162000d10575b5060805190601f871160011462000c96579580916060976080519262000c8a575b50508160011b916000199060031b1c19161760068201555b608435600782810182905561271060a43583020460088401819055426009909401939093556002546005546006549254604080516001600160a01b038a811682526020820197909752908101969096526060860192909252608085015290821660a0840152811660c0830152821690339085907fdc7fea29d21f6a39e7f1b42ad6100f8cdaff48535852696a1155de8a81d87a069060e090a4604080519384526001600160a01b039182166020850152911690820152f35b01359050878062000bba565b6006830160805152602060805120916080515b601f198916811062000cf75750918791600193606099601f1981161062000cdc575b505050811b01600682015562000bd2565b0135600019600384901b60f8161c1916905587808062000ccb565b9092602060018192868601358155019401910162000ca9565b6006830160805152602060805120601f880160051c81016020891062000d57575b601f830160051c8201811062000d4957505062000b99565b608051815560010162000d31565b508062000d31565b634e487b7160e01b6080515260416004526024608051fd5b01359050888062000b59565b608080516005880190525160208120909450915b601f198416851062000de0576001945083601f1981161062000dc5575b505050811b01600583015562000b71565b0135600019600384901b60f8161c1916905588808062000db4565b8181013583556020948501946001909301920162000d97565b9091506005850160805152602060805120601f840160051c81016020851062000e4c575b90849392915b601f830160051c8201811062000e3b57505062000b3e565b608051815585945060010162000e23565b508062000e1d565b013590508a8062000afc565b6080805160048a0190525160208120909450915b601f198416851062000ebd576001945083601f1981161062000ea2575b505050811b01600485015562000b14565b0135600019600384901b60f8161c191690558a808062000e91565b8181013583556020948501946001909301920162000e74565b9091506004870160805152602060805120601f840160051c81016020851062000f29575b90849392915b601f830160051c8201811062000f1857505062000ae1565b608051815585945060010162000f00565b508062000efa565b013590508c8062000a9f565b6080805160038c0190525160208120909450915b601f198416851062000f9a576001945083601f1981161062000f7f575b505050811b01600387015562000ab7565b0135600019600384901b60f8161c191690558c808062000f6e565b8181013583556020948501946001909301920162000f51565b9091506003890160805152602060805120601f840160051c81016020851062001006575b90849392915b601f830160051c8201811062000ff557505062000a84565b608051815585945060010162000fdd565b508062000fd7565b6001600160401b03811162000d5f576040528a620009b3565b6040513d608051823e3d90fd5b60405163a9059cbb60e01b815233600482015261271060a43560843502046024820152608051602090829060449082906001600160a01b038e165af1908115620010275760805191620010cd575b506200096c5760405162461bcd60e51b815260206004820152601760248201527f63726561746f72207472616e73666572206661696c65640000000000000000006044820152606490fd5b620010f4915060203d602011620010fb575b620010eb818362001441565b81019062001463565b8c62001082565b503d620010df565b60405162461bcd60e51b81526020600482015260146024820152731c1bdbdb081d1c985b9cd9995c8819985a5b195960621b6044820152606490fd5b6200115c915060203d602011620010fb57620010eb818362001441565b8c62000954565b634e487b7160e01b6080515260116004526024608051fd5b60405162461bcd60e51b81526020600482015260136024820152720c2d8d8dec6c2e8d2dedc40e8dede40d0d2ced606b1b6044820152606490fd5b60405162461bcd60e51b815260206004820152600f60248201526e1cdd5c1c1b1e481c995c5d5a5c9959608a1b6044820152606490fd5b60405162461bcd60e51b815260206004820152600f60248201526e1cde5b589bdb081c995c5d5a5c9959608a1b6044820152606490fd5b60405162461bcd60e51b815260206004820152600d60248201526c1b985b59481c995c5d5a5c9959609a1b6044820152606490fd5b34620001a7576020366003190112620001a7576020906001600160a01b03806200128262001297565b16608051526009835260406080512054168152f35b600435906001600160a01b03821682036200068557565b9181601f8401121562000685578235916001600160401b0383116200068557602083818601950101116200068557565b919082519283825260005b8481106200130b575050826000602080949584010152601f8019910116010190565b602081830181015184830182015201620012e9565b90620013a662001393620013806200136d61014060018060a01b038088511687528060208901511660208801526040880151166040870152606087015190806060880152860190620012de565b60808601518582036080870152620012de565b60a085015184820360a0860152620012de565b60c084015183820360c0850152620012de565b9160e081015160e083015261010080820151908301526101208091015191015290565b908060209392818452848401376000828201840152601f01601f1916010190565b91908203918211620013f857565b634e487b7160e01b600052601160045260246000fd5b61014081019081106001600160401b038211176200142b57604052565b634e487b7160e01b600052604160045260246000fd5b90601f801991011681019081106001600160401b038211176200142b57604052565b908160209103126200068557518015158103620006855790565b600854811015620014b957600a906008600052027ff3f7a9fe364faab93b216da50a3214154f22a0a2b415b23a84c8169e8b636ee30190600090565b634e487b7160e01b600052603260045260246000fd5b90600182811c9216801562001501575b6020831014620014eb57565b634e487b7160e01b600052602260045260246000fd5b91607f1691620014df565b156200151457565b60405162461bcd60e51b815260206004820152600a60248201526937b7363c9037bbb732b960b11b6044820152606490fd5b6040519062001555826200140e565b8161012060009182815282602082015282604082015260608082015260606080820152606060a0820152606060c08201528260e0820152826101008201520152565b90604051918260008254620015ac81620014cf565b90818452602094600191600181169081600014620016245750600114620015e1575b505050620015df9250038362001441565b565b600090815285812095935091905b8183106200160b575050620015df9350820101388080620015ce565b85548884018501529485019487945091830191620015ef565b92505050620015df94925060ff191682840152151560051b820101388080620015ce565b9060405162001657816200140e565b6101206009829460018060a01b038082541685528060018301541660208601526002820154166040850152620016906003820162001597565b6060850152620016a36004820162001597565b6080850152620016b66005820162001597565b60a0850152620016c96006820162001597565b60c0850152600781015460e085015260088101546101008501520154910152565b6001600160401b0381116200142b5760051b60200190565b8051821015620014b95760209160051b010190565b600854929183821015620017f657810192838211620013f857808411620017ed575b50620017468184620013ea565b926200175284620016ea565b9362001762604051958662001441565b80855262001773601f1991620016ea565b0160005b818110620017d35750508360005b828410620017935750505050565b620017a262000375856200147d565b620017ae828462001702565b52620017bb818362001702565b506000198114620013f8576001938401930162001785565b602090620017e062001546565b8282890101520162001777565b92503862001739565b50509050604051602081018181106001600160401b038211176200142b57604052600081529056fe61010034620003a757601f62001d5138819003918201601f191683019291906001600160401b03841183851017620003ac57816101209284926040968752833981010312620003a7576200005381620003c2565b60209062000063828401620003c2565b9162000071858501620003c2565b926060850151608086015160a08701519160c088015193620000a56101006200009d60e08c01620003c2565b9a01620003c2565b6001600160a01b0398909790898216156200037257898316156200033b578916998a15620002f75761012c8411620002c4578415620002805785156200023c578615620002065789169687620001bb575b5060a05260805260018060a01b03199788600054161760005560015560c05260e05260045583600554161760055516906006541617600655516119799081620003d882396080518181816107180152818161079a0152818161095d0152610cb1015260a051818181610156015281816102ed0152818161053a015281816107f70152611383015260c051818181610ab901528181610f460152818161182a01526118c0015260e051818181610c3801528181610f130152818161185f01526118f10152f35b898916620000f6576064908c519062461bcd60e51b82526004820152601560248201527f6c7020726563697069656e7420726571756972656400000000000000000000006044820152fd5b8b5162461bcd60e51b815260048101899052600f60248201526e1d185c99d95d081c995c5d5a5c9959608a1b6044820152606490fd5b8b5162461bcd60e51b815260048101899052601660248201527f7669727475616c20746f6b656e207265717569726564000000000000000000006044820152606490fd5b8b5162461bcd60e51b815260048101899052601460248201527f7669727475616c206574682072657175697265640000000000000000000000006044820152606490fd5b8b5162461bcd60e51b815260048101899052600c60248201526b0cccaca40e8dede40d0d2ced60a31b6044820152606490fd5b8b5162461bcd60e51b815260048101899052601660248201527f66656520726563697069656e74207265717569726564000000000000000000006044820152606490fd5b8b5162461bcd60e51b815260048101899052601060248201526f199858dd1bdc9e481c995c5d5a5c995960821b6044820152606490fd5b8b5162461bcd60e51b815260048101899052600e60248201526d1d1bdad95b881c995c5d5a5c995960921b6044820152606490fd5b600080fd5b634e487b7160e01b600052604160045260246000fd5b51906001600160a01b0382168203620003a75756fe608060408181526004918236101561001657600080fd5b600092833560e01c9182630758d92414610df9575081631ad15bbc14610dd057816324a9d85314610db15781632760eca114610d945781632a2c697214610c82578163334041a614610c5b578163343ee3b714610c20578163398482d814610bfc5781634329742d14610b4c578163452e68dd14610b235781634690484014610afb5781634beb394c14610adc57816352b86d2b14610aa15781637f544e4914610a825781638c575aa3146109205781639556483714610772578163a64190c414610747578163c45a015514610703578163cbcb3171146106e4578163d62ccb3f146106c5578163d79875eb14610458578163d96a094a146101ef578163e1a45218146101d2578163e7c2b772146101ab578163f95a02d014610189575063fc0c546a1461014357600080fd5b34610185578160031936011261018557517f00000000000000000000000000000000000000000000000000000000000000006001600160a01b03168152602090f35b5080fd5b9050346101a757826003193601126101a75760209250549051908152f35b8280fd5b50503461018557816003193601126101855760209060ff60065460a81c1690519015158152f35b505034610185578160031936011261018557602090516127108152f35b91905060209283600319360112610455576006549061021460ff8360b01c1615610f92565b60ff60b01b19918216600160b01b1760068190556102489060ff9061023e60a082901c8316610fcb565b60a81c1615611193565b34156104235761271061025d60015434610e39565b04906102698234611049565b946102738661181c565b9561027f8715156111cb565b61028c823588101561120d565b600354908188116103e7576102e8926102b6898b946102ae8295600254610efe565b600255611049565b600355856103c0575b875163a9059cbb60e01b8152339181019182526020820192909252909283918291604090910190565b0381857f00000000000000000000000000000000000000000000000000000000000000006001600160a01b03165af19182156103b5579061032e92610388575b5061125c565b7fbeae048c6d270d9469f86cf6e8fedda3c60ad770f16c24c9fc131c8e9a09101d83518061037087339534846040919493926060820195825260208201520152565b0390a261037b611921565b6006541660065551908152f35b6103a89150873d89116103ae575b6103a081836110fd565b810190611244565b38610328565b503d610396565b8551903d90823e3d90fd5b6103e2858080808a60018060a01b038254165af16103dc6112a0565b506112e0565b6102bf565b865162461bcd60e51b81528084018a90526016602482015275696e73756666696369656e74206c697175696469747960501b6044820152606490fd5b825162461bcd60e51b8152808501869052600c60248201526b195d1a081c995c5d5a5c995960a21b6044820152606490fd5b80fd5b919050346101a757806003193601126101a75781356006549061048160ff8360b01c1615610f92565b60ff60b01b19918216600160b01b1760068190556104ab9060ff9061023e60a082901c8316610fcb565b6104b68115156110b9565b6104bf816118b4565b946104cb8615156111cb565b6002548611610682576127106104e360015488610e39565b04956104ef8782611049565b956104fe60243588101561120d565b85516323b872dd60e01b81523382820190815230602082810191909152604082018790526001600160a01b0394929182908190606001038188887f0000000000000000000000000000000000000000000000000000000000000000165af19081156106785761058f929161057891879161065f575061125c565b61058486600354610efe565b600355600254611049565b600255828080808a335af16105a26112a0565b5015610626575086807f846c37eef631e0943682d87352ec117c20008eb7f425c9b85ac011a6d4774cc0936105f99360209a610609575b505086519485525060208401879052604084015233929081906060820190565b0390a26006541660065551908152f35b818061061e9481938254165af16103dc6112a0565b8038806105d9565b606490602087519162461bcd60e51b83528201526013602482015272195d1a081d1c985b9cd9995c8819985a5b1959606a1b6044820152fd5b6103a8915060203d6020116103ae576103a081836110fd565b88513d87823e3d90fd5b835162461bcd60e51b8152602081870152601860248201527f696e73756666696369656e7420657468207265736572766500000000000000006044820152606490fd5b5050346101855781600319360112610185576020906002549051908152f35b5050346101855781600319360112610185576020906003549051908152f35b505034610185578160031936011261018557517f00000000000000000000000000000000000000000000000000000000000000006001600160a01b03168152602090f35b9050823461045557602036600319011261045557506107669035611135565b82519182526020820152f35b8391503461018557602090816003193601126101a7578035906001600160a01b03906107c1337f0000000000000000000000000000000000000000000000000000000000000000841614610ec3565b6006549160ff8360a01c166108ec57846024916107df8615156110b9565b88516370a0823160e01b8152308582015292839182907f0000000000000000000000000000000000000000000000000000000000000000165afa9081156108e25790849187916108ad575b5010610874575060ff60a01b1916600160a01b176006556003819055925192835290917fa71ed34ff06af8d6865a8f541aae52d72fa89f0e5ee15f01d48fa6c62c8569149190a180f35b855162461bcd60e51b81529081018490526013602482015272696e73756666696369656e7420746f6b656e7360681b6044820152606490fd5b809250868092503d83116108db575b6108c681836110fd565b810103126108d7578390518861082a565b8580fd5b503d6108bc565b87513d88823e3d90fd5b865162461bcd60e51b8152808301869052600e60248201526d185b1c9958591e481cd95959195960921b6044820152606490fd5b839150346101855760603660031901126101855761093c610e1e565b602435916001600160a01b03908184168085036108d75760443592610984817f0000000000000000000000000000000000000000000000000000000000000000163314610ec3565b6006549061099860ff8360a81c1615611009565b8415610a4d5785169081610a0d575b600580546001600160a01b0319908116939093179055161760065581905593516001600160a01b039182168152911660208201526040810192909252907fbcdc4bff84f936019028a7bcbef6b449550d6334606377b822720e57e94276c490606090a180f35b826109a757885162461bcd60e51b815260208186015260156024820152741b1c081c9958da5c1a595b9d081c995c5d5a5c9959605a1b6044820152606490fd5b885162461bcd60e51b8152602081860152600f60248201526e1d185c99d95d081c995c5d5a5c9959608a1b6044820152606490fd5b5050346101855781600319360112610185576020906008549051908152f35b505034610185578160031936011261018557602090517f00000000000000000000000000000000000000000000000000000000000000008152f35b9050823461045557602036600319011261045557506107669035611056565b505034610185578160031936011261018557905490516001600160a01b039091168152602090f35b50503461018557816003193601126101855760065490516001600160a01b039091168152602090f35b9050346101a757826003193601126101a75760065491610b7260ff8460b01c1615610f92565b60ff60b01b19928316600160b01b176006819055610ba69060ff90610b9c60a082901c8316610fcb565b60a81c1615611009565b600254825411610bc4575050610bba611341565b6006541660065580f35b906020606492519162461bcd60e51b835282015260126024820152711d185c99d95d081b9bdd081c995858da195960721b6044820152fd5b505034610185578160031936011261018557602090610c19610f0b565b9051908152f35b505034610185578160031936011261018557602090517f00000000000000000000000000000000000000000000000000000000000000008152f35b50503461018557816003193601126101855760209060ff60065460a01c1690519015158152f35b919050346101a757806003193601126101a757610c9d610e1e565b60243591906001600160a01b0390610cd8337f0000000000000000000000000000000000000000000000000000000000000000841614610ec3565b16928315610d5d5761012c8311610d2c575083546001600160a01b031916831784556001829055519081527fe42708d93b95810922305119a3271ca42233da9ebe1e1e503f0e887817a32c7a90602090a280f35b6020606492519162461bcd60e51b8352820152600c60248201526b0cccaca40e8dede40d0d2ced60a31b6044820152fd5b6020606492519162461bcd60e51b835282015260126024820152711c9958da5c1a595b9d081c995c5d5a5c995960721b6044820152fd5b505034610185578160031936011261018557602090610c19610e82565b5050346101855781600319360112610185576020906001549051908152f35b50503461018557816003193601126101855760075490516001600160a01b039091168152602090f35b8490346101855781600319360112610185576005546001600160a01b03168152602090f35b600435906001600160a01b0382168203610e3457565b600080fd5b81810292918115918404141715610e4c57565b634e487b7160e01b600052601160045260246000fd5b8115610e6c570490565b634e487b7160e01b600052601260045260246000fd5b6004548015610ebd576002546127109182820291808304841490151715610e4c57610eac91610e62565b90808211610eb8575090565b905090565b50600090565b15610eca57565b60405162461bcd60e51b815260206004820152600c60248201526b6f6e6c7920666163746f727960a01b6044820152606490fd5b91908201809211610e4c57565b610f386003547f000000000000000000000000000000000000000000000000000000000000000090610efe565b8015610ebd57610f6b6002547f000000000000000000000000000000000000000000000000000000000000000090610efe565b90670de0b6b3a764000091828102928184041490151715610e4c57610f8f91610e62565b90565b15610f9957565b60405162461bcd60e51b815260206004820152600a6024820152697265656e7472616e637960b01b6044820152606490fd5b15610fd257565b60405162461bcd60e51b815260206004820152600f60248201526e1c1bdbdb081b9bdd081cd959591959608a1b6044820152606490fd5b1561101057565b60405162461bcd60e51b8152602060048201526011602482015270185b1c9958591e4819dc98591d585d1959607a1b6044820152606490fd5b91908203918211610e4c57565b60065460ff8160a01c16159081156110ab575b5080156110a3575b61109a5761109761109261271061108a60015485610e39565b048093611049565b61181c565b91565b50600090600090565b508015611071565b60ff915060a81c1638611069565b156110c057565b60405162461bcd60e51b81526020600482015260156024820152741d1bdad95b88185b5bdd5b9d081c995c5d5a5c9959605a1b6044820152606490fd5b90601f8019910116810190811067ffffffffffffffff82111761111f57604052565b634e487b7160e01b600052604160045260246000fd5b60065460ff8160a01c1615908115611185575b50801561117d575b61109a5761115d906118b4565b801561109a5761109761271061117560015484610e39565b048092611049565b508015611150565b60ff915060a81c1638611148565b1561119a57565b60405162461bcd60e51b815260206004820152600960248201526819dc98591d585d195960ba1b6044820152606490fd5b156111d257565b60405162461bcd60e51b81526020600482015260136024820152721a5b9cdd59999a58da595b9d081bdd5d1c1d5d606a1b6044820152606490fd5b1561121457565b60405162461bcd60e51b8152602060048201526008602482015267736c69707061676560c01b6044820152606490fd5b90816020910312610e3457518015158103610e345790565b1561126357565b60405162461bcd60e51b81526020600482015260156024820152741d1bdad95b881d1c985b9cd9995c8819985a5b1959605a1b6044820152606490fd5b3d156112db573d9067ffffffffffffffff821161111f57604051916112cf601f8201601f1916602001846110fd565b82523d6000602084013e565b606090565b156112e757565b60405162461bcd60e51b8152602060048201526013602482015272199959481d1c985b9cd9995c8819985a5b1959606a1b6044820152606490fd5b90816020910312610e3457516001600160a01b0381168103610e345790565b6005546001600160a01b039081169081156117e257600160a81b60ff60a81b1960065416176006554260085560035491600254906000928360035583600255807f0000000000000000000000000000000000000000000000000000000000000000169360409283518263095ea7b360e01b80835260049384840152602492828482015289816044816020998a945af180156117d8579186918c936117bb575b50600554895191825288166001600160a01b0316868201908152602081019390935291829081906040010381858d5af180156117815761179e575b50846005541694806006541695610e10420180421161178b5760c48b8b6060948f948d519c8d96879563f305d71960e01b87528d8701528b860152896044860152896064860152608485015260a48401525af19788156117815782998397849a61173d575b50600554895163c45a015560e01b815290841688828981845afa918215611714578892918a91889361171e575b508c516315ab88c960e31b815293849182905afa918215611714578389878e95948d948b966116ee575b508160449495969751978896879563e6a4390560e01b8752860152168c840152165afa9081156116e457918489928e9488916116b7575b50169d8e6bffffffffffffffffffffffff60a01b60075416176007558381116115e6575b5050505086811161157c575b505085519788525050508401528201524260608201527f71aa8c3702dbbc54247a4e6446450e64a46250dd72707a247ddb01d72eaef44590608090a2565b82809261158a898394611049565b908254165af16115986112a0565b50156115a65780808061153e565b60189060649386519362461bcd60e51b85528401528201527f6574682064757374207472616e73666572206661696c656400000000000000006044820152fd5b61162d936115f391611049565b86548c5163a9059cbb60e01b81529087166001600160a01b03168a8201908152602081019290925293849291839189918391604090910190565b03925af19081156116ad578491611690575b501561164e5789863880611532565b875162461bcd60e51b8152808601879052601a818601527f746f6b656e2064757374207472616e73666572206661696c65640000000000006044820152606490fd5b6116a79150873d89116103ae576103a081836110fd565b3861163f565b89513d86823e3d90fd5b6116d79150843d86116116dd575b6116cf81836110fd565b810190611322565b3861150e565b503d6116c5565b8a513d87823e3d90fd5b85965061170b8391604496973d8a116116dd576116cf81836110fd565b969594506114d7565b8b513d88823e3d90fd5b611736919350823d84116116dd576116cf81836110fd565b91386114ad565b9a50985095506060893d606011611779575b8161175c606093836110fd565b810103126101855788519587868b01519a01519699969838611480565b3d915061174f565b87513d84823e3d90fd5b5050634e487b7160e01b82525060118352fd5b6117b490853d87116103ae576103a081836110fd565b503861141b565b6117d190833d85116103ae576103a081836110fd565b50386113e0565b88513d85823e3d90fd5b60405162461bcd60e51b815260206004820152601260248201527119195e081c9bdd5d195c881b9bdd081cd95d60721b6044820152606490fd5b8015610ebd5761184f6002547f000000000000000000000000000000000000000000000000000000000000000090610efe565b9061189b600354926118956118847f000000000000000000000000000000000000000000000000000000000000000086610efe565b9361188f8584610e39565b92610efe565b90610e62565b808211156118ac57610eac91611049565b505050600090565b6002549061189b6118e57f000000000000000000000000000000000000000000000000000000000000000084610efe565b916118956119166003547f000000000000000000000000000000000000000000000000000000000000000090610efe565b9161188f8386610e39565b60ff60065460a81c16611941576002546004541161194157611941611341565b56fea26469706673582212204e98e89a8ccac5297c9186e96e71fc7976b42d7f24f8a97a47537544551298dd64736f6c6343000818003360406080815234620004685762000c0790813803806200001f816200046d565b9384398201608083820312620004685782516001600160401b03908181116200046857826200005091860162000493565b91602090818601519083821162000468576200006e91870162000493565b946060858201519101519360018060a01b03851680950362000468578051156200043457865115620003fe578115620003c85784156200038f5780519380851162000379576000948554906001938483811c931680156200036e575b878410146200035a578190601f9384811162000307575b508790848311600114620002a357899262000297575b5050600019600383901b1c191690841b1786555b8851918211620002835782548381811c9116801562000278575b8682101462000264578181116200021c575b5084908211600114620001a65781908697989960008051602062000be783398151915297926200019a575b5050600019600383901b1c191690821b1790555b806002558484526003825280868520558551908152a3516106e19081620005068239f35b01519050388062000162565b82865284862098601f198316875b8181106200020657509160008051602062000be78339815191529798999a918486959410620001ec575b505050811b01905562000176565b015160001960f88460031b161c19169055388080620001de565b838301518c559a85019a928701928701620001b4565b8387528587208280850160051c8201928886106200025a575b0160051c019084905b8281106200024e57505062000137565b8881550184906200023e565b9250819262000235565b634e487b7160e01b87526022600452602487fd5b90607f169062000125565b634e487b7160e01b86526041600452602486fd5b015190503880620000f7565b898052888a208794509190601f1984168b5b8b828210620002f05750508411620002d6575b505050811b0186556200010b565b015160001960f88460031b161c19169055388080620002c8565b8385015186558a97909501949384019301620002b5565b9091508880528789208480850160051c8201928a861062000350575b918891869594930160051c01915b82811062000341575050620000e1565b8b815585945088910162000331565b9250819262000323565b634e487b7160e01b88526022600452602488fd5b92607f1692620000ca565b634e487b7160e01b600052604160045260246000fd5b855162461bcd60e51b81526004810184905260126024820152711c9958da5c1a595b9d081c995c5d5a5c995960721b6044820152606490fd5b855162461bcd60e51b815260048101849052600f60248201526e1cdd5c1c1b1e481c995c5d5a5c9959608a1b6044820152606490fd5b855162461bcd60e51b815260048101849052600f60248201526e1cde5b589bdb081c995c5d5a5c9959608a1b6044820152606490fd5b855162461bcd60e51b815260048101849052600d60248201526c1b985b59481c995c5d5a5c9959609a1b6044820152606490fd5b600080fd5b6040519190601f01601f191682016001600160401b038111838210176200037957604052565b919080601f84011215620004685782516001600160401b0381116200037957602090620004c9601f8201601f191683016200046d565b92818452828287010111620004685760005b818110620004f157508260009394955001015290565b8581018301518482018401528201620004db56fe6080604081815260048036101561001557600080fd5b600092833560e01c90816306fdde031461041357508063095ea7b3146103a557806318160ddd1461038657806323b872dd1461027e578063313ce5671461026257806370a082311461022a57806395d89b4114610106578063a9059cbb146100d15763dd62ed3e1461008657600080fd5b346100cd57816003193601126100cd5760209282916100a3610551565b6100ab61056c565b6001600160a01b03918216845291865283832091168252845220549051908152f35b8280fd5b5050346101025780600319360112610102576020906100fb6100f1610551565b60243590336105a5565b5160018152f35b5080fd5b509190346101025781600319360112610102578051908260018054908160011c9060018316928315610220575b602093848410811461020d578388529081156101f1575060011461019b575b505050829003601f01601f191682019267ffffffffffffffff8411838510176101885750829182610184925282610508565b0390f35b634e487b7160e01b815260418552602490fd5b600187529192508591837fb10e2d527612073b26eecdfd717e6a320cf44b4afac2b0732d9fcbe2b7fa0cf65b8385106101dd5750505050830101388080610152565b8054888601830152930192849082016101c7565b60ff1916878501525050151560051b8401019050388080610152565b634e487b7160e01b895260228a52602489fd5b91607f1691610133565b5050346101025760203660031901126101025760209181906001600160a01b03610252610551565b1681526003845220549051908152f35b5050346101025781600319360112610102576020905160128152f35b509190346101025760603660031901126101025761029a610551565b6102a261056c565b6001600160a01b0382168085526020868152848620338752815284862054909560443594929185811061034e57908697986100fb97928760001982036102ee575b5050505050506105a5565b6102f791610582565b848352818b528383203384528b52838320558382528952818120338252895220549086519182527f8c5be1e5ebec7d5bd14f71427d1e84f3dd0314c0f7b2291e5b200ac8c7c3b925883393a33885818080876102e3565b865162461bcd60e51b8152808a018990526012602482015271185b1b1bddd85b98d948195e18d95959195960721b6044820152606490fd5b5050346101025781600319360112610102576020906002549051908152f35b50346100cd57816003193601126100cd576020926103c1610551565b918360243592839233825287528181209460018060a01b0316948582528752205582519081527f8c5be1e5ebec7d5bd14f71427d1e84f3dd0314c0f7b2291e5b200ac8c7c3b925843392a35160018152f35b84915083346100cd57826003193601126100cd5782835460018160011c90600183169283156104fe575b602093848410811461020d578388529081156104e2575060011461048d57505050829003601f01601f191682019267ffffffffffffffff8411838510176101885750829182610184925282610508565b8680529192508591837f290decd9548b62a8d60345a988386fc84ba6bc95484008f6362f93160ef3e5635b8385106104ce5750505050830101858080610152565b8054888601830152930192849082016104b8565b60ff1916878501525050151560051b8401019050858080610152565b91607f169161043d565b6020808252825181830181905290939260005b82811061053d57505060409293506000838284010152601f8019910116010190565b81810186015184820160400152850161051b565b600435906001600160a01b038216820361056757565b600080fd5b602435906001600160a01b038216820361056757565b9190820391821161058f57565b634e487b7160e01b600052601160045260246000fd5b6001600160a01b03918216929190831561067757169060008281526003602052604081205482811061064057826105db91610582565b838252600360205260408220558381526040812080549183830180931161062c5750556040519081527fddf252ad1be2c89b69c2b068fc378daa952ba7f163c4a11628f55a4df523b3ef90602090a3565b634e487b7160e01b81526011600452602490fd5b60405162461bcd60e51b815260206004820152600f60248201526e62616c616e636520746f6f206c6f7760881b6044820152606490fd5b60405162461bcd60e51b815260206004820152600c60248201526b7a65726f206164647265737360a01b6044820152606490fdfea2646970667358221220de53d5973198d62e7b7ebc5b3eec270ae1283ed38e6261d437d7beb5074caf7f64736f6c63430008180033ddf252ad1be2c89b69c2b068fc378daa952ba7f163c4a11628f55a4df523b3efa26469706673582212207e2e81d673b3f8e3b08ab98f126384c7bbd98f22f7f3914c3b6323d1966ed11264736f6c63430008180033","opcodes":"PUSH1 0x80 CALLVALUE PUSH3 0x28C JUMPI PUSH1 0x1F PUSH3 0x4469 CODESIZE DUP2 SWAP1 SUB SWAP2 DUP3 ADD PUSH1 0x1F NOT AND DUP4 ADD SWAP3 SWAP2 SWAP1 PUSH1 0x1 PUSH1 0x1 PUSH1 0x40 SHL SUB DUP5 GT DUP4 DUP6 LT OR PUSH3 0x291 JUMPI DUP2 PUSH1 0xE0 SWAP3 DUP5 SWAP3 PUSH1 0x40 SWAP7 DUP8 MSTORE DUP4 CODECOPY DUP2 ADD SUB SLT PUSH3 0x28C JUMPI PUSH3 0x51 DUP2 PUSH3 0x2A7 JUMP JUMPDEST PUSH1 0x20 DUP1 DUP4 ADD MLOAD SWAP1 DUP5 DUP5 ADD MLOAD PUSH1 0x60 DUP6 ADD MLOAD PUSH1 0x80 DUP7 ADD MLOAD SWAP2 PUSH3 0x83 PUSH1 0xC0 PUSH3 0x7B PUSH1 0xA0 DUP11 ADD PUSH3 0x2A7 JUMP JUMPDEST SWAP9 ADD PUSH3 0x2A7 JUMP JUMPDEST PUSH1 0x1 PUSH1 0x1 PUSH1 0xA0 SHL SUB SWAP7 DUP8 AND SWAP8 SWAP1 SWAP6 SWAP1 DUP9 ISZERO PUSH3 0x248 JUMPI PUSH2 0x12C DUP3 GT PUSH3 0x215 JUMPI DUP3 ISZERO PUSH3 0x1D1 JUMPI DUP4 ISZERO PUSH3 0x18D JUMPI DUP5 ISZERO PUSH3 0x157 JUMPI DUP8 AND SWAP5 DUP6 PUSH3 0x10C JUMPI JUMPDEST POP PUSH1 0x1 DUP1 PUSH1 0xA0 SHL SUB NOT SWAP8 CALLER DUP10 PUSH1 0x0 SLOAD AND OR PUSH1 0x0 SSTORE DUP9 PUSH1 0x1 SLOAD AND OR PUSH1 0x1 SSTORE PUSH1 0x2 SSTORE PUSH1 0x3 SSTORE PUSH1 0x4 SSTORE PUSH1 0x5 SSTORE DUP4 PUSH1 0x6 SLOAD AND OR PUSH1 0x6 SSTORE AND SWAP1 PUSH1 0x7 SLOAD AND OR PUSH1 0x7 SSTORE MLOAD PUSH2 0x41AC SWAP1 DUP2 PUSH3 0x2BD DUP3 CODECOPY RETURN JUMPDEST DUP8 DUP8 AND PUSH3 0xC2 JUMPI PUSH1 0x64 SWAP1 DUP11 MLOAD SWAP1 PUSH3 0x461BCD PUSH1 0xE5 SHL DUP3 MSTORE PUSH1 0x4 DUP3 ADD MSTORE PUSH1 0x15 PUSH1 0x24 DUP3 ADD MSTORE PUSH32 0x6C7020726563697069656E742072657175697265640000000000000000000000 PUSH1 0x44 DUP3 ADD MSTORE REVERT JUMPDEST DUP10 MLOAD PUSH3 0x461BCD PUSH1 0xE5 SHL DUP2 MSTORE PUSH1 0x4 DUP2 ADD DUP8 SWAP1 MSTORE PUSH1 0xF PUSH1 0x24 DUP3 ADD MSTORE PUSH15 0x1D185C99D95D081C995C5D5A5C9959 PUSH1 0x8A SHL PUSH1 0x44 DUP3 ADD MSTORE PUSH1 0x64 SWAP1 REVERT JUMPDEST DUP10 MLOAD PUSH3 0x461BCD PUSH1 0xE5 SHL DUP2 MSTORE PUSH1 0x4 DUP2 ADD DUP8 SWAP1 MSTORE PUSH1 0x16 PUSH1 0x24 DUP3 ADD MSTORE PUSH32 0x7669727475616C20746F6B656E20726571756972656400000000000000000000 PUSH1 0x44 DUP3 ADD MSTORE PUSH1 0x64 SWAP1 REVERT JUMPDEST DUP10 MLOAD PUSH3 0x461BCD PUSH1 0xE5 SHL DUP2 MSTORE PUSH1 0x4 DUP2 ADD DUP8 SWAP1 MSTORE PUSH1 0x14 PUSH1 0x24 DUP3 ADD MSTORE PUSH32 0x7669727475616C20657468207265717569726564000000000000000000000000 PUSH1 0x44 DUP3 ADD MSTORE PUSH1 0x64 SWAP1 REVERT JUMPDEST DUP10 MLOAD PUSH3 0x461BCD PUSH1 0xE5 SHL DUP2 MSTORE PUSH1 0x4 DUP2 ADD DUP8 SWAP1 MSTORE PUSH1 0xC PUSH1 0x24 DUP3 ADD MSTORE PUSH12 0xCCCACA40E8DEDE40D0D2CED PUSH1 0xA3 SHL PUSH1 0x44 DUP3 ADD MSTORE PUSH1 0x64 SWAP1 REVERT JUMPDEST DUP10 MLOAD PUSH3 0x461BCD PUSH1 0xE5 SHL DUP2 MSTORE PUSH1 0x4 DUP2 ADD DUP8 SWAP1 MSTORE PUSH1 0x16 PUSH1 0x24 DUP3 ADD MSTORE PUSH32 0x66656520726563697069656E7420726571756972656400000000000000000000 PUSH1 0x44 DUP3 ADD MSTORE PUSH1 0x64 SWAP1 REVERT JUMPDEST PUSH1 0x0 DUP1 REVERT JUMPDEST PUSH4 0x4E487B71 PUSH1 0xE0 SHL PUSH1 0x0 MSTORE PUSH1 0x41 PUSH1 0x4 MSTORE PUSH1 0x24 PUSH1 0x0 REVERT JUMPDEST MLOAD SWAP1 PUSH1 0x1 PUSH1 0x1 PUSH1 0xA0 SHL SUB DUP3 AND DUP3 SUB PUSH3 0x28C JUMPI JUMP INVALID PUSH1 0xA0 DUP1 PUSH1 0x40 MSTORE PUSH1 0x4 CALLDATASIZE LT ISZERO PUSH3 0x14 JUMPI PUSH1 0x0 DUP1 REVERT JUMPDEST PUSH1 0x0 PUSH1 0x80 MSTORE PUSH1 0x80 MLOAD CALLDATALOAD PUSH1 0xE0 SHR SWAP1 DUP2 PUSH4 0xB0420BB EQ PUSH3 0x1259 JUMPI POP DUP1 PUSH4 0x1036338C EQ PUSH3 0x6D7 JUMPI DUP1 PUSH4 0x13ED4AA6 EQ PUSH3 0x6AB JUMPI DUP1 PUSH4 0x1C8C0D92 EQ PUSH3 0x68A JUMPI DUP1 PUSH4 0x2CA08D1A EQ PUSH3 0x3FA JUMPI DUP1 PUSH4 0x46904840 EQ PUSH3 0x3CE JUMPI DUP1 PUSH4 0x5930D3CE EQ PUSH3 0x336 JUMPI DUP1 PUSH4 0x63F0EB04 EQ PUSH3 0x315 JUMPI DUP1 PUSH4 0x8DA5CB5B EQ PUSH3 0x2E8 JUMPI DUP1 PUSH4 0x93A8E04D EQ PUSH3 0x2C7 JUMPI DUP1 PUSH4 0x9B3B9F98 EQ PUSH3 0x23B JUMPI DUP1 PUSH4 0x9FF0251F EQ PUSH3 0x21A JUMPI DUP1 PUSH4 0xBCAE25A4 EQ PUSH3 0x1F9 JUMPI DUP1 PUSH4 0xD578192C EQ PUSH3 0x1CD JUMPI DUP1 PUSH4 0xE1A45218 EQ PUSH3 0x1AD JUMPI PUSH4 0xF2FDE38B EQ PUSH3 0xE6 JUMPI PUSH1 0x0 DUP1 REVERT JUMPDEST CALLVALUE PUSH3 0x1A7 JUMPI PUSH1 0x20 CALLDATASIZE PUSH1 0x3 NOT ADD SLT PUSH3 0x1A7 JUMPI PUSH3 0x103 PUSH3 0x1297 JUMP JUMPDEST PUSH1 0x80 MLOAD SLOAD PUSH1 0x1 PUSH1 0x1 PUSH1 0xA0 SHL SUB DUP1 DUP3 AND SWAP3 PUSH3 0x120 CALLER DUP6 EQ PUSH3 0x150C JUMP JUMPDEST AND SWAP2 DUP3 ISZERO PUSH3 0x171 JUMPI DUP3 SWAP1 PUSH32 0x8BE0079C531659141344CD1FD0A4F28419497F9722A3DAAFE3B4186F6B6457E0 PUSH1 0x80 MLOAD PUSH1 0x80 MLOAD LOG3 PUSH12 0xFFFFFFFFFFFFFFFFFFFFFFFF PUSH1 0xA0 SHL AND OR PUSH1 0x80 MLOAD SSTORE PUSH1 0x80 MLOAD PUSH1 0x80 MLOAD RETURN JUMPDEST PUSH1 0x40 MLOAD PUSH3 0x461BCD PUSH1 0xE5 SHL DUP2 MSTORE PUSH1 0x20 PUSH1 0x4 DUP3 ADD MSTORE PUSH1 0xE PUSH1 0x24 DUP3 ADD MSTORE PUSH14 0x1BDDDB995C881C995C5D5A5C9959 PUSH1 0x92 SHL PUSH1 0x44 DUP3 ADD MSTORE PUSH1 0x64 SWAP1 REVERT JUMPDEST PUSH1 0x80 MLOAD DUP1 REVERT JUMPDEST CALLVALUE PUSH3 0x1A7 JUMPI PUSH1 0x80 MLOAD CALLDATASIZE PUSH1 0x3 NOT ADD SLT PUSH3 0x1A7 JUMPI PUSH1 0x20 PUSH1 0x40 MLOAD PUSH2 0x2710 DUP2 MSTORE RETURN JUMPDEST CALLVALUE PUSH3 0x1A7 JUMPI PUSH1 0x80 MLOAD CALLDATASIZE PUSH1 0x3 NOT ADD SLT PUSH3 0x1A7 JUMPI PUSH1 0x6 SLOAD PUSH1 0x40 MLOAD PUSH1 0x1 PUSH1 0x1 PUSH1 0xA0 SHL SUB SWAP1 SWAP2 AND DUP2 MSTORE PUSH1 0x20 SWAP1 RETURN JUMPDEST CALLVALUE PUSH3 0x1A7 JUMPI PUSH1 0x80 MLOAD CALLDATASIZE PUSH1 0x3 NOT ADD SLT PUSH3 0x1A7 JUMPI PUSH1 0x20 PUSH1 0x2 SLOAD PUSH1 0x40 MLOAD SWAP1 DUP2 MSTORE RETURN JUMPDEST CALLVALUE PUSH3 0x1A7 JUMPI PUSH1 0x80 MLOAD CALLDATASIZE PUSH1 0x3 NOT ADD SLT PUSH3 0x1A7 JUMPI PUSH1 0x20 PUSH1 0x8 SLOAD PUSH1 0x40 MLOAD SWAP1 DUP2 MSTORE RETURN JUMPDEST CALLVALUE PUSH3 0x1A7 JUMPI PUSH1 0x40 CALLDATASIZE PUSH1 0x3 NOT ADD SLT PUSH3 0x1A7 JUMPI PUSH3 0x25E PUSH1 0x24 CALLDATALOAD PUSH1 0x4 CALLDATALOAD PUSH3 0x1717 JUMP JUMPDEST PUSH1 0x40 MLOAD PUSH1 0x20 SWAP2 PUSH1 0x20 DUP3 ADD SWAP3 PUSH1 0x20 DUP4 MSTORE DUP2 MLOAD DUP1 SWAP5 MSTORE PUSH1 0x40 DUP4 ADD SWAP4 PUSH1 0x20 PUSH1 0x40 DUP3 PUSH1 0x5 SHL DUP7 ADD ADD SWAP4 ADD SWAP2 PUSH1 0x80 MLOAD SWAP6 JUMPDEST DUP3 DUP8 LT PUSH3 0x298 JUMPI DUP6 DUP6 SUB DUP7 RETURN JUMPDEST SWAP1 SWAP2 SWAP3 SWAP4 DUP3 DUP1 PUSH3 0x2B6 PUSH1 0x1 SWAP4 PUSH1 0x3F NOT DUP11 DUP3 SUB ADD DUP7 MSTORE DUP9 MLOAD PUSH3 0x1320 JUMP JUMPDEST SWAP7 ADD SWAP3 ADD SWAP7 ADD SWAP6 SWAP3 SWAP2 SWAP1 SWAP3 PUSH3 0x28A JUMP JUMPDEST CALLVALUE PUSH3 0x1A7 JUMPI PUSH1 0x80 MLOAD CALLDATASIZE PUSH1 0x3 NOT ADD SLT PUSH3 0x1A7 JUMPI PUSH1 0x20 PUSH1 0x4 SLOAD PUSH1 0x40 MLOAD SWAP1 DUP2 MSTORE RETURN JUMPDEST CALLVALUE PUSH3 0x1A7 JUMPI PUSH1 0x80 MLOAD CALLDATASIZE PUSH1 0x3 NOT ADD SLT PUSH3 0x1A7 JUMPI PUSH1 0x80 MLOAD SLOAD PUSH1 0x40 MLOAD PUSH1 0x1 PUSH1 0x1 PUSH1 0xA0 SHL SUB SWAP1 SWAP2 AND DUP2 MSTORE PUSH1 0x20 SWAP1 RETURN JUMPDEST CALLVALUE PUSH3 0x1A7 JUMPI PUSH1 0x80 MLOAD CALLDATASIZE PUSH1 0x3 NOT ADD SLT PUSH3 0x1A7 JUMPI PUSH1 0x20 PUSH1 0x5 SLOAD PUSH1 0x40 MLOAD SWAP1 DUP2 MSTORE RETURN JUMPDEST CALLVALUE PUSH3 0x1A7 JUMPI PUSH1 0x20 CALLDATASIZE PUSH1 0x3 NOT ADD SLT PUSH3 0x1A7 JUMPI PUSH1 0x4 CALLDATALOAD PUSH3 0x356 PUSH3 0x1546 JUMP JUMPDEST POP PUSH1 0x8 SLOAD DUP2 LT ISZERO PUSH3 0x395 JUMPI PUSH3 0x37C PUSH3 0x375 PUSH3 0x391 SWAP3 PUSH3 0x147D JUMP JUMPDEST POP PUSH3 0x1648 JUMP JUMPDEST PUSH1 0x40 MLOAD SWAP2 DUP3 SWAP2 PUSH1 0x20 DUP4 MSTORE PUSH1 0x20 DUP4 ADD SWAP1 PUSH3 0x1320 JUMP JUMPDEST SUB SWAP1 RETURN JUMPDEST PUSH1 0x40 MLOAD PUSH3 0x461BCD PUSH1 0xE5 SHL DUP2 MSTORE PUSH1 0x20 PUSH1 0x4 DUP3 ADD MSTORE PUSH1 0x11 PUSH1 0x24 DUP3 ADD MSTORE PUSH17 0x1A5B9D985B1A59081B185D5B98DA081A59 PUSH1 0x7A SHL PUSH1 0x44 DUP3 ADD MSTORE PUSH1 0x64 SWAP1 REVERT JUMPDEST CALLVALUE PUSH3 0x1A7 JUMPI PUSH1 0x80 MLOAD CALLDATASIZE PUSH1 0x3 NOT ADD SLT PUSH3 0x1A7 JUMPI PUSH1 0x1 SLOAD PUSH1 0x40 MLOAD PUSH1 0x1 PUSH1 0x1 PUSH1 0xA0 SHL SUB SWAP1 SWAP2 AND DUP2 MSTORE PUSH1 0x20 SWAP1 RETURN JUMPDEST CALLVALUE PUSH3 0x1A7 JUMPI PUSH1 0xE0 CALLDATASIZE PUSH1 0x3 NOT ADD SLT PUSH3 0x1A7 JUMPI PUSH3 0x417 PUSH3 0x1297 JUMP JUMPDEST PUSH1 0x24 SWAP1 DUP2 CALLDATALOAD SWAP1 PUSH1 0xA4 CALLDATALOAD PUSH1 0x84 CALLDATALOAD PUSH1 0x64 DUP1 CALLDATALOAD SWAP1 PUSH1 0x44 DUP1 CALLDATALOAD SWAP2 PUSH1 0x1 PUSH1 0x1 PUSH1 0xA0 SHL SUB SWAP2 SWAP1 DUP3 DUP8 AND SWAP1 DUP2 DUP9 SUB PUSH3 0x685 JUMPI PUSH1 0xC4 CALLDATALOAD SWAP11 DUP5 DUP13 AND SWAP5 DUP6 DUP14 SUB PUSH3 0x685 JUMPI PUSH3 0x465 DUP2 PUSH1 0x80 MLOAD SLOAD AND CALLER EQ PUSH3 0x150C JUMP JUMPDEST DUP11 AND SWAP4 DUP5 ISZERO PUSH3 0x64C JUMPI PUSH2 0x12C DUP13 GT PUSH3 0x61D JUMPI DUP7 ISZERO PUSH3 0x5E6 JUMPI DUP8 ISZERO PUSH3 0x5AD JUMPI DUP9 ISZERO PUSH3 0x57B JUMPI DUP4 PUSH3 0x53D JUMPI JUMPDEST POP POP PUSH1 0x1 DUP1 SLOAD PUSH1 0x1 PUSH1 0x1 PUSH1 0xA0 SHL SUB NOT SWAP1 DUP2 AND SWAP1 SWAP5 OR SWAP1 SSTORE POP PUSH1 0x2 DUP10 SWAP1 SSTORE PUSH1 0x3 DUP5 SWAP1 SSTORE PUSH1 0x4 DUP6 SWAP1 SSTORE PUSH1 0x5 DUP7 SWAP1 SSTORE PUSH1 0x6 DUP1 SLOAD DUP4 AND SWAP1 SWAP2 OR SWAP1 SSTORE PUSH1 0x7 DUP1 SLOAD SWAP1 SWAP2 AND SWAP1 SWAP2 OR SWAP1 SSTORE PUSH1 0x40 DUP1 MLOAD PUSH1 0x1 PUSH1 0x1 PUSH1 0xA0 SHL SUB SWAP7 DUP8 AND DUP2 MSTORE PUSH1 0x20 DUP2 ADD SWAP8 SWAP1 SWAP8 MSTORE DUP7 ADD MSTORE PUSH1 0x60 DUP6 ADD MSTORE PUSH1 0x80 DUP5 ADD MSTORE DUP2 AND PUSH1 0xA0 DUP4 ADD MSTORE SWAP1 SWAP2 AND PUSH1 0xC0 DUP3 ADD MSTORE PUSH32 0xA48F5C9009F921948C2E75757EDD140DA19FF66523674223CA9369C744C5993E SWAP1 DUP1 PUSH1 0xE0 DUP2 ADD SUB SWAP1 LOG1 PUSH1 0x80 MLOAD DUP1 RETURN JUMPDEST DUP6 PUSH3 0x495 JUMPI PUSH21 0x1B1C081C9958DA5C1A595B9D081C995C5D5A5C9959 PUSH1 0x5A SHL SWAP1 PUSH1 0x15 PUSH1 0x40 MLOAD SWAP4 PUSH3 0x461BCD PUSH1 0xE5 SHL DUP6 MSTORE PUSH1 0x20 PUSH1 0x4 DUP7 ADD MSTORE DUP5 ADD MSTORE DUP3 ADD MSTORE REVERT JUMPDEST PUSH15 0x1D185C99D95D081C995C5D5A5C9959 PUSH1 0x8A SHL SWAP1 PUSH1 0xF PUSH1 0x40 MLOAD SWAP4 PUSH3 0x461BCD PUSH1 0xE5 SHL DUP6 MSTORE PUSH1 0x20 PUSH1 0x4 DUP7 ADD MSTORE DUP5 ADD MSTORE DUP3 ADD MSTORE REVERT JUMPDEST PUSH22 0x1D9A5C9D1D585B081D1BDAD95B881C995C5D5A5C9959 PUSH1 0x52 SHL SWAP1 PUSH1 0x16 PUSH1 0x40 MLOAD SWAP4 PUSH3 0x461BCD PUSH1 0xE5 SHL DUP6 MSTORE PUSH1 0x20 PUSH1 0x4 DUP7 ADD MSTORE DUP5 ADD MSTORE DUP3 ADD MSTORE REVERT JUMPDEST PUSH20 0x1D9A5C9D1D585B08195D1A081C995C5D5A5C9959 PUSH1 0x62 SHL SWAP1 PUSH1 0x14 PUSH1 0x40 MLOAD SWAP4 PUSH3 0x461BCD PUSH1 0xE5 SHL DUP6 MSTORE PUSH1 0x20 PUSH1 0x4 DUP7 ADD MSTORE DUP5 ADD MSTORE DUP3 ADD MSTORE REVERT JUMPDEST PUSH12 0xCCCACA40E8DEDE40D0D2CED PUSH1 0xA3 SHL SWAP1 PUSH1 0xC PUSH1 0x40 MLOAD SWAP4 PUSH3 0x461BCD PUSH1 0xE5 SHL DUP6 MSTORE PUSH1 0x20 PUSH1 0x4 DUP7 ADD MSTORE DUP5 ADD MSTORE DUP3 ADD MSTORE REVERT JUMPDEST PUSH22 0x199959481C9958DA5C1A595B9D081C995C5D5A5C9959 PUSH1 0x52 SHL SWAP1 PUSH1 0x16 PUSH1 0x40 MLOAD SWAP4 PUSH3 0x461BCD PUSH1 0xE5 SHL DUP6 MSTORE PUSH1 0x20 PUSH1 0x4 DUP7 ADD MSTORE DUP5 ADD MSTORE DUP3 ADD MSTORE REVERT JUMPDEST PUSH1 0x0 DUP1 REVERT JUMPDEST CALLVALUE PUSH3 0x1A7 JUMPI PUSH1 0x80 MLOAD CALLDATASIZE PUSH1 0x3 NOT ADD SLT PUSH3 0x1A7 JUMPI PUSH1 0x20 PUSH1 0x3 SLOAD PUSH1 0x40 MLOAD SWAP1 DUP2 MSTORE RETURN JUMPDEST CALLVALUE PUSH3 0x1A7 JUMPI PUSH1 0x80 MLOAD CALLDATASIZE PUSH1 0x3 NOT ADD SLT PUSH3 0x1A7 JUMPI PUSH1 0x7 SLOAD PUSH1 0x40 MLOAD PUSH1 0x1 PUSH1 0x1 PUSH1 0xA0 SHL SUB SWAP1 SWAP2 AND DUP2 MSTORE PUSH1 0x20 SWAP1 RETURN JUMPDEST CALLVALUE PUSH3 0x1A7 JUMPI PUSH1 0xC0 CALLDATASIZE PUSH1 0x3 NOT ADD SLT PUSH3 0x1A7 JUMPI PUSH1 0x4 CALLDATALOAD PUSH1 0x1 PUSH1 0x1 PUSH1 0x40 SHL SUB DUP2 GT PUSH3 0x1A7 JUMPI PUSH3 0x70C SWAP1 CALLDATASIZE SWAP1 PUSH1 0x4 ADD PUSH3 0x12AE JUMP JUMPDEST PUSH1 0x24 CALLDATALOAD PUSH1 0x1 PUSH1 0x1 PUSH1 0x40 SHL SUB DUP2 GT PUSH3 0x1A7 JUMPI PUSH3 0x72E SWAP1 CALLDATASIZE SWAP1 PUSH1 0x4 ADD PUSH3 0x12AE JUMP JUMPDEST PUSH1 0x44 CALLDATALOAD PUSH1 0x1 PUSH1 0x1 PUSH1 0x40 SHL SUB DUP2 GT PUSH3 0x1A7 JUMPI PUSH3 0x750 SWAP1 CALLDATASIZE SWAP1 PUSH1 0x4 ADD PUSH3 0x12AE JUMP JUMPDEST SWAP5 SWAP1 PUSH1 0x64 CALLDATALOAD PUSH1 0x1 PUSH1 0x1 PUSH1 0x40 SHL SUB DUP2 GT PUSH3 0x1A7 JUMPI PUSH3 0x774 SWAP1 CALLDATASIZE SWAP1 PUSH1 0x4 ADD PUSH3 0x12AE JUMP JUMPDEST SWAP7 SWAP1 SWAP2 DUP7 ISZERO PUSH3 0x1224 JUMPI DUP5 ISZERO PUSH3 0x11ED JUMPI PUSH1 0x84 CALLDATALOAD ISZERO PUSH3 0x11B6 JUMPI PUSH2 0x7D0 PUSH1 0xA4 CALLDATALOAD GT PUSH3 0x117B JUMPI PUSH1 0x40 MLOAD DUP1 PUSH2 0xC07 DUP2 ADD LT PUSH1 0x1 PUSH1 0x1 PUSH1 0x40 SHL SUB PUSH2 0xC07 DUP4 ADD GT OR PUSH3 0xD5F JUMPI PUSH2 0xC07 PUSH3 0x3570 DUP3 CODECOPY PUSH1 0x80 PUSH2 0xC07 DUP3 ADD MSTORE DUP1 PUSH3 0x7FA PUSH3 0x7E2 PUSH1 0x80 PUSH2 0xC07 DUP5 ADD ADD DUP12 DUP10 PUSH3 0x13C9 JUMP JUMPDEST PUSH2 0xC07 DUP4 ADD DUP2 SUB PUSH1 0x20 PUSH2 0xC07 DUP6 ADD ADD MSTORE DUP9 DUP11 PUSH3 0x13C9 JUMP JUMPDEST PUSH1 0x84 CALLDATALOAD PUSH1 0x40 PUSH2 0xC07 DUP5 ADD ADD MSTORE ADDRESS PUSH1 0x60 PUSH2 0xC07 DUP5 ADD ADD MSTORE SUB SWAP1 PUSH1 0x80 MLOAD CREATE SWAP5 DUP6 ISZERO PUSH3 0x1027 JUMPI PUSH1 0x1 SLOAD PUSH1 0x2 SLOAD PUSH1 0x3 SLOAD PUSH1 0x4 SLOAD PUSH1 0x5 SLOAD PUSH1 0x6 SLOAD PUSH1 0x7 SLOAD PUSH1 0x40 MLOAD SWAP7 PUSH1 0x1 PUSH1 0x1 PUSH1 0xA0 SHL SUB SWAP2 DUP3 AND SWAP7 SWAP3 DUP3 AND SWAP6 SWAP4 SWAP5 SWAP4 SWAP3 SWAP2 AND PUSH1 0x1 PUSH1 0x1 PUSH1 0x40 SHL SUB PUSH2 0x1D51 DUP10 ADD SWAP1 DUP2 GT SWAP1 DUP10 GT OR PUSH3 0xD5F JUMPI PUSH2 0x1D51 PUSH3 0x181F DUP10 CODECOPY DUP14 PUSH1 0x1 DUP1 PUSH1 0xA0 SHL SUB AND PUSH2 0x1D51 DUP10 ADD MSTORE ADDRESS PUSH1 0x20 PUSH2 0x1D51 DUP11 ADD ADD MSTORE PUSH1 0x40 PUSH2 0x1D51 DUP10 ADD ADD MSTORE PUSH1 0x60 PUSH2 0x1D51 DUP9 ADD ADD MSTORE PUSH1 0x80 PUSH2 0x1D51 DUP8 ADD ADD MSTORE PUSH1 0xA0 PUSH2 0x1D51 DUP7 ADD ADD MSTORE PUSH1 0xC0 PUSH2 0x1D51 DUP6 ADD ADD MSTORE PUSH1 0xE0 PUSH2 0x1D51 DUP5 ADD ADD MSTORE PUSH2 0x100 PUSH2 0x1D51 DUP4 ADD ADD MSTORE PUSH2 0x120 DUP2 PUSH2 0x1D51 DUP2 ADD SUB ADD SWAP1 PUSH1 0x80 MLOAD CREATE SWAP7 DUP8 ISZERO PUSH3 0x1027 JUMPI PUSH1 0x84 CALLDATALOAD PUSH1 0xA4 CALLDATALOAD PUSH1 0x84 CALLDATALOAD MUL DIV PUSH1 0xA4 CALLDATALOAD SUB PUSH3 0x1163 JUMPI PUSH3 0x90C PUSH2 0x2710 PUSH1 0xA4 CALLDATALOAD PUSH1 0x84 CALLDATALOAD MUL DIV PUSH1 0x84 CALLDATALOAD PUSH3 0x13EA JUMP JUMPDEST PUSH1 0x40 MLOAD PUSH4 0xA9059CBB PUSH1 0xE0 SHL DUP2 MSTORE PUSH1 0x1 PUSH1 0x1 PUSH1 0xA0 SHL SUB DUP11 DUP2 AND PUSH1 0x4 DUP4 ADD MSTORE PUSH1 0x24 DUP3 ADD DUP4 SWAP1 MSTORE PUSH1 0x80 MLOAD PUSH1 0x20 SWAP2 DUP4 SWAP2 PUSH1 0x44 SWAP2 DUP4 SWAP2 SWAP1 DUP15 AND GAS CALL SWAP1 DUP2 ISZERO PUSH3 0x1027 JUMPI PUSH1 0x80 MLOAD SWAP2 PUSH3 0x113F JUMPI JUMPDEST POP ISZERO PUSH3 0x1103 JUMPI PUSH2 0x2710 PUSH1 0xA4 CALLDATALOAD PUSH1 0x84 CALLDATALOAD MUL DIV PUSH3 0x1034 JUMPI JUMPDEST PUSH1 0x1 PUSH1 0x1 PUSH1 0xA0 SHL SUB DUP10 AND EXTCODESIZE ISZERO PUSH3 0x1A7 JUMPI PUSH1 0x40 MLOAD PUSH4 0x95564837 PUSH1 0xE0 SHL DUP2 MSTORE PUSH1 0x4 DUP2 ADD SWAP2 SWAP1 SWAP2 MSTORE PUSH1 0x80 MLOAD DUP2 PUSH1 0x24 DUP2 DUP4 PUSH1 0x1 PUSH1 0x1 PUSH1 0xA0 SHL SUB DUP15 AND GAS CALL DUP1 ISZERO PUSH3 0x1027 JUMPI PUSH3 0x100E JUMPI JUMPDEST POP PUSH1 0x80 DUP1 MLOAD PUSH1 0x1 PUSH1 0x1 PUSH1 0xA0 SHL SUB DUP10 DUP2 AND SWAP1 SWAP2 MSTORE PUSH1 0x9 PUSH1 0x20 MSTORE SWAP1 MLOAD PUSH1 0x40 SWAP1 KECCAK256 DUP1 SLOAD PUSH1 0x1 PUSH1 0x1 PUSH1 0xA0 SHL SUB NOT AND SWAP2 DUP11 AND SWAP2 SWAP1 SWAP2 OR SWAP1 SSTORE PUSH1 0x8 SLOAD SWAP9 PUSH9 0x10000000000000000 DUP11 LT ISZERO PUSH3 0xD5F JUMPI PUSH1 0x1 DUP11 ADD PUSH1 0x8 SSTORE PUSH3 0xA0E DUP11 PUSH3 0x147D JUMP JUMPDEST POP POP PUSH3 0xA1B DUP11 PUSH3 0x147D JUMP JUMPDEST POP DUP1 SLOAD PUSH1 0x1 PUSH1 0x1 PUSH1 0xA0 SHL SUB NOT SWAP1 DUP2 AND PUSH1 0x1 PUSH1 0x1 PUSH1 0xA0 SHL SUB DUP12 DUP2 AND SWAP2 SWAP1 SWAP2 OR DUP4 SSTORE PUSH1 0x1 DUP4 ADD DUP1 SLOAD DUP4 AND SWAP2 DUP14 AND SWAP2 SWAP1 SWAP2 OR SWAP1 SSTORE PUSH1 0x2 DUP3 ADD DUP1 SLOAD SWAP1 SWAP2 AND CALLER OR SWAP1 SSTORE SWAP7 PUSH1 0x1 PUSH1 0x1 PUSH1 0x40 SHL SUB DUP3 GT PUSH3 0xD5F JUMPI DUP2 SWAP1 PUSH3 0xA7A PUSH1 0x3 DUP11 ADD SLOAD PUSH3 0x14CF JUMP JUMPDEST PUSH1 0x1F DUP2 GT PUSH3 0xFB3 JUMPI JUMPDEST POP PUSH1 0x80 MLOAD SWAP1 PUSH1 0x1F DUP4 GT PUSH1 0x1 EQ PUSH3 0xF3D JUMPI PUSH1 0x80 MLOAD SWAP3 PUSH3 0xF31 JUMPI JUMPDEST POP POP DUP2 PUSH1 0x1 SHL SWAP2 PUSH1 0x0 NOT SWAP1 PUSH1 0x3 SHL SHR NOT AND OR PUSH1 0x3 DUP8 ADD SSTORE JUMPDEST PUSH1 0x1 PUSH1 0x1 PUSH1 0x40 SHL SUB DUP3 GT PUSH3 0xD5F JUMPI DUP2 SWAP1 PUSH3 0xAD7 PUSH1 0x4 DUP9 ADD SLOAD PUSH3 0x14CF JUMP JUMPDEST PUSH1 0x1F DUP2 GT PUSH3 0xED6 JUMPI JUMPDEST POP PUSH1 0x80 MLOAD SWAP1 PUSH1 0x1F DUP4 GT PUSH1 0x1 EQ PUSH3 0xE60 JUMPI PUSH1 0x80 MLOAD SWAP3 PUSH3 0xE54 JUMPI JUMPDEST POP POP DUP2 PUSH1 0x1 SHL SWAP2 PUSH1 0x0 NOT SWAP1 PUSH1 0x3 SHL SHR NOT AND OR PUSH1 0x4 DUP6 ADD SSTORE JUMPDEST PUSH1 0x1 PUSH1 0x1 PUSH1 0x40 SHL SUB DUP3 GT PUSH3 0xD5F JUMPI DUP2 SWAP1 PUSH3 0xB34 PUSH1 0x5 DUP7 ADD SLOAD PUSH3 0x14CF JUMP JUMPDEST PUSH1 0x1F DUP2 GT PUSH3 0xDF9 JUMPI JUMPDEST POP PUSH1 0x80 MLOAD SWAP1 PUSH1 0x1F DUP4 GT PUSH1 0x1 EQ PUSH3 0xD83 JUMPI PUSH1 0x80 MLOAD SWAP3 PUSH3 0xD77 JUMPI JUMPDEST POP POP DUP2 PUSH1 0x1 SHL SWAP2 PUSH1 0x0 NOT SWAP1 PUSH1 0x3 SHL SHR NOT AND OR PUSH1 0x5 DUP4 ADD SSTORE JUMPDEST PUSH1 0x1 PUSH1 0x1 PUSH1 0x40 SHL SUB DUP7 GT PUSH3 0xD5F JUMPI PUSH3 0xB8F PUSH1 0x6 DUP4 ADD SLOAD PUSH3 0x14CF JUMP JUMPDEST PUSH1 0x1F DUP2 GT PUSH3 0xD10 JUMPI JUMPDEST POP PUSH1 0x80 MLOAD SWAP1 PUSH1 0x1F DUP8 GT PUSH1 0x1 EQ PUSH3 0xC96 JUMPI SWAP6 DUP1 SWAP2 PUSH1 0x60 SWAP8 PUSH1 0x80 MLOAD SWAP3 PUSH3 0xC8A JUMPI JUMPDEST POP POP DUP2 PUSH1 0x1 SHL SWAP2 PUSH1 0x0 NOT SWAP1 PUSH1 0x3 SHL SHR NOT AND OR PUSH1 0x6 DUP3 ADD SSTORE JUMPDEST PUSH1 0x84 CALLDATALOAD PUSH1 0x7 DUP3 DUP2 ADD DUP3 SWAP1 SSTORE PUSH2 0x2710 PUSH1 0xA4 CALLDATALOAD DUP4 MUL DIV PUSH1 0x8 DUP5 ADD DUP2 SWAP1 SSTORE TIMESTAMP PUSH1 0x9 SWAP1 SWAP5 ADD SWAP4 SWAP1 SWAP4 SSTORE PUSH1 0x2 SLOAD PUSH1 0x5 SLOAD PUSH1 0x6 SLOAD SWAP3 SLOAD PUSH1 0x40 DUP1 MLOAD PUSH1 0x1 PUSH1 0x1 PUSH1 0xA0 SHL SUB DUP11 DUP2 AND DUP3 MSTORE PUSH1 0x20 DUP3 ADD SWAP8 SWAP1 SWAP8 MSTORE SWAP1 DUP2 ADD SWAP7 SWAP1 SWAP7 MSTORE PUSH1 0x60 DUP7 ADD SWAP3 SWAP1 SWAP3 MSTORE PUSH1 0x80 DUP6 ADD MSTORE SWAP1 DUP3 AND PUSH1 0xA0 DUP5 ADD MSTORE DUP2 AND PUSH1 0xC0 DUP4 ADD MSTORE DUP3 AND SWAP1 CALLER SWAP1 DUP6 SWAP1 PUSH32 0xDC7FEA29D21F6A39E7F1B42AD6100F8CDAFF48535852696A1155DE8A81D87A06 SWAP1 PUSH1 0xE0 SWAP1 LOG4 PUSH1 0x40 DUP1 MLOAD SWAP4 DUP5 MSTORE PUSH1 0x1 PUSH1 0x1 PUSH1 0xA0 SHL SUB SWAP2 DUP3 AND PUSH1 0x20 DUP6 ADD MSTORE SWAP2 AND SWAP1 DUP3 ADD MSTORE RETURN JUMPDEST ADD CALLDATALOAD SWAP1 POP DUP8 DUP1 PUSH3 0xBBA JUMP JUMPDEST PUSH1 0x6 DUP4 ADD PUSH1 0x80 MLOAD MSTORE PUSH1 0x20 PUSH1 0x80 MLOAD KECCAK256 SWAP2 PUSH1 0x80 MLOAD JUMPDEST PUSH1 0x1F NOT DUP10 AND DUP2 LT PUSH3 0xCF7 JUMPI POP SWAP2 DUP8 SWAP2 PUSH1 0x1 SWAP4 PUSH1 0x60 SWAP10 PUSH1 0x1F NOT DUP2 AND LT PUSH3 0xCDC JUMPI JUMPDEST POP POP POP DUP2 SHL ADD PUSH1 0x6 DUP3 ADD SSTORE PUSH3 0xBD2 JUMP JUMPDEST ADD CALLDATALOAD PUSH1 0x0 NOT PUSH1 0x3 DUP5 SWAP1 SHL PUSH1 0xF8 AND SHR NOT AND SWAP1 SSTORE DUP8 DUP1 DUP1 PUSH3 0xCCB JUMP JUMPDEST SWAP1 SWAP3 PUSH1 0x20 PUSH1 0x1 DUP2 SWAP3 DUP7 DUP7 ADD CALLDATALOAD DUP2 SSTORE ADD SWAP5 ADD SWAP2 ADD PUSH3 0xCA9 JUMP JUMPDEST PUSH1 0x6 DUP4 ADD PUSH1 0x80 MLOAD MSTORE PUSH1 0x20 PUSH1 0x80 MLOAD KECCAK256 PUSH1 0x1F DUP9 ADD PUSH1 0x5 SHR DUP2 ADD PUSH1 0x20 DUP10 LT PUSH3 0xD57 JUMPI JUMPDEST PUSH1 0x1F DUP4 ADD PUSH1 0x5 SHR DUP3 ADD DUP2 LT PUSH3 0xD49 JUMPI POP POP PUSH3 0xB99 JUMP JUMPDEST PUSH1 0x80 MLOAD DUP2 SSTORE PUSH1 0x1 ADD PUSH3 0xD31 JUMP JUMPDEST POP DUP1 PUSH3 0xD31 JUMP JUMPDEST PUSH4 0x4E487B71 PUSH1 0xE0 SHL PUSH1 0x80 MLOAD MSTORE PUSH1 0x41 PUSH1 0x4 MSTORE PUSH1 0x24 PUSH1 0x80 MLOAD REVERT JUMPDEST ADD CALLDATALOAD SWAP1 POP DUP9 DUP1 PUSH3 0xB59 JUMP JUMPDEST PUSH1 0x80 DUP1 MLOAD PUSH1 0x5 DUP9 ADD SWAP1 MSTORE MLOAD PUSH1 0x20 DUP2 KECCAK256 SWAP1 SWAP5 POP SWAP2 JUMPDEST PUSH1 0x1F NOT DUP5 AND DUP6 LT PUSH3 0xDE0 JUMPI PUSH1 0x1 SWAP5 POP DUP4 PUSH1 0x1F NOT DUP2 AND LT PUSH3 0xDC5 JUMPI JUMPDEST POP POP POP DUP2 SHL ADD PUSH1 0x5 DUP4 ADD SSTORE PUSH3 0xB71 JUMP JUMPDEST ADD CALLDATALOAD PUSH1 0x0 NOT PUSH1 0x3 DUP5 SWAP1 SHL PUSH1 0xF8 AND SHR NOT AND SWAP1 SSTORE DUP9 DUP1 DUP1 PUSH3 0xDB4 JUMP JUMPDEST DUP2 DUP2 ADD CALLDATALOAD DUP4 SSTORE PUSH1 0x20 SWAP5 DUP6 ADD SWAP5 PUSH1 0x1 SWAP1 SWAP4 ADD SWAP3 ADD PUSH3 0xD97 JUMP JUMPDEST SWAP1 SWAP2 POP PUSH1 0x5 DUP6 ADD PUSH1 0x80 MLOAD MSTORE PUSH1 0x20 PUSH1 0x80 MLOAD KECCAK256 PUSH1 0x1F DUP5 ADD PUSH1 0x5 SHR DUP2 ADD PUSH1 0x20 DUP6 LT PUSH3 0xE4C JUMPI JUMPDEST SWAP1 DUP5 SWAP4 SWAP3 SWAP2 JUMPDEST PUSH1 0x1F DUP4 ADD PUSH1 0x5 SHR DUP3 ADD DUP2 LT PUSH3 0xE3B JUMPI POP POP PUSH3 0xB3E JUMP JUMPDEST PUSH1 0x80 MLOAD DUP2 SSTORE DUP6 SWAP5 POP PUSH1 0x1 ADD PUSH3 0xE23 JUMP JUMPDEST POP DUP1 PUSH3 0xE1D JUMP JUMPDEST ADD CALLDATALOAD SWAP1 POP DUP11 DUP1 PUSH3 0xAFC JUMP JUMPDEST PUSH1 0x80 DUP1 MLOAD PUSH1 0x4 DUP11 ADD SWAP1 MSTORE MLOAD PUSH1 0x20 DUP2 KECCAK256 SWAP1 SWAP5 POP SWAP2 JUMPDEST PUSH1 0x1F NOT DUP5 AND DUP6 LT PUSH3 0xEBD JUMPI PUSH1 0x1 SWAP5 POP DUP4 PUSH1 0x1F NOT DUP2 AND LT PUSH3 0xEA2 JUMPI JUMPDEST POP POP POP DUP2 SHL ADD PUSH1 0x4 DUP6 ADD SSTORE PUSH3 0xB14 JUMP JUMPDEST ADD CALLDATALOAD PUSH1 0x0 NOT PUSH1 0x3 DUP5 SWAP1 SHL PUSH1 0xF8 AND SHR NOT AND SWAP1 SSTORE DUP11 DUP1 DUP1 PUSH3 0xE91 JUMP JUMPDEST DUP2 DUP2 ADD CALLDATALOAD DUP4 SSTORE PUSH1 0x20 SWAP5 DUP6 ADD SWAP5 PUSH1 0x1 SWAP1 SWAP4 ADD SWAP3 ADD PUSH3 0xE74 JUMP JUMPDEST SWAP1 SWAP2 POP PUSH1 0x4 DUP8 ADD PUSH1 0x80 MLOAD MSTORE PUSH1 0x20 PUSH1 0x80 MLOAD KECCAK256 PUSH1 0x1F DUP5 ADD PUSH1 0x5 SHR DUP2 ADD PUSH1 0x20 DUP6 LT PUSH3 0xF29 JUMPI JUMPDEST SWAP1 DUP5 SWAP4 SWAP3 SWAP2 JUMPDEST PUSH1 0x1F DUP4 ADD PUSH1 0x5 SHR DUP3 ADD DUP2 LT PUSH3 0xF18 JUMPI POP POP PUSH3 0xAE1 JUMP JUMPDEST PUSH1 0x80 MLOAD DUP2 SSTORE DUP6 SWAP5 POP PUSH1 0x1 ADD PUSH3 0xF00 JUMP JUMPDEST POP DUP1 PUSH3 0xEFA JUMP JUMPDEST ADD CALLDATALOAD SWAP1 POP DUP13 DUP1 PUSH3 0xA9F JUMP JUMPDEST PUSH1 0x80 DUP1 MLOAD PUSH1 0x3 DUP13 ADD SWAP1 MSTORE MLOAD PUSH1 0x20 DUP2 KECCAK256 SWAP1 SWAP5 POP SWAP2 JUMPDEST PUSH1 0x1F NOT DUP5 AND DUP6 LT PUSH3 0xF9A JUMPI PUSH1 0x1 SWAP5 POP DUP4 PUSH1 0x1F NOT DUP2 AND LT PUSH3 0xF7F JUMPI JUMPDEST POP POP POP DUP2 SHL ADD PUSH1 0x3 DUP8 ADD SSTORE PUSH3 0xAB7 JUMP JUMPDEST ADD CALLDATALOAD PUSH1 0x0 NOT PUSH1 0x3 DUP5 SWAP1 SHL PUSH1 0xF8 AND SHR NOT AND SWAP1 SSTORE DUP13 DUP1 DUP1 PUSH3 0xF6E JUMP JUMPDEST DUP2 DUP2 ADD CALLDATALOAD DUP4 SSTORE PUSH1 0x20 SWAP5 DUP6 ADD SWAP5 PUSH1 0x1 SWAP1 SWAP4 ADD SWAP3 ADD PUSH3 0xF51 JUMP JUMPDEST SWAP1 SWAP2 POP PUSH1 0x3 DUP10 ADD PUSH1 0x80 MLOAD MSTORE PUSH1 0x20 PUSH1 0x80 MLOAD KECCAK256 PUSH1 0x1F DUP5 ADD PUSH1 0x5 SHR DUP2 ADD PUSH1 0x20 DUP6 LT PUSH3 0x1006 JUMPI JUMPDEST SWAP1 DUP5 SWAP4 SWAP3 SWAP2 JUMPDEST PUSH1 0x1F DUP4 ADD PUSH1 0x5 SHR DUP3 ADD DUP2 LT PUSH3 0xFF5 JUMPI POP POP PUSH3 0xA84 JUMP JUMPDEST PUSH1 0x80 MLOAD DUP2 SSTORE DUP6 SWAP5 POP PUSH1 0x1 ADD PUSH3 0xFDD JUMP JUMPDEST POP DUP1 PUSH3 0xFD7 JUMP JUMPDEST PUSH1 0x1 PUSH1 0x1 PUSH1 0x40 SHL SUB DUP2 GT PUSH3 0xD5F JUMPI PUSH1 0x40 MSTORE DUP11 PUSH3 0x9B3 JUMP JUMPDEST PUSH1 0x40 MLOAD RETURNDATASIZE PUSH1 0x80 MLOAD DUP3 RETURNDATACOPY RETURNDATASIZE SWAP1 REVERT JUMPDEST PUSH1 0x40 MLOAD PUSH4 0xA9059CBB PUSH1 0xE0 SHL DUP2 MSTORE CALLER PUSH1 0x4 DUP3 ADD MSTORE PUSH2 0x2710 PUSH1 0xA4 CALLDATALOAD PUSH1 0x84 CALLDATALOAD MUL DIV PUSH1 0x24 DUP3 ADD MSTORE PUSH1 0x80 MLOAD PUSH1 0x20 SWAP1 DUP3 SWAP1 PUSH1 0x44 SWAP1 DUP3 SWAP1 PUSH1 0x1 PUSH1 0x1 PUSH1 0xA0 SHL SUB DUP15 AND GAS CALL SWAP1 DUP2 ISZERO PUSH3 0x1027 JUMPI PUSH1 0x80 MLOAD SWAP2 PUSH3 0x10CD JUMPI JUMPDEST POP PUSH3 0x96C JUMPI PUSH1 0x40 MLOAD PUSH3 0x461BCD PUSH1 0xE5 SHL DUP2 MSTORE PUSH1 0x20 PUSH1 0x4 DUP3 ADD MSTORE PUSH1 0x17 PUSH1 0x24 DUP3 ADD MSTORE PUSH32 0x63726561746F72207472616E73666572206661696C6564000000000000000000 PUSH1 0x44 DUP3 ADD MSTORE PUSH1 0x64 SWAP1 REVERT JUMPDEST PUSH3 0x10F4 SWAP2 POP PUSH1 0x20 RETURNDATASIZE PUSH1 0x20 GT PUSH3 0x10FB JUMPI JUMPDEST PUSH3 0x10EB DUP2 DUP4 PUSH3 0x1441 JUMP JUMPDEST DUP2 ADD SWAP1 PUSH3 0x1463 JUMP JUMPDEST DUP13 PUSH3 0x1082 JUMP JUMPDEST POP RETURNDATASIZE PUSH3 0x10DF JUMP JUMPDEST PUSH1 0x40 MLOAD PUSH3 0x461BCD PUSH1 0xE5 SHL DUP2 MSTORE PUSH1 0x20 PUSH1 0x4 DUP3 ADD MSTORE PUSH1 0x14 PUSH1 0x24 DUP3 ADD MSTORE PUSH20 0x1C1BDBDB081D1C985B9CD9995C8819985A5B1959 PUSH1 0x62 SHL PUSH1 0x44 DUP3 ADD MSTORE PUSH1 0x64 SWAP1 REVERT JUMPDEST PUSH3 0x115C SWAP2 POP PUSH1 0x20 RETURNDATASIZE PUSH1 0x20 GT PUSH3 0x10FB JUMPI PUSH3 0x10EB DUP2 DUP4 PUSH3 0x1441 JUMP JUMPDEST DUP13 PUSH3 0x954 JUMP JUMPDEST PUSH4 0x4E487B71 PUSH1 0xE0 SHL PUSH1 0x80 MLOAD MSTORE PUSH1 0x11 PUSH1 0x4 MSTORE PUSH1 0x24 PUSH1 0x80 MLOAD REVERT JUMPDEST PUSH1 0x40 MLOAD PUSH3 0x461BCD PUSH1 0xE5 SHL DUP2 MSTORE PUSH1 0x20 PUSH1 0x4 DUP3 ADD MSTORE PUSH1 0x13 PUSH1 0x24 DUP3 ADD MSTORE PUSH19 0xC2D8D8DEC6C2E8D2DEDC40E8DEDE40D0D2CED PUSH1 0x6B SHL PUSH1 0x44 DUP3 ADD MSTORE PUSH1 0x64 SWAP1 REVERT JUMPDEST PUSH1 0x40 MLOAD PUSH3 0x461BCD PUSH1 0xE5 SHL DUP2 MSTORE PUSH1 0x20 PUSH1 0x4 DUP3 ADD MSTORE PUSH1 0xF PUSH1 0x24 DUP3 ADD MSTORE PUSH15 0x1CDD5C1C1B1E481C995C5D5A5C9959 PUSH1 0x8A SHL PUSH1 0x44 DUP3 ADD MSTORE PUSH1 0x64 SWAP1 REVERT JUMPDEST PUSH1 0x40 MLOAD PUSH3 0x461BCD PUSH1 0xE5 SHL DUP2 MSTORE PUSH1 0x20 PUSH1 0x4 DUP3 ADD MSTORE PUSH1 0xF PUSH1 0x24 DUP3 ADD MSTORE PUSH15 0x1CDE5B589BDB081C995C5D5A5C9959 PUSH1 0x8A SHL PUSH1 0x44 DUP3 ADD MSTORE PUSH1 0x64 SWAP1 REVERT JUMPDEST PUSH1 0x40 MLOAD PUSH3 0x461BCD PUSH1 0xE5 SHL DUP2 MSTORE PUSH1 0x20 PUSH1 0x4 DUP3 ADD MSTORE PUSH1 0xD PUSH1 0x24 DUP3 ADD MSTORE PUSH13 0x1B985B59481C995C5D5A5C9959 PUSH1 0x9A SHL PUSH1 0x44 DUP3 ADD MSTORE PUSH1 0x64 SWAP1 REVERT JUMPDEST CALLVALUE PUSH3 0x1A7 JUMPI PUSH1 0x20 CALLDATASIZE PUSH1 0x3 NOT ADD SLT PUSH3 0x1A7 JUMPI PUSH1 0x20 SWAP1 PUSH1 0x1 PUSH1 0x1 PUSH1 0xA0 SHL SUB DUP1 PUSH3 0x1282 PUSH3 0x1297 JUMP JUMPDEST AND PUSH1 0x80 MLOAD MSTORE PUSH1 0x9 DUP4 MSTORE PUSH1 0x40 PUSH1 0x80 MLOAD KECCAK256 SLOAD AND DUP2 MSTORE RETURN JUMPDEST PUSH1 0x4 CALLDATALOAD SWAP1 PUSH1 0x1 PUSH1 0x1 PUSH1 0xA0 SHL SUB DUP3 AND DUP3 SUB PUSH3 0x685 JUMPI JUMP JUMPDEST SWAP2 DUP2 PUSH1 0x1F DUP5 ADD SLT ISZERO PUSH3 0x685 JUMPI DUP3 CALLDATALOAD SWAP2 PUSH1 0x1 PUSH1 0x1 PUSH1 0x40 SHL SUB DUP4 GT PUSH3 0x685 JUMPI PUSH1 0x20 DUP4 DUP2 DUP7 ADD SWAP6 ADD ADD GT PUSH3 0x685 JUMPI JUMP JUMPDEST SWAP2 SWAP1 DUP3 MLOAD SWAP3 DUP4 DUP3 MSTORE PUSH1 0x0 JUMPDEST DUP5 DUP2 LT PUSH3 0x130B JUMPI POP POP DUP3 PUSH1 0x0 PUSH1 0x20 DUP1 SWAP5 SWAP6 DUP5 ADD ADD MSTORE PUSH1 0x1F DUP1 NOT SWAP2 ADD AND ADD ADD SWAP1 JUMP JUMPDEST PUSH1 0x20 DUP2 DUP4 ADD DUP2 ADD MLOAD DUP5 DUP4 ADD DUP3 ADD MSTORE ADD PUSH3 0x12E9 JUMP JUMPDEST SWAP1 PUSH3 0x13A6 PUSH3 0x1393 PUSH3 0x1380 PUSH3 0x136D PUSH2 0x140 PUSH1 0x1 DUP1 PUSH1 0xA0 SHL SUB DUP1 DUP9 MLOAD AND DUP8 MSTORE DUP1 PUSH1 0x20 DUP10 ADD MLOAD AND PUSH1 0x20 DUP9 ADD MSTORE PUSH1 0x40 DUP9 ADD MLOAD AND PUSH1 0x40 DUP8 ADD MSTORE PUSH1 0x60 DUP8 ADD MLOAD SWAP1 DUP1 PUSH1 0x60 DUP9 ADD MSTORE DUP7 ADD SWAP1 PUSH3 0x12DE JUMP JUMPDEST PUSH1 0x80 DUP7 ADD MLOAD DUP6 DUP3 SUB PUSH1 0x80 DUP8 ADD MSTORE PUSH3 0x12DE JUMP JUMPDEST PUSH1 0xA0 DUP6 ADD MLOAD DUP5 DUP3 SUB PUSH1 0xA0 DUP7 ADD MSTORE PUSH3 0x12DE JUMP JUMPDEST PUSH1 0xC0 DUP5 ADD MLOAD DUP4 DUP3 SUB PUSH1 0xC0 DUP6 ADD MSTORE PUSH3 0x12DE JUMP JUMPDEST SWAP2 PUSH1 0xE0 DUP2 ADD MLOAD PUSH1 0xE0 DUP4 ADD MSTORE PUSH2 0x100 DUP1 DUP3 ADD MLOAD SWAP1 DUP4 ADD MSTORE PUSH2 0x120 DUP1 SWAP2 ADD MLOAD SWAP2 ADD MSTORE SWAP1 JUMP JUMPDEST SWAP1 DUP1 PUSH1 0x20 SWAP4 SWAP3 DUP2 DUP5 MSTORE DUP5 DUP5 ADD CALLDATACOPY PUSH1 0x0 DUP3 DUP3 ADD DUP5 ADD MSTORE PUSH1 0x1F ADD PUSH1 0x1F NOT AND ADD ADD SWAP1 JUMP JUMPDEST SWAP2 SWAP1 DUP3 SUB SWAP2 DUP3 GT PUSH3 0x13F8 JUMPI JUMP JUMPDEST PUSH4 0x4E487B71 PUSH1 0xE0 SHL PUSH1 0x0 MSTORE PUSH1 0x11 PUSH1 0x4 MSTORE PUSH1 0x24 PUSH1 0x0 REVERT JUMPDEST PUSH2 0x140 DUP2 ADD SWAP1 DUP2 LT PUSH1 0x1 PUSH1 0x1 PUSH1 0x40 SHL SUB DUP3 GT OR PUSH3 0x142B JUMPI PUSH1 0x40 MSTORE JUMP JUMPDEST PUSH4 0x4E487B71 PUSH1 0xE0 SHL PUSH1 0x0 MSTORE PUSH1 0x41 PUSH1 0x4 MSTORE PUSH1 0x24 PUSH1 0x0 REVERT JUMPDEST SWAP1 PUSH1 0x1F DUP1 NOT SWAP2 ADD AND DUP2 ADD SWAP1 DUP2 LT PUSH1 0x1 PUSH1 0x1 PUSH1 0x40 SHL SUB DUP3 GT OR PUSH3 0x142B JUMPI PUSH1 0x40 MSTORE JUMP JUMPDEST SWAP1 DUP2 PUSH1 0x20 SWAP2 SUB SLT PUSH3 0x685 JUMPI MLOAD DUP1 ISZERO ISZERO DUP2 SUB PUSH3 0x685 JUMPI SWAP1 JUMP JUMPDEST PUSH1 0x8 SLOAD DUP2 LT ISZERO PUSH3 0x14B9 JUMPI PUSH1 0xA SWAP1 PUSH1 0x8 PUSH1 0x0 MSTORE MUL PUSH32 0xF3F7A9FE364FAAB93B216DA50A3214154F22A0A2B415B23A84C8169E8B636EE3 ADD SWAP1 PUSH1 0x0 SWAP1 JUMP JUMPDEST PUSH4 0x4E487B71 PUSH1 0xE0 SHL PUSH1 0x0 MSTORE PUSH1 0x32 PUSH1 0x4 MSTORE PUSH1 0x24 PUSH1 0x0 REVERT JUMPDEST SWAP1 PUSH1 0x1 DUP3 DUP2 SHR SWAP3 AND DUP1 ISZERO PUSH3 0x1501 JUMPI JUMPDEST PUSH1 0x20 DUP4 LT EQ PUSH3 0x14EB JUMPI JUMP JUMPDEST PUSH4 0x4E487B71 PUSH1 0xE0 SHL PUSH1 0x0 MSTORE PUSH1 0x22 PUSH1 0x4 MSTORE PUSH1 0x24 PUSH1 0x0 REVERT JUMPDEST SWAP2 PUSH1 0x7F AND SWAP2 PUSH3 0x14DF JUMP JUMPDEST ISZERO PUSH3 0x1514 JUMPI JUMP JUMPDEST PUSH1 0x40 MLOAD PUSH3 0x461BCD PUSH1 0xE5 SHL DUP2 MSTORE PUSH1 0x20 PUSH1 0x4 DUP3 ADD MSTORE PUSH1 0xA PUSH1 0x24 DUP3 ADD MSTORE PUSH10 0x37B7363C9037BBB732B9 PUSH1 0xB1 SHL PUSH1 0x44 DUP3 ADD MSTORE PUSH1 0x64 SWAP1 REVERT JUMPDEST PUSH1 0x40 MLOAD SWAP1 PUSH3 0x1555 DUP3 PUSH3 0x140E JUMP JUMPDEST DUP2 PUSH2 0x120 PUSH1 0x0 SWAP2 DUP3 DUP2 MSTORE DUP3 PUSH1 0x20 DUP3 ADD MSTORE DUP3 PUSH1 0x40 DUP3 ADD MSTORE PUSH1 0x60 DUP1 DUP3 ADD MSTORE PUSH1 0x60 PUSH1 0x80 DUP3 ADD MSTORE PUSH1 0x60 PUSH1 0xA0 DUP3 ADD MSTORE PUSH1 0x60 PUSH1 0xC0 DUP3 ADD MSTORE DUP3 PUSH1 0xE0 DUP3 ADD MSTORE DUP3 PUSH2 0x100 DUP3 ADD MSTORE ADD MSTORE JUMP JUMPDEST SWAP1 PUSH1 0x40 MLOAD SWAP2 DUP3 PUSH1 0x0 DUP3 SLOAD PUSH3 0x15AC DUP2 PUSH3 0x14CF JUMP JUMPDEST SWAP1 DUP2 DUP5 MSTORE PUSH1 0x20 SWAP5 PUSH1 0x1 SWAP2 PUSH1 0x1 DUP2 AND SWAP1 DUP2 PUSH1 0x0 EQ PUSH3 0x1624 JUMPI POP PUSH1 0x1 EQ PUSH3 0x15E1 JUMPI JUMPDEST POP POP POP PUSH3 0x15DF SWAP3 POP SUB DUP4 PUSH3 0x1441 JUMP JUMPDEST JUMP JUMPDEST PUSH1 0x0 SWAP1 DUP2 MSTORE DUP6 DUP2 KECCAK256 SWAP6 SWAP4 POP SWAP2 SWAP1 JUMPDEST DUP2 DUP4 LT PUSH3 0x160B JUMPI POP POP PUSH3 0x15DF SWAP4 POP DUP3 ADD ADD CODESIZE DUP1 DUP1 PUSH3 0x15CE JUMP JUMPDEST DUP6 SLOAD DUP9 DUP5 ADD DUP6 ADD MSTORE SWAP5 DUP6 ADD SWAP5 DUP8 SWAP5 POP SWAP2 DUP4 ADD SWAP2 PUSH3 0x15EF JUMP JUMPDEST SWAP3 POP POP POP PUSH3 0x15DF SWAP5 SWAP3 POP PUSH1 0xFF NOT AND DUP3 DUP5 ADD MSTORE ISZERO ISZERO PUSH1 0x5 SHL DUP3 ADD ADD CODESIZE DUP1 DUP1 PUSH3 0x15CE JUMP JUMPDEST SWAP1 PUSH1 0x40 MLOAD PUSH3 0x1657 DUP2 PUSH3 0x140E JUMP JUMPDEST PUSH2 0x120 PUSH1 0x9 DUP3 SWAP5 PUSH1 0x1 DUP1 PUSH1 0xA0 SHL SUB DUP1 DUP3 SLOAD AND DUP6 MSTORE DUP1 PUSH1 0x1 DUP4 ADD SLOAD AND PUSH1 0x20 DUP7 ADD MSTORE PUSH1 0x2 DUP3 ADD SLOAD AND PUSH1 0x40 DUP6 ADD MSTORE PUSH3 0x1690 PUSH1 0x3 DUP3 ADD PUSH3 0x1597 JUMP JUMPDEST PUSH1 0x60 DUP6 ADD MSTORE PUSH3 0x16A3 PUSH1 0x4 DUP3 ADD PUSH3 0x1597 JUMP JUMPDEST PUSH1 0x80 DUP6 ADD MSTORE PUSH3 0x16B6 PUSH1 0x5 DUP3 ADD PUSH3 0x1597 JUMP JUMPDEST PUSH1 0xA0 DUP6 ADD MSTORE PUSH3 0x16C9 PUSH1 0x6 DUP3 ADD PUSH3 0x1597 JUMP JUMPDEST PUSH1 0xC0 DUP6 ADD MSTORE PUSH1 0x7 DUP2 ADD SLOAD PUSH1 0xE0 DUP6 ADD MSTORE PUSH1 0x8 DUP2 ADD SLOAD PUSH2 0x100 DUP6 ADD MSTORE ADD SLOAD SWAP2 ADD MSTORE JUMP JUMPDEST PUSH1 0x1 PUSH1 0x1 PUSH1 0x40 SHL SUB DUP2 GT PUSH3 0x142B JUMPI PUSH1 0x5 SHL PUSH1 0x20 ADD SWAP1 JUMP JUMPDEST DUP1 MLOAD DUP3 LT ISZERO PUSH3 0x14B9 JUMPI PUSH1 0x20 SWAP2 PUSH1 0x5 SHL ADD ADD SWAP1 JUMP JUMPDEST PUSH1 0x8 SLOAD SWAP3 SWAP2 DUP4 DUP3 LT ISZERO PUSH3 0x17F6 JUMPI DUP2 ADD SWAP3 DUP4 DUP3 GT PUSH3 0x13F8 JUMPI DUP1 DUP5 GT PUSH3 0x17ED JUMPI JUMPDEST POP PUSH3 0x1746 DUP2 DUP5 PUSH3 0x13EA JUMP JUMPDEST SWAP3 PUSH3 0x1752 DUP5 PUSH3 0x16EA JUMP JUMPDEST SWAP4 PUSH3 0x1762 PUSH1 0x40 MLOAD SWAP6 DUP7 PUSH3 0x1441 JUMP JUMPDEST DUP1 DUP6 MSTORE PUSH3 0x1773 PUSH1 0x1F NOT SWAP2 PUSH3 0x16EA JUMP JUMPDEST ADD PUSH1 0x0 JUMPDEST DUP2 DUP2 LT PUSH3 0x17D3 JUMPI POP POP DUP4 PUSH1 0x0 JUMPDEST DUP3 DUP5 LT PUSH3 0x1793 JUMPI POP POP POP POP JUMP JUMPDEST PUSH3 0x17A2 PUSH3 0x375 DUP6 PUSH3 0x147D JUMP JUMPDEST PUSH3 0x17AE DUP3 DUP5 PUSH3 0x1702 JUMP JUMPDEST MSTORE PUSH3 0x17BB DUP2 DUP4 PUSH3 0x1702 JUMP JUMPDEST POP PUSH1 0x0 NOT DUP2 EQ PUSH3 0x13F8 JUMPI PUSH1 0x1 SWAP4 DUP5 ADD SWAP4 ADD PUSH3 0x1785 JUMP JUMPDEST PUSH1 0x20 SWAP1 PUSH3 0x17E0 PUSH3 0x1546 JUMP JUMPDEST DUP3 DUP3 DUP10 ADD ADD MSTORE ADD PUSH3 0x1777 JUMP JUMPDEST SWAP3 POP CODESIZE PUSH3 0x1739 JUMP JUMPDEST POP POP SWAP1 POP PUSH1 0x40 MLOAD PUSH1 0x20 DUP2 ADD DUP2 DUP2 LT PUSH1 0x1 PUSH1 0x1 PUSH1 0x40 SHL SUB DUP3 GT OR PUSH3 0x142B JUMPI PUSH1 0x40 MSTORE PUSH1 0x0 DUP2 MSTORE SWAP1 JUMP INVALID PUSH2 0x100 CALLVALUE PUSH3 0x3A7 JUMPI PUSH1 0x1F PUSH3 0x1D51 CODESIZE DUP2 SWAP1 SUB SWAP2 DUP3 ADD PUSH1 0x1F NOT AND DUP4 ADD SWAP3 SWAP2 SWAP1 PUSH1 0x1 PUSH1 0x1 PUSH1 0x40 SHL SUB DUP5 GT DUP4 DUP6 LT OR PUSH3 0x3AC JUMPI DUP2 PUSH2 0x120 SWAP3 DUP5 SWAP3 PUSH1 0x40 SWAP7 DUP8 MSTORE DUP4 CODECOPY DUP2 ADD SUB SLT PUSH3 0x3A7 JUMPI PUSH3 0x53 DUP2 PUSH3 0x3C2 JUMP JUMPDEST PUSH1 0x20 SWAP1 PUSH3 0x63 DUP3 DUP5 ADD PUSH3 0x3C2 JUMP JUMPDEST SWAP2 PUSH3 0x71 DUP6 DUP6 ADD PUSH3 0x3C2 JUMP JUMPDEST SWAP3 PUSH1 0x60 DUP6 ADD MLOAD PUSH1 0x80 DUP7 ADD MLOAD PUSH1 0xA0 DUP8 ADD MLOAD SWAP2 PUSH1 0xC0 DUP9 ADD MLOAD SWAP4 PUSH3 0xA5 PUSH2 0x100 PUSH3 0x9D PUSH1 0xE0 DUP13 ADD PUSH3 0x3C2 JUMP JUMPDEST SWAP11 ADD PUSH3 0x3C2 JUMP JUMPDEST PUSH1 0x1 PUSH1 0x1 PUSH1 0xA0 SHL SUB SWAP9 SWAP1 SWAP8 SWAP1 DUP10 DUP3 AND ISZERO PUSH3 0x372 JUMPI DUP10 DUP4 AND ISZERO PUSH3 0x33B JUMPI DUP10 AND SWAP10 DUP11 ISZERO PUSH3 0x2F7 JUMPI PUSH2 0x12C DUP5 GT PUSH3 0x2C4 JUMPI DUP5 ISZERO PUSH3 0x280 JUMPI DUP6 ISZERO PUSH3 0x23C JUMPI DUP7 ISZERO PUSH3 0x206 JUMPI DUP10 AND SWAP7 DUP8 PUSH3 0x1BB JUMPI JUMPDEST POP PUSH1 0xA0 MSTORE PUSH1 0x80 MSTORE PUSH1 0x1 DUP1 PUSH1 0xA0 SHL SUB NOT SWAP8 DUP9 PUSH1 0x0 SLOAD AND OR PUSH1 0x0 SSTORE PUSH1 0x1 SSTORE PUSH1 0xC0 MSTORE PUSH1 0xE0 MSTORE PUSH1 0x4 SSTORE DUP4 PUSH1 0x5 SLOAD AND OR PUSH1 0x5 SSTORE AND SWAP1 PUSH1 0x6 SLOAD AND OR PUSH1 0x6 SSTORE MLOAD PUSH2 0x1979 SWAP1 DUP2 PUSH3 0x3D8 DUP3 CODECOPY PUSH1 0x80 MLOAD DUP2 DUP2 DUP2 PUSH2 0x718 ADD MSTORE DUP2 DUP2 PUSH2 0x79A ADD MSTORE DUP2 DUP2 PUSH2 0x95D ADD MSTORE PUSH2 0xCB1 ADD MSTORE PUSH1 0xA0 MLOAD DUP2 DUP2 DUP2 PUSH2 0x156 ADD MSTORE DUP2 DUP2 PUSH2 0x2ED ADD MSTORE DUP2 DUP2 PUSH2 0x53A ADD MSTORE DUP2 DUP2 PUSH2 0x7F7 ADD MSTORE PUSH2 0x1383 ADD MSTORE PUSH1 0xC0 MLOAD DUP2 DUP2 DUP2 PUSH2 0xAB9 ADD MSTORE DUP2 DUP2 PUSH2 0xF46 ADD MSTORE DUP2 DUP2 PUSH2 0x182A ADD MSTORE PUSH2 0x18C0 ADD MSTORE PUSH1 0xE0 MLOAD DUP2 DUP2 DUP2 PUSH2 0xC38 ADD MSTORE DUP2 DUP2 PUSH2 0xF13 ADD MSTORE DUP2 DUP2 PUSH2 0x185F ADD MSTORE PUSH2 0x18F1 ADD MSTORE RETURN JUMPDEST DUP10 DUP10 AND PUSH3 0xF6 JUMPI PUSH1 0x64 SWAP1 DUP13 MLOAD SWAP1 PUSH3 0x461BCD PUSH1 0xE5 SHL DUP3 MSTORE PUSH1 0x4 DUP3 ADD MSTORE PUSH1 0x15 PUSH1 0x24 DUP3 ADD MSTORE PUSH32 0x6C7020726563697069656E742072657175697265640000000000000000000000 PUSH1 0x44 DUP3 ADD MSTORE REVERT JUMPDEST DUP12 MLOAD PUSH3 0x461BCD PUSH1 0xE5 SHL DUP2 MSTORE PUSH1 0x4 DUP2 ADD DUP10 SWAP1 MSTORE PUSH1 0xF PUSH1 0x24 DUP3 ADD MSTORE PUSH15 0x1D185C99D95D081C995C5D5A5C9959 PUSH1 0x8A SHL PUSH1 0x44 DUP3 ADD MSTORE PUSH1 0x64 SWAP1 REVERT JUMPDEST DUP12 MLOAD PUSH3 0x461BCD PUSH1 0xE5 SHL DUP2 MSTORE PUSH1 0x4 DUP2 ADD DUP10 SWAP1 MSTORE PUSH1 0x16 PUSH1 0x24 DUP3 ADD MSTORE PUSH32 0x7669727475616C20746F6B656E20726571756972656400000000000000000000 PUSH1 0x44 DUP3 ADD MSTORE PUSH1 0x64 SWAP1 REVERT JUMPDEST DUP12 MLOAD PUSH3 0x461BCD PUSH1 0xE5 SHL DUP2 MSTORE PUSH1 0x4 DUP2 ADD DUP10 SWAP1 MSTORE PUSH1 0x14 PUSH1 0x24 DUP3 ADD MSTORE PUSH32 0x7669727475616C20657468207265717569726564000000000000000000000000 PUSH1 0x44 DUP3 ADD MSTORE PUSH1 0x64 SWAP1 REVERT JUMPDEST DUP12 MLOAD PUSH3 0x461BCD PUSH1 0xE5 SHL DUP2 MSTORE PUSH1 0x4 DUP2 ADD DUP10 SWAP1 MSTORE PUSH1 0xC PUSH1 0x24 DUP3 ADD MSTORE PUSH12 0xCCCACA40E8DEDE40D0D2CED PUSH1 0xA3 SHL PUSH1 0x44 DUP3 ADD MSTORE PUSH1 0x64 SWAP1 REVERT JUMPDEST DUP12 MLOAD PUSH3 0x461BCD PUSH1 0xE5 SHL DUP2 MSTORE PUSH1 0x4 DUP2 ADD DUP10 SWAP1 MSTORE PUSH1 0x16 PUSH1 0x24 DUP3 ADD MSTORE PUSH32 0x66656520726563697069656E7420726571756972656400000000000000000000 PUSH1 0x44 DUP3 ADD MSTORE PUSH1 0x64 SWAP1 REVERT JUMPDEST DUP12 MLOAD PUSH3 0x461BCD PUSH1 0xE5 SHL DUP2 MSTORE PUSH1 0x4 DUP2 ADD DUP10 SWAP1 MSTORE PUSH1 0x10 PUSH1 0x24 DUP3 ADD MSTORE PUSH16 0x199858DD1BDC9E481C995C5D5A5C9959 PUSH1 0x82 SHL PUSH1 0x44 DUP3 ADD MSTORE PUSH1 0x64 SWAP1 REVERT JUMPDEST DUP12 MLOAD PUSH3 0x461BCD PUSH1 0xE5 SHL DUP2 MSTORE PUSH1 0x4 DUP2 ADD DUP10 SWAP1 MSTORE PUSH1 0xE PUSH1 0x24 DUP3 ADD MSTORE PUSH14 0x1D1BDAD95B881C995C5D5A5C9959 PUSH1 0x92 SHL PUSH1 0x44 DUP3 ADD MSTORE PUSH1 0x64 SWAP1 REVERT JUMPDEST PUSH1 0x0 DUP1 REVERT JUMPDEST PUSH4 0x4E487B71 PUSH1 0xE0 SHL PUSH1 0x0 MSTORE PUSH1 0x41 PUSH1 0x4 MSTORE PUSH1 0x24 PUSH1 0x0 REVERT JUMPDEST MLOAD SWAP1 PUSH1 0x1 PUSH1 0x1 PUSH1 0xA0 SHL SUB DUP3 AND DUP3 SUB PUSH3 0x3A7 JUMPI JUMP INVALID PUSH1 0x80 PUSH1 0x40 DUP2 DUP2 MSTORE PUSH1 0x4 SWAP2 DUP3 CALLDATASIZE LT ISZERO PUSH2 0x16 JUMPI PUSH1 0x0 DUP1 REVERT JUMPDEST PUSH1 0x0 SWAP3 DUP4 CALLDATALOAD PUSH1 0xE0 SHR SWAP2 DUP3 PUSH4 0x758D924 EQ PUSH2 0xDF9 JUMPI POP DUP2 PUSH4 0x1AD15BBC EQ PUSH2 0xDD0 JUMPI DUP2 PUSH4 0x24A9D853 EQ PUSH2 0xDB1 JUMPI DUP2 PUSH4 0x2760ECA1 EQ PUSH2 0xD94 JUMPI DUP2 PUSH4 0x2A2C6972 EQ PUSH2 0xC82 JUMPI DUP2 PUSH4 0x334041A6 EQ PUSH2 0xC5B JUMPI DUP2 PUSH4 0x343EE3B7 EQ PUSH2 0xC20 JUMPI DUP2 PUSH4 0x398482D8 EQ PUSH2 0xBFC JUMPI DUP2 PUSH4 0x4329742D EQ PUSH2 0xB4C JUMPI DUP2 PUSH4 0x452E68DD EQ PUSH2 0xB23 JUMPI DUP2 PUSH4 0x46904840 EQ PUSH2 0xAFB JUMPI DUP2 PUSH4 0x4BEB394C EQ PUSH2 0xADC JUMPI DUP2 PUSH4 0x52B86D2B EQ PUSH2 0xAA1 JUMPI DUP2 PUSH4 0x7F544E49 EQ PUSH2 0xA82 JUMPI DUP2 PUSH4 0x8C575AA3 EQ PUSH2 0x920 JUMPI DUP2 PUSH4 0x95564837 EQ PUSH2 0x772 JUMPI DUP2 PUSH4 0xA64190C4 EQ PUSH2 0x747 JUMPI DUP2 PUSH4 0xC45A0155 EQ PUSH2 0x703 JUMPI DUP2 PUSH4 0xCBCB3171 EQ PUSH2 0x6E4 JUMPI DUP2 PUSH4 0xD62CCB3F EQ PUSH2 0x6C5 JUMPI DUP2 PUSH4 0xD79875EB EQ PUSH2 0x458 JUMPI DUP2 PUSH4 0xD96A094A EQ PUSH2 0x1EF JUMPI DUP2 PUSH4 0xE1A45218 EQ PUSH2 0x1D2 JUMPI DUP2 PUSH4 0xE7C2B772 EQ PUSH2 0x1AB JUMPI DUP2 PUSH4 0xF95A02D0 EQ PUSH2 0x189 JUMPI POP PUSH4 0xFC0C546A EQ PUSH2 0x143 JUMPI PUSH1 0x0 DUP1 REVERT JUMPDEST CALLVALUE PUSH2 0x185 JUMPI DUP2 PUSH1 0x3 NOT CALLDATASIZE ADD SLT PUSH2 0x185 JUMPI MLOAD PUSH32 0x0 PUSH1 0x1 PUSH1 0x1 PUSH1 0xA0 SHL SUB AND DUP2 MSTORE PUSH1 0x20 SWAP1 RETURN JUMPDEST POP DUP1 REVERT JUMPDEST SWAP1 POP CALLVALUE PUSH2 0x1A7 JUMPI DUP3 PUSH1 0x3 NOT CALLDATASIZE ADD SLT PUSH2 0x1A7 JUMPI PUSH1 0x20 SWAP3 POP SLOAD SWAP1 MLOAD SWAP1 DUP2 MSTORE RETURN JUMPDEST DUP3 DUP1 REVERT JUMPDEST POP POP CALLVALUE PUSH2 0x185 JUMPI DUP2 PUSH1 0x3 NOT CALLDATASIZE ADD SLT PUSH2 0x185 JUMPI PUSH1 0x20 SWAP1 PUSH1 0xFF PUSH1 0x6 SLOAD PUSH1 0xA8 SHR AND SWAP1 MLOAD SWAP1 ISZERO ISZERO DUP2 MSTORE RETURN JUMPDEST POP POP CALLVALUE PUSH2 0x185 JUMPI DUP2 PUSH1 0x3 NOT CALLDATASIZE ADD SLT PUSH2 0x185 JUMPI PUSH1 0x20 SWAP1 MLOAD PUSH2 0x2710 DUP2 MSTORE RETURN JUMPDEST SWAP2 SWAP1 POP PUSH1 0x20 SWAP3 DUP4 PUSH1 0x3 NOT CALLDATASIZE ADD SLT PUSH2 0x455 JUMPI PUSH1 0x6 SLOAD SWAP1 PUSH2 0x214 PUSH1 0xFF DUP4 PUSH1 0xB0 SHR AND ISZERO PUSH2 0xF92 JUMP JUMPDEST PUSH1 0xFF PUSH1 0xB0 SHL NOT SWAP2 DUP3 AND PUSH1 0x1 PUSH1 0xB0 SHL OR PUSH1 0x6 DUP2 SWAP1 SSTORE PUSH2 0x248 SWAP1 PUSH1 0xFF SWAP1 PUSH2 0x23E PUSH1 0xA0 DUP3 SWAP1 SHR DUP4 AND PUSH2 0xFCB JUMP JUMPDEST PUSH1 0xA8 SHR AND ISZERO PUSH2 0x1193 JUMP JUMPDEST CALLVALUE ISZERO PUSH2 0x423 JUMPI PUSH2 0x2710 PUSH2 0x25D PUSH1 0x1 SLOAD CALLVALUE PUSH2 0xE39 JUMP JUMPDEST DIV SWAP1 PUSH2 0x269 DUP3 CALLVALUE PUSH2 0x1049 JUMP JUMPDEST SWAP5 PUSH2 0x273 DUP7 PUSH2 0x181C JUMP JUMPDEST SWAP6 PUSH2 0x27F DUP8 ISZERO ISZERO PUSH2 0x11CB JUMP JUMPDEST PUSH2 0x28C DUP3 CALLDATALOAD DUP9 LT ISZERO PUSH2 0x120D JUMP JUMPDEST PUSH1 0x3 SLOAD SWAP1 DUP2 DUP9 GT PUSH2 0x3E7 JUMPI PUSH2 0x2E8 SWAP3 PUSH2 0x2B6 DUP10 DUP12 SWAP5 PUSH2 0x2AE DUP3 SWAP6 PUSH1 0x2 SLOAD PUSH2 0xEFE JUMP JUMPDEST PUSH1 0x2 SSTORE PUSH2 0x1049 JUMP JUMPDEST PUSH1 0x3 SSTORE DUP6 PUSH2 0x3C0 JUMPI JUMPDEST DUP8 MLOAD PUSH4 0xA9059CBB PUSH1 0xE0 SHL DUP2 MSTORE CALLER SWAP2 DUP2 ADD SWAP2 DUP3 MSTORE PUSH1 0x20 DUP3 ADD SWAP3 SWAP1 SWAP3 MSTORE SWAP1 SWAP3 DUP4 SWAP2 DUP3 SWAP2 PUSH1 0x40 SWAP1 SWAP2 ADD SWAP1 JUMP JUMPDEST SUB DUP2 DUP6 PUSH32 0x0 PUSH1 0x1 PUSH1 0x1 PUSH1 0xA0 SHL SUB AND GAS CALL SWAP2 DUP3 ISZERO PUSH2 0x3B5 JUMPI SWAP1 PUSH2 0x32E SWAP3 PUSH2 0x388 JUMPI JUMPDEST POP PUSH2 0x125C JUMP JUMPDEST PUSH32 0xBEAE048C6D270D9469F86CF6E8FEDDA3C60AD770F16C24C9FC131C8E9A09101D DUP4 MLOAD DUP1 PUSH2 0x370 DUP8 CALLER SWAP6 CALLVALUE DUP5 PUSH1 0x40 SWAP2 SWAP5 SWAP4 SWAP3 PUSH1 0x60 DUP3 ADD SWAP6 DUP3 MSTORE PUSH1 0x20 DUP3 ADD MSTORE ADD MSTORE JUMP JUMPDEST SUB SWAP1 LOG2 PUSH2 0x37B PUSH2 0x1921 JUMP JUMPDEST PUSH1 0x6 SLOAD AND PUSH1 0x6 SSTORE MLOAD SWAP1 DUP2 MSTORE RETURN JUMPDEST PUSH2 0x3A8 SWAP2 POP DUP8 RETURNDATASIZE DUP10 GT PUSH2 0x3AE JUMPI JUMPDEST PUSH2 0x3A0 DUP2 DUP4 PUSH2 0x10FD JUMP JUMPDEST DUP2 ADD SWAP1 PUSH2 0x1244 JUMP JUMPDEST CODESIZE PUSH2 0x328 JUMP JUMPDEST POP RETURNDATASIZE PUSH2 0x396 JUMP JUMPDEST DUP6 MLOAD SWAP1 RETURNDATASIZE SWAP1 DUP3 RETURNDATACOPY RETURNDATASIZE SWAP1 REVERT JUMPDEST PUSH2 0x3E2 DUP6 DUP1 DUP1 DUP1 DUP11 PUSH1 0x1 DUP1 PUSH1 0xA0 SHL SUB DUP3 SLOAD AND GAS CALL PUSH2 0x3DC PUSH2 0x12A0 JUMP JUMPDEST POP PUSH2 0x12E0 JUMP JUMPDEST PUSH2 0x2BF JUMP JUMPDEST DUP7 MLOAD PUSH3 0x461BCD PUSH1 0xE5 SHL DUP2 MSTORE DUP1 DUP5 ADD DUP11 SWAP1 MSTORE PUSH1 0x16 PUSH1 0x24 DUP3 ADD MSTORE PUSH22 0x696E73756666696369656E74206C6971756964697479 PUSH1 0x50 SHL PUSH1 0x44 DUP3 ADD MSTORE PUSH1 0x64 SWAP1 REVERT JUMPDEST DUP3 MLOAD PUSH3 0x461BCD PUSH1 0xE5 SHL DUP2 MSTORE DUP1 DUP6 ADD DUP7 SWAP1 MSTORE PUSH1 0xC PUSH1 0x24 DUP3 ADD MSTORE PUSH12 0x195D1A081C995C5D5A5C9959 PUSH1 0xA2 SHL PUSH1 0x44 DUP3 ADD MSTORE PUSH1 0x64 SWAP1 REVERT JUMPDEST DUP1 REVERT JUMPDEST SWAP2 SWAP1 POP CALLVALUE PUSH2 0x1A7 JUMPI DUP1 PUSH1 0x3 NOT CALLDATASIZE ADD SLT PUSH2 0x1A7 JUMPI DUP2 CALLDATALOAD PUSH1 0x6 SLOAD SWAP1 PUSH2 0x481 PUSH1 0xFF DUP4 PUSH1 0xB0 SHR AND ISZERO PUSH2 0xF92 JUMP JUMPDEST PUSH1 0xFF PUSH1 0xB0 SHL NOT SWAP2 DUP3 AND PUSH1 0x1 PUSH1 0xB0 SHL OR PUSH1 0x6 DUP2 SWAP1 SSTORE PUSH2 0x4AB SWAP1 PUSH1 0xFF SWAP1 PUSH2 0x23E PUSH1 0xA0 DUP3 SWAP1 SHR DUP4 AND PUSH2 0xFCB JUMP JUMPDEST PUSH2 0x4B6 DUP2 ISZERO ISZERO PUSH2 0x10B9 JUMP JUMPDEST PUSH2 0x4BF DUP2 PUSH2 0x18B4 JUMP JUMPDEST SWAP5 PUSH2 0x4CB DUP7 ISZERO ISZERO PUSH2 0x11CB JUMP JUMPDEST PUSH1 0x2 SLOAD DUP7 GT PUSH2 0x682 JUMPI PUSH2 0x2710 PUSH2 0x4E3 PUSH1 0x1 SLOAD DUP9 PUSH2 0xE39 JUMP JUMPDEST DIV SWAP6 PUSH2 0x4EF DUP8 DUP3 PUSH2 0x1049 JUMP JUMPDEST SWAP6 PUSH2 0x4FE PUSH1 0x24 CALLDATALOAD DUP9 LT ISZERO PUSH2 0x120D JUMP JUMPDEST DUP6 MLOAD PUSH4 0x23B872DD PUSH1 0xE0 SHL DUP2 MSTORE CALLER DUP3 DUP3 ADD SWAP1 DUP2 MSTORE ADDRESS PUSH1 0x20 DUP3 DUP2 ADD SWAP2 SWAP1 SWAP2 MSTORE PUSH1 0x40 DUP3 ADD DUP8 SWAP1 MSTORE PUSH1 0x1 PUSH1 0x1 PUSH1 0xA0 SHL SUB SWAP5 SWAP3 SWAP2 DUP3 SWAP1 DUP2 SWAP1 PUSH1 0x60 ADD SUB DUP2 DUP9 DUP9 PUSH32 0x0 AND GAS CALL SWAP1 DUP2 ISZERO PUSH2 0x678 JUMPI PUSH2 0x58F SWAP3 SWAP2 PUSH2 0x578 SWAP2 DUP8 SWAP2 PUSH2 0x65F JUMPI POP PUSH2 0x125C JUMP JUMPDEST PUSH2 0x584 DUP7 PUSH1 0x3 SLOAD PUSH2 0xEFE JUMP JUMPDEST PUSH1 0x3 SSTORE PUSH1 0x2 SLOAD PUSH2 0x1049 JUMP JUMPDEST PUSH1 0x2 SSTORE DUP3 DUP1 DUP1 DUP1 DUP11 CALLER GAS CALL PUSH2 0x5A2 PUSH2 0x12A0 JUMP JUMPDEST POP ISZERO PUSH2 0x626 JUMPI POP DUP7 DUP1 PUSH32 0x846C37EEF631E0943682D87352EC117C20008EB7F425C9B85AC011A6D4774CC0 SWAP4 PUSH2 0x5F9 SWAP4 PUSH1 0x20 SWAP11 PUSH2 0x609 JUMPI JUMPDEST POP POP DUP7 MLOAD SWAP5 DUP6 MSTORE POP PUSH1 0x20 DUP5 ADD DUP8 SWAP1 MSTORE PUSH1 0x40 DUP5 ADD MSTORE CALLER SWAP3 SWAP1 DUP2 SWAP1 PUSH1 0x60 DUP3 ADD SWAP1 JUMP JUMPDEST SUB SWAP1 LOG2 PUSH1 0x6 SLOAD AND PUSH1 0x6 SSTORE MLOAD SWAP1 DUP2 MSTORE RETURN JUMPDEST DUP2 DUP1 PUSH2 0x61E SWAP5 DUP2 SWAP4 DUP3 SLOAD AND GAS CALL PUSH2 0x3DC PUSH2 0x12A0 JUMP JUMPDEST DUP1 CODESIZE DUP1 PUSH2 0x5D9 JUMP JUMPDEST PUSH1 0x64 SWAP1 PUSH1 0x20 DUP8 MLOAD SWAP2 PUSH3 0x461BCD PUSH1 0xE5 SHL DUP4 MSTORE DUP3 ADD MSTORE PUSH1 0x13 PUSH1 0x24 DUP3 ADD MSTORE PUSH19 0x195D1A081D1C985B9CD9995C8819985A5B1959 PUSH1 0x6A SHL PUSH1 0x44 DUP3 ADD MSTORE REVERT JUMPDEST PUSH2 0x3A8 SWAP2 POP PUSH1 0x20 RETURNDATASIZE PUSH1 0x20 GT PUSH2 0x3AE JUMPI PUSH2 0x3A0 DUP2 DUP4 PUSH2 0x10FD JUMP JUMPDEST DUP9 MLOAD RETURNDATASIZE DUP8 DUP3 RETURNDATACOPY RETURNDATASIZE SWAP1 REVERT JUMPDEST DUP4 MLOAD PUSH3 0x461BCD PUSH1 0xE5 SHL DUP2 MSTORE PUSH1 0x20 DUP2 DUP8 ADD MSTORE PUSH1 0x18 PUSH1 0x24 DUP3 ADD MSTORE PUSH32 0x696E73756666696369656E742065746820726573657276650000000000000000 PUSH1 0x44 DUP3 ADD MSTORE PUSH1 0x64 SWAP1 REVERT JUMPDEST POP POP CALLVALUE PUSH2 0x185 JUMPI DUP2 PUSH1 0x3 NOT CALLDATASIZE ADD SLT PUSH2 0x185 JUMPI PUSH1 0x20 SWAP1 PUSH1 0x2 SLOAD SWAP1 MLOAD SWAP1 DUP2 MSTORE RETURN JUMPDEST POP POP CALLVALUE PUSH2 0x185 JUMPI DUP2 PUSH1 0x3 NOT CALLDATASIZE ADD SLT PUSH2 0x185 JUMPI PUSH1 0x20 SWAP1 PUSH1 0x3 SLOAD SWAP1 MLOAD SWAP1 DUP2 MSTORE RETURN JUMPDEST POP POP CALLVALUE PUSH2 0x185 JUMPI DUP2 PUSH1 0x3 NOT CALLDATASIZE ADD SLT PUSH2 0x185 JUMPI MLOAD PUSH32 0x0 PUSH1 0x1 PUSH1 0x1 PUSH1 0xA0 SHL SUB AND DUP2 MSTORE PUSH1 0x20 SWAP1 RETURN JUMPDEST SWAP1 POP DUP3 CALLVALUE PUSH2 0x455 JUMPI PUSH1 0x20 CALLDATASIZE PUSH1 0x3 NOT ADD SLT PUSH2 0x455 JUMPI POP PUSH2 0x766 SWAP1 CALLDATALOAD PUSH2 0x1135 JUMP JUMPDEST DUP3 MLOAD SWAP2 DUP3 MSTORE PUSH1 0x20 DUP3 ADD MSTORE RETURN JUMPDEST DUP4 SWAP2 POP CALLVALUE PUSH2 0x185 JUMPI PUSH1 0x20 SWAP1 DUP2 PUSH1 0x3 NOT CALLDATASIZE ADD SLT PUSH2 0x1A7 JUMPI DUP1 CALLDATALOAD SWAP1 PUSH1 0x1 PUSH1 0x1 PUSH1 0xA0 SHL SUB SWAP1 PUSH2 0x7C1 CALLER PUSH32 0x0 DUP5 AND EQ PUSH2 0xEC3 JUMP JUMPDEST PUSH1 0x6 SLOAD SWAP2 PUSH1 0xFF DUP4 PUSH1 0xA0 SHR AND PUSH2 0x8EC JUMPI DUP5 PUSH1 0x24 SWAP2 PUSH2 0x7DF DUP7 ISZERO ISZERO PUSH2 0x10B9 JUMP JUMPDEST DUP9 MLOAD PUSH4 0x70A08231 PUSH1 0xE0 SHL DUP2 MSTORE ADDRESS DUP6 DUP3 ADD MSTORE SWAP3 DUP4 SWAP2 DUP3 SWAP1 PUSH32 0x0 AND GAS STATICCALL SWAP1 DUP2 ISZERO PUSH2 0x8E2 JUMPI SWAP1 DUP5 SWAP2 DUP8 SWAP2 PUSH2 0x8AD JUMPI JUMPDEST POP LT PUSH2 0x874 JUMPI POP PUSH1 0xFF PUSH1 0xA0 SHL NOT AND PUSH1 0x1 PUSH1 0xA0 SHL OR PUSH1 0x6 SSTORE PUSH1 0x3 DUP2 SWAP1 SSTORE SWAP3 MLOAD SWAP3 DUP4 MSTORE SWAP1 SWAP2 PUSH32 0xA71ED34FF06AF8D6865A8F541AAE52D72FA89F0E5EE15F01D48FA6C62C856914 SWAP2 SWAP1 LOG1 DUP1 RETURN JUMPDEST DUP6 MLOAD PUSH3 0x461BCD PUSH1 0xE5 SHL DUP2 MSTORE SWAP1 DUP2 ADD DUP5 SWAP1 MSTORE PUSH1 0x13 PUSH1 0x24 DUP3 ADD MSTORE PUSH19 0x696E73756666696369656E7420746F6B656E73 PUSH1 0x68 SHL PUSH1 0x44 DUP3 ADD MSTORE PUSH1 0x64 SWAP1 REVERT JUMPDEST DUP1 SWAP3 POP DUP7 DUP1 SWAP3 POP RETURNDATASIZE DUP4 GT PUSH2 0x8DB JUMPI JUMPDEST PUSH2 0x8C6 DUP2 DUP4 PUSH2 0x10FD JUMP JUMPDEST DUP2 ADD SUB SLT PUSH2 0x8D7 JUMPI DUP4 SWAP1 MLOAD DUP9 PUSH2 0x82A JUMP JUMPDEST DUP6 DUP1 REVERT JUMPDEST POP RETURNDATASIZE PUSH2 0x8BC JUMP JUMPDEST DUP8 MLOAD RETURNDATASIZE DUP9 DUP3 RETURNDATACOPY RETURNDATASIZE SWAP1 REVERT JUMPDEST DUP7 MLOAD PUSH3 0x461BCD PUSH1 0xE5 SHL DUP2 MSTORE DUP1 DUP4 ADD DUP7 SWAP1 MSTORE PUSH1 0xE PUSH1 0x24 DUP3 ADD MSTORE PUSH14 0x185B1C9958591E481CD959591959 PUSH1 0x92 SHL PUSH1 0x44 DUP3 ADD MSTORE PUSH1 0x64 SWAP1 REVERT JUMPDEST DUP4 SWAP2 POP CALLVALUE PUSH2 0x185 JUMPI PUSH1 0x60 CALLDATASIZE PUSH1 0x3 NOT ADD SLT PUSH2 0x185 JUMPI PUSH2 0x93C PUSH2 0xE1E JUMP JUMPDEST PUSH1 0x24 CALLDATALOAD SWAP2 PUSH1 0x1 PUSH1 0x1 PUSH1 0xA0 SHL SUB SWAP1 DUP2 DUP5 AND DUP1 DUP6 SUB PUSH2 0x8D7 JUMPI PUSH1 0x44 CALLDATALOAD SWAP3 PUSH2 0x984 DUP2 PUSH32 0x0 AND CALLER EQ PUSH2 0xEC3 JUMP JUMPDEST PUSH1 0x6 SLOAD SWAP1 PUSH2 0x998 PUSH1 0xFF DUP4 PUSH1 0xA8 SHR AND ISZERO PUSH2 0x1009 JUMP JUMPDEST DUP5 ISZERO PUSH2 0xA4D JUMPI DUP6 AND SWAP1 DUP2 PUSH2 0xA0D JUMPI JUMPDEST PUSH1 0x5 DUP1 SLOAD PUSH1 0x1 PUSH1 0x1 PUSH1 0xA0 SHL SUB NOT SWAP1 DUP2 AND SWAP4 SWAP1 SWAP4 OR SWAP1 SSTORE AND OR PUSH1 0x6 SSTORE DUP2 SWAP1 SSTORE SWAP4 MLOAD PUSH1 0x1 PUSH1 0x1 PUSH1 0xA0 SHL SUB SWAP2 DUP3 AND DUP2 MSTORE SWAP2 AND PUSH1 0x20 DUP3 ADD MSTORE PUSH1 0x40 DUP2 ADD SWAP3 SWAP1 SWAP3 MSTORE SWAP1 PUSH32 0xBCDC4BFF84F936019028A7BCBEF6B449550D6334606377B822720E57E94276C4 SWAP1 PUSH1 0x60 SWAP1 LOG1 DUP1 RETURN JUMPDEST DUP3 PUSH2 0x9A7 JUMPI DUP9 MLOAD PUSH3 0x461BCD PUSH1 0xE5 SHL DUP2 MSTORE PUSH1 0x20 DUP2 DUP7 ADD MSTORE PUSH1 0x15 PUSH1 0x24 DUP3 ADD MSTORE PUSH21 0x1B1C081C9958DA5C1A595B9D081C995C5D5A5C9959 PUSH1 0x5A SHL PUSH1 0x44 DUP3 ADD MSTORE PUSH1 0x64 SWAP1 REVERT JUMPDEST DUP9 MLOAD PUSH3 0x461BCD PUSH1 0xE5 SHL DUP2 MSTORE PUSH1 0x20 DUP2 DUP7 ADD MSTORE PUSH1 0xF PUSH1 0x24 DUP3 ADD MSTORE PUSH15 0x1D185C99D95D081C995C5D5A5C9959 PUSH1 0x8A SHL PUSH1 0x44 DUP3 ADD MSTORE PUSH1 0x64 SWAP1 REVERT JUMPDEST POP POP CALLVALUE PUSH2 0x185 JUMPI DUP2 PUSH1 0x3 NOT CALLDATASIZE ADD SLT PUSH2 0x185 JUMPI PUSH1 0x20 SWAP1 PUSH1 0x8 SLOAD SWAP1 MLOAD SWAP1 DUP2 MSTORE RETURN JUMPDEST POP POP CALLVALUE PUSH2 0x185 JUMPI DUP2 PUSH1 0x3 NOT CALLDATASIZE ADD SLT PUSH2 0x185 JUMPI PUSH1 0x20 SWAP1 MLOAD PUSH32 0x0 DUP2 MSTORE RETURN JUMPDEST SWAP1 POP DUP3 CALLVALUE PUSH2 0x455 JUMPI PUSH1 0x20 CALLDATASIZE PUSH1 0x3 NOT ADD SLT PUSH2 0x455 JUMPI POP PUSH2 0x766 SWAP1 CALLDATALOAD PUSH2 0x1056 JUMP JUMPDEST POP POP CALLVALUE PUSH2 0x185 JUMPI DUP2 PUSH1 0x3 NOT CALLDATASIZE ADD SLT PUSH2 0x185 JUMPI SWAP1 SLOAD SWAP1 MLOAD PUSH1 0x1 PUSH1 0x1 PUSH1 0xA0 SHL SUB SWAP1 SWAP2 AND DUP2 MSTORE PUSH1 0x20 SWAP1 RETURN JUMPDEST POP POP CALLVALUE PUSH2 0x185 JUMPI DUP2 PUSH1 0x3 NOT CALLDATASIZE ADD SLT PUSH2 0x185 JUMPI PUSH1 0x6 SLOAD SWAP1 MLOAD PUSH1 0x1 PUSH1 0x1 PUSH1 0xA0 SHL SUB SWAP1 SWAP2 AND DUP2 MSTORE PUSH1 0x20 SWAP1 RETURN JUMPDEST SWAP1 POP CALLVALUE PUSH2 0x1A7 JUMPI DUP3 PUSH1 0x3 NOT CALLDATASIZE ADD SLT PUSH2 0x1A7 JUMPI PUSH1 0x6 SLOAD SWAP2 PUSH2 0xB72 PUSH1 0xFF DUP5 PUSH1 0xB0 SHR AND ISZERO PUSH2 0xF92 JUMP JUMPDEST PUSH1 0xFF PUSH1 0xB0 SHL NOT SWAP3 DUP4 AND PUSH1 0x1 PUSH1 0xB0 SHL OR PUSH1 0x6 DUP2 SWAP1 SSTORE PUSH2 0xBA6 SWAP1 PUSH1 0xFF SWAP1 PUSH2 0xB9C PUSH1 0xA0 DUP3 SWAP1 SHR DUP4 AND PUSH2 0xFCB JUMP JUMPDEST PUSH1 0xA8 SHR AND ISZERO PUSH2 0x1009 JUMP JUMPDEST PUSH1 0x2 SLOAD DUP3 SLOAD GT PUSH2 0xBC4 JUMPI POP POP PUSH2 0xBBA PUSH2 0x1341 JUMP JUMPDEST PUSH1 0x6 SLOAD AND PUSH1 0x6 SSTORE DUP1 RETURN JUMPDEST SWAP1 PUSH1 0x20 PUSH1 0x64 SWAP3 MLOAD SWAP2 PUSH3 0x461BCD PUSH1 0xE5 SHL DUP4 MSTORE DUP3 ADD MSTORE PUSH1 0x12 PUSH1 0x24 DUP3 ADD MSTORE PUSH18 0x1D185C99D95D081B9BDD081C995858DA1959 PUSH1 0x72 SHL PUSH1 0x44 DUP3 ADD MSTORE REVERT JUMPDEST POP POP CALLVALUE PUSH2 0x185 JUMPI DUP2 PUSH1 0x3 NOT CALLDATASIZE ADD SLT PUSH2 0x185 JUMPI PUSH1 0x20 SWAP1 PUSH2 0xC19 PUSH2 0xF0B JUMP JUMPDEST SWAP1 MLOAD SWAP1 DUP2 MSTORE RETURN JUMPDEST POP POP CALLVALUE PUSH2 0x185 JUMPI DUP2 PUSH1 0x3 NOT CALLDATASIZE ADD SLT PUSH2 0x185 JUMPI PUSH1 0x20 SWAP1 MLOAD PUSH32 0x0 DUP2 MSTORE RETURN JUMPDEST POP POP CALLVALUE PUSH2 0x185 JUMPI DUP2 PUSH1 0x3 NOT CALLDATASIZE ADD SLT PUSH2 0x185 JUMPI PUSH1 0x20 SWAP1 PUSH1 0xFF PUSH1 0x6 SLOAD PUSH1 0xA0 SHR AND SWAP1 MLOAD SWAP1 ISZERO ISZERO DUP2 MSTORE RETURN JUMPDEST SWAP2 SWAP1 POP CALLVALUE PUSH2 0x1A7 JUMPI DUP1 PUSH1 0x3 NOT CALLDATASIZE ADD SLT PUSH2 0x1A7 JUMPI PUSH2 0xC9D PUSH2 0xE1E JUMP JUMPDEST PUSH1 0x24 CALLDATALOAD SWAP2 SWAP1 PUSH1 0x1 PUSH1 0x1 PUSH1 0xA0 SHL SUB SWAP1 PUSH2 0xCD8 CALLER PUSH32 0x0 DUP5 AND EQ PUSH2 0xEC3 JUMP JUMPDEST AND SWAP3 DUP4 ISZERO PUSH2 0xD5D JUMPI PUSH2 0x12C DUP4 GT PUSH2 0xD2C JUMPI POP DUP4 SLOAD PUSH1 0x1 PUSH1 0x1 PUSH1 0xA0 SHL SUB NOT AND DUP4 OR DUP5 SSTORE PUSH1 0x1 DUP3 SWAP1 SSTORE MLOAD SWAP1 DUP2 MSTORE PUSH32 0xE42708D93B95810922305119A3271CA42233DA9EBE1E1E503F0E887817A32C7A SWAP1 PUSH1 0x20 SWAP1 LOG2 DUP1 RETURN JUMPDEST PUSH1 0x20 PUSH1 0x64 SWAP3 MLOAD SWAP2 PUSH3 0x461BCD PUSH1 0xE5 SHL DUP4 MSTORE DUP3 ADD MSTORE PUSH1 0xC PUSH1 0x24 DUP3 ADD MSTORE PUSH12 0xCCCACA40E8DEDE40D0D2CED PUSH1 0xA3 SHL PUSH1 0x44 DUP3 ADD MSTORE REVERT JUMPDEST PUSH1 0x20 PUSH1 0x64 SWAP3 MLOAD SWAP2 PUSH3 0x461BCD PUSH1 0xE5 SHL DUP4 MSTORE DUP3 ADD MSTORE PUSH1 0x12 PUSH1 0x24 DUP3 ADD MSTORE PUSH18 0x1C9958DA5C1A595B9D081C995C5D5A5C9959 PUSH1 0x72 SHL PUSH1 0x44 DUP3 ADD MSTORE REVERT JUMPDEST POP POP CALLVALUE PUSH2 0x185 JUMPI DUP2 PUSH1 0x3 NOT CALLDATASIZE ADD SLT PUSH2 0x185 JUMPI PUSH1 0x20 SWAP1 PUSH2 0xC19 PUSH2 0xE82 JUMP JUMPDEST POP POP CALLVALUE PUSH2 0x185 JUMPI DUP2 PUSH1 0x3 NOT CALLDATASIZE ADD SLT PUSH2 0x185 JUMPI PUSH1 0x20 SWAP1 PUSH1 0x1 SLOAD SWAP1 MLOAD SWAP1 DUP2 MSTORE RETURN JUMPDEST POP POP CALLVALUE PUSH2 0x185 JUMPI DUP2 PUSH1 0x3 NOT CALLDATASIZE ADD SLT PUSH2 0x185 JUMPI PUSH1 0x7 SLOAD SWAP1 MLOAD PUSH1 0x1 PUSH1 0x1 PUSH1 0xA0 SHL SUB SWAP1 SWAP2 AND DUP2 MSTORE PUSH1 0x20 SWAP1 RETURN JUMPDEST DUP5 SWAP1 CALLVALUE PUSH2 0x185 JUMPI DUP2 PUSH1 0x3 NOT CALLDATASIZE ADD SLT PUSH2 0x185 JUMPI PUSH1 0x5 SLOAD PUSH1 0x1 PUSH1 0x1 PUSH1 0xA0 SHL SUB AND DUP2 MSTORE PUSH1 0x20 SWAP1 RETURN JUMPDEST PUSH1 0x4 CALLDATALOAD SWAP1 PUSH1 0x1 PUSH1 0x1 PUSH1 0xA0 SHL SUB DUP3 AND DUP3 SUB PUSH2 0xE34 JUMPI JUMP JUMPDEST PUSH1 0x0 DUP1 REVERT JUMPDEST DUP2 DUP2 MUL SWAP3 SWAP2 DUP2 ISZERO SWAP2 DUP5 DIV EQ OR ISZERO PUSH2 0xE4C JUMPI JUMP JUMPDEST PUSH4 0x4E487B71 PUSH1 0xE0 SHL PUSH1 0x0 MSTORE PUSH1 0x11 PUSH1 0x4 MSTORE PUSH1 0x24 PUSH1 0x0 REVERT JUMPDEST DUP2 ISZERO PUSH2 0xE6C JUMPI DIV SWAP1 JUMP JUMPDEST PUSH4 0x4E487B71 PUSH1 0xE0 SHL PUSH1 0x0 MSTORE PUSH1 0x12 PUSH1 0x4 MSTORE PUSH1 0x24 PUSH1 0x0 REVERT JUMPDEST PUSH1 0x4 SLOAD DUP1 ISZERO PUSH2 0xEBD JUMPI PUSH1 0x2 SLOAD PUSH2 0x2710 SWAP2 DUP3 DUP3 MUL SWAP2 DUP1 DUP4 DIV DUP5 EQ SWAP1 ISZERO OR ISZERO PUSH2 0xE4C JUMPI PUSH2 0xEAC SWAP2 PUSH2 0xE62 JUMP JUMPDEST SWAP1 DUP1 DUP3 GT PUSH2 0xEB8 JUMPI POP SWAP1 JUMP JUMPDEST SWAP1 POP SWAP1 JUMP JUMPDEST POP PUSH1 0x0 SWAP1 JUMP JUMPDEST ISZERO PUSH2 0xECA JUMPI JUMP JUMPDEST PUSH1 0x40 MLOAD PUSH3 0x461BCD PUSH1 0xE5 SHL DUP2 MSTORE PUSH1 0x20 PUSH1 0x4 DUP3 ADD MSTORE PUSH1 0xC PUSH1 0x24 DUP3 ADD MSTORE PUSH12 0x6F6E6C7920666163746F7279 PUSH1 0xA0 SHL PUSH1 0x44 DUP3 ADD MSTORE PUSH1 0x64 SWAP1 REVERT JUMPDEST SWAP2 SWAP1 DUP3 ADD DUP1 SWAP3 GT PUSH2 0xE4C JUMPI JUMP JUMPDEST PUSH2 0xF38 PUSH1 0x3 SLOAD PUSH32 0x0 SWAP1 PUSH2 0xEFE JUMP JUMPDEST DUP1 ISZERO PUSH2 0xEBD JUMPI PUSH2 0xF6B PUSH1 0x2 SLOAD PUSH32 0x0 SWAP1 PUSH2 0xEFE JUMP JUMPDEST SWAP1 PUSH8 0xDE0B6B3A7640000 SWAP2 DUP3 DUP2 MUL SWAP3 DUP2 DUP5 DIV EQ SWAP1 ISZERO OR ISZERO PUSH2 0xE4C JUMPI PUSH2 0xF8F SWAP2 PUSH2 0xE62 JUMP JUMPDEST SWAP1 JUMP JUMPDEST ISZERO PUSH2 0xF99 JUMPI JUMP JUMPDEST PUSH1 0x40 MLOAD PUSH3 0x461BCD PUSH1 0xE5 SHL DUP2 MSTORE PUSH1 0x20 PUSH1 0x4 DUP3 ADD MSTORE PUSH1 0xA PUSH1 0x24 DUP3 ADD MSTORE PUSH10 0x7265656E7472616E6379 PUSH1 0xB0 SHL PUSH1 0x44 DUP3 ADD MSTORE PUSH1 0x64 SWAP1 REVERT JUMPDEST ISZERO PUSH2 0xFD2 JUMPI JUMP JUMPDEST PUSH1 0x40 MLOAD PUSH3 0x461BCD PUSH1 0xE5 SHL DUP2 MSTORE PUSH1 0x20 PUSH1 0x4 DUP3 ADD MSTORE PUSH1 0xF PUSH1 0x24 DUP3 ADD MSTORE PUSH15 0x1C1BDBDB081B9BDD081CD959591959 PUSH1 0x8A SHL PUSH1 0x44 DUP3 ADD MSTORE PUSH1 0x64 SWAP1 REVERT JUMPDEST ISZERO PUSH2 0x1010 JUMPI JUMP JUMPDEST PUSH1 0x40 MLOAD PUSH3 0x461BCD PUSH1 0xE5 SHL DUP2 MSTORE PUSH1 0x20 PUSH1 0x4 DUP3 ADD MSTORE PUSH1 0x11 PUSH1 0x24 DUP3 ADD MSTORE PUSH17 0x185B1C9958591E4819DC98591D585D1959 PUSH1 0x7A SHL PUSH1 0x44 DUP3 ADD MSTORE PUSH1 0x64 SWAP1 REVERT JUMPDEST SWAP2 SWAP1 DUP3 SUB SWAP2 DUP3 GT PUSH2 0xE4C JUMPI JUMP JUMPDEST PUSH1 0x6 SLOAD PUSH1 0xFF DUP2 PUSH1 0xA0 SHR AND ISZERO SWAP1 DUP2 ISZERO PUSH2 0x10AB JUMPI JUMPDEST POP DUP1 ISZERO PUSH2 0x10A3 JUMPI JUMPDEST PUSH2 0x109A JUMPI PUSH2 0x1097 PUSH2 0x1092 PUSH2 0x2710 PUSH2 0x108A PUSH1 0x1 SLOAD DUP6 PUSH2 0xE39 JUMP JUMPDEST DIV DUP1 SWAP4 PUSH2 0x1049 JUMP JUMPDEST PUSH2 0x181C JUMP JUMPDEST SWAP2 JUMP JUMPDEST POP PUSH1 0x0 SWAP1 PUSH1 0x0 SWAP1 JUMP JUMPDEST POP DUP1 ISZERO PUSH2 0x1071 JUMP JUMPDEST PUSH1 0xFF SWAP2 POP PUSH1 0xA8 SHR AND CODESIZE PUSH2 0x1069 JUMP JUMPDEST ISZERO PUSH2 0x10C0 JUMPI JUMP JUMPDEST PUSH1 0x40 MLOAD PUSH3 0x461BCD PUSH1 0xE5 SHL DUP2 MSTORE PUSH1 0x20 PUSH1 0x4 DUP3 ADD MSTORE PUSH1 0x15 PUSH1 0x24 DUP3 ADD MSTORE PUSH21 0x1D1BDAD95B88185B5BDD5B9D081C995C5D5A5C9959 PUSH1 0x5A SHL PUSH1 0x44 DUP3 ADD MSTORE PUSH1 0x64 SWAP1 REVERT JUMPDEST SWAP1 PUSH1 0x1F DUP1 NOT SWAP2 ADD AND DUP2 ADD SWAP1 DUP2 LT PUSH8 0xFFFFFFFFFFFFFFFF DUP3 GT OR PUSH2 0x111F JUMPI PUSH1 0x40 MSTORE JUMP JUMPDEST PUSH4 0x4E487B71 PUSH1 0xE0 SHL PUSH1 0x0 MSTORE PUSH1 0x41 PUSH1 0x4 MSTORE PUSH1 0x24 PUSH1 0x0 REVERT JUMPDEST PUSH1 0x6 SLOAD PUSH1 0xFF DUP2 PUSH1 0xA0 SHR AND ISZERO SWAP1 DUP2 ISZERO PUSH2 0x1185 JUMPI JUMPDEST POP DUP1 ISZERO PUSH2 0x117D JUMPI JUMPDEST PUSH2 0x109A JUMPI PUSH2 0x115D SWAP1 PUSH2 0x18B4 JUMP JUMPDEST DUP1 ISZERO PUSH2 0x109A JUMPI PUSH2 0x1097 PUSH2 0x2710 PUSH2 0x1175 PUSH1 0x1 SLOAD DUP5 PUSH2 0xE39 JUMP JUMPDEST DIV DUP1 SWAP3 PUSH2 0x1049 JUMP JUMPDEST POP DUP1 ISZERO PUSH2 0x1150 JUMP JUMPDEST PUSH1 0xFF SWAP2 POP PUSH1 0xA8 SHR AND CODESIZE PUSH2 0x1148 JUMP JUMPDEST ISZERO PUSH2 0x119A JUMPI JUMP JUMPDEST PUSH1 0x40 MLOAD PUSH3 0x461BCD PUSH1 0xE5 SHL DUP2 MSTORE PUSH1 0x20 PUSH1 0x4 DUP3 ADD MSTORE PUSH1 0x9 PUSH1 0x24 DUP3 ADD MSTORE PUSH9 0x19DC98591D585D1959 PUSH1 0xBA SHL PUSH1 0x44 DUP3 ADD MSTORE PUSH1 0x64 SWAP1 REVERT JUMPDEST ISZERO PUSH2 0x11D2 JUMPI JUMP JUMPDEST PUSH1 0x40 MLOAD PUSH3 0x461BCD PUSH1 0xE5 SHL DUP2 MSTORE PUSH1 0x20 PUSH1 0x4 DUP3 ADD MSTORE PUSH1 0x13 PUSH1 0x24 DUP3 ADD MSTORE PUSH19 0x1A5B9CDD59999A58DA595B9D081BDD5D1C1D5D PUSH1 0x6A SHL PUSH1 0x44 DUP3 ADD MSTORE PUSH1 0x64 SWAP1 REVERT JUMPDEST ISZERO PUSH2 0x1214 JUMPI JUMP JUMPDEST PUSH1 0x40 MLOAD PUSH3 0x461BCD PUSH1 0xE5 SHL DUP2 MSTORE PUSH1 0x20 PUSH1 0x4 DUP3 ADD MSTORE PUSH1 0x8 PUSH1 0x24 DUP3 ADD MSTORE PUSH8 0x736C697070616765 PUSH1 0xC0 SHL PUSH1 0x44 DUP3 ADD MSTORE PUSH1 0x64 SWAP1 REVERT JUMPDEST SWAP1 DUP2 PUSH1 0x20 SWAP2 SUB SLT PUSH2 0xE34 JUMPI MLOAD DUP1 ISZERO ISZERO DUP2 SUB PUSH2 0xE34 JUMPI SWAP1 JUMP JUMPDEST ISZERO PUSH2 0x1263 JUMPI JUMP JUMPDEST PUSH1 0x40 MLOAD PUSH3 0x461BCD PUSH1 0xE5 SHL DUP2 MSTORE PUSH1 0x20 PUSH1 0x4 DUP3 ADD MSTORE PUSH1 0x15 PUSH1 0x24 DUP3 ADD MSTORE PUSH21 0x1D1BDAD95B881D1C985B9CD9995C8819985A5B1959 PUSH1 0x5A SHL PUSH1 0x44 DUP3 ADD MSTORE PUSH1 0x64 SWAP1 REVERT JUMPDEST RETURNDATASIZE ISZERO PUSH2 0x12DB JUMPI RETURNDATASIZE SWAP1 PUSH8 0xFFFFFFFFFFFFFFFF DUP3 GT PUSH2 0x111F JUMPI PUSH1 0x40 MLOAD SWAP2 PUSH2 0x12CF PUSH1 0x1F DUP3 ADD PUSH1 0x1F NOT AND PUSH1 0x20 ADD DUP5 PUSH2 0x10FD JUMP JUMPDEST DUP3 MSTORE RETURNDATASIZE PUSH1 0x0 PUSH1 0x20 DUP5 ADD RETURNDATACOPY JUMP JUMPDEST PUSH1 0x60 SWAP1 JUMP JUMPDEST ISZERO PUSH2 0x12E7 JUMPI JUMP JUMPDEST PUSH1 0x40 MLOAD PUSH3 0x461BCD PUSH1 0xE5 SHL DUP2 MSTORE PUSH1 0x20 PUSH1 0x4 DUP3 ADD MSTORE PUSH1 0x13 PUSH1 0x24 DUP3 ADD MSTORE PUSH19 0x199959481D1C985B9CD9995C8819985A5B1959 PUSH1 0x6A SHL PUSH1 0x44 DUP3 ADD MSTORE PUSH1 0x64 SWAP1 REVERT JUMPDEST SWAP1 DUP2 PUSH1 0x20 SWAP2 SUB SLT PUSH2 0xE34 JUMPI MLOAD PUSH1 0x1 PUSH1 0x1 PUSH1 0xA0 SHL SUB DUP2 AND DUP2 SUB PUSH2 0xE34 JUMPI SWAP1 JUMP JUMPDEST PUSH1 0x5 SLOAD PUSH1 0x1 PUSH1 0x1 PUSH1 0xA0 SHL SUB SWAP1 DUP2 AND SWAP1 DUP2 ISZERO PUSH2 0x17E2 JUMPI PUSH1 0x1 PUSH1 0xA8 SHL PUSH1 0xFF PUSH1 0xA8 SHL NOT PUSH1 0x6 SLOAD AND OR PUSH1 0x6 SSTORE TIMESTAMP PUSH1 0x8 SSTORE PUSH1 0x3 SLOAD SWAP2 PUSH1 0x2 SLOAD SWAP1 PUSH1 0x0 SWAP3 DUP4 PUSH1 0x3 SSTORE DUP4 PUSH1 0x2 SSTORE DUP1 PUSH32 0x0 AND SWAP4 PUSH1 0x40 SWAP3 DUP4 MLOAD DUP3 PUSH4 0x95EA7B3 PUSH1 0xE0 SHL DUP1 DUP4 MSTORE PUSH1 0x4 SWAP4 DUP5 DUP5 ADD MSTORE PUSH1 0x24 SWAP3 DUP3 DUP5 DUP3 ADD MSTORE DUP10 DUP2 PUSH1 0x44 DUP2 PUSH1 0x20 SWAP10 DUP11 SWAP5 GAS CALL DUP1 ISZERO PUSH2 0x17D8 JUMPI SWAP2 DUP7 SWAP2 DUP13 SWAP4 PUSH2 0x17BB JUMPI JUMPDEST POP PUSH1 0x5 SLOAD DUP10 MLOAD SWAP2 DUP3 MSTORE DUP9 AND PUSH1 0x1 PUSH1 0x1 PUSH1 0xA0 SHL SUB AND DUP7 DUP3 ADD SWAP1 DUP2 MSTORE PUSH1 0x20 DUP2 ADD SWAP4 SWAP1 SWAP4 MSTORE SWAP2 DUP3 SWAP1 DUP2 SWAP1 PUSH1 0x40 ADD SUB DUP2 DUP6 DUP14 GAS CALL DUP1 ISZERO PUSH2 0x1781 JUMPI PUSH2 0x179E JUMPI JUMPDEST POP DUP5 PUSH1 0x5 SLOAD AND SWAP5 DUP1 PUSH1 0x6 SLOAD AND SWAP6 PUSH2 0xE10 TIMESTAMP ADD DUP1 TIMESTAMP GT PUSH2 0x178B JUMPI PUSH1 0xC4 DUP12 DUP12 PUSH1 0x60 SWAP5 DUP16 SWAP5 DUP14 MLOAD SWAP13 DUP14 SWAP7 DUP8 SWAP6 PUSH4 0xF305D719 PUSH1 0xE0 SHL DUP8 MSTORE DUP14 DUP8 ADD MSTORE DUP12 DUP7 ADD MSTORE DUP10 PUSH1 0x44 DUP7 ADD MSTORE DUP10 PUSH1 0x64 DUP7 ADD MSTORE PUSH1 0x84 DUP6 ADD MSTORE PUSH1 0xA4 DUP5 ADD MSTORE GAS CALL SWAP8 DUP9 ISZERO PUSH2 0x1781 JUMPI DUP3 SWAP10 DUP4 SWAP8 DUP5 SWAP11 PUSH2 0x173D JUMPI JUMPDEST POP PUSH1 0x5 SLOAD DUP10 MLOAD PUSH4 0xC45A0155 PUSH1 0xE0 SHL DUP2 MSTORE SWAP1 DUP5 AND DUP9 DUP3 DUP10 DUP2 DUP5 GAS STATICCALL SWAP2 DUP3 ISZERO PUSH2 0x1714 JUMPI DUP9 SWAP3 SWAP2 DUP11 SWAP2 DUP9 SWAP4 PUSH2 0x171E JUMPI JUMPDEST POP DUP13 MLOAD PUSH4 0x15AB88C9 PUSH1 0xE3 SHL DUP2 MSTORE SWAP4 DUP5 SWAP2 DUP3 SWAP1 GAS STATICCALL SWAP2 DUP3 ISZERO PUSH2 0x1714 JUMPI DUP4 DUP10 DUP8 DUP15 SWAP6 SWAP5 DUP14 SWAP5 DUP12 SWAP7 PUSH2 0x16EE JUMPI JUMPDEST POP DUP2 PUSH1 0x44 SWAP5 SWAP6 SWAP7 SWAP8 MLOAD SWAP8 DUP9 SWAP7 DUP8 SWAP6 PUSH4 0xE6A43905 PUSH1 0xE0 SHL DUP8 MSTORE DUP7 ADD MSTORE AND DUP13 DUP5 ADD MSTORE AND GAS STATICCALL SWAP1 DUP2 ISZERO PUSH2 0x16E4 JUMPI SWAP2 DUP5 DUP10 SWAP3 DUP15 SWAP5 DUP9 SWAP2 PUSH2 0x16B7 JUMPI JUMPDEST POP AND SWAP14 DUP15 PUSH12 0xFFFFFFFFFFFFFFFFFFFFFFFF PUSH1 0xA0 SHL PUSH1 0x7 SLOAD AND OR PUSH1 0x7 SSTORE DUP4 DUP2 GT PUSH2 0x15E6 JUMPI JUMPDEST POP POP POP POP DUP7 DUP2 GT PUSH2 0x157C JUMPI JUMPDEST POP POP DUP6 MLOAD SWAP8 DUP9 MSTORE POP POP POP DUP5 ADD MSTORE DUP3 ADD MSTORE TIMESTAMP PUSH1 0x60 DUP3 ADD MSTORE PUSH32 0x71AA8C3702DBBC54247A4E6446450E64A46250DD72707A247DDB01D72EAEF445 SWAP1 PUSH1 0x80 SWAP1 LOG2 JUMP JUMPDEST DUP3 DUP1 SWAP3 PUSH2 0x158A DUP10 DUP4 SWAP5 PUSH2 0x1049 JUMP JUMPDEST SWAP1 DUP3 SLOAD AND GAS CALL PUSH2 0x1598 PUSH2 0x12A0 JUMP JUMPDEST POP ISZERO PUSH2 0x15A6 JUMPI DUP1 DUP1 DUP1 PUSH2 0x153E JUMP JUMPDEST PUSH1 0x18 SWAP1 PUSH1 0x64 SWAP4 DUP7 MLOAD SWAP4 PUSH3 0x461BCD PUSH1 0xE5 SHL DUP6 MSTORE DUP5 ADD MSTORE DUP3 ADD MSTORE PUSH32 0x6574682064757374207472616E73666572206661696C65640000000000000000 PUSH1 0x44 DUP3 ADD MSTORE REVERT JUMPDEST PUSH2 0x162D SWAP4 PUSH2 0x15F3 SWAP2 PUSH2 0x1049 JUMP JUMPDEST DUP7 SLOAD DUP13 MLOAD PUSH4 0xA9059CBB PUSH1 0xE0 SHL DUP2 MSTORE SWAP1 DUP8 AND PUSH1 0x1 PUSH1 0x1 PUSH1 0xA0 SHL SUB AND DUP11 DUP3 ADD SWAP1 DUP2 MSTORE PUSH1 0x20 DUP2 ADD SWAP3 SWAP1 SWAP3 MSTORE SWAP4 DUP5 SWAP3 SWAP2 DUP4 SWAP2 DUP10 SWAP2 DUP4 SWAP2 PUSH1 0x40 SWAP1 SWAP2 ADD SWAP1 JUMP JUMPDEST SUB SWAP3 GAS CALL SWAP1 DUP2 ISZERO PUSH2 0x16AD JUMPI DUP5 SWAP2 PUSH2 0x1690 JUMPI JUMPDEST POP ISZERO PUSH2 0x164E JUMPI DUP10 DUP7 CODESIZE DUP1 PUSH2 0x1532 JUMP JUMPDEST DUP8 MLOAD PUSH3 0x461BCD PUSH1 0xE5 SHL DUP2 MSTORE DUP1 DUP7 ADD DUP8 SWAP1 MSTORE PUSH1 0x1A DUP2 DUP7 ADD MSTORE PUSH32 0x746F6B656E2064757374207472616E73666572206661696C6564000000000000 PUSH1 0x44 DUP3 ADD MSTORE PUSH1 0x64 SWAP1 REVERT JUMPDEST PUSH2 0x16A7 SWAP2 POP DUP8 RETURNDATASIZE DUP10 GT PUSH2 0x3AE JUMPI PUSH2 0x3A0 DUP2 DUP4 PUSH2 0x10FD JUMP JUMPDEST CODESIZE PUSH2 0x163F JUMP JUMPDEST DUP10 MLOAD RETURNDATASIZE DUP7 DUP3 RETURNDATACOPY RETURNDATASIZE SWAP1 REVERT JUMPDEST PUSH2 0x16D7 SWAP2 POP DUP5 RETURNDATASIZE DUP7 GT PUSH2 0x16DD JUMPI JUMPDEST PUSH2 0x16CF DUP2 DUP4 PUSH2 0x10FD JUMP JUMPDEST DUP2 ADD SWAP1 PUSH2 0x1322 JUMP JUMPDEST CODESIZE PUSH2 0x150E JUMP JUMPDEST POP RETURNDATASIZE PUSH2 0x16C5 JUMP JUMPDEST DUP11 MLOAD RETURNDATASIZE DUP8 DUP3 RETURNDATACOPY RETURNDATASIZE SWAP1 REVERT JUMPDEST DUP6 SWAP7 POP PUSH2 0x170B DUP4 SWAP2 PUSH1 0x44 SWAP7 SWAP8 RETURNDATASIZE DUP11 GT PUSH2 0x16DD JUMPI PUSH2 0x16CF DUP2 DUP4 PUSH2 0x10FD JUMP JUMPDEST SWAP7 SWAP6 SWAP5 POP PUSH2 0x14D7 JUMP JUMPDEST DUP12 MLOAD RETURNDATASIZE DUP9 DUP3 RETURNDATACOPY RETURNDATASIZE SWAP1 REVERT JUMPDEST PUSH2 0x1736 SWAP2 SWAP4 POP DUP3 RETURNDATASIZE DUP5 GT PUSH2 0x16DD JUMPI PUSH2 0x16CF DUP2 DUP4 PUSH2 0x10FD JUMP JUMPDEST SWAP2 CODESIZE PUSH2 0x14AD JUMP JUMPDEST SWAP11 POP SWAP9 POP SWAP6 POP PUSH1 0x60 DUP10 RETURNDATASIZE PUSH1 0x60 GT PUSH2 0x1779 JUMPI JUMPDEST DUP2 PUSH2 0x175C PUSH1 0x60 SWAP4 DUP4 PUSH2 0x10FD JUMP JUMPDEST DUP2 ADD SUB SLT PUSH2 0x185 JUMPI DUP9 MLOAD SWAP6 DUP8 DUP7 DUP12 ADD MLOAD SWAP11 ADD MLOAD SWAP7 SWAP10 SWAP7 SWAP9 CODESIZE PUSH2 0x1480 JUMP JUMPDEST RETURNDATASIZE SWAP2 POP PUSH2 0x174F JUMP JUMPDEST DUP8 MLOAD RETURNDATASIZE DUP5 DUP3 RETURNDATACOPY RETURNDATASIZE SWAP1 REVERT JUMPDEST POP POP PUSH4 0x4E487B71 PUSH1 0xE0 SHL DUP3 MSTORE POP PUSH1 0x11 DUP4 MSTORE REVERT JUMPDEST PUSH2 0x17B4 SWAP1 DUP6 RETURNDATASIZE DUP8 GT PUSH2 0x3AE JUMPI PUSH2 0x3A0 DUP2 DUP4 PUSH2 0x10FD JUMP JUMPDEST POP CODESIZE PUSH2 0x141B JUMP JUMPDEST PUSH2 0x17D1 SWAP1 DUP4 RETURNDATASIZE DUP6 GT PUSH2 0x3AE JUMPI PUSH2 0x3A0 DUP2 DUP4 PUSH2 0x10FD JUMP JUMPDEST POP CODESIZE PUSH2 0x13E0 JUMP JUMPDEST DUP9 MLOAD RETURNDATASIZE DUP6 DUP3 RETURNDATACOPY RETURNDATASIZE SWAP1 REVERT JUMPDEST PUSH1 0x40 MLOAD PUSH3 0x461BCD PUSH1 0xE5 SHL DUP2 MSTORE PUSH1 0x20 PUSH1 0x4 DUP3 ADD MSTORE PUSH1 0x12 PUSH1 0x24 DUP3 ADD MSTORE PUSH18 0x19195E081C9BDD5D195C881B9BDD081CD95D PUSH1 0x72 SHL PUSH1 0x44 DUP3 ADD MSTORE PUSH1 0x64 SWAP1 REVERT JUMPDEST DUP1 ISZERO PUSH2 0xEBD JUMPI PUSH2 0x184F PUSH1 0x2 SLOAD PUSH32 0x0 SWAP1 PUSH2 0xEFE JUMP JUMPDEST SWAP1 PUSH2 0x189B PUSH1 0x3 SLOAD SWAP3 PUSH2 0x1895 PUSH2 0x1884 PUSH32 0x0 DUP7 PUSH2 0xEFE JUMP JUMPDEST SWAP4 PUSH2 0x188F DUP6 DUP5 PUSH2 0xE39 JUMP JUMPDEST SWAP3 PUSH2 0xEFE JUMP JUMPDEST SWAP1 PUSH2 0xE62 JUMP JUMPDEST DUP1 DUP3 GT ISZERO PUSH2 0x18AC JUMPI PUSH2 0xEAC SWAP2 PUSH2 0x1049 JUMP JUMPDEST POP POP POP PUSH1 0x0 SWAP1 JUMP JUMPDEST PUSH1 0x2 SLOAD SWAP1 PUSH2 0x189B PUSH2 0x18E5 PUSH32 0x0 DUP5 PUSH2 0xEFE JUMP JUMPDEST SWAP2 PUSH2 0x1895 PUSH2 0x1916 PUSH1 0x3 SLOAD PUSH32 0x0 SWAP1 PUSH2 0xEFE JUMP JUMPDEST SWAP2 PUSH2 0x188F DUP4 DUP7 PUSH2 0xE39 JUMP JUMPDEST PUSH1 0xFF PUSH1 0x6 SLOAD PUSH1 0xA8 SHR AND PUSH2 0x1941 JUMPI PUSH1 0x2 SLOAD PUSH1 0x4 SLOAD GT PUSH2 0x1941 JUMPI PUSH2 0x1941 PUSH2 0x1341 JUMP JUMPDEST JUMP INVALID LOG2 PUSH5 0x6970667358 0x22 SLT KECCAK256 0x4E SWAP9 0xE8 SWAP11 DUP13 0xCA 0xC5 0x29 PUSH29 0x9186E96E71FC7976B42D7F24F8A97A47537544551298DD64736F6C6343 STOP ADDMOD XOR STOP CALLER PUSH1 0x40 PUSH1 0x80 DUP2 MSTORE CALLVALUE PUSH3 0x468 JUMPI PUSH3 0xC07 SWAP1 DUP2 CODESIZE SUB DUP1 PUSH3 0x1F DUP2 PUSH3 0x46D JUMP JUMPDEST SWAP4 DUP5 CODECOPY DUP3 ADD PUSH1 0x80 DUP4 DUP3 SUB SLT PUSH3 0x468 JUMPI DUP3 MLOAD PUSH1 0x1 PUSH1 0x1 PUSH1 0x40 SHL SUB SWAP1 DUP2 DUP2 GT PUSH3 0x468 JUMPI DUP3 PUSH3 0x50 SWAP2 DUP7 ADD PUSH3 0x493 JUMP JUMPDEST SWAP2 PUSH1 0x20 SWAP1 DUP2 DUP7 ADD MLOAD SWAP1 DUP4 DUP3 GT PUSH3 0x468 JUMPI PUSH3 0x6E SWAP2 DUP8 ADD PUSH3 0x493 JUMP JUMPDEST SWAP5 PUSH1 0x60 DUP6 DUP3 ADD MLOAD SWAP2 ADD MLOAD SWAP4 PUSH1 0x1 DUP1 PUSH1 0xA0 SHL SUB DUP6 AND DUP1 SWAP6 SUB PUSH3 0x468 JUMPI DUP1 MLOAD ISZERO PUSH3 0x434 JUMPI DUP7 MLOAD ISZERO PUSH3 0x3FE JUMPI DUP2 ISZERO PUSH3 0x3C8 JUMPI DUP5 ISZERO PUSH3 0x38F JUMPI DUP1 MLOAD SWAP4 DUP1 DUP6 GT PUSH3 0x379 JUMPI PUSH1 0x0 SWAP5 DUP6 SLOAD SWAP1 PUSH1 0x1 SWAP4 DUP5 DUP4 DUP2 SHR SWAP4 AND DUP1 ISZERO PUSH3 0x36E JUMPI JUMPDEST DUP8 DUP5 LT EQ PUSH3 0x35A JUMPI DUP2 SWAP1 PUSH1 0x1F SWAP4 DUP5 DUP2 GT PUSH3 0x307 JUMPI JUMPDEST POP DUP8 SWAP1 DUP5 DUP4 GT PUSH1 0x1 EQ PUSH3 0x2A3 JUMPI DUP10 SWAP3 PUSH3 0x297 JUMPI JUMPDEST POP POP PUSH1 0x0 NOT PUSH1 0x3 DUP4 SWAP1 SHL SHR NOT AND SWAP1 DUP5 SHL OR DUP7 SSTORE JUMPDEST DUP9 MLOAD SWAP2 DUP3 GT PUSH3 0x283 JUMPI DUP3 SLOAD DUP4 DUP2 DUP2 SHR SWAP2 AND DUP1 ISZERO PUSH3 0x278 JUMPI JUMPDEST DUP7 DUP3 LT EQ PUSH3 0x264 JUMPI DUP2 DUP2 GT PUSH3 0x21C JUMPI JUMPDEST POP DUP5 SWAP1 DUP3 GT PUSH1 0x1 EQ PUSH3 0x1A6 JUMPI DUP2 SWAP1 DUP7 SWAP8 SWAP9 SWAP10 PUSH1 0x0 DUP1 MLOAD PUSH1 0x20 PUSH3 0xBE7 DUP4 CODECOPY DUP2 MLOAD SWAP2 MSTORE SWAP8 SWAP3 PUSH3 0x19A JUMPI JUMPDEST POP POP PUSH1 0x0 NOT PUSH1 0x3 DUP4 SWAP1 SHL SHR NOT AND SWAP1 DUP3 SHL OR SWAP1 SSTORE JUMPDEST DUP1 PUSH1 0x2 SSTORE DUP5 DUP5 MSTORE PUSH1 0x3 DUP3 MSTORE DUP1 DUP7 DUP6 KECCAK256 SSTORE DUP6 MLOAD SWAP1 DUP2 MSTORE LOG3 MLOAD PUSH2 0x6E1 SWAP1 DUP2 PUSH3 0x506 DUP3 CODECOPY RETURN JUMPDEST ADD MLOAD SWAP1 POP CODESIZE DUP1 PUSH3 0x162 JUMP JUMPDEST DUP3 DUP7 MSTORE DUP5 DUP7 KECCAK256 SWAP9 PUSH1 0x1F NOT DUP4 AND DUP8 JUMPDEST DUP2 DUP2 LT PUSH3 0x206 JUMPI POP SWAP2 PUSH1 0x0 DUP1 MLOAD PUSH1 0x20 PUSH3 0xBE7 DUP4 CODECOPY DUP2 MLOAD SWAP2 MSTORE SWAP8 SWAP9 SWAP10 SWAP11 SWAP2 DUP5 DUP7 SWAP6 SWAP5 LT PUSH3 0x1EC JUMPI JUMPDEST POP POP POP DUP2 SHL ADD SWAP1 SSTORE PUSH3 0x176 JUMP JUMPDEST ADD MLOAD PUSH1 0x0 NOT PUSH1 0xF8 DUP5 PUSH1 0x3 SHL AND SHR NOT AND SWAP1 SSTORE CODESIZE DUP1 DUP1 PUSH3 0x1DE JUMP JUMPDEST DUP4 DUP4 ADD MLOAD DUP13 SSTORE SWAP11 DUP6 ADD SWAP11 SWAP3 DUP8 ADD SWAP3 DUP8 ADD PUSH3 0x1B4 JUMP JUMPDEST DUP4 DUP8 MSTORE DUP6 DUP8 KECCAK256 DUP3 DUP1 DUP6 ADD PUSH1 0x5 SHR DUP3 ADD SWAP3 DUP9 DUP7 LT PUSH3 0x25A JUMPI JUMPDEST ADD PUSH1 0x5 SHR ADD SWAP1 DUP5 SWAP1 JUMPDEST DUP3 DUP2 LT PUSH3 0x24E JUMPI POP POP PUSH3 0x137 JUMP JUMPDEST DUP9 DUP2 SSTORE ADD DUP5 SWAP1 PUSH3 0x23E JUMP JUMPDEST SWAP3 POP DUP2 SWAP3 PUSH3 0x235 JUMP JUMPDEST PUSH4 0x4E487B71 PUSH1 0xE0 SHL DUP8 MSTORE PUSH1 0x22 PUSH1 0x4 MSTORE PUSH1 0x24 DUP8 REVERT JUMPDEST SWAP1 PUSH1 0x7F AND SWAP1 PUSH3 0x125 JUMP JUMPDEST PUSH4 0x4E487B71 PUSH1 0xE0 SHL DUP7 MSTORE PUSH1 0x41 PUSH1 0x4 MSTORE PUSH1 0x24 DUP7 REVERT JUMPDEST ADD MLOAD SWAP1 POP CODESIZE DUP1 PUSH3 0xF7 JUMP JUMPDEST DUP10 DUP1 MSTORE DUP9 DUP11 KECCAK256 DUP8 SWAP5 POP SWAP2 SWAP1 PUSH1 0x1F NOT DUP5 AND DUP12 JUMPDEST DUP12 DUP3 DUP3 LT PUSH3 0x2F0 JUMPI POP POP DUP5 GT PUSH3 0x2D6 JUMPI JUMPDEST POP POP POP DUP2 SHL ADD DUP7 SSTORE PUSH3 0x10B JUMP JUMPDEST ADD MLOAD PUSH1 0x0 NOT PUSH1 0xF8 DUP5 PUSH1 0x3 SHL AND SHR NOT AND SWAP1 SSTORE CODESIZE DUP1 DUP1 PUSH3 0x2C8 JUMP JUMPDEST DUP4 DUP6 ADD MLOAD DUP7 SSTORE DUP11 SWAP8 SWAP1 SWAP6 ADD SWAP5 SWAP4 DUP5 ADD SWAP4 ADD PUSH3 0x2B5 JUMP JUMPDEST SWAP1 SWAP2 POP DUP9 DUP1 MSTORE DUP8 DUP10 KECCAK256 DUP5 DUP1 DUP6 ADD PUSH1 0x5 SHR DUP3 ADD SWAP3 DUP11 DUP7 LT PUSH3 0x350 JUMPI JUMPDEST SWAP2 DUP9 SWAP2 DUP7 SWAP6 SWAP5 SWAP4 ADD PUSH1 0x5 SHR ADD SWAP2 JUMPDEST DUP3 DUP2 LT PUSH3 0x341 JUMPI POP POP PUSH3 0xE1 JUMP JUMPDEST DUP12 DUP2 SSTORE DUP6 SWAP5 POP DUP9 SWAP2 ADD PUSH3 0x331 JUMP JUMPDEST SWAP3 POP DUP2 SWAP3 PUSH3 0x323 JUMP JUMPDEST PUSH4 0x4E487B71 PUSH1 0xE0 SHL DUP9 MSTORE PUSH1 0x22 PUSH1 0x4 MSTORE PUSH1 0x24 DUP9 REVERT JUMPDEST SWAP3 PUSH1 0x7F AND SWAP3 PUSH3 0xCA JUMP JUMPDEST PUSH4 0x4E487B71 PUSH1 0xE0 SHL PUSH1 0x0 MSTORE PUSH1 0x41 PUSH1 0x4 MSTORE PUSH1 0x24 PUSH1 0x0 REVERT JUMPDEST DUP6 MLOAD PUSH3 0x461BCD PUSH1 0xE5 SHL DUP2 MSTORE PUSH1 0x4 DUP2 ADD DUP5 SWAP1 MSTORE PUSH1 0x12 PUSH1 0x24 DUP3 ADD MSTORE PUSH18 0x1C9958DA5C1A595B9D081C995C5D5A5C9959 PUSH1 0x72 SHL PUSH1 0x44 DUP3 ADD MSTORE PUSH1 0x64 SWAP1 REVERT JUMPDEST DUP6 MLOAD PUSH3 0x461BCD PUSH1 0xE5 SHL DUP2 MSTORE PUSH1 0x4 DUP2 ADD DUP5 SWAP1 MSTORE PUSH1 0xF PUSH1 0x24 DUP3 ADD MSTORE PUSH15 0x1CDD5C1C1B1E481C995C5D5A5C9959 PUSH1 0x8A SHL PUSH1 0x44 DUP3 ADD MSTORE PUSH1 0x64 SWAP1 REVERT JUMPDEST DUP6 MLOAD PUSH3 0x461BCD PUSH1 0xE5 SHL DUP2 MSTORE PUSH1 0x4 DUP2 ADD DUP5 SWAP1 MSTORE PUSH1 0xF PUSH1 0x24 DUP3 ADD MSTORE PUSH15 0x1CDE5B589BDB081C995C5D5A5C9959 PUSH1 0x8A SHL PUSH1 0x44 DUP3 ADD MSTORE PUSH1 0x64 SWAP1 REVERT JUMPDEST DUP6 MLOAD PUSH3 0x461BCD PUSH1 0xE5 SHL DUP2 MSTORE PUSH1 0x4 DUP2 ADD DUP5 SWAP1 MSTORE PUSH1 0xD PUSH1 0x24 DUP3 ADD MSTORE PUSH13 0x1B985B59481C995C5D5A5C9959 PUSH1 0x9A SHL PUSH1 0x44 DUP3 ADD MSTORE PUSH1 0x64 SWAP1 REVERT JUMPDEST PUSH1 0x0 DUP1 REVERT JUMPDEST PUSH1 0x40 MLOAD SWAP2 SWAP1 PUSH1 0x1F ADD PUSH1 0x1F NOT AND DUP3 ADD PUSH1 0x1 PUSH1 0x1 PUSH1 0x40 SHL SUB DUP2 GT DUP4 DUP3 LT OR PUSH3 0x379 JUMPI PUSH1 0x40 MSTORE JUMP JUMPDEST SWAP2 SWAP1 DUP1 PUSH1 0x1F DUP5 ADD SLT ISZERO PUSH3 0x468 JUMPI DUP3 MLOAD PUSH1 0x1 PUSH1 0x1 PUSH1 0x40 SHL SUB DUP2 GT PUSH3 0x379 JUMPI PUSH1 0x20 SWAP1 PUSH3 0x4C9 PUSH1 0x1F DUP3 ADD PUSH1 0x1F NOT AND DUP4 ADD PUSH3 0x46D JUMP JUMPDEST SWAP3 DUP2 DUP5 MSTORE DUP3 DUP3 DUP8 ADD ADD GT PUSH3 0x468 JUMPI PUSH1 0x0 JUMPDEST DUP2 DUP2 LT PUSH3 0x4F1 JUMPI POP DUP3 PUSH1 0x0 SWAP4 SWAP5 SWAP6 POP ADD ADD MSTORE SWAP1 JUMP JUMPDEST DUP6 DUP2 ADD DUP4 ADD MLOAD DUP5 DUP3 ADD DUP5 ADD MSTORE DUP3 ADD PUSH3 0x4DB JUMP INVALID PUSH1 0x80 PUSH1 0x40 DUP2 DUP2 MSTORE PUSH1 0x4 DUP1 CALLDATASIZE LT ISZERO PUSH2 0x15 JUMPI PUSH1 0x0 DUP1 REVERT JUMPDEST PUSH1 0x0 SWAP3 DUP4 CALLDATALOAD PUSH1 0xE0 SHR SWAP1 DUP2 PUSH4 0x6FDDE03 EQ PUSH2 0x413 JUMPI POP DUP1 PUSH4 0x95EA7B3 EQ PUSH2 0x3A5 JUMPI DUP1 PUSH4 0x18160DDD EQ PUSH2 0x386 JUMPI DUP1 PUSH4 0x23B872DD EQ PUSH2 0x27E JUMPI DUP1 PUSH4 0x313CE567 EQ PUSH2 0x262 JUMPI DUP1 PUSH4 0x70A08231 EQ PUSH2 0x22A JUMPI DUP1 PUSH4 0x95D89B41 EQ PUSH2 0x106 JUMPI DUP1 PUSH4 0xA9059CBB EQ PUSH2 0xD1 JUMPI PUSH4 0xDD62ED3E EQ PUSH2 0x86 JUMPI PUSH1 0x0 DUP1 REVERT JUMPDEST CALLVALUE PUSH2 0xCD JUMPI DUP2 PUSH1 0x3 NOT CALLDATASIZE ADD SLT PUSH2 0xCD JUMPI PUSH1 0x20 SWAP3 DUP3 SWAP2 PUSH2 0xA3 PUSH2 0x551 JUMP JUMPDEST PUSH2 0xAB PUSH2 0x56C JUMP JUMPDEST PUSH1 0x1 PUSH1 0x1 PUSH1 0xA0 SHL SUB SWAP2 DUP3 AND DUP5 MSTORE SWAP2 DUP7 MSTORE DUP4 DUP4 KECCAK256 SWAP2 AND DUP3 MSTORE DUP5 MSTORE KECCAK256 SLOAD SWAP1 MLOAD SWAP1 DUP2 MSTORE RETURN JUMPDEST DUP3 DUP1 REVERT JUMPDEST POP POP CALLVALUE PUSH2 0x102 JUMPI DUP1 PUSH1 0x3 NOT CALLDATASIZE ADD SLT PUSH2 0x102 JUMPI PUSH1 0x20 SWAP1 PUSH2 0xFB PUSH2 0xF1 PUSH2 0x551 JUMP JUMPDEST PUSH1 0x24 CALLDATALOAD SWAP1 CALLER PUSH2 0x5A5 JUMP JUMPDEST MLOAD PUSH1 0x1 DUP2 MSTORE RETURN JUMPDEST POP DUP1 REVERT JUMPDEST POP SWAP2 SWAP1 CALLVALUE PUSH2 0x102 JUMPI DUP2 PUSH1 0x3 NOT CALLDATASIZE ADD SLT PUSH2 0x102 JUMPI DUP1 MLOAD SWAP1 DUP3 PUSH1 0x1 DUP1 SLOAD SWAP1 DUP2 PUSH1 0x1 SHR SWAP1 PUSH1 0x1 DUP4 AND SWAP3 DUP4 ISZERO PUSH2 0x220 JUMPI JUMPDEST PUSH1 0x20 SWAP4 DUP5 DUP5 LT DUP2 EQ PUSH2 0x20D JUMPI DUP4 DUP9 MSTORE SWAP1 DUP2 ISZERO PUSH2 0x1F1 JUMPI POP PUSH1 0x1 EQ PUSH2 0x19B JUMPI JUMPDEST POP POP POP DUP3 SWAP1 SUB PUSH1 0x1F ADD PUSH1 0x1F NOT AND DUP3 ADD SWAP3 PUSH8 0xFFFFFFFFFFFFFFFF DUP5 GT DUP4 DUP6 LT OR PUSH2 0x188 JUMPI POP DUP3 SWAP2 DUP3 PUSH2 0x184 SWAP3 MSTORE DUP3 PUSH2 0x508 JUMP JUMPDEST SUB SWAP1 RETURN JUMPDEST PUSH4 0x4E487B71 PUSH1 0xE0 SHL DUP2 MSTORE PUSH1 0x41 DUP6 MSTORE PUSH1 0x24 SWAP1 REVERT JUMPDEST PUSH1 0x1 DUP8 MSTORE SWAP2 SWAP3 POP DUP6 SWAP2 DUP4 PUSH32 0xB10E2D527612073B26EECDFD717E6A320CF44B4AFAC2B0732D9FCBE2B7FA0CF6 JUMPDEST DUP4 DUP6 LT PUSH2 0x1DD JUMPI POP POP POP POP DUP4 ADD ADD CODESIZE DUP1 DUP1 PUSH2 0x152 JUMP JUMPDEST DUP1 SLOAD DUP9 DUP7 ADD DUP4 ADD MSTORE SWAP4 ADD SWAP3 DUP5 SWAP1 DUP3 ADD PUSH2 0x1C7 JUMP JUMPDEST PUSH1 0xFF NOT AND DUP8 DUP6 ADD MSTORE POP POP ISZERO ISZERO PUSH1 0x5 SHL DUP5 ADD ADD SWAP1 POP CODESIZE DUP1 DUP1 PUSH2 0x152 JUMP JUMPDEST PUSH4 0x4E487B71 PUSH1 0xE0 SHL DUP10 MSTORE PUSH1 0x22 DUP11 MSTORE PUSH1 0x24 DUP10 REVERT JUMPDEST SWAP2 PUSH1 0x7F AND SWAP2 PUSH2 0x133 JUMP JUMPDEST POP POP CALLVALUE PUSH2 0x102 JUMPI PUSH1 0x20 CALLDATASIZE PUSH1 0x3 NOT ADD SLT PUSH2 0x102 JUMPI PUSH1 0x20 SWAP2 DUP2 SWAP1 PUSH1 0x1 PUSH1 0x1 PUSH1 0xA0 SHL SUB PUSH2 0x252 PUSH2 0x551 JUMP JUMPDEST AND DUP2 MSTORE PUSH1 0x3 DUP5 MSTORE KECCAK256 SLOAD SWAP1 MLOAD SWAP1 DUP2 MSTORE RETURN JUMPDEST POP POP CALLVALUE PUSH2 0x102 JUMPI DUP2 PUSH1 0x3 NOT CALLDATASIZE ADD SLT PUSH2 0x102 JUMPI PUSH1 0x20 SWAP1 MLOAD PUSH1 0x12 DUP2 MSTORE RETURN JUMPDEST POP SWAP2 SWAP1 CALLVALUE PUSH2 0x102 JUMPI PUSH1 0x60 CALLDATASIZE PUSH1 0x3 NOT ADD SLT PUSH2 0x102 JUMPI PUSH2 0x29A PUSH2 0x551 JUMP JUMPDEST PUSH2 0x2A2 PUSH2 0x56C JUMP JUMPDEST PUSH1 0x1 PUSH1 0x1 PUSH1 0xA0 SHL SUB DUP3 AND DUP1 DUP6 MSTORE PUSH1 0x20 DUP7 DUP2 MSTORE DUP5 DUP7 KECCAK256 CALLER DUP8 MSTORE DUP2 MSTORE DUP5 DUP7 KECCAK256 SLOAD SWAP1 SWAP6 PUSH1 0x44 CALLDATALOAD SWAP5 SWAP3 SWAP2 DUP6 DUP2 LT PUSH2 0x34E JUMPI SWAP1 DUP7 SWAP8 SWAP9 PUSH2 0xFB SWAP8 SWAP3 DUP8 PUSH1 0x0 NOT DUP3 SUB PUSH2 0x2EE JUMPI JUMPDEST POP POP POP POP POP POP PUSH2 0x5A5 JUMP JUMPDEST PUSH2 0x2F7 SWAP2 PUSH2 0x582 JUMP JUMPDEST DUP5 DUP4 MSTORE DUP2 DUP12 MSTORE DUP4 DUP4 KECCAK256 CALLER DUP5 MSTORE DUP12 MSTORE DUP4 DUP4 KECCAK256 SSTORE DUP4 DUP3 MSTORE DUP10 MSTORE DUP2 DUP2 KECCAK256 CALLER DUP3 MSTORE DUP10 MSTORE KECCAK256 SLOAD SWAP1 DUP7 MLOAD SWAP2 DUP3 MSTORE PUSH32 0x8C5BE1E5EBEC7D5BD14F71427D1E84F3DD0314C0F7B2291E5B200AC8C7C3B925 DUP9 CALLER SWAP4 LOG3 CODESIZE DUP6 DUP2 DUP1 DUP1 DUP8 PUSH2 0x2E3 JUMP JUMPDEST DUP7 MLOAD PUSH3 0x461BCD PUSH1 0xE5 SHL DUP2 MSTORE DUP1 DUP11 ADD DUP10 SWAP1 MSTORE PUSH1 0x12 PUSH1 0x24 DUP3 ADD MSTORE PUSH18 0x185B1B1BDDD85B98D948195E18D959591959 PUSH1 0x72 SHL PUSH1 0x44 DUP3 ADD MSTORE PUSH1 0x64 SWAP1 REVERT JUMPDEST POP POP CALLVALUE PUSH2 0x102 JUMPI DUP2 PUSH1 0x3 NOT CALLDATASIZE ADD SLT PUSH2 0x102 JUMPI PUSH1 0x20 SWAP1 PUSH1 0x2 SLOAD SWAP1 MLOAD SWAP1 DUP2 MSTORE RETURN JUMPDEST POP CALLVALUE PUSH2 0xCD JUMPI DUP2 PUSH1 0x3 NOT CALLDATASIZE ADD SLT PUSH2 0xCD JUMPI PUSH1 0x20 SWAP3 PUSH2 0x3C1 PUSH2 0x551 JUMP JUMPDEST SWAP2 DUP4 PUSH1 0x24 CALLDATALOAD SWAP3 DUP4 SWAP3 CALLER DUP3 MSTORE DUP8 MSTORE DUP2 DUP2 KECCAK256 SWAP5 PUSH1 0x1 DUP1 PUSH1 0xA0 SHL SUB AND SWAP5 DUP6 DUP3 MSTORE DUP8 MSTORE KECCAK256 SSTORE DUP3 MLOAD SWAP1 DUP2 MSTORE PUSH32 0x8C5BE1E5EBEC7D5BD14F71427D1E84F3DD0314C0F7B2291E5B200AC8C7C3B925 DUP5 CALLER SWAP3 LOG3 MLOAD PUSH1 0x1 DUP2 MSTORE RETURN JUMPDEST DUP5 SWAP2 POP DUP4 CALLVALUE PUSH2 0xCD JUMPI DUP3 PUSH1 0x3 NOT CALLDATASIZE ADD SLT PUSH2 0xCD JUMPI DUP3 DUP4 SLOAD PUSH1 0x1 DUP2 PUSH1 0x1 SHR SWAP1 PUSH1 0x1 DUP4 AND SWAP3 DUP4 ISZERO PUSH2 0x4FE JUMPI JUMPDEST PUSH1 0x20 SWAP4 DUP5 DUP5 LT DUP2 EQ PUSH2 0x20D JUMPI DUP4 DUP9 MSTORE SWAP1 DUP2 ISZERO PUSH2 0x4E2 JUMPI POP PUSH1 0x1 EQ PUSH2 0x48D JUMPI POP POP POP DUP3 SWAP1 SUB PUSH1 0x1F ADD PUSH1 0x1F NOT AND DUP3 ADD SWAP3 PUSH8 0xFFFFFFFFFFFFFFFF DUP5 GT DUP4 DUP6 LT OR PUSH2 0x188 JUMPI POP DUP3 SWAP2 DUP3 PUSH2 0x184 SWAP3 MSTORE DUP3 PUSH2 0x508 JUMP JUMPDEST DUP7 DUP1 MSTORE SWAP2 SWAP3 POP DUP6 SWAP2 DUP4 PUSH32 0x290DECD9548B62A8D60345A988386FC84BA6BC95484008F6362F93160EF3E563 JUMPDEST DUP4 DUP6 LT PUSH2 0x4CE JUMPI POP POP POP POP DUP4 ADD ADD DUP6 DUP1 DUP1 PUSH2 0x152 JUMP JUMPDEST DUP1 SLOAD DUP9 DUP7 ADD DUP4 ADD MSTORE SWAP4 ADD SWAP3 DUP5 SWAP1 DUP3 ADD PUSH2 0x4B8 JUMP JUMPDEST PUSH1 0xFF NOT AND DUP8 DUP6 ADD MSTORE POP POP ISZERO ISZERO PUSH1 0x5 SHL DUP5 ADD ADD SWAP1 POP DUP6 DUP1 DUP1 PUSH2 0x152 JUMP JUMPDEST SWAP2 PUSH1 0x7F AND SWAP2 PUSH2 0x43D JUMP JUMPDEST PUSH1 0x20 DUP1 DUP3 MSTORE DUP3 MLOAD DUP2 DUP4 ADD DUP2 SWAP1 MSTORE SWAP1 SWAP4 SWAP3 PUSH1 0x0 JUMPDEST DUP3 DUP2 LT PUSH2 0x53D JUMPI POP POP PUSH1 0x40 SWAP3 SWAP4 POP PUSH1 0x0 DUP4 DUP3 DUP5 ADD ADD MSTORE PUSH1 0x1F DUP1 NOT SWAP2 ADD AND ADD ADD SWAP1 JUMP JUMPDEST DUP2 DUP2 ADD DUP7 ADD MLOAD DUP5 DUP3 ADD PUSH1 0x40 ADD MSTORE DUP6 ADD PUSH2 0x51B JUMP JUMPDEST PUSH1 0x4 CALLDATALOAD SWAP1 PUSH1 0x1 PUSH1 0x1 PUSH1 0xA0 SHL SUB DUP3 AND DUP3 SUB PUSH2 0x567 JUMPI JUMP JUMPDEST PUSH1 0x0 DUP1 REVERT JUMPDEST PUSH1 0x24 CALLDATALOAD SWAP1 PUSH1 0x1 PUSH1 0x1 PUSH1 0xA0 SHL SUB DUP3 AND DUP3 SUB PUSH2 0x567 JUMPI JUMP JUMPDEST SWAP2 SWAP1 DUP3 SUB SWAP2 DUP3 GT PUSH2 0x58F JUMPI JUMP JUMPDEST PUSH4 0x4E487B71 PUSH1 0xE0 SHL PUSH1 0x0 MSTORE PUSH1 0x11 PUSH1 0x4 MSTORE PUSH1 0x24 PUSH1 0x0 REVERT JUMPDEST PUSH1 0x1 PUSH1 0x1 PUSH1 0xA0 SHL SUB SWAP2 DUP3 AND SWAP3 SWAP2 SWAP1 DUP4 ISZERO PUSH2 0x677 JUMPI AND SWAP1 PUSH1 0x0 DUP3 DUP2 MSTORE PUSH1 0x3 PUSH1 0x20 MSTORE PUSH1 0x40 DUP2 KECCAK256 SLOAD DUP3 DUP2 LT PUSH2 0x640 JUMPI DUP3 PUSH2 0x5DB SWAP2 PUSH2 0x582 JUMP JUMPDEST DUP4 DUP3 MSTORE PUSH1 0x3 PUSH1 0x20 MSTORE PUSH1 0x40 DUP3 KECCAK256 SSTORE DUP4 DUP2 MSTORE PUSH1 0x40 DUP2 KECCAK256 DUP1 SLOAD SWAP2 DUP4 DUP4 ADD DUP1 SWAP4 GT PUSH2 0x62C JUMPI POP SSTORE PUSH1 0x40 MLOAD SWAP1 DUP2 MSTORE PUSH32 0xDDF252AD1BE2C89B69C2B068FC378DAA952BA7F163C4A11628F55A4DF523B3EF SWAP1 PUSH1 0x20 SWAP1 LOG3 JUMP JUMPDEST PUSH4 0x4E487B71 PUSH1 0xE0 SHL DUP2 MSTORE PUSH1 0x11 PUSH1 0x4 MSTORE PUSH1 0x24 SWAP1 REVERT JUMPDEST PUSH1 0x40 MLOAD PUSH3 0x461BCD PUSH1 0xE5 SHL DUP2 MSTORE PUSH1 0x20 PUSH1 0x4 DUP3 ADD MSTORE PUSH1 0xF PUSH1 0x24 DUP3 ADD MSTORE PUSH15 0x62616C616E636520746F6F206C6F77 PUSH1 0x88 SHL PUSH1 0x44 DUP3 ADD MSTORE PUSH1 0x64 SWAP1 REVERT JUMPDEST PUSH1 0x40 MLOAD PUSH3 0x461BCD PUSH1 0xE5 SHL DUP2 MSTORE PUSH1 0x20 PUSH1 0x4 DUP3 ADD MSTORE PUSH1 0xC PUSH1 0x24 DUP3 ADD MSTORE PUSH12 0x7A65726F2061646472657373 PUSH1 0xA0 SHL PUSH1 0x44 DUP3 ADD MSTORE PUSH1 0x64 SWAP1 REVERT INVALID LOG2 PUSH5 0x6970667358 0x22 SLT KECCAK256 0xDE MSTORE8 0xD5 SWAP8 BALANCE SWAP9 0xD6 0x2E PUSH28 0x7EBC5B3EEC270AE1283ED38E6261D437D7BEB5074CAF7F64736F6C63 NUMBER STOP ADDMOD XOR STOP CALLER 0xDD CALLCODE MSTORE 0xAD SHL 0xE2 0xC8 SWAP12 PUSH10 0xC2B068FC378DAA952BA7 CALL PUSH4 0xC4A11628 CREATE2 GAS 0x4D CREATE2 0x23 0xB3 0xEF LOG2 PUSH5 0x6970667358 0x22 SLT KECCAK256 PUSH31 0x2E81D673B3F8E3B08AB98F126384C7BBD98F22F7F3914C3B6323D1966ED112 PUSH5 0x736F6C6343 STOP ADDMOD XOR STOP CALLER "},"methodIdentifiers":{"BPS_DENOMINATOR()":"e1a45218","createLaunch(string,string,string,string,uint256,uint256)":"1036338c","defaultDexRouter()":"d578192c","defaultFeeBps()":"bcae25a4","defaultGraduationTargetEth()":"63f0eb04","defaultLpRecipient()":"13ed4aa6","defaultVirtualEthReserve()":"1c8c0d92","defaultVirtualTokenReserve()":"93a8e04d","feeRecipient()":"46904840","getLaunch(uint256)":"5930d3ce","getLaunchCount()":"9ff0251f","getLaunches(uint256,uint256)":"9b3b9f98","owner()":"8da5cb5b","poolByToken(address)":"0b0420bb","setDefaults(address,uint256,uint256,uint256,uint256,address,address)":"2ca08d1a","transferOwnership(address)":"f2fde38b"}}}}}