{"contracts/MemePool.sol":{"MemePool":{"abi":[{"inputs":[{"internalType":"address","name":"_token","type":"address"},{"internalType":"address","name":"_factory","type":"address"},{"internalType":"address","name":"_feeRecipient","type":"address"},{"internalType":"uint256","name":"_feeBps","type":"uint256"},{"internalType":"uint256","name":"_virtualEthReserve","type":"uint256"},{"internalType":"uint256","name":"_virtualTokenReserve","type":"uint256"},{"internalType":"uint256","name":"_graduationTargetEth","type":"uint256"},{"internalType":"address","name":"_dexRouter","type":"address"},{"internalType":"address","name":"_lpRecipient","type":"address"}],"stateMutability":"nonpayable","type":"constructor"},{"anonymous":false,"inputs":[{"indexed":true,"internalType":"address","name":"buyer","type":"address"},{"indexed":false,"internalType":"uint256","name":"ethIn","type":"uint256"},{"indexed":false,"internalType":"uint256","name":"feePaid","type":"uint256"},{"indexed":false,"internalType":"uint256","name":"tokensOut","type":"uint256"}],"name":"Buy","type":"event"},{"anonymous":false,"inputs":[{"indexed":true,"internalType":"address","name":"recipient","type":"address"},{"indexed":false,"internalType":"uint256","name":"feeBps","type":"uint256"}],"name":"FeeConfigUpdated","type":"event"},{"anonymous":false,"inputs":[{"indexed":true,"internalType":"address","name":"pair","type":"address"},{"indexed":false,"internalType":"uint256","name":"tokenMigrated","type":"uint256"},{"indexed":false,"internalType":"uint256","name":"ethMigrated","type":"uint256"},{"indexed":false,"internalType":"uint256","name":"lpMinted","type":"uint256"},{"indexed":false,"internalType":"uint256","name":"timestamp","type":"uint256"}],"name":"Graduated","type":"event"},{"anonymous":false,"inputs":[{"indexed":false,"internalType":"address","name":"dexRouter","type":"address"},{"indexed":false,"internalType":"address","name":"lpRecipient","type":"address"},{"indexed":false,"internalType":"uint256","name":"graduationTargetEth","type":"uint256"}],"name":"MigrationConfigUpdated","type":"event"},{"anonymous":false,"inputs":[{"indexed":false,"internalType":"uint256","name":"tokenLiquidity","type":"uint256"}],"name":"PoolSeeded","type":"event"},{"anonymous":false,"inputs":[{"indexed":true,"internalType":"address","name":"seller","type":"address"},{"indexed":false,"internalType":"uint256","name":"tokensIn","type":"uint256"},{"indexed":false,"internalType":"uint256","name":"ethOut","type":"uint256"},{"indexed":false,"internalType":"uint256","name":"feePaid","type":"uint256"}],"name":"Sell","type":"event"},{"inputs":[],"name":"BPS_DENOMINATOR","outputs":[{"internalType":"uint256","name":"","type":"uint256"}],"stateMutability":"view","type":"function"},{"inputs":[{"internalType":"uint256","name":"minTokensOut","type":"uint256"}],"name":"buy","outputs":[{"internalType":"uint256","name":"tokensOut","type":"uint256"}],"stateMutability":"payable","type":"function"},{"inputs":[{"internalType":"address","name":"newRecipient","type":"address"},{"internalType":"uint256","name":"newFeeBps","type":"uint256"}],"name":"configureFees","outputs":[],"stateMutability":"nonpayable","type":"function"},{"inputs":[{"internalType":"address","name":"newDexRouter","type":"address"},{"internalType":"address","name":"newLpRecipient","type":"address"},{"internalType":"uint256","name":"newTargetEth","type":"uint256"}],"name":"configureMigration","outputs":[],"stateMutability":"nonpayable","type":"function"},{"inputs":[],"name":"dexRouter","outputs":[{"internalType":"address","name":"","type":"address"}],"stateMutability":"view","type":"function"},{"inputs":[],"name":"ethReserve","outputs":[{"internalType":"uint256","name":"","type":"uint256"}],"stateMutability":"view","type":"function"},{"inputs":[],"name":"factory","outputs":[{"internalType":"address","name":"","type":"address"}],"stateMutability":"view","type":"function"},{"inputs":[],"name":"feeBps","outputs":[{"internalType":"uint256","name":"","type":"uint256"}],"stateMutability":"view","type":"function"},{"inputs":[],"name":"feeRecipient","outputs":[{"internalType":"address","name":"","type":"address"}],"stateMutability":"view","type":"function"},{"inputs":[],"name":"graduated","outputs":[{"internalType":"bool","name":"","type":"bool"}],"stateMutability":"view","type":"function"},{"inputs":[],"name":"graduatedAt","outputs":[{"internalType":"uint256","name":"","type":"uint256"}],"stateMutability":"view","type":"function"},{"inputs":[],"name":"graduationTargetEth","outputs":[{"internalType":"uint256","name":"","type":"uint256"}],"stateMutability":"view","type":"function"},{"inputs":[],"name":"lpRecipient","outputs":[{"internalType":"address","name":"","type":"address"}],"stateMutability":"view","type":"function"},{"inputs":[],"name":"migratedPair","outputs":[{"internalType":"address","name":"","type":"address"}],"stateMutability":"view","type":"function"},{"inputs":[{"internalType":"uint256","name":"ethAmountIn","type":"uint256"}],"name":"quoteBuy","outputs":[{"internalType":"uint256","name":"tokensOut","type":"uint256"},{"internalType":"uint256","name":"feePaid","type":"uint256"}],"stateMutability":"view","type":"function"},{"inputs":[{"internalType":"uint256","name":"tokenAmountIn","type":"uint256"}],"name":"quoteSell","outputs":[{"internalType":"uint256","name":"ethOut","type":"uint256"},{"internalType":"uint256","name":"feePaid","type":"uint256"}],"stateMutability":"view","type":"function"},{"inputs":[{"internalType":"uint256","name":"tokenAmount","type":"uint256"}],"name":"seed","outputs":[],"stateMutability":"nonpayable","type":"function"},{"inputs":[],"name":"seeded","outputs":[{"internalType":"bool","name":"","type":"bool"}],"stateMutability":"view","type":"function"},{"inputs":[{"internalType":"uint256","name":"tokenAmountIn","type":"uint256"},{"internalType":"uint256","name":"minEthOut","type":"uint256"}],"name":"sell","outputs":[{"internalType":"uint256","name":"ethOut","type":"uint256"}],"stateMutability":"nonpayable","type":"function"},{"inputs":[],"name":"spotPrice","outputs":[{"internalType":"uint256","name":"","type":"uint256"}],"stateMutability":"view","type":"function"},{"inputs":[],"name":"targetProgressBps","outputs":[{"internalType":"uint256","name":"","type":"uint256"}],"stateMutability":"view","type":"function"},{"inputs":[],"name":"token","outputs":[{"internalType":"address","name":"","type":"address"}],"stateMutability":"view","type":"function"},{"inputs":[],"name":"tokenReserve","outputs":[{"internalType":"uint256","name":"","type":"uint256"}],"stateMutability":"view","type":"function"},{"inputs":[],"name":"triggerGraduation","outputs":[],"stateMutability":"nonpayable","type":"function"},{"inputs":[],"name":"virtualEthReserve","outputs":[{"internalType":"uint256","name":"","type":"uint256"}],"stateMutability":"view","type":"function"},{"inputs":[],"name":"virtualTokenReserve","outputs":[{"internalType":"uint256","name":"","type":"uint256"}],"stateMutability":"view","type":"function"}],"evm":{"bytecode":{"linkReferences":{},"object":"61010034620003a757601f62001d5138819003918201601f191683019291906001600160401b03841183851017620003ac57816101209284926040968752833981010312620003a7576200005381620003c2565b60209062000063828401620003c2565b9162000071858501620003c2565b926060850151608086015160a08701519160c088015193620000a56101006200009d60e08c01620003c2565b9a01620003c2565b6001600160a01b0398909790898216156200037257898316156200033b578916998a15620002f75761012c8411620002c4578415620002805785156200023c578615620002065789169687620001bb575b5060a05260805260018060a01b03199788600054161760005560015560c05260e05260045583600554161760055516906006541617600655516119799081620003d882396080518181816107180152818161079a0152818161095d0152610cb1015260a051818181610156015281816102ed0152818161053a015281816107f70152611383015260c051818181610ab901528181610f460152818161182a01526118c0015260e051818181610c3801528181610f130152818161185f01526118f10152f35b898916620000f6576064908c519062461bcd60e51b82526004820152601560248201527f6c7020726563697069656e7420726571756972656400000000000000000000006044820152fd5b8b5162461bcd60e51b815260048101899052600f60248201526e1d185c99d95d081c995c5d5a5c9959608a1b6044820152606490fd5b8b5162461bcd60e51b815260048101899052601660248201527f7669727475616c20746f6b656e207265717569726564000000000000000000006044820152606490fd5b8b5162461bcd60e51b815260048101899052601460248201527f7669727475616c206574682072657175697265640000000000000000000000006044820152606490fd5b8b5162461bcd60e51b815260048101899052600c60248201526b0cccaca40e8dede40d0d2ced60a31b6044820152606490fd5b8b5162461bcd60e51b815260048101899052601660248201527f66656520726563697069656e74207265717569726564000000000000000000006044820152606490fd5b8b5162461bcd60e51b815260048101899052601060248201526f199858dd1bdc9e481c995c5d5a5c995960821b6044820152606490fd5b8b5162461bcd60e51b815260048101899052600e60248201526d1d1bdad95b881c995c5d5a5c995960921b6044820152606490fd5b600080fd5b634e487b7160e01b600052604160045260246000fd5b51906001600160a01b0382168203620003a75756fe608060408181526004918236101561001657600080fd5b600092833560e01c9182630758d92414610df9575081631ad15bbc14610dd057816324a9d85314610db15781632760eca114610d945781632a2c697214610c82578163334041a614610c5b578163343ee3b714610c20578163398482d814610bfc5781634329742d14610b4c578163452e68dd14610b235781634690484014610afb5781634beb394c14610adc57816352b86d2b14610aa15781637f544e4914610a825781638c575aa3146109205781639556483714610772578163a64190c414610747578163c45a015514610703578163cbcb3171146106e4578163d62ccb3f146106c5578163d79875eb14610458578163d96a094a146101ef578163e1a45218146101d2578163e7c2b772146101ab578163f95a02d014610189575063fc0c546a1461014357600080fd5b34610185578160031936011261018557517f00000000000000000000000000000000000000000000000000000000000000006001600160a01b03168152602090f35b5080fd5b9050346101a757826003193601126101a75760209250549051908152f35b8280fd5b50503461018557816003193601126101855760209060ff60065460a81c1690519015158152f35b505034610185578160031936011261018557602090516127108152f35b91905060209283600319360112610455576006549061021460ff8360b01c1615610f92565b60ff60b01b19918216600160b01b1760068190556102489060ff9061023e60a082901c8316610fcb565b60a81c1615611193565b34156104235761271061025d60015434610e39565b04906102698234611049565b946102738661181c565b9561027f8715156111cb565b61028c823588101561120d565b600354908188116103e7576102e8926102b6898b946102ae8295600254610efe565b600255611049565b600355856103c0575b875163a9059cbb60e01b8152339181019182526020820192909252909283918291604090910190565b0381857f00000000000000000000000000000000000000000000000000000000000000006001600160a01b03165af19182156103b5579061032e92610388575b5061125c565b7fbeae048c6d270d9469f86cf6e8fedda3c60ad770f16c24c9fc131c8e9a09101d83518061037087339534846040919493926060820195825260208201520152565b0390a261037b611921565b6006541660065551908152f35b6103a89150873d89116103ae575b6103a081836110fd565b810190611244565b38610328565b503d610396565b8551903d90823e3d90fd5b6103e2858080808a60018060a01b038254165af16103dc6112a0565b506112e0565b6102bf565b865162461bcd60e51b81528084018a90526016602482015275696e73756666696369656e74206c697175696469747960501b6044820152606490fd5b825162461bcd60e51b8152808501869052600c60248201526b195d1a081c995c5d5a5c995960a21b6044820152606490fd5b80fd5b919050346101a757806003193601126101a75781356006549061048160ff8360b01c1615610f92565b60ff60b01b19918216600160b01b1760068190556104ab9060ff9061023e60a082901c8316610fcb565b6104b68115156110b9565b6104bf816118b4565b946104cb8615156111cb565b6002548611610682576127106104e360015488610e39565b04956104ef8782611049565b956104fe60243588101561120d565b85516323b872dd60e01b81523382820190815230602082810191909152604082018790526001600160a01b0394929182908190606001038188887f0000000000000000000000000000000000000000000000000000000000000000165af19081156106785761058f929161057891879161065f575061125c565b61058486600354610efe565b600355600254611049565b600255828080808a335af16105a26112a0565b5015610626575086807f846c37eef631e0943682d87352ec117c20008eb7f425c9b85ac011a6d4774cc0936105f99360209a610609575b505086519485525060208401879052604084015233929081906060820190565b0390a26006541660065551908152f35b818061061e9481938254165af16103dc6112a0565b8038806105d9565b606490602087519162461bcd60e51b83528201526013602482015272195d1a081d1c985b9cd9995c8819985a5b1959606a1b6044820152fd5b6103a8915060203d6020116103ae576103a081836110fd565b88513d87823e3d90fd5b835162461bcd60e51b8152602081870152601860248201527f696e73756666696369656e7420657468207265736572766500000000000000006044820152606490fd5b5050346101855781600319360112610185576020906002549051908152f35b5050346101855781600319360112610185576020906003549051908152f35b505034610185578160031936011261018557517f00000000000000000000000000000000000000000000000000000000000000006001600160a01b03168152602090f35b9050823461045557602036600319011261045557506107669035611135565b82519182526020820152f35b8391503461018557602090816003193601126101a7578035906001600160a01b03906107c1337f0000000000000000000000000000000000000000000000000000000000000000841614610ec3565b6006549160ff8360a01c166108ec57846024916107df8615156110b9565b88516370a0823160e01b8152308582015292839182907f0000000000000000000000000000000000000000000000000000000000000000165afa9081156108e25790849187916108ad575b5010610874575060ff60a01b1916600160a01b176006556003819055925192835290917fa71ed34ff06af8d6865a8f541aae52d72fa89f0e5ee15f01d48fa6c62c8569149190a180f35b855162461bcd60e51b81529081018490526013602482015272696e73756666696369656e7420746f6b656e7360681b6044820152606490fd5b809250868092503d83116108db575b6108c681836110fd565b810103126108d7578390518861082a565b8580fd5b503d6108bc565b87513d88823e3d90fd5b865162461bcd60e51b8152808301869052600e60248201526d185b1c9958591e481cd95959195960921b6044820152606490fd5b839150346101855760603660031901126101855761093c610e1e565b602435916001600160a01b03908184168085036108d75760443592610984817f0000000000000000000000000000000000000000000000000000000000000000163314610ec3565b6006549061099860ff8360a81c1615611009565b8415610a4d5785169081610a0d575b600580546001600160a01b0319908116939093179055161760065581905593516001600160a01b039182168152911660208201526040810192909252907fbcdc4bff84f936019028a7bcbef6b449550d6334606377b822720e57e94276c490606090a180f35b826109a757885162461bcd60e51b815260208186015260156024820152741b1c081c9958da5c1a595b9d081c995c5d5a5c9959605a1b6044820152606490fd5b885162461bcd60e51b8152602081860152600f60248201526e1d185c99d95d081c995c5d5a5c9959608a1b6044820152606490fd5b5050346101855781600319360112610185576020906008549051908152f35b505034610185578160031936011261018557602090517f00000000000000000000000000000000000000000000000000000000000000008152f35b9050823461045557602036600319011261045557506107669035611056565b505034610185578160031936011261018557905490516001600160a01b039091168152602090f35b50503461018557816003193601126101855760065490516001600160a01b039091168152602090f35b9050346101a757826003193601126101a75760065491610b7260ff8460b01c1615610f92565b60ff60b01b19928316600160b01b176006819055610ba69060ff90610b9c60a082901c8316610fcb565b60a81c1615611009565b600254825411610bc4575050610bba611341565b6006541660065580f35b906020606492519162461bcd60e51b835282015260126024820152711d185c99d95d081b9bdd081c995858da195960721b6044820152fd5b505034610185578160031936011261018557602090610c19610f0b565b9051908152f35b505034610185578160031936011261018557602090517f00000000000000000000000000000000000000000000000000000000000000008152f35b50503461018557816003193601126101855760209060ff60065460a01c1690519015158152f35b919050346101a757806003193601126101a757610c9d610e1e565b60243591906001600160a01b0390610cd8337f0000000000000000000000000000000000000000000000000000000000000000841614610ec3565b16928315610d5d5761012c8311610d2c575083546001600160a01b031916831784556001829055519081527fe42708d93b95810922305119a3271ca42233da9ebe1e1e503f0e887817a32c7a90602090a280f35b6020606492519162461bcd60e51b8352820152600c60248201526b0cccaca40e8dede40d0d2ced60a31b6044820152fd5b6020606492519162461bcd60e51b835282015260126024820152711c9958da5c1a595b9d081c995c5d5a5c995960721b6044820152fd5b505034610185578160031936011261018557602090610c19610e82565b5050346101855781600319360112610185576020906001549051908152f35b50503461018557816003193601126101855760075490516001600160a01b039091168152602090f35b8490346101855781600319360112610185576005546001600160a01b03168152602090f35b600435906001600160a01b0382168203610e3457565b600080fd5b81810292918115918404141715610e4c57565b634e487b7160e01b600052601160045260246000fd5b8115610e6c570490565b634e487b7160e01b600052601260045260246000fd5b6004548015610ebd576002546127109182820291808304841490151715610e4c57610eac91610e62565b90808211610eb8575090565b905090565b50600090565b15610eca57565b60405162461bcd60e51b815260206004820152600c60248201526b6f6e6c7920666163746f727960a01b6044820152606490fd5b91908201809211610e4c57565b610f386003547f000000000000000000000000000000000000000000000000000000000000000090610efe565b8015610ebd57610f6b6002547f000000000000000000000000000000000000000000000000000000000000000090610efe565b90670de0b6b3a764000091828102928184041490151715610e4c57610f8f91610e62565b90565b15610f9957565b60405162461bcd60e51b815260206004820152600a6024820152697265656e7472616e637960b01b6044820152606490fd5b15610fd257565b60405162461bcd60e51b815260206004820152600f60248201526e1c1bdbdb081b9bdd081cd959591959608a1b6044820152606490fd5b1561101057565b60405162461bcd60e51b8152602060048201526011602482015270185b1c9958591e4819dc98591d585d1959607a1b6044820152606490fd5b91908203918211610e4c57565b60065460ff8160a01c16159081156110ab575b5080156110a3575b61109a5761109761109261271061108a60015485610e39565b048093611049565b61181c565b91565b50600090600090565b508015611071565b60ff915060a81c1638611069565b156110c057565b60405162461bcd60e51b81526020600482015260156024820152741d1bdad95b88185b5bdd5b9d081c995c5d5a5c9959605a1b6044820152606490fd5b90601f8019910116810190811067ffffffffffffffff82111761111f57604052565b634e487b7160e01b600052604160045260246000fd5b60065460ff8160a01c1615908115611185575b50801561117d575b61109a5761115d906118b4565b801561109a5761109761271061117560015484610e39565b048092611049565b508015611150565b60ff915060a81c1638611148565b1561119a57565b60405162461bcd60e51b815260206004820152600960248201526819dc98591d585d195960ba1b6044820152606490fd5b156111d257565b60405162461bcd60e51b81526020600482015260136024820152721a5b9cdd59999a58da595b9d081bdd5d1c1d5d606a1b6044820152606490fd5b1561121457565b60405162461bcd60e51b8152602060048201526008602482015267736c69707061676560c01b6044820152606490fd5b90816020910312610e3457518015158103610e345790565b1561126357565b60405162461bcd60e51b81526020600482015260156024820152741d1bdad95b881d1c985b9cd9995c8819985a5b1959605a1b6044820152606490fd5b3d156112db573d9067ffffffffffffffff821161111f57604051916112cf601f8201601f1916602001846110fd565b82523d6000602084013e565b606090565b156112e757565b60405162461bcd60e51b8152602060048201526013602482015272199959481d1c985b9cd9995c8819985a5b1959606a1b6044820152606490fd5b90816020910312610e3457516001600160a01b0381168103610e345790565b6005546001600160a01b039081169081156117e257600160a81b60ff60a81b1960065416176006554260085560035491600254906000928360035583600255807f0000000000000000000000000000000000000000000000000000000000000000169360409283518263095ea7b360e01b80835260049384840152602492828482015289816044816020998a945af180156117d8579186918c936117bb575b50600554895191825288166001600160a01b0316868201908152602081019390935291829081906040010381858d5af180156117815761179e575b50846005541694806006541695610e10420180421161178b5760c48b8b6060948f948d519c8d96879563f305d71960e01b87528d8701528b860152896044860152896064860152608485015260a48401525af19788156117815782998397849a61173d575b50600554895163c45a015560e01b815290841688828981845afa918215611714578892918a91889361171e575b508c516315ab88c960e31b815293849182905afa918215611714578389878e95948d948b966116ee575b508160449495969751978896879563e6a4390560e01b8752860152168c840152165afa9081156116e457918489928e9488916116b7575b50169d8e6bffffffffffffffffffffffff60a01b60075416176007558381116115e6575b5050505086811161157c575b505085519788525050508401528201524260608201527f71aa8c3702dbbc54247a4e6446450e64a46250dd72707a247ddb01d72eaef44590608090a2565b82809261158a898394611049565b908254165af16115986112a0565b50156115a65780808061153e565b60189060649386519362461bcd60e51b85528401528201527f6574682064757374207472616e73666572206661696c656400000000000000006044820152fd5b61162d936115f391611049565b86548c5163a9059cbb60e01b81529087166001600160a01b03168a8201908152602081019290925293849291839189918391604090910190565b03925af19081156116ad578491611690575b501561164e5789863880611532565b875162461bcd60e51b8152808601879052601a818601527f746f6b656e2064757374207472616e73666572206661696c65640000000000006044820152606490fd5b6116a79150873d89116103ae576103a081836110fd565b3861163f565b89513d86823e3d90fd5b6116d79150843d86116116dd575b6116cf81836110fd565b810190611322565b3861150e565b503d6116c5565b8a513d87823e3d90fd5b85965061170b8391604496973d8a116116dd576116cf81836110fd565b969594506114d7565b8b513d88823e3d90fd5b611736919350823d84116116dd576116cf81836110fd565b91386114ad565b9a50985095506060893d606011611779575b8161175c606093836110fd565b810103126101855788519587868b01519a01519699969838611480565b3d915061174f565b87513d84823e3d90fd5b5050634e487b7160e01b82525060118352fd5b6117b490853d87116103ae576103a081836110fd565b503861141b565b6117d190833d85116103ae576103a081836110fd565b50386113e0565b88513d85823e3d90fd5b60405162461bcd60e51b815260206004820152601260248201527119195e081c9bdd5d195c881b9bdd081cd95d60721b6044820152606490fd5b8015610ebd5761184f6002547f000000000000000000000000000000000000000000000000000000000000000090610efe565b9061189b600354926118956118847f000000000000000000000000000000000000000000000000000000000000000086610efe565b9361188f8584610e39565b92610efe565b90610e62565b808211156118ac57610eac91611049565b505050600090565b6002549061189b6118e57f000000000000000000000000000000000000000000000000000000000000000084610efe565b916118956119166003547f000000000000000000000000000000000000000000000000000000000000000090610efe565b9161188f8386610e39565b60ff60065460a81c16611941576002546004541161194157611941611341565b56fea26469706673582212204e98e89a8ccac5297c9186e96e71fc7976b42d7f24f8a97a47537544551298dd64736f6c63430008180033","opcodes":"PUSH2 0x100 CALLVALUE PUSH3 0x3A7 JUMPI PUSH1 0x1F PUSH3 0x1D51 CODESIZE DUP2 SWAP1 SUB SWAP2 DUP3 ADD PUSH1 0x1F NOT AND DUP4 ADD SWAP3 SWAP2 SWAP1 PUSH1 0x1 PUSH1 0x1 PUSH1 0x40 SHL SUB DUP5 GT DUP4 DUP6 LT OR PUSH3 0x3AC JUMPI DUP2 PUSH2 0x120 SWAP3 DUP5 SWAP3 PUSH1 0x40 SWAP7 DUP8 MSTORE DUP4 CODECOPY DUP2 ADD SUB SLT PUSH3 0x3A7 JUMPI PUSH3 0x53 DUP2 PUSH3 0x3C2 JUMP JUMPDEST PUSH1 0x20 SWAP1 PUSH3 0x63 DUP3 DUP5 ADD PUSH3 0x3C2 JUMP JUMPDEST SWAP2 PUSH3 0x71 DUP6 DUP6 ADD PUSH3 0x3C2 JUMP JUMPDEST SWAP3 PUSH1 0x60 DUP6 ADD MLOAD PUSH1 0x80 DUP7 ADD MLOAD PUSH1 0xA0 DUP8 ADD MLOAD SWAP2 PUSH1 0xC0 DUP9 ADD MLOAD SWAP4 PUSH3 0xA5 PUSH2 0x100 PUSH3 0x9D PUSH1 0xE0 DUP13 ADD PUSH3 0x3C2 JUMP JUMPDEST SWAP11 ADD PUSH3 0x3C2 JUMP JUMPDEST PUSH1 0x1 PUSH1 0x1 PUSH1 0xA0 SHL SUB SWAP9 SWAP1 SWAP8 SWAP1 DUP10 DUP3 AND ISZERO PUSH3 0x372 JUMPI DUP10 DUP4 AND ISZERO PUSH3 0x33B JUMPI DUP10 AND SWAP10 DUP11 ISZERO PUSH3 0x2F7 JUMPI PUSH2 0x12C DUP5 GT PUSH3 0x2C4 JUMPI DUP5 ISZERO PUSH3 0x280 JUMPI DUP6 ISZERO PUSH3 0x23C JUMPI DUP7 ISZERO PUSH3 0x206 JUMPI DUP10 AND SWAP7 DUP8 PUSH3 0x1BB JUMPI JUMPDEST POP PUSH1 0xA0 MSTORE PUSH1 0x80 MSTORE PUSH1 0x1 DUP1 PUSH1 0xA0 SHL SUB NOT SWAP8 DUP9 PUSH1 0x0 SLOAD AND OR PUSH1 0x0 SSTORE PUSH1 0x1 SSTORE PUSH1 0xC0 MSTORE PUSH1 0xE0 MSTORE PUSH1 0x4 SSTORE DUP4 PUSH1 0x5 SLOAD AND OR PUSH1 0x5 SSTORE AND SWAP1 PUSH1 0x6 SLOAD AND OR PUSH1 0x6 SSTORE MLOAD PUSH2 0x1979 SWAP1 DUP2 PUSH3 0x3D8 DUP3 CODECOPY PUSH1 0x80 MLOAD DUP2 DUP2 DUP2 PUSH2 0x718 ADD MSTORE DUP2 DUP2 PUSH2 0x79A ADD MSTORE DUP2 DUP2 PUSH2 0x95D ADD MSTORE PUSH2 0xCB1 ADD MSTORE PUSH1 0xA0 MLOAD DUP2 DUP2 DUP2 PUSH2 0x156 ADD MSTORE DUP2 DUP2 PUSH2 0x2ED ADD MSTORE DUP2 DUP2 PUSH2 0x53A ADD MSTORE DUP2 DUP2 PUSH2 0x7F7 ADD MSTORE PUSH2 0x1383 ADD MSTORE PUSH1 0xC0 MLOAD DUP2 DUP2 DUP2 PUSH2 0xAB9 ADD MSTORE DUP2 DUP2 PUSH2 0xF46 ADD MSTORE DUP2 DUP2 PUSH2 0x182A ADD MSTORE PUSH2 0x18C0 ADD MSTORE PUSH1 0xE0 MLOAD DUP2 DUP2 DUP2 PUSH2 0xC38 ADD MSTORE DUP2 DUP2 PUSH2 0xF13 ADD MSTORE DUP2 DUP2 PUSH2 0x185F ADD MSTORE PUSH2 0x18F1 ADD MSTORE RETURN JUMPDEST DUP10 DUP10 AND PUSH3 0xF6 JUMPI PUSH1 0x64 SWAP1 DUP13 MLOAD SWAP1 PUSH3 0x461BCD PUSH1 0xE5 SHL DUP3 MSTORE PUSH1 0x4 DUP3 ADD MSTORE PUSH1 0x15 PUSH1 0x24 DUP3 ADD MSTORE PUSH32 0x6C7020726563697069656E742072657175697265640000000000000000000000 PUSH1 0x44 DUP3 ADD MSTORE REVERT JUMPDEST DUP12 MLOAD PUSH3 0x461BCD PUSH1 0xE5 SHL DUP2 MSTORE PUSH1 0x4 DUP2 ADD DUP10 SWAP1 MSTORE PUSH1 0xF PUSH1 0x24 DUP3 ADD MSTORE PUSH15 0x1D185C99D95D081C995C5D5A5C9959 PUSH1 0x8A SHL PUSH1 0x44 DUP3 ADD MSTORE PUSH1 0x64 SWAP1 REVERT JUMPDEST DUP12 MLOAD PUSH3 0x461BCD PUSH1 0xE5 SHL DUP2 MSTORE PUSH1 0x4 DUP2 ADD DUP10 SWAP1 MSTORE PUSH1 0x16 PUSH1 0x24 DUP3 ADD MSTORE PUSH32 0x7669727475616C20746F6B656E20726571756972656400000000000000000000 PUSH1 0x44 DUP3 ADD MSTORE PUSH1 0x64 SWAP1 REVERT JUMPDEST DUP12 MLOAD PUSH3 0x461BCD PUSH1 0xE5 SHL DUP2 MSTORE PUSH1 0x4 DUP2 ADD DUP10 SWAP1 MSTORE PUSH1 0x14 PUSH1 0x24 DUP3 ADD MSTORE PUSH32 0x7669727475616C20657468207265717569726564000000000000000000000000 PUSH1 0x44 DUP3 ADD MSTORE PUSH1 0x64 SWAP1 REVERT JUMPDEST DUP12 MLOAD PUSH3 0x461BCD PUSH1 0xE5 SHL DUP2 MSTORE PUSH1 0x4 DUP2 ADD DUP10 SWAP1 MSTORE PUSH1 0xC PUSH1 0x24 DUP3 ADD MSTORE PUSH12 0xCCCACA40E8DEDE40D0D2CED PUSH1 0xA3 SHL PUSH1 0x44 DUP3 ADD MSTORE PUSH1 0x64 SWAP1 REVERT JUMPDEST DUP12 MLOAD PUSH3 0x461BCD PUSH1 0xE5 SHL DUP2 MSTORE PUSH1 0x4 DUP2 ADD DUP10 SWAP1 MSTORE PUSH1 0x16 PUSH1 0x24 DUP3 ADD MSTORE PUSH32 0x66656520726563697069656E7420726571756972656400000000000000000000 PUSH1 0x44 DUP3 ADD MSTORE PUSH1 0x64 SWAP1 REVERT JUMPDEST DUP12 MLOAD PUSH3 0x461BCD PUSH1 0xE5 SHL DUP2 MSTORE PUSH1 0x4 DUP2 ADD DUP10 SWAP1 MSTORE PUSH1 0x10 PUSH1 0x24 DUP3 ADD MSTORE PUSH16 0x199858DD1BDC9E481C995C5D5A5C9959 PUSH1 0x82 SHL PUSH1 0x44 DUP3 ADD MSTORE PUSH1 0x64 SWAP1 REVERT JUMPDEST DUP12 MLOAD PUSH3 0x461BCD PUSH1 0xE5 SHL DUP2 MSTORE PUSH1 0x4 DUP2 ADD DUP10 SWAP1 MSTORE PUSH1 0xE PUSH1 0x24 DUP3 ADD MSTORE PUSH14 0x1D1BDAD95B881C995C5D5A5C9959 PUSH1 0x92 SHL PUSH1 0x44 DUP3 ADD MSTORE PUSH1 0x64 SWAP1 REVERT JUMPDEST PUSH1 0x0 DUP1 REVERT JUMPDEST PUSH4 0x4E487B71 PUSH1 0xE0 SHL PUSH1 0x0 MSTORE PUSH1 0x41 PUSH1 0x4 MSTORE PUSH1 0x24 PUSH1 0x0 REVERT JUMPDEST MLOAD SWAP1 PUSH1 0x1 PUSH1 0x1 PUSH1 0xA0 SHL SUB DUP3 AND DUP3 SUB PUSH3 0x3A7 JUMPI JUMP INVALID PUSH1 0x80 PUSH1 0x40 DUP2 DUP2 MSTORE PUSH1 0x4 SWAP2 DUP3 CALLDATASIZE LT ISZERO PUSH2 0x16 JUMPI PUSH1 0x0 DUP1 REVERT JUMPDEST PUSH1 0x0 SWAP3 DUP4 CALLDATALOAD PUSH1 0xE0 SHR SWAP2 DUP3 PUSH4 0x758D924 EQ PUSH2 0xDF9 JUMPI POP DUP2 PUSH4 0x1AD15BBC EQ PUSH2 0xDD0 JUMPI DUP2 PUSH4 0x24A9D853 EQ PUSH2 0xDB1 JUMPI DUP2 PUSH4 0x2760ECA1 EQ PUSH2 0xD94 JUMPI DUP2 PUSH4 0x2A2C6972 EQ PUSH2 0xC82 JUMPI DUP2 PUSH4 0x334041A6 EQ PUSH2 0xC5B JUMPI DUP2 PUSH4 0x343EE3B7 EQ PUSH2 0xC20 JUMPI DUP2 PUSH4 0x398482D8 EQ PUSH2 0xBFC JUMPI DUP2 PUSH4 0x4329742D EQ PUSH2 0xB4C JUMPI DUP2 PUSH4 0x452E68DD EQ PUSH2 0xB23 JUMPI DUP2 PUSH4 0x46904840 EQ PUSH2 0xAFB JUMPI DUP2 PUSH4 0x4BEB394C EQ PUSH2 0xADC JUMPI DUP2 PUSH4 0x52B86D2B EQ PUSH2 0xAA1 JUMPI DUP2 PUSH4 0x7F544E49 EQ PUSH2 0xA82 JUMPI DUP2 PUSH4 0x8C575AA3 EQ PUSH2 0x920 JUMPI DUP2 PUSH4 0x95564837 EQ PUSH2 0x772 JUMPI DUP2 PUSH4 0xA64190C4 EQ PUSH2 0x747 JUMPI DUP2 PUSH4 0xC45A0155 EQ PUSH2 0x703 JUMPI DUP2 PUSH4 0xCBCB3171 EQ PUSH2 0x6E4 JUMPI DUP2 PUSH4 0xD62CCB3F EQ PUSH2 0x6C5 JUMPI DUP2 PUSH4 0xD79875EB EQ PUSH2 0x458 JUMPI DUP2 PUSH4 0xD96A094A EQ PUSH2 0x1EF JUMPI DUP2 PUSH4 0xE1A45218 EQ PUSH2 0x1D2 JUMPI DUP2 PUSH4 0xE7C2B772 EQ PUSH2 0x1AB JUMPI DUP2 PUSH4 0xF95A02D0 EQ PUSH2 0x189 JUMPI POP PUSH4 0xFC0C546A EQ PUSH2 0x143 JUMPI PUSH1 0x0 DUP1 REVERT JUMPDEST CALLVALUE PUSH2 0x185 JUMPI DUP2 PUSH1 0x3 NOT CALLDATASIZE ADD SLT PUSH2 0x185 JUMPI MLOAD PUSH32 0x0 PUSH1 0x1 PUSH1 0x1 PUSH1 0xA0 SHL SUB AND DUP2 MSTORE PUSH1 0x20 SWAP1 RETURN JUMPDEST POP DUP1 REVERT JUMPDEST SWAP1 POP CALLVALUE PUSH2 0x1A7 JUMPI DUP3 PUSH1 0x3 NOT CALLDATASIZE ADD SLT PUSH2 0x1A7 JUMPI PUSH1 0x20 SWAP3 POP SLOAD SWAP1 MLOAD SWAP1 DUP2 MSTORE RETURN JUMPDEST DUP3 DUP1 REVERT JUMPDEST POP POP CALLVALUE PUSH2 0x185 JUMPI DUP2 PUSH1 0x3 NOT CALLDATASIZE ADD SLT PUSH2 0x185 JUMPI PUSH1 0x20 SWAP1 PUSH1 0xFF PUSH1 0x6 SLOAD PUSH1 0xA8 SHR AND SWAP1 MLOAD SWAP1 ISZERO ISZERO DUP2 MSTORE RETURN JUMPDEST POP POP CALLVALUE PUSH2 0x185 JUMPI DUP2 PUSH1 0x3 NOT CALLDATASIZE ADD SLT PUSH2 0x185 JUMPI PUSH1 0x20 SWAP1 MLOAD PUSH2 0x2710 DUP2 MSTORE RETURN JUMPDEST SWAP2 SWAP1 POP PUSH1 0x20 SWAP3 DUP4 PUSH1 0x3 NOT CALLDATASIZE ADD SLT PUSH2 0x455 JUMPI PUSH1 0x6 SLOAD SWAP1 PUSH2 0x214 PUSH1 0xFF DUP4 PUSH1 0xB0 SHR AND ISZERO PUSH2 0xF92 JUMP JUMPDEST PUSH1 0xFF PUSH1 0xB0 SHL NOT SWAP2 DUP3 AND PUSH1 0x1 PUSH1 0xB0 SHL OR PUSH1 0x6 DUP2 SWAP1 SSTORE PUSH2 0x248 SWAP1 PUSH1 0xFF SWAP1 PUSH2 0x23E PUSH1 0xA0 DUP3 SWAP1 SHR DUP4 AND PUSH2 0xFCB JUMP JUMPDEST PUSH1 0xA8 SHR AND ISZERO PUSH2 0x1193 JUMP JUMPDEST CALLVALUE ISZERO PUSH2 0x423 JUMPI PUSH2 0x2710 PUSH2 0x25D PUSH1 0x1 SLOAD CALLVALUE PUSH2 0xE39 JUMP JUMPDEST DIV SWAP1 PUSH2 0x269 DUP3 CALLVALUE PUSH2 0x1049 JUMP JUMPDEST SWAP5 PUSH2 0x273 DUP7 PUSH2 0x181C JUMP JUMPDEST SWAP6 PUSH2 0x27F DUP8 ISZERO ISZERO PUSH2 0x11CB JUMP JUMPDEST PUSH2 0x28C DUP3 CALLDATALOAD DUP9 LT ISZERO PUSH2 0x120D JUMP JUMPDEST PUSH1 0x3 SLOAD SWAP1 DUP2 DUP9 GT PUSH2 0x3E7 JUMPI PUSH2 0x2E8 SWAP3 PUSH2 0x2B6 DUP10 DUP12 SWAP5 PUSH2 0x2AE DUP3 SWAP6 PUSH1 0x2 SLOAD PUSH2 0xEFE JUMP JUMPDEST PUSH1 0x2 SSTORE PUSH2 0x1049 JUMP JUMPDEST PUSH1 0x3 SSTORE DUP6 PUSH2 0x3C0 JUMPI JUMPDEST DUP8 MLOAD PUSH4 0xA9059CBB PUSH1 0xE0 SHL DUP2 MSTORE CALLER SWAP2 DUP2 ADD SWAP2 DUP3 MSTORE PUSH1 0x20 DUP3 ADD SWAP3 SWAP1 SWAP3 MSTORE SWAP1 SWAP3 DUP4 SWAP2 DUP3 SWAP2 PUSH1 0x40 SWAP1 SWAP2 ADD SWAP1 JUMP JUMPDEST SUB DUP2 DUP6 PUSH32 0x0 PUSH1 0x1 PUSH1 0x1 PUSH1 0xA0 SHL SUB AND GAS CALL SWAP2 DUP3 ISZERO PUSH2 0x3B5 JUMPI SWAP1 PUSH2 0x32E SWAP3 PUSH2 0x388 JUMPI JUMPDEST POP PUSH2 0x125C JUMP JUMPDEST PUSH32 0xBEAE048C6D270D9469F86CF6E8FEDDA3C60AD770F16C24C9FC131C8E9A09101D DUP4 MLOAD DUP1 PUSH2 0x370 DUP8 CALLER SWAP6 CALLVALUE DUP5 PUSH1 0x40 SWAP2 SWAP5 SWAP4 SWAP3 PUSH1 0x60 DUP3 ADD SWAP6 DUP3 MSTORE PUSH1 0x20 DUP3 ADD MSTORE ADD MSTORE JUMP JUMPDEST SUB SWAP1 LOG2 PUSH2 0x37B PUSH2 0x1921 JUMP JUMPDEST PUSH1 0x6 SLOAD AND PUSH1 0x6 SSTORE MLOAD SWAP1 DUP2 MSTORE RETURN JUMPDEST PUSH2 0x3A8 SWAP2 POP DUP8 RETURNDATASIZE DUP10 GT PUSH2 0x3AE JUMPI JUMPDEST PUSH2 0x3A0 DUP2 DUP4 PUSH2 0x10FD JUMP JUMPDEST DUP2 ADD SWAP1 PUSH2 0x1244 JUMP JUMPDEST CODESIZE PUSH2 0x328 JUMP JUMPDEST POP RETURNDATASIZE PUSH2 0x396 JUMP JUMPDEST DUP6 MLOAD SWAP1 RETURNDATASIZE SWAP1 DUP3 RETURNDATACOPY RETURNDATASIZE SWAP1 REVERT JUMPDEST PUSH2 0x3E2 DUP6 DUP1 DUP1 DUP1 DUP11 PUSH1 0x1 DUP1 PUSH1 0xA0 SHL SUB DUP3 SLOAD AND GAS CALL PUSH2 0x3DC PUSH2 0x12A0 JUMP JUMPDEST POP PUSH2 0x12E0 JUMP JUMPDEST PUSH2 0x2BF JUMP JUMPDEST DUP7 MLOAD PUSH3 0x461BCD PUSH1 0xE5 SHL DUP2 MSTORE DUP1 DUP5 ADD DUP11 SWAP1 MSTORE PUSH1 0x16 PUSH1 0x24 DUP3 ADD MSTORE PUSH22 0x696E73756666696369656E74206C6971756964697479 PUSH1 0x50 SHL PUSH1 0x44 DUP3 ADD MSTORE PUSH1 0x64 SWAP1 REVERT JUMPDEST DUP3 MLOAD PUSH3 0x461BCD PUSH1 0xE5 SHL DUP2 MSTORE DUP1 DUP6 ADD DUP7 SWAP1 MSTORE PUSH1 0xC PUSH1 0x24 DUP3 ADD MSTORE PUSH12 0x195D1A081C995C5D5A5C9959 PUSH1 0xA2 SHL PUSH1 0x44 DUP3 ADD MSTORE PUSH1 0x64 SWAP1 REVERT JUMPDEST DUP1 REVERT JUMPDEST SWAP2 SWAP1 POP CALLVALUE PUSH2 0x1A7 JUMPI DUP1 PUSH1 0x3 NOT CALLDATASIZE ADD SLT PUSH2 0x1A7 JUMPI DUP2 CALLDATALOAD PUSH1 0x6 SLOAD SWAP1 PUSH2 0x481 PUSH1 0xFF DUP4 PUSH1 0xB0 SHR AND ISZERO PUSH2 0xF92 JUMP JUMPDEST PUSH1 0xFF PUSH1 0xB0 SHL NOT SWAP2 DUP3 AND PUSH1 0x1 PUSH1 0xB0 SHL OR PUSH1 0x6 DUP2 SWAP1 SSTORE PUSH2 0x4AB SWAP1 PUSH1 0xFF SWAP1 PUSH2 0x23E PUSH1 0xA0 DUP3 SWAP1 SHR DUP4 AND PUSH2 0xFCB JUMP JUMPDEST PUSH2 0x4B6 DUP2 ISZERO ISZERO PUSH2 0x10B9 JUMP JUMPDEST PUSH2 0x4BF DUP2 PUSH2 0x18B4 JUMP JUMPDEST SWAP5 PUSH2 0x4CB DUP7 ISZERO ISZERO PUSH2 0x11CB JUMP JUMPDEST PUSH1 0x2 SLOAD DUP7 GT PUSH2 0x682 JUMPI PUSH2 0x2710 PUSH2 0x4E3 PUSH1 0x1 SLOAD DUP9 PUSH2 0xE39 JUMP JUMPDEST DIV SWAP6 PUSH2 0x4EF DUP8 DUP3 PUSH2 0x1049 JUMP JUMPDEST SWAP6 PUSH2 0x4FE PUSH1 0x24 CALLDATALOAD DUP9 LT ISZERO PUSH2 0x120D JUMP JUMPDEST DUP6 MLOAD PUSH4 0x23B872DD PUSH1 0xE0 SHL DUP2 MSTORE CALLER DUP3 DUP3 ADD SWAP1 DUP2 MSTORE ADDRESS PUSH1 0x20 DUP3 DUP2 ADD SWAP2 SWAP1 SWAP2 MSTORE PUSH1 0x40 DUP3 ADD DUP8 SWAP1 MSTORE PUSH1 0x1 PUSH1 0x1 PUSH1 0xA0 SHL SUB SWAP5 SWAP3 SWAP2 DUP3 SWAP1 DUP2 SWAP1 PUSH1 0x60 ADD SUB DUP2 DUP9 DUP9 PUSH32 0x0 AND GAS CALL SWAP1 DUP2 ISZERO PUSH2 0x678 JUMPI PUSH2 0x58F SWAP3 SWAP2 PUSH2 0x578 SWAP2 DUP8 SWAP2 PUSH2 0x65F JUMPI POP PUSH2 0x125C JUMP JUMPDEST PUSH2 0x584 DUP7 PUSH1 0x3 SLOAD PUSH2 0xEFE JUMP JUMPDEST PUSH1 0x3 SSTORE PUSH1 0x2 SLOAD PUSH2 0x1049 JUMP JUMPDEST PUSH1 0x2 SSTORE DUP3 DUP1 DUP1 DUP1 DUP11 CALLER GAS CALL PUSH2 0x5A2 PUSH2 0x12A0 JUMP JUMPDEST POP ISZERO PUSH2 0x626 JUMPI POP DUP7 DUP1 PUSH32 0x846C37EEF631E0943682D87352EC117C20008EB7F425C9B85AC011A6D4774CC0 SWAP4 PUSH2 0x5F9 SWAP4 PUSH1 0x20 SWAP11 PUSH2 0x609 JUMPI JUMPDEST POP POP DUP7 MLOAD SWAP5 DUP6 MSTORE POP PUSH1 0x20 DUP5 ADD DUP8 SWAP1 MSTORE PUSH1 0x40 DUP5 ADD MSTORE CALLER SWAP3 SWAP1 DUP2 SWAP1 PUSH1 0x60 DUP3 ADD SWAP1 JUMP JUMPDEST SUB SWAP1 LOG2 PUSH1 0x6 SLOAD AND PUSH1 0x6 SSTORE MLOAD SWAP1 DUP2 MSTORE RETURN JUMPDEST DUP2 DUP1 PUSH2 0x61E SWAP5 DUP2 SWAP4 DUP3 SLOAD AND GAS CALL PUSH2 0x3DC PUSH2 0x12A0 JUMP JUMPDEST DUP1 CODESIZE DUP1 PUSH2 0x5D9 JUMP JUMPDEST PUSH1 0x64 SWAP1 PUSH1 0x20 DUP8 MLOAD SWAP2 PUSH3 0x461BCD PUSH1 0xE5 SHL DUP4 MSTORE DUP3 ADD MSTORE PUSH1 0x13 PUSH1 0x24 DUP3 ADD MSTORE PUSH19 0x195D1A081D1C985B9CD9995C8819985A5B1959 PUSH1 0x6A SHL PUSH1 0x44 DUP3 ADD MSTORE REVERT JUMPDEST PUSH2 0x3A8 SWAP2 POP PUSH1 0x20 RETURNDATASIZE PUSH1 0x20 GT PUSH2 0x3AE JUMPI PUSH2 0x3A0 DUP2 DUP4 PUSH2 0x10FD JUMP JUMPDEST DUP9 MLOAD RETURNDATASIZE DUP8 DUP3 RETURNDATACOPY RETURNDATASIZE SWAP1 REVERT JUMPDEST DUP4 MLOAD PUSH3 0x461BCD PUSH1 0xE5 SHL DUP2 MSTORE PUSH1 0x20 DUP2 DUP8 ADD MSTORE PUSH1 0x18 PUSH1 0x24 DUP3 ADD MSTORE PUSH32 0x696E73756666696369656E742065746820726573657276650000000000000000 PUSH1 0x44 DUP3 ADD MSTORE PUSH1 0x64 SWAP1 REVERT JUMPDEST POP POP CALLVALUE PUSH2 0x185 JUMPI DUP2 PUSH1 0x3 NOT CALLDATASIZE ADD SLT PUSH2 0x185 JUMPI PUSH1 0x20 SWAP1 PUSH1 0x2 SLOAD SWAP1 MLOAD SWAP1 DUP2 MSTORE RETURN JUMPDEST POP POP CALLVALUE PUSH2 0x185 JUMPI DUP2 PUSH1 0x3 NOT CALLDATASIZE ADD SLT PUSH2 0x185 JUMPI PUSH1 0x20 SWAP1 PUSH1 0x3 SLOAD SWAP1 MLOAD SWAP1 DUP2 MSTORE RETURN JUMPDEST POP POP CALLVALUE PUSH2 0x185 JUMPI DUP2 PUSH1 0x3 NOT CALLDATASIZE ADD SLT PUSH2 0x185 JUMPI MLOAD PUSH32 0x0 PUSH1 0x1 PUSH1 0x1 PUSH1 0xA0 SHL SUB AND DUP2 MSTORE PUSH1 0x20 SWAP1 RETURN JUMPDEST SWAP1 POP DUP3 CALLVALUE PUSH2 0x455 JUMPI PUSH1 0x20 CALLDATASIZE PUSH1 0x3 NOT ADD SLT PUSH2 0x455 JUMPI POP PUSH2 0x766 SWAP1 CALLDATALOAD PUSH2 0x1135 JUMP JUMPDEST DUP3 MLOAD SWAP2 DUP3 MSTORE PUSH1 0x20 DUP3 ADD MSTORE RETURN JUMPDEST DUP4 SWAP2 POP CALLVALUE PUSH2 0x185 JUMPI PUSH1 0x20 SWAP1 DUP2 PUSH1 0x3 NOT CALLDATASIZE ADD SLT PUSH2 0x1A7 JUMPI DUP1 CALLDATALOAD SWAP1 PUSH1 0x1 PUSH1 0x1 PUSH1 0xA0 SHL SUB SWAP1 PUSH2 0x7C1 CALLER PUSH32 0x0 DUP5 AND EQ PUSH2 0xEC3 JUMP JUMPDEST PUSH1 0x6 SLOAD SWAP2 PUSH1 0xFF DUP4 PUSH1 0xA0 SHR AND PUSH2 0x8EC JUMPI DUP5 PUSH1 0x24 SWAP2 PUSH2 0x7DF DUP7 ISZERO ISZERO PUSH2 0x10B9 JUMP JUMPDEST DUP9 MLOAD PUSH4 0x70A08231 PUSH1 0xE0 SHL DUP2 MSTORE ADDRESS DUP6 DUP3 ADD MSTORE SWAP3 DUP4 SWAP2 DUP3 SWAP1 PUSH32 0x0 AND GAS STATICCALL SWAP1 DUP2 ISZERO PUSH2 0x8E2 JUMPI SWAP1 DUP5 SWAP2 DUP8 SWAP2 PUSH2 0x8AD JUMPI JUMPDEST POP LT PUSH2 0x874 JUMPI POP PUSH1 0xFF PUSH1 0xA0 SHL NOT AND PUSH1 0x1 PUSH1 0xA0 SHL OR PUSH1 0x6 SSTORE PUSH1 0x3 DUP2 SWAP1 SSTORE SWAP3 MLOAD SWAP3 DUP4 MSTORE SWAP1 SWAP2 PUSH32 0xA71ED34FF06AF8D6865A8F541AAE52D72FA89F0E5EE15F01D48FA6C62C856914 SWAP2 SWAP1 LOG1 DUP1 RETURN JUMPDEST DUP6 MLOAD PUSH3 0x461BCD PUSH1 0xE5 SHL DUP2 MSTORE SWAP1 DUP2 ADD DUP5 SWAP1 MSTORE PUSH1 0x13 PUSH1 0x24 DUP3 ADD MSTORE PUSH19 0x696E73756666696369656E7420746F6B656E73 PUSH1 0x68 SHL PUSH1 0x44 DUP3 ADD MSTORE PUSH1 0x64 SWAP1 REVERT JUMPDEST DUP1 SWAP3 POP DUP7 DUP1 SWAP3 POP RETURNDATASIZE DUP4 GT PUSH2 0x8DB JUMPI JUMPDEST PUSH2 0x8C6 DUP2 DUP4 PUSH2 0x10FD JUMP JUMPDEST DUP2 ADD SUB SLT PUSH2 0x8D7 JUMPI DUP4 SWAP1 MLOAD DUP9 PUSH2 0x82A JUMP JUMPDEST DUP6 DUP1 REVERT JUMPDEST POP RETURNDATASIZE PUSH2 0x8BC JUMP JUMPDEST DUP8 MLOAD RETURNDATASIZE DUP9 DUP3 RETURNDATACOPY RETURNDATASIZE SWAP1 REVERT JUMPDEST DUP7 MLOAD PUSH3 0x461BCD PUSH1 0xE5 SHL DUP2 MSTORE DUP1 DUP4 ADD DUP7 SWAP1 MSTORE PUSH1 0xE PUSH1 0x24 DUP3 ADD MSTORE PUSH14 0x185B1C9958591E481CD959591959 PUSH1 0x92 SHL PUSH1 0x44 DUP3 ADD MSTORE PUSH1 0x64 SWAP1 REVERT JUMPDEST DUP4 SWAP2 POP CALLVALUE PUSH2 0x185 JUMPI PUSH1 0x60 CALLDATASIZE PUSH1 0x3 NOT ADD SLT PUSH2 0x185 JUMPI PUSH2 0x93C PUSH2 0xE1E JUMP JUMPDEST PUSH1 0x24 CALLDATALOAD SWAP2 PUSH1 0x1 PUSH1 0x1 PUSH1 0xA0 SHL SUB SWAP1 DUP2 DUP5 AND DUP1 DUP6 SUB PUSH2 0x8D7 JUMPI PUSH1 0x44 CALLDATALOAD SWAP3 PUSH2 0x984 DUP2 PUSH32 0x0 AND CALLER EQ PUSH2 0xEC3 JUMP JUMPDEST PUSH1 0x6 SLOAD SWAP1 PUSH2 0x998 PUSH1 0xFF DUP4 PUSH1 0xA8 SHR AND ISZERO PUSH2 0x1009 JUMP JUMPDEST DUP5 ISZERO PUSH2 0xA4D JUMPI DUP6 AND SWAP1 DUP2 PUSH2 0xA0D JUMPI JUMPDEST PUSH1 0x5 DUP1 SLOAD PUSH1 0x1 PUSH1 0x1 PUSH1 0xA0 SHL SUB NOT SWAP1 DUP2 AND SWAP4 SWAP1 SWAP4 OR SWAP1 SSTORE AND OR PUSH1 0x6 SSTORE DUP2 SWAP1 SSTORE SWAP4 MLOAD PUSH1 0x1 PUSH1 0x1 PUSH1 0xA0 SHL SUB SWAP2 DUP3 AND DUP2 MSTORE SWAP2 AND PUSH1 0x20 DUP3 ADD MSTORE PUSH1 0x40 DUP2 ADD SWAP3 SWAP1 SWAP3 MSTORE SWAP1 PUSH32 0xBCDC4BFF84F936019028A7BCBEF6B449550D6334606377B822720E57E94276C4 SWAP1 PUSH1 0x60 SWAP1 LOG1 DUP1 RETURN JUMPDEST DUP3 PUSH2 0x9A7 JUMPI DUP9 MLOAD PUSH3 0x461BCD PUSH1 0xE5 SHL DUP2 MSTORE PUSH1 0x20 DUP2 DUP7 ADD MSTORE PUSH1 0x15 PUSH1 0x24 DUP3 ADD MSTORE PUSH21 0x1B1C081C9958DA5C1A595B9D081C995C5D5A5C9959 PUSH1 0x5A SHL PUSH1 0x44 DUP3 ADD MSTORE PUSH1 0x64 SWAP1 REVERT JUMPDEST DUP9 MLOAD PUSH3 0x461BCD PUSH1 0xE5 SHL DUP2 MSTORE PUSH1 0x20 DUP2 DUP7 ADD MSTORE PUSH1 0xF PUSH1 0x24 DUP3 ADD MSTORE PUSH15 0x1D185C99D95D081C995C5D5A5C9959 PUSH1 0x8A SHL PUSH1 0x44 DUP3 ADD MSTORE PUSH1 0x64 SWAP1 REVERT JUMPDEST POP POP CALLVALUE PUSH2 0x185 JUMPI DUP2 PUSH1 0x3 NOT CALLDATASIZE ADD SLT PUSH2 0x185 JUMPI PUSH1 0x20 SWAP1 PUSH1 0x8 SLOAD SWAP1 MLOAD SWAP1 DUP2 MSTORE RETURN JUMPDEST POP POP CALLVALUE PUSH2 0x185 JUMPI DUP2 PUSH1 0x3 NOT CALLDATASIZE ADD SLT PUSH2 0x185 JUMPI PUSH1 0x20 SWAP1 MLOAD PUSH32 0x0 DUP2 MSTORE RETURN JUMPDEST SWAP1 POP DUP3 CALLVALUE PUSH2 0x455 JUMPI PUSH1 0x20 CALLDATASIZE PUSH1 0x3 NOT ADD SLT PUSH2 0x455 JUMPI POP PUSH2 0x766 SWAP1 CALLDATALOAD PUSH2 0x1056 JUMP JUMPDEST POP POP CALLVALUE PUSH2 0x185 JUMPI DUP2 PUSH1 0x3 NOT CALLDATASIZE ADD SLT PUSH2 0x185 JUMPI SWAP1 SLOAD SWAP1 MLOAD PUSH1 0x1 PUSH1 0x1 PUSH1 0xA0 SHL SUB SWAP1 SWAP2 AND DUP2 MSTORE PUSH1 0x20 SWAP1 RETURN JUMPDEST POP POP CALLVALUE PUSH2 0x185 JUMPI DUP2 PUSH1 0x3 NOT CALLDATASIZE ADD SLT PUSH2 0x185 JUMPI PUSH1 0x6 SLOAD SWAP1 MLOAD PUSH1 0x1 PUSH1 0x1 PUSH1 0xA0 SHL SUB SWAP1 SWAP2 AND DUP2 MSTORE PUSH1 0x20 SWAP1 RETURN JUMPDEST SWAP1 POP CALLVALUE PUSH2 0x1A7 JUMPI DUP3 PUSH1 0x3 NOT CALLDATASIZE ADD SLT PUSH2 0x1A7 JUMPI PUSH1 0x6 SLOAD SWAP2 PUSH2 0xB72 PUSH1 0xFF DUP5 PUSH1 0xB0 SHR AND ISZERO PUSH2 0xF92 JUMP JUMPDEST PUSH1 0xFF PUSH1 0xB0 SHL NOT SWAP3 DUP4 AND PUSH1 0x1 PUSH1 0xB0 SHL OR PUSH1 0x6 DUP2 SWAP1 SSTORE PUSH2 0xBA6 SWAP1 PUSH1 0xFF SWAP1 PUSH2 0xB9C PUSH1 0xA0 DUP3 SWAP1 SHR DUP4 AND PUSH2 0xFCB JUMP JUMPDEST PUSH1 0xA8 SHR AND ISZERO PUSH2 0x1009 JUMP JUMPDEST PUSH1 0x2 SLOAD DUP3 SLOAD GT PUSH2 0xBC4 JUMPI POP POP PUSH2 0xBBA PUSH2 0x1341 JUMP JUMPDEST PUSH1 0x6 SLOAD AND PUSH1 0x6 SSTORE DUP1 RETURN JUMPDEST SWAP1 PUSH1 0x20 PUSH1 0x64 SWAP3 MLOAD SWAP2 PUSH3 0x461BCD PUSH1 0xE5 SHL DUP4 MSTORE DUP3 ADD MSTORE PUSH1 0x12 PUSH1 0x24 DUP3 ADD MSTORE PUSH18 0x1D185C99D95D081B9BDD081C995858DA1959 PUSH1 0x72 SHL PUSH1 0x44 DUP3 ADD MSTORE REVERT JUMPDEST POP POP CALLVALUE PUSH2 0x185 JUMPI DUP2 PUSH1 0x3 NOT CALLDATASIZE ADD SLT PUSH2 0x185 JUMPI PUSH1 0x20 SWAP1 PUSH2 0xC19 PUSH2 0xF0B JUMP JUMPDEST SWAP1 MLOAD SWAP1 DUP2 MSTORE RETURN JUMPDEST POP POP CALLVALUE PUSH2 0x185 JUMPI DUP2 PUSH1 0x3 NOT CALLDATASIZE ADD SLT PUSH2 0x185 JUMPI PUSH1 0x20 SWAP1 MLOAD PUSH32 0x0 DUP2 MSTORE RETURN JUMPDEST POP POP CALLVALUE PUSH2 0x185 JUMPI DUP2 PUSH1 0x3 NOT CALLDATASIZE ADD SLT PUSH2 0x185 JUMPI PUSH1 0x20 SWAP1 PUSH1 0xFF PUSH1 0x6 SLOAD PUSH1 0xA0 SHR AND SWAP1 MLOAD SWAP1 ISZERO ISZERO DUP2 MSTORE RETURN JUMPDEST SWAP2 SWAP1 POP CALLVALUE PUSH2 0x1A7 JUMPI DUP1 PUSH1 0x3 NOT CALLDATASIZE ADD SLT PUSH2 0x1A7 JUMPI PUSH2 0xC9D PUSH2 0xE1E JUMP JUMPDEST PUSH1 0x24 CALLDATALOAD SWAP2 SWAP1 PUSH1 0x1 PUSH1 0x1 PUSH1 0xA0 SHL SUB SWAP1 PUSH2 0xCD8 CALLER PUSH32 0x0 DUP5 AND EQ PUSH2 0xEC3 JUMP JUMPDEST AND SWAP3 DUP4 ISZERO PUSH2 0xD5D JUMPI PUSH2 0x12C DUP4 GT PUSH2 0xD2C JUMPI POP DUP4 SLOAD PUSH1 0x1 PUSH1 0x1 PUSH1 0xA0 SHL SUB NOT AND DUP4 OR DUP5 SSTORE PUSH1 0x1 DUP3 SWAP1 SSTORE MLOAD SWAP1 DUP2 MSTORE PUSH32 0xE42708D93B95810922305119A3271CA42233DA9EBE1E1E503F0E887817A32C7A SWAP1 PUSH1 0x20 SWAP1 LOG2 DUP1 RETURN JUMPDEST PUSH1 0x20 PUSH1 0x64 SWAP3 MLOAD SWAP2 PUSH3 0x461BCD PUSH1 0xE5 SHL DUP4 MSTORE DUP3 ADD MSTORE PUSH1 0xC PUSH1 0x24 DUP3 ADD MSTORE PUSH12 0xCCCACA40E8DEDE40D0D2CED PUSH1 0xA3 SHL PUSH1 0x44 DUP3 ADD MSTORE REVERT JUMPDEST PUSH1 0x20 PUSH1 0x64 SWAP3 MLOAD SWAP2 PUSH3 0x461BCD PUSH1 0xE5 SHL DUP4 MSTORE DUP3 ADD MSTORE PUSH1 0x12 PUSH1 0x24 DUP3 ADD MSTORE PUSH18 0x1C9958DA5C1A595B9D081C995C5D5A5C9959 PUSH1 0x72 SHL PUSH1 0x44 DUP3 ADD MSTORE REVERT JUMPDEST POP POP CALLVALUE PUSH2 0x185 JUMPI DUP2 PUSH1 0x3 NOT CALLDATASIZE ADD SLT PUSH2 0x185 JUMPI PUSH1 0x20 SWAP1 PUSH2 0xC19 PUSH2 0xE82 JUMP JUMPDEST POP POP CALLVALUE PUSH2 0x185 JUMPI DUP2 PUSH1 0x3 NOT CALLDATASIZE ADD SLT PUSH2 0x185 JUMPI PUSH1 0x20 SWAP1 PUSH1 0x1 SLOAD SWAP1 MLOAD SWAP1 DUP2 MSTORE RETURN JUMPDEST POP POP CALLVALUE PUSH2 0x185 JUMPI DUP2 PUSH1 0x3 NOT CALLDATASIZE ADD SLT PUSH2 0x185 JUMPI PUSH1 0x7 SLOAD SWAP1 MLOAD PUSH1 0x1 PUSH1 0x1 PUSH1 0xA0 SHL SUB SWAP1 SWAP2 AND DUP2 MSTORE PUSH1 0x20 SWAP1 RETURN JUMPDEST DUP5 SWAP1 CALLVALUE PUSH2 0x185 JUMPI DUP2 PUSH1 0x3 NOT CALLDATASIZE ADD SLT PUSH2 0x185 JUMPI PUSH1 0x5 SLOAD PUSH1 0x1 PUSH1 0x1 PUSH1 0xA0 SHL SUB AND DUP2 MSTORE PUSH1 0x20 SWAP1 RETURN JUMPDEST PUSH1 0x4 CALLDATALOAD SWAP1 PUSH1 0x1 PUSH1 0x1 PUSH1 0xA0 SHL SUB DUP3 AND DUP3 SUB PUSH2 0xE34 JUMPI JUMP JUMPDEST PUSH1 0x0 DUP1 REVERT JUMPDEST DUP2 DUP2 MUL SWAP3 SWAP2 DUP2 ISZERO SWAP2 DUP5 DIV EQ OR ISZERO PUSH2 0xE4C JUMPI JUMP JUMPDEST PUSH4 0x4E487B71 PUSH1 0xE0 SHL PUSH1 0x0 MSTORE PUSH1 0x11 PUSH1 0x4 MSTORE PUSH1 0x24 PUSH1 0x0 REVERT JUMPDEST DUP2 ISZERO PUSH2 0xE6C JUMPI DIV SWAP1 JUMP JUMPDEST PUSH4 0x4E487B71 PUSH1 0xE0 SHL PUSH1 0x0 MSTORE PUSH1 0x12 PUSH1 0x4 MSTORE PUSH1 0x24 PUSH1 0x0 REVERT JUMPDEST PUSH1 0x4 SLOAD DUP1 ISZERO PUSH2 0xEBD JUMPI PUSH1 0x2 SLOAD PUSH2 0x2710 SWAP2 DUP3 DUP3 MUL SWAP2 DUP1 DUP4 DIV DUP5 EQ SWAP1 ISZERO OR ISZERO PUSH2 0xE4C JUMPI PUSH2 0xEAC SWAP2 PUSH2 0xE62 JUMP JUMPDEST SWAP1 DUP1 DUP3 GT PUSH2 0xEB8 JUMPI POP SWAP1 JUMP JUMPDEST SWAP1 POP SWAP1 JUMP JUMPDEST POP PUSH1 0x0 SWAP1 JUMP JUMPDEST ISZERO PUSH2 0xECA JUMPI JUMP JUMPDEST PUSH1 0x40 MLOAD PUSH3 0x461BCD PUSH1 0xE5 SHL DUP2 MSTORE PUSH1 0x20 PUSH1 0x4 DUP3 ADD MSTORE PUSH1 0xC PUSH1 0x24 DUP3 ADD MSTORE PUSH12 0x6F6E6C7920666163746F7279 PUSH1 0xA0 SHL PUSH1 0x44 DUP3 ADD MSTORE PUSH1 0x64 SWAP1 REVERT JUMPDEST SWAP2 SWAP1 DUP3 ADD DUP1 SWAP3 GT PUSH2 0xE4C JUMPI JUMP JUMPDEST PUSH2 0xF38 PUSH1 0x3 SLOAD PUSH32 0x0 SWAP1 PUSH2 0xEFE JUMP JUMPDEST DUP1 ISZERO PUSH2 0xEBD JUMPI PUSH2 0xF6B PUSH1 0x2 SLOAD PUSH32 0x0 SWAP1 PUSH2 0xEFE JUMP JUMPDEST SWAP1 PUSH8 0xDE0B6B3A7640000 SWAP2 DUP3 DUP2 MUL SWAP3 DUP2 DUP5 DIV EQ SWAP1 ISZERO OR ISZERO PUSH2 0xE4C JUMPI PUSH2 0xF8F SWAP2 PUSH2 0xE62 JUMP JUMPDEST SWAP1 JUMP JUMPDEST ISZERO PUSH2 0xF99 JUMPI JUMP JUMPDEST PUSH1 0x40 MLOAD PUSH3 0x461BCD PUSH1 0xE5 SHL DUP2 MSTORE PUSH1 0x20 PUSH1 0x4 DUP3 ADD MSTORE PUSH1 0xA PUSH1 0x24 DUP3 ADD MSTORE PUSH10 0x7265656E7472616E6379 PUSH1 0xB0 SHL PUSH1 0x44 DUP3 ADD MSTORE PUSH1 0x64 SWAP1 REVERT JUMPDEST ISZERO PUSH2 0xFD2 JUMPI JUMP JUMPDEST PUSH1 0x40 MLOAD PUSH3 0x461BCD PUSH1 0xE5 SHL DUP2 MSTORE PUSH1 0x20 PUSH1 0x4 DUP3 ADD MSTORE PUSH1 0xF PUSH1 0x24 DUP3 ADD MSTORE PUSH15 0x1C1BDBDB081B9BDD081CD959591959 PUSH1 0x8A SHL PUSH1 0x44 DUP3 ADD MSTORE PUSH1 0x64 SWAP1 REVERT JUMPDEST ISZERO PUSH2 0x1010 JUMPI JUMP JUMPDEST PUSH1 0x40 MLOAD PUSH3 0x461BCD PUSH1 0xE5 SHL DUP2 MSTORE PUSH1 0x20 PUSH1 0x4 DUP3 ADD MSTORE PUSH1 0x11 PUSH1 0x24 DUP3 ADD MSTORE PUSH17 0x185B1C9958591E4819DC98591D585D1959 PUSH1 0x7A SHL PUSH1 0x44 DUP3 ADD MSTORE PUSH1 0x64 SWAP1 REVERT JUMPDEST SWAP2 SWAP1 DUP3 SUB SWAP2 DUP3 GT PUSH2 0xE4C JUMPI JUMP JUMPDEST PUSH1 0x6 SLOAD PUSH1 0xFF DUP2 PUSH1 0xA0 SHR AND ISZERO SWAP1 DUP2 ISZERO PUSH2 0x10AB JUMPI JUMPDEST POP DUP1 ISZERO PUSH2 0x10A3 JUMPI JUMPDEST PUSH2 0x109A JUMPI PUSH2 0x1097 PUSH2 0x1092 PUSH2 0x2710 PUSH2 0x108A PUSH1 0x1 SLOAD DUP6 PUSH2 0xE39 JUMP JUMPDEST DIV DUP1 SWAP4 PUSH2 0x1049 JUMP JUMPDEST PUSH2 0x181C JUMP JUMPDEST SWAP2 JUMP JUMPDEST POP PUSH1 0x0 SWAP1 PUSH1 0x0 SWAP1 JUMP JUMPDEST POP DUP1 ISZERO PUSH2 0x1071 JUMP JUMPDEST PUSH1 0xFF SWAP2 POP PUSH1 0xA8 SHR AND CODESIZE PUSH2 0x1069 JUMP JUMPDEST ISZERO PUSH2 0x10C0 JUMPI JUMP JUMPDEST PUSH1 0x40 MLOAD PUSH3 0x461BCD PUSH1 0xE5 SHL DUP2 MSTORE PUSH1 0x20 PUSH1 0x4 DUP3 ADD MSTORE PUSH1 0x15 PUSH1 0x24 DUP3 ADD MSTORE PUSH21 0x1D1BDAD95B88185B5BDD5B9D081C995C5D5A5C9959 PUSH1 0x5A SHL PUSH1 0x44 DUP3 ADD MSTORE PUSH1 0x64 SWAP1 REVERT JUMPDEST SWAP1 PUSH1 0x1F DUP1 NOT SWAP2 ADD AND DUP2 ADD SWAP1 DUP2 LT PUSH8 0xFFFFFFFFFFFFFFFF DUP3 GT OR PUSH2 0x111F JUMPI PUSH1 0x40 MSTORE JUMP JUMPDEST PUSH4 0x4E487B71 PUSH1 0xE0 SHL PUSH1 0x0 MSTORE PUSH1 0x41 PUSH1 0x4 MSTORE PUSH1 0x24 PUSH1 0x0 REVERT JUMPDEST PUSH1 0x6 SLOAD PUSH1 0xFF DUP2 PUSH1 0xA0 SHR AND ISZERO SWAP1 DUP2 ISZERO PUSH2 0x1185 JUMPI JUMPDEST POP DUP1 ISZERO PUSH2 0x117D JUMPI JUMPDEST PUSH2 0x109A JUMPI PUSH2 0x115D SWAP1 PUSH2 0x18B4 JUMP JUMPDEST DUP1 ISZERO PUSH2 0x109A JUMPI PUSH2 0x1097 PUSH2 0x2710 PUSH2 0x1175 PUSH1 0x1 SLOAD DUP5 PUSH2 0xE39 JUMP JUMPDEST DIV DUP1 SWAP3 PUSH2 0x1049 JUMP JUMPDEST POP DUP1 ISZERO PUSH2 0x1150 JUMP JUMPDEST PUSH1 0xFF SWAP2 POP PUSH1 0xA8 SHR AND CODESIZE PUSH2 0x1148 JUMP JUMPDEST ISZERO PUSH2 0x119A JUMPI JUMP JUMPDEST PUSH1 0x40 MLOAD PUSH3 0x461BCD PUSH1 0xE5 SHL DUP2 MSTORE PUSH1 0x20 PUSH1 0x4 DUP3 ADD MSTORE PUSH1 0x9 PUSH1 0x24 DUP3 ADD MSTORE PUSH9 0x19DC98591D585D1959 PUSH1 0xBA SHL PUSH1 0x44 DUP3 ADD MSTORE PUSH1 0x64 SWAP1 REVERT JUMPDEST ISZERO PUSH2 0x11D2 JUMPI JUMP JUMPDEST PUSH1 0x40 MLOAD PUSH3 0x461BCD PUSH1 0xE5 SHL DUP2 MSTORE PUSH1 0x20 PUSH1 0x4 DUP3 ADD MSTORE PUSH1 0x13 PUSH1 0x24 DUP3 ADD MSTORE PUSH19 0x1A5B9CDD59999A58DA595B9D081BDD5D1C1D5D PUSH1 0x6A SHL PUSH1 0x44 DUP3 ADD MSTORE PUSH1 0x64 SWAP1 REVERT JUMPDEST ISZERO PUSH2 0x1214 JUMPI JUMP JUMPDEST PUSH1 0x40 MLOAD PUSH3 0x461BCD PUSH1 0xE5 SHL DUP2 MSTORE PUSH1 0x20 PUSH1 0x4 DUP3 ADD MSTORE PUSH1 0x8 PUSH1 0x24 DUP3 ADD MSTORE PUSH8 0x736C697070616765 PUSH1 0xC0 SHL PUSH1 0x44 DUP3 ADD MSTORE PUSH1 0x64 SWAP1 REVERT JUMPDEST SWAP1 DUP2 PUSH1 0x20 SWAP2 SUB SLT PUSH2 0xE34 JUMPI MLOAD DUP1 ISZERO ISZERO DUP2 SUB PUSH2 0xE34 JUMPI SWAP1 JUMP JUMPDEST ISZERO PUSH2 0x1263 JUMPI JUMP JUMPDEST PUSH1 0x40 MLOAD PUSH3 0x461BCD PUSH1 0xE5 SHL DUP2 MSTORE PUSH1 0x20 PUSH1 0x4 DUP3 ADD MSTORE PUSH1 0x15 PUSH1 0x24 DUP3 ADD MSTORE PUSH21 0x1D1BDAD95B881D1C985B9CD9995C8819985A5B1959 PUSH1 0x5A SHL PUSH1 0x44 DUP3 ADD MSTORE PUSH1 0x64 SWAP1 REVERT JUMPDEST RETURNDATASIZE ISZERO PUSH2 0x12DB JUMPI RETURNDATASIZE SWAP1 PUSH8 0xFFFFFFFFFFFFFFFF DUP3 GT PUSH2 0x111F JUMPI PUSH1 0x40 MLOAD SWAP2 PUSH2 0x12CF PUSH1 0x1F DUP3 ADD PUSH1 0x1F NOT AND PUSH1 0x20 ADD DUP5 PUSH2 0x10FD JUMP JUMPDEST DUP3 MSTORE RETURNDATASIZE PUSH1 0x0 PUSH1 0x20 DUP5 ADD RETURNDATACOPY JUMP JUMPDEST PUSH1 0x60 SWAP1 JUMP JUMPDEST ISZERO PUSH2 0x12E7 JUMPI JUMP JUMPDEST PUSH1 0x40 MLOAD PUSH3 0x461BCD PUSH1 0xE5 SHL DUP2 MSTORE PUSH1 0x20 PUSH1 0x4 DUP3 ADD MSTORE PUSH1 0x13 PUSH1 0x24 DUP3 ADD MSTORE PUSH19 0x199959481D1C985B9CD9995C8819985A5B1959 PUSH1 0x6A SHL PUSH1 0x44 DUP3 ADD MSTORE PUSH1 0x64 SWAP1 REVERT JUMPDEST SWAP1 DUP2 PUSH1 0x20 SWAP2 SUB SLT PUSH2 0xE34 JUMPI MLOAD PUSH1 0x1 PUSH1 0x1 PUSH1 0xA0 SHL SUB DUP2 AND DUP2 SUB PUSH2 0xE34 JUMPI SWAP1 JUMP JUMPDEST PUSH1 0x5 SLOAD PUSH1 0x1 PUSH1 0x1 PUSH1 0xA0 SHL SUB SWAP1 DUP2 AND SWAP1 DUP2 ISZERO PUSH2 0x17E2 JUMPI PUSH1 0x1 PUSH1 0xA8 SHL PUSH1 0xFF PUSH1 0xA8 SHL NOT PUSH1 0x6 SLOAD AND OR PUSH1 0x6 SSTORE TIMESTAMP PUSH1 0x8 SSTORE PUSH1 0x3 SLOAD SWAP2 PUSH1 0x2 SLOAD SWAP1 PUSH1 0x0 SWAP3 DUP4 PUSH1 0x3 SSTORE DUP4 PUSH1 0x2 SSTORE DUP1 PUSH32 0x0 AND SWAP4 PUSH1 0x40 SWAP3 DUP4 MLOAD DUP3 PUSH4 0x95EA7B3 PUSH1 0xE0 SHL DUP1 DUP4 MSTORE PUSH1 0x4 SWAP4 DUP5 DUP5 ADD MSTORE PUSH1 0x24 SWAP3 DUP3 DUP5 DUP3 ADD MSTORE DUP10 DUP2 PUSH1 0x44 DUP2 PUSH1 0x20 SWAP10 DUP11 SWAP5 GAS CALL DUP1 ISZERO PUSH2 0x17D8 JUMPI SWAP2 DUP7 SWAP2 DUP13 SWAP4 PUSH2 0x17BB JUMPI JUMPDEST POP PUSH1 0x5 SLOAD DUP10 MLOAD SWAP2 DUP3 MSTORE DUP9 AND PUSH1 0x1 PUSH1 0x1 PUSH1 0xA0 SHL SUB AND DUP7 DUP3 ADD SWAP1 DUP2 MSTORE PUSH1 0x20 DUP2 ADD SWAP4 SWAP1 SWAP4 MSTORE SWAP2 DUP3 SWAP1 DUP2 SWAP1 PUSH1 0x40 ADD SUB DUP2 DUP6 DUP14 GAS CALL DUP1 ISZERO PUSH2 0x1781 JUMPI PUSH2 0x179E JUMPI JUMPDEST POP DUP5 PUSH1 0x5 SLOAD AND SWAP5 DUP1 PUSH1 0x6 SLOAD AND SWAP6 PUSH2 0xE10 TIMESTAMP ADD DUP1 TIMESTAMP GT PUSH2 0x178B JUMPI PUSH1 0xC4 DUP12 DUP12 PUSH1 0x60 SWAP5 DUP16 SWAP5 DUP14 MLOAD SWAP13 DUP14 SWAP7 DUP8 SWAP6 PUSH4 0xF305D719 PUSH1 0xE0 SHL DUP8 MSTORE DUP14 DUP8 ADD MSTORE DUP12 DUP7 ADD MSTORE DUP10 PUSH1 0x44 DUP7 ADD MSTORE DUP10 PUSH1 0x64 DUP7 ADD MSTORE PUSH1 0x84 DUP6 ADD MSTORE PUSH1 0xA4 DUP5 ADD MSTORE GAS CALL SWAP8 DUP9 ISZERO PUSH2 0x1781 JUMPI DUP3 SWAP10 DUP4 SWAP8 DUP5 SWAP11 PUSH2 0x173D JUMPI JUMPDEST POP PUSH1 0x5 SLOAD DUP10 MLOAD PUSH4 0xC45A0155 PUSH1 0xE0 SHL DUP2 MSTORE SWAP1 DUP5 AND DUP9 DUP3 DUP10 DUP2 DUP5 GAS STATICCALL SWAP2 DUP3 ISZERO PUSH2 0x1714 JUMPI DUP9 SWAP3 SWAP2 DUP11 SWAP2 DUP9 SWAP4 PUSH2 0x171E JUMPI JUMPDEST POP DUP13 MLOAD PUSH4 0x15AB88C9 PUSH1 0xE3 SHL DUP2 MSTORE SWAP4 DUP5 SWAP2 DUP3 SWAP1 GAS STATICCALL SWAP2 DUP3 ISZERO PUSH2 0x1714 JUMPI DUP4 DUP10 DUP8 DUP15 SWAP6 SWAP5 DUP14 SWAP5 DUP12 SWAP7 PUSH2 0x16EE JUMPI JUMPDEST POP DUP2 PUSH1 0x44 SWAP5 SWAP6 SWAP7 SWAP8 MLOAD SWAP8 DUP9 SWAP7 DUP8 SWAP6 PUSH4 0xE6A43905 PUSH1 0xE0 SHL DUP8 MSTORE DUP7 ADD MSTORE AND DUP13 DUP5 ADD MSTORE AND GAS STATICCALL SWAP1 DUP2 ISZERO PUSH2 0x16E4 JUMPI SWAP2 DUP5 DUP10 SWAP3 DUP15 SWAP5 DUP9 SWAP2 PUSH2 0x16B7 JUMPI JUMPDEST POP AND SWAP14 DUP15 PUSH12 0xFFFFFFFFFFFFFFFFFFFFFFFF PUSH1 0xA0 SHL PUSH1 0x7 SLOAD AND OR PUSH1 0x7 SSTORE DUP4 DUP2 GT PUSH2 0x15E6 JUMPI JUMPDEST POP POP POP POP DUP7 DUP2 GT PUSH2 0x157C JUMPI JUMPDEST POP POP DUP6 MLOAD SWAP8 DUP9 MSTORE POP POP POP DUP5 ADD MSTORE DUP3 ADD MSTORE TIMESTAMP PUSH1 0x60 DUP3 ADD MSTORE PUSH32 0x71AA8C3702DBBC54247A4E6446450E64A46250DD72707A247DDB01D72EAEF445 SWAP1 PUSH1 0x80 SWAP1 LOG2 JUMP JUMPDEST DUP3 DUP1 SWAP3 PUSH2 0x158A DUP10 DUP4 SWAP5 PUSH2 0x1049 JUMP JUMPDEST SWAP1 DUP3 SLOAD AND GAS CALL PUSH2 0x1598 PUSH2 0x12A0 JUMP JUMPDEST POP ISZERO PUSH2 0x15A6 JUMPI DUP1 DUP1 DUP1 PUSH2 0x153E JUMP JUMPDEST PUSH1 0x18 SWAP1 PUSH1 0x64 SWAP4 DUP7 MLOAD SWAP4 PUSH3 0x461BCD PUSH1 0xE5 SHL DUP6 MSTORE DUP5 ADD MSTORE DUP3 ADD MSTORE PUSH32 0x6574682064757374207472616E73666572206661696C65640000000000000000 PUSH1 0x44 DUP3 ADD MSTORE REVERT JUMPDEST PUSH2 0x162D SWAP4 PUSH2 0x15F3 SWAP2 PUSH2 0x1049 JUMP JUMPDEST DUP7 SLOAD DUP13 MLOAD PUSH4 0xA9059CBB PUSH1 0xE0 SHL DUP2 MSTORE SWAP1 DUP8 AND PUSH1 0x1 PUSH1 0x1 PUSH1 0xA0 SHL SUB AND DUP11 DUP3 ADD SWAP1 DUP2 MSTORE PUSH1 0x20 DUP2 ADD SWAP3 SWAP1 SWAP3 MSTORE SWAP4 DUP5 SWAP3 SWAP2 DUP4 SWAP2 DUP10 SWAP2 DUP4 SWAP2 PUSH1 0x40 SWAP1 SWAP2 ADD SWAP1 JUMP JUMPDEST SUB SWAP3 GAS CALL SWAP1 DUP2 ISZERO PUSH2 0x16AD JUMPI DUP5 SWAP2 PUSH2 0x1690 JUMPI JUMPDEST POP ISZERO PUSH2 0x164E JUMPI DUP10 DUP7 CODESIZE DUP1 PUSH2 0x1532 JUMP JUMPDEST DUP8 MLOAD PUSH3 0x461BCD PUSH1 0xE5 SHL DUP2 MSTORE DUP1 DUP7 ADD DUP8 SWAP1 MSTORE PUSH1 0x1A DUP2 DUP7 ADD MSTORE PUSH32 0x746F6B656E2064757374207472616E73666572206661696C6564000000000000 PUSH1 0x44 DUP3 ADD MSTORE PUSH1 0x64 SWAP1 REVERT JUMPDEST PUSH2 0x16A7 SWAP2 POP DUP8 RETURNDATASIZE DUP10 GT PUSH2 0x3AE JUMPI PUSH2 0x3A0 DUP2 DUP4 PUSH2 0x10FD JUMP JUMPDEST CODESIZE PUSH2 0x163F JUMP JUMPDEST DUP10 MLOAD RETURNDATASIZE DUP7 DUP3 RETURNDATACOPY RETURNDATASIZE SWAP1 REVERT JUMPDEST PUSH2 0x16D7 SWAP2 POP DUP5 RETURNDATASIZE DUP7 GT PUSH2 0x16DD JUMPI JUMPDEST PUSH2 0x16CF DUP2 DUP4 PUSH2 0x10FD JUMP JUMPDEST DUP2 ADD SWAP1 PUSH2 0x1322 JUMP JUMPDEST CODESIZE PUSH2 0x150E JUMP JUMPDEST POP RETURNDATASIZE PUSH2 0x16C5 JUMP JUMPDEST DUP11 MLOAD RETURNDATASIZE DUP8 DUP3 RETURNDATACOPY RETURNDATASIZE SWAP1 REVERT JUMPDEST DUP6 SWAP7 POP PUSH2 0x170B DUP4 SWAP2 PUSH1 0x44 SWAP7 SWAP8 RETURNDATASIZE DUP11 GT PUSH2 0x16DD JUMPI PUSH2 0x16CF DUP2 DUP4 PUSH2 0x10FD JUMP JUMPDEST SWAP7 SWAP6 SWAP5 POP PUSH2 0x14D7 JUMP JUMPDEST DUP12 MLOAD RETURNDATASIZE DUP9 DUP3 RETURNDATACOPY RETURNDATASIZE SWAP1 REVERT JUMPDEST PUSH2 0x1736 SWAP2 SWAP4 POP DUP3 RETURNDATASIZE DUP5 GT PUSH2 0x16DD JUMPI PUSH2 0x16CF DUP2 DUP4 PUSH2 0x10FD JUMP JUMPDEST SWAP2 CODESIZE PUSH2 0x14AD JUMP JUMPDEST SWAP11 POP SWAP9 POP SWAP6 POP PUSH1 0x60 DUP10 RETURNDATASIZE PUSH1 0x60 GT PUSH2 0x1779 JUMPI JUMPDEST DUP2 PUSH2 0x175C PUSH1 0x60 SWAP4 DUP4 PUSH2 0x10FD JUMP JUMPDEST DUP2 ADD SUB SLT PUSH2 0x185 JUMPI DUP9 MLOAD SWAP6 DUP8 DUP7 DUP12 ADD MLOAD SWAP11 ADD MLOAD SWAP7 SWAP10 SWAP7 SWAP9 CODESIZE PUSH2 0x1480 JUMP JUMPDEST RETURNDATASIZE SWAP2 POP PUSH2 0x174F JUMP JUMPDEST DUP8 MLOAD RETURNDATASIZE DUP5 DUP3 RETURNDATACOPY RETURNDATASIZE SWAP1 REVERT JUMPDEST POP POP PUSH4 0x4E487B71 PUSH1 0xE0 SHL DUP3 MSTORE POP PUSH1 0x11 DUP4 MSTORE REVERT JUMPDEST PUSH2 0x17B4 SWAP1 DUP6 RETURNDATASIZE DUP8 GT PUSH2 0x3AE JUMPI PUSH2 0x3A0 DUP2 DUP4 PUSH2 0x10FD JUMP JUMPDEST POP CODESIZE PUSH2 0x141B JUMP JUMPDEST PUSH2 0x17D1 SWAP1 DUP4 RETURNDATASIZE DUP6 GT PUSH2 0x3AE JUMPI PUSH2 0x3A0 DUP2 DUP4 PUSH2 0x10FD JUMP JUMPDEST POP CODESIZE PUSH2 0x13E0 JUMP JUMPDEST DUP9 MLOAD RETURNDATASIZE DUP6 DUP3 RETURNDATACOPY RETURNDATASIZE SWAP1 REVERT JUMPDEST PUSH1 0x40 MLOAD PUSH3 0x461BCD PUSH1 0xE5 SHL DUP2 MSTORE PUSH1 0x20 PUSH1 0x4 DUP3 ADD MSTORE PUSH1 0x12 PUSH1 0x24 DUP3 ADD MSTORE PUSH18 0x19195E081C9BDD5D195C881B9BDD081CD95D PUSH1 0x72 SHL PUSH1 0x44 DUP3 ADD MSTORE PUSH1 0x64 SWAP1 REVERT JUMPDEST DUP1 ISZERO PUSH2 0xEBD JUMPI PUSH2 0x184F PUSH1 0x2 SLOAD PUSH32 0x0 SWAP1 PUSH2 0xEFE JUMP JUMPDEST SWAP1 PUSH2 0x189B PUSH1 0x3 SLOAD SWAP3 PUSH2 0x1895 PUSH2 0x1884 PUSH32 0x0 DUP7 PUSH2 0xEFE JUMP JUMPDEST SWAP4 PUSH2 0x188F DUP6 DUP5 PUSH2 0xE39 JUMP JUMPDEST SWAP3 PUSH2 0xEFE JUMP JUMPDEST SWAP1 PUSH2 0xE62 JUMP JUMPDEST DUP1 DUP3 GT ISZERO PUSH2 0x18AC JUMPI PUSH2 0xEAC SWAP2 PUSH2 0x1049 JUMP JUMPDEST POP POP POP PUSH1 0x0 SWAP1 JUMP JUMPDEST PUSH1 0x2 SLOAD SWAP1 PUSH2 0x189B PUSH2 0x18E5 PUSH32 0x0 DUP5 PUSH2 0xEFE JUMP JUMPDEST SWAP2 PUSH2 0x1895 PUSH2 0x1916 PUSH1 0x3 SLOAD PUSH32 0x0 SWAP1 PUSH2 0xEFE JUMP JUMPDEST SWAP2 PUSH2 0x188F DUP4 DUP7 PUSH2 0xE39 JUMP JUMPDEST PUSH1 0xFF PUSH1 0x6 SLOAD PUSH1 0xA8 SHR AND PUSH2 0x1941 JUMPI PUSH1 0x2 SLOAD PUSH1 0x4 SLOAD GT PUSH2 0x1941 JUMPI PUSH2 0x1941 PUSH2 0x1341 JUMP JUMPDEST JUMP INVALID LOG2 PUSH5 0x6970667358 0x22 SLT KECCAK256 0x4E SWAP9 0xE8 SWAP11 DUP13 0xCA 0xC5 0x29 PUSH29 0x9186E96E71FC7976B42D7F24F8A97A47537544551298DD64736F6C6343 STOP ADDMOD XOR STOP CALLER "},"methodIdentifiers":{"BPS_DENOMINATOR()":"e1a45218","buy(uint256)":"d96a094a","configureFees(address,uint256)":"2a2c6972","configureMigration(address,address,uint256)":"8c575aa3","dexRouter()":"0758d924","ethReserve()":"d62ccb3f","factory()":"c45a0155","feeBps()":"24a9d853","feeRecipient()":"46904840","graduated()":"e7c2b772","graduatedAt()":"7f544e49","graduationTargetEth()":"f95a02d0","lpRecipient()":"452e68dd","migratedPair()":"1ad15bbc","quoteBuy(uint256)":"4beb394c","quoteSell(uint256)":"a64190c4","seed(uint256)":"95564837","seeded()":"334041a6","sell(uint256,uint256)":"d79875eb","spotPrice()":"398482d8","targetProgressBps()":"2760eca1","token()":"fc0c546a","tokenReserve()":"cbcb3171","triggerGraduation()":"4329742d","virtualEthReserve()":"52b86d2b","virtualTokenReserve()":"343ee3b7"}}}}}