{"contracts/MemeLaunchFactory.sol":{"MemeLaunchFactory":{"abi":[{"inputs":[{"internalType":"address","name":"_feeRecipient","type":"address"},{"internalType":"address","name":"_platformFeeRecipient","type":"address"},{"internalType":"uint256","name":"_defaultFeeBps","type":"uint256"},{"internalType":"uint256","name":"_launchFeeWei","type":"uint256"},{"internalType":"uint256","name":"_defaultVirtualEthReserve","type":"uint256"},{"internalType":"uint256","name":"_defaultVirtualTokenReserve","type":"uint256"},{"internalType":"uint256","name":"_defaultGraduationTargetEth","type":"uint256"},{"internalType":"address","name":"_defaultDexRouter","type":"address"},{"internalType":"address","name":"_defaultLpRecipient","type":"address"}],"stateMutability":"nonpayable","type":"constructor"},{"anonymous":false,"inputs":[{"indexed":false,"internalType":"address","name":"feeRecipient","type":"address"},{"indexed":false,"internalType":"address","name":"platformFeeRecipient","type":"address"},{"indexed":false,"internalType":"uint256","name":"feeBps","type":"uint256"},{"indexed":false,"internalType":"uint256","name":"launchFeeWei","type":"uint256"},{"indexed":false,"internalType":"uint256","name":"virtualEthReserve","type":"uint256"},{"indexed":false,"internalType":"uint256","name":"virtualTokenReserve","type":"uint256"},{"indexed":false,"internalType":"uint256","name":"graduationTargetEth","type":"uint256"},{"indexed":false,"internalType":"address","name":"dexRouter","type":"address"},{"indexed":false,"internalType":"address","name":"lpRecipient","type":"address"}],"name":"DefaultsUpdated","type":"event"},{"anonymous":false,"inputs":[{"indexed":true,"internalType":"address","name":"creator","type":"address"},{"indexed":false,"internalType":"uint256","name":"ethLiquidity","type":"uint256"}],"name":"InstantLaunchRequested","type":"event"},{"anonymous":false,"inputs":[{"indexed":true,"internalType":"uint256","name":"launchId","type":"uint256"},{"indexed":true,"internalType":"address","name":"creator","type":"address"},{"indexed":true,"internalType":"address","name":"token","type":"address"},{"indexed":false,"internalType":"address","name":"pool","type":"address"},{"indexed":false,"internalType":"uint256","name":"totalSupply","type":"uint256"},{"indexed":false,"internalType":"uint256","name":"creatorAllocation","type":"uint256"},{"indexed":false,"internalType":"uint256","name":"feeBps","type":"uint256"},{"indexed":false,"internalType":"uint256","name":"graduationTargetEth","type":"uint256"},{"indexed":false,"internalType":"address","name":"dexRouter","type":"address"},{"indexed":false,"internalType":"address","name":"lpRecipient","type":"address"}],"name":"LaunchCreated","type":"event"},{"anonymous":false,"inputs":[{"indexed":true,"internalType":"address","name":"payer","type":"address"},{"indexed":true,"internalType":"address","name":"recipient","type":"address"},{"indexed":false,"internalType":"uint256","name":"amountWei","type":"uint256"}],"name":"LaunchFeePaid","type":"event"},{"anonymous":false,"inputs":[{"indexed":true,"internalType":"address","name":"previousOwner","type":"address"},{"indexed":true,"internalType":"address","name":"newOwner","type":"address"}],"name":"OwnershipTransferred","type":"event"},{"inputs":[],"name":"BPS_DENOMINATOR","outputs":[{"internalType":"uint256","name":"","type":"uint256"}],"stateMutability":"view","type":"function"},{"inputs":[{"internalType":"string","name":"name","type":"string"},{"internalType":"string","name":"symbol","type":"string"},{"internalType":"string","name":"imageURI","type":"string"},{"internalType":"string","name":"description","type":"string"},{"internalType":"uint256","name":"totalSupply","type":"uint256"},{"internalType":"uint256","name":"creatorAllocationBps","type":"uint256"}],"name":"createLaunch","outputs":[{"internalType":"uint256","name":"launchId","type":"uint256"},{"internalType":"address","name":"tokenAddress","type":"address"},{"internalType":"address","name":"poolAddress","type":"address"}],"stateMutability":"payable","type":"function"},{"inputs":[{"internalType":"string","name":"name","type":"string"},{"internalType":"string","name":"symbol","type":"string"},{"internalType":"string","name":"imageURI","type":"string"},{"internalType":"string","name":"description","type":"string"},{"internalType":"uint256","name":"totalSupply","type":"uint256"},{"internalType":"uint256","name":"creatorAllocationBps","type":"uint256"}],"name":"createLaunchInstant","outputs":[{"internalType":"uint256","name":"launchId","type":"uint256"},{"internalType":"address","name":"tokenAddress","type":"address"},{"internalType":"address","name":"poolAddress","type":"address"}],"stateMutability":"payable","type":"function"},{"inputs":[],"name":"defaultDexRouter","outputs":[{"internalType":"address","name":"","type":"address"}],"stateMutability":"view","type":"function"},{"inputs":[],"name":"defaultFeeBps","outputs":[{"internalType":"uint256","name":"","type":"uint256"}],"stateMutability":"view","type":"function"},{"inputs":[],"name":"defaultGraduationTargetEth","outputs":[{"internalType":"uint256","name":"","type":"uint256"}],"stateMutability":"view","type":"function"},{"inputs":[],"name":"defaultLpRecipient","outputs":[{"internalType":"address","name":"","type":"address"}],"stateMutability":"view","type":"function"},{"inputs":[],"name":"defaultVirtualEthReserve","outputs":[{"internalType":"uint256","name":"","type":"uint256"}],"stateMutability":"view","type":"function"},{"inputs":[],"name":"defaultVirtualTokenReserve","outputs":[{"internalType":"uint256","name":"","type":"uint256"}],"stateMutability":"view","type":"function"},{"inputs":[],"name":"feeRecipient","outputs":[{"internalType":"address","name":"","type":"address"}],"stateMutability":"view","type":"function"},{"inputs":[{"internalType":"uint256","name":"launchId","type":"uint256"}],"name":"getLaunch","outputs":[{"components":[{"internalType":"address","name":"token","type":"address"},{"internalType":"address","name":"pool","type":"address"},{"internalType":"address","name":"creator","type":"address"},{"internalType":"string","name":"name","type":"string"},{"internalType":"string","name":"symbol","type":"string"},{"internalType":"string","name":"imageURI","type":"string"},{"internalType":"string","name":"description","type":"string"},{"internalType":"uint256","name":"totalSupply","type":"uint256"},{"internalType":"uint256","name":"creatorAllocation","type":"uint256"},{"internalType":"uint256","name":"createdAt","type":"uint256"}],"internalType":"struct MemeLaunchFactory.LaunchInfo","name":"","type":"tuple"}],"stateMutability":"view","type":"function"},{"inputs":[],"name":"getLaunchCount","outputs":[{"internalType":"uint256","name":"","type":"uint256"}],"stateMutability":"view","type":"function"},{"inputs":[{"internalType":"uint256","name":"offset","type":"uint256"},{"internalType":"uint256","name":"limit","type":"uint256"}],"name":"getLaunches","outputs":[{"components":[{"internalType":"address","name":"token","type":"address"},{"internalType":"address","name":"pool","type":"address"},{"internalType":"address","name":"creator","type":"address"},{"internalType":"string","name":"name","type":"string"},{"internalType":"string","name":"symbol","type":"string"},{"internalType":"string","name":"imageURI","type":"string"},{"internalType":"string","name":"description","type":"string"},{"internalType":"uint256","name":"totalSupply","type":"uint256"},{"internalType":"uint256","name":"creatorAllocation","type":"uint256"},{"internalType":"uint256","name":"createdAt","type":"uint256"}],"internalType":"struct MemeLaunchFactory.LaunchInfo[]","name":"data","type":"tuple[]"}],"stateMutability":"view","type":"function"},{"inputs":[],"name":"launchFeeWei","outputs":[{"internalType":"uint256","name":"","type":"uint256"}],"stateMutability":"view","type":"function"},{"inputs":[],"name":"owner","outputs":[{"internalType":"address","name":"","type":"address"}],"stateMutability":"view","type":"function"},{"inputs":[],"name":"platformFeeRecipient","outputs":[{"internalType":"address","name":"","type":"address"}],"stateMutability":"view","type":"function"},{"inputs":[{"internalType":"address","name":"token","type":"address"}],"name":"poolByToken","outputs":[{"internalType":"address","name":"pool","type":"address"}],"stateMutability":"view","type":"function"},{"inputs":[{"internalType":"address","name":"newFeeRecipient","type":"address"},{"internalType":"address","name":"newPlatformFeeRecipient","type":"address"},{"internalType":"uint256","name":"newFeeBps","type":"uint256"},{"internalType":"uint256","name":"newLaunchFeeWei","type":"uint256"},{"internalType":"uint256","name":"newVirtualEthReserve","type":"uint256"},{"internalType":"uint256","name":"newVirtualTokenReserve","type":"uint256"},{"internalType":"uint256","name":"newGraduationTargetEth","type":"uint256"},{"internalType":"address","name":"newDexRouter","type":"address"},{"internalType":"address","name":"newLpRecipient","type":"address"}],"name":"setDefaults","outputs":[],"stateMutability":"nonpayable","type":"function"},{"inputs":[{"internalType":"address","name":"newOwner","type":"address"}],"name":"transferOwnership","outputs":[],"stateMutability":"nonpayable","type":"function"}],"evm":{"bytecode":{"linkReferences":{},"object":"608034620002fd57601f62005e5d38819003918201601f191683019291906001600160401b038411838510176200030257816101209284926040968752833981010312620002fd57620000528162000318565b6020916200006283820162000318565b92848201516060830151608084015160a08501519160c0860151936200009a6101006200009260e08a0162000318565b980162000318565b6001600160a01b03988916999097908a15620002b95761012c83116200028657891690811562000242578415620001fe578515620001ba57861562000184578916968762000139575b5060018060a01b031999338b60005416176000558a60015416176001558960025416176002556003556004556005556006556007558360085416176008551690600954161760095551615b2f90816200032e8239f35b898916620000e3576064908c519062461bcd60e51b82526004820152601560248201527f6c7020726563697069656e7420726571756972656400000000000000000000006044820152fd5b8b5162461bcd60e51b815260048101899052600f60248201526e1d185c99d95d081c995c5d5a5c9959608a1b6044820152606490fd5b8b5162461bcd60e51b815260048101899052601660248201527f7669727475616c20746f6b656e207265717569726564000000000000000000006044820152606490fd5b8b5162461bcd60e51b815260048101899052601460248201527f7669727475616c206574682072657175697265640000000000000000000000006044820152606490fd5b8b5162461bcd60e51b815260048101899052601b60248201527f706c6174666f726d20726563697069656e7420726571756972656400000000006044820152606490fd5b8b5162461bcd60e51b815260048101899052600c60248201526b0cccaca40e8dede40d0d2ced60a31b6044820152606490fd5b8b5162461bcd60e51b815260048101899052601660248201527f66656520726563697069656e74207265717569726564000000000000000000006044820152606490fd5b600080fd5b634e487b7160e01b600052604160045260246000fd5b51906001600160a01b0382168203620002fd5756fe60a08060405260043610156200001457600080fd5b60003560e01c9081630b0420bb1462002140575080631036338c14620015e057806313ed4aa614620015b55780631c8c0d92146200159557806346904840146200156a5780635930d3ce14620014d657806363f0eb0414620014b657806383eeb3bb14620014965780638da5cb5b146200146b57806393a8e04d146200144b57806396875aa0146200065b5780639b3b9f9814620005d05780639ff0251f14620005b0578063b82942a5146200024d578063bcae25a4146200022d578063d578192c1462000202578063e1a4521814620001e3578063eb13554f14620001b85763f2fde38b146200010457600080fd5b34620001b3576020366003190112620001b357620001216200217c565b6000546001600160a01b03808216926200013d3385146200270a565b169182156200017d5782907f8be0079c531659141344cd1fd0a4f28419497f9722a3daafe3b4186f6b6457e0600080a36001600160a01b03191617600055005b60405162461bcd60e51b815260206004820152600e60248201526d1bdddb995c881c995c5d5a5c995960921b6044820152606490fd5b600080fd5b34620001b3576000366003190112620001b3576002546040516001600160a01b039091168152602090f35b34620001b3576000366003190112620001b35760206040516127108152f35b34620001b3576000366003190112620001b3576008546040516001600160a01b039091168152602090f35b34620001b3576000366003190112620001b3576020600354604051908152f35b34620001b357610120366003190112620001b3576200026b6200217c565b6024356001600160a01b0381168103620001b35760649160e4356001600160a01b0381168103620001b35761010435916001600160a01b0383168303620001b357620002c360018060a01b036000541633146200270a565b6001600160a01b031692831562000573576001600160a01b038116156200052f5761012c60443511620004fc5760843515620004c15760a43515620004845760c435156200044e576001600160a01b03821662000403575b907f62de0c78f593b14f1d09c895ce83a42ea45a7d77a716a05432a53193305b3c5a946101209493926001600160601b0360a01b8581600154161760015560018060a01b038216816002541617600255604435600355823560045560843560055560a43560065560c43560075560018060a01b03841681600854161760085560018060a01b03851690600954161760095560405194855260018060a01b031660208501526044356040850152356060840152608435608084015260a43560a084015260c43560c084015260018060a01b031660e083015260018060a01b0316610100820152a1005b6001600160a01b0383166200031b5760405162461bcd60e51b81526020600482015260156024820152741b1c081c9958da5c1a595b9d081c995c5d5a5c9959605a1b60448201528590fd5b60405162461bcd60e51b815260206004820152600f60248201526e1d185c99d95d081c995c5d5a5c9959608a1b60448201528590fd5b60405162461bcd60e51b81526020600482015260166024820152751d9a5c9d1d585b081d1bdad95b881c995c5d5a5c995960521b60448201528590fd5b60405162461bcd60e51b81526020600482015260146024820152731d9a5c9d1d585b08195d1a081c995c5d5a5c995960621b60448201528590fd5b60405162461bcd60e51b815260206004820152600c60248201526b0cccaca40e8dede40d0d2ced60a31b60448201528590fd5b60405162461bcd60e51b815260206004820152601b60248201527f706c6174666f726d20726563697069656e74207265717569726564000000000060448201528590fd5b60405162461bcd60e51b8152602060048201526016602482015275199959481c9958da5c1a595b9d081c995c5d5a5c995960521b60448201528590fd5b34620001b3576000366003190112620001b3576020600a54604051908152f35b34620001b3576040366003190112620001b357620005f360243560043562002603565b60405160209160208201926020835281518094526040830193602060408260051b8601019301916000955b8287106200062c5785850386f35b9091929382806200064a600193603f198a820301865288516200229a565b96019201960195929190926200061e565b6200066636620021c3565b600854939995969195909490936001600160a01b03161562001411576009546001600160a01b031615620013d557600454803411156200138557620006ac9034620025c8565b96620006b762002744565b6040518881527fac9d85dc25663b5cc567afaed6bb7823377f8f9f4164bc741a6ed341c04a8ec760203392a26000928a156200135057801562001319578715620012e2576107d08711620012a757600254604051906001600160a01b03166001600160401b036113ea830190811190831117620012915781906200076f8d8f620007588c88926113ea62004710893960c06113ea8901818152019162002876565b916113ea8601830360206113ea8801015262002876565b6113ea8301604081018d905230606082015233608082015260a0019190915203906000f09889156200113e578960018060a01b03600154166003546005546006546007549160018060a01b03600854169360018060a01b0360095416956040519788611e5e8101106001600160401b03611e5e8b0111176200129157611e5e620028b28a3960018060a01b0316611e5e890152306020611e5e8a0101526040611e5e890101526060611e5e880101526080611e5e8701015260a0611e5e8601015260c0611e5e8501015260e0611e5e84010152610100611e5e8301015261012081611e5e8101030191f0998a156200113e57888881020488036200127b5789620008bf60208d620008876127108d8f02048e620025c8565b60405163a9059cbb60e01b81526001600160a01b03909216600483015260248201819052939092839190829060009082906044820190565b03926001600160a01b03165af19081156200113e5760009162001257575b50156200121b578a898b612710828202046200114a575b5050506001600160a01b038c163b15620001b35760008c602482936040519485938492639556483760e01b8452600484015260018060a01b03165af180156200113e5762001127575b506001600160a01b038b163b15620010b35784808c6004604051809481936309485dc960e21b835260018060a01b03165af18015620010b7579086916200110f575b5050600460208c604051928380926306b456ef60e21b825260018060a01b03165afa908115620010b7578691620010c6575b506001600160a01b03811662001044575b506001600160a01b038a81168652600b6020526040862080546001600160a01b031916918d16919091179055600a549b600160401b8d1015620010305760018d01600a5562000a118d620023e7565b505062000a1e8d620023e7565b509760018060a01b038c166001600160601b0360a01b8a5416178955600189018d60018060a01b03166001600160601b0360a01b82541617905560028901336001600160601b0360a01b8254161790556001600160401b0382116200101c57819062000a8e60038b015462002438565b601f811162000fc7575b508790601f831160011462000f5657889262000f4a575b50508160011b916000199060031b1c19161760038801555b6001600160401b03821162000f3657819062000ae7600489015462002438565b601f811162000ee1575b508590601f831160011462000e7057869262000e64575b50508160011b916000199060031b1c19161760048601555b6001600160401b03821162000e5057819062000b40600587015462002438565b601f811162000dfb575b508390601f831160011462000d8a57849262000d7e575b50508160011b916000199060031b1c19161760058401555b6001600160401b03821162000d6a5762000b97600684015462002438565b601f811162000d21575b5080601f831160011462000ca9579062000c999798998362000c9d575b50508160011b916000199060031b1c19161760068201555b82600782015561271082840204600882015560094291015560035460075460018060a01b03600854169161271060018060a01b0360095416946040519660018060a01b038b168852806020890152020460408601526060850152608084015260a083015260c082015260018060a01b03821690857fdc7fea29d21f6a39e7f1b42ad6100f8cdaff48535852696a1155de8a81d87a0660e03393a4604080519485526001600160a01b03918216602086015292169183019190915281906060820190565b0390f35b01359050898062000bbe565b9060068401825260208220915b601f198416811062000d0857509062000c999798998392600194601f1981161062000ced575b505050811b01600682015562000bd6565b0135600019600384901b60f8161c1916905589808062000cdc565b9091602060018192858e01358155019301910162000cb6565b60068401825260208220601f840160051c81016020851062000d62575b601f830160051c8201811062000d5657505062000ba1565b83815560010162000d3e565b508062000d3e565b634e487b7160e01b81526041600452602490fd5b013590508b8062000b61565b60058701855260208520859450915b601f198416851062000de2576001945083601f1981161062000dc7575b505050811b01600584015562000b79565b0135600019600384901b60f8161c191690558b808062000db6565b8181013583556020948501946001909301920162000d99565b90915060058601845260208420601f840160051c81016020851062000e48575b90849392915b601f830160051c8201811062000e3957505062000b4a565b86815585945060010162000e21565b508062000e1b565b634e487b7160e01b83526041600452602483fd5b013590508d8062000b08565b60048901875260208720879450915b601f198416851062000ec8576001945083601f1981161062000ead575b505050811b01600486015562000b20565b0135600019600384901b60f8161c191690558d808062000e9c565b8181013583556020948501946001909301920162000e7f565b90915060048801865260208620601f840160051c81016020851062000f2e575b90849392915b601f830160051c8201811062000f1f57505062000af1565b88815585945060010162000f07565b508062000f01565b634e487b7160e01b85526041600452602485fd5b013590508f8062000aaf565b60038b01895260208920899450915b601f198416851062000fae576001945083601f1981161062000f93575b505050811b01600388015562000ac7565b0135600019600384901b60f8161c191690558f808062000f82565b8181013583556020948501946001909301920162000f65565b90915060038a01885260208820601f840160051c81016020851062001014575b90849392915b601f830160051c820181106200100557505062000a98565b8a815585945060010162000fed565b508062000fe7565b634e487b7160e01b87526041600452602487fd5b634e487b7160e01b86526041600452602486fd5b6001600160a01b038b163b15620010c257858b6024829360405194859384926315c6deb960e31b845260018060a01b0316600484015260018060a01b03165af18015620010b7579086916200109b575b50620009c2565b620010a69062002360565b620010b357848e62001094565b8480fd5b6040513d88823e3d90fd5b8580fd5b90506020813d60201162001106575b81620010e46020938362002374565b81010312620010c257516001600160a01b0381168103620010c2578e620009b1565b3d9150620010d5565b6200111a9062002360565b620010b357848e6200097f565b6200113491955062002360565b6000938d6200093d565b6040513d6000823e3d90fd5b60405163a9059cbb60e01b815233600482015261271091909202046024820152906020908290816000816044810103926001600160a01b03165af19081156200113e57600091620011e5575b5015620011a6578a898b620008f4565b60405162461bcd60e51b815260206004820152601760248201527618dc99585d1bdc881d1c985b9cd9995c8819985a5b1959604a1b6044820152606490fd5b6200120c915060203d60201162001213575b62001203818362002374565b81019062002897565b8f62001196565b503d620011f7565b60405162461bcd60e51b81526020600482015260146024820152731c1bdbdb081d1c985b9cd9995c8819985a5b195960621b6044820152606490fd5b62001274915060203d602011620012135762001203818362002374565b8f620008dd565b634e487b7160e01b600052601160045260246000fd5b634e487b7160e01b600052604160045260246000fd5b60405162461bcd60e51b81526020600482015260136024820152720c2d8d8dec6c2e8d2dedc40e8dede40d0d2ced606b1b6044820152606490fd5b60405162461bcd60e51b815260206004820152600f60248201526e1cdd5c1c1b1e481c995c5d5a5c9959608a1b6044820152606490fd5b60405162461bcd60e51b815260206004820152600f60248201526e1cde5b589bdb081c995c5d5a5c9959608a1b6044820152606490fd5b60405162461bcd60e51b815260206004820152600d60248201526c1b985b59481c995c5d5a5c9959609a1b6044820152606490fd5b60405162461bcd60e51b815260206004820152602260248201527f696e73756666696369656e742065746820666f72206665652b6c697175696469604482015261747960f01b6064820152608490fd5b60405162461bcd60e51b81526020600482015260146024820152731b1c081c9958da5c1a595b9d081b9bdd081cd95d60621b6044820152606490fd5b60405162461bcd60e51b815260206004820152601260248201527119195e081c9bdd5d195c881b9bdd081cd95d60721b6044820152606490fd5b34620001b3576000366003190112620001b3576020600654604051908152f35b34620001b3576000366003190112620001b3576000546040516001600160a01b039091168152602090f35b34620001b3576000366003190112620001b3576020600454604051908152f35b34620001b3576000366003190112620001b3576020600754604051908152f35b34620001b3576020366003190112620001b357600435620014f662002396565b50600a5481101562001531576200151c6200151562000c9992620023e7565b5062002526565b6040519182916020835260208301906200229a565b60405162461bcd60e51b81526020600482015260116024820152701a5b9d985b1a59081b185d5b98da081a59607a1b6044820152606490fd5b34620001b3576000366003190112620001b3576001546040516001600160a01b039091168152602090f35b34620001b3576000366003190112620001b3576020600554604051908152f35b34620001b3576000366003190112620001b3576009546040516001600160a01b039091168152602090f35b620015eb36620021c3565b959291939096979894600454340362002105576200160862002744565b6000938a156200135057801562001319578815620012e2576107d08811620012a757600254604051906001600160a01b03166001600160401b036113ea830190811190831117620012915781906200167d8d8f620007588d88926113ea62004710893960c06113ea8901818152019162002876565b6113ea8301604081018e905230606082015233608082015260a0019190915203906000f0608052608051156200113e57600154600354600554600654600754600854600954604051966001600160a01b0391821696928216959394939291166001600160401b03611e5e8901908111908911176200129157611e5e620028b2893960018060a01b0360805116611e5e890152306020611e5e8a0101526040611e5e890101526060611e5e880101526080611e5e8701015260a0611e5e8601015260c0611e5e8501015260e0611e5e84010152610100611e5e8301015261012081611e5e81010301906000f0998a156200113e57898981020489036200127b578a620017c66020620017956127108d8f02048e620025c8565b60405163a9059cbb60e01b81526001600160a01b039094166004850152602484018190529291829081906044820190565b0381600060018060a01b03608051165af19081156200113e57600091620020e1575b50156200121b576127108a8c02046200202d575b6001600160a01b038c163b15620001b35760008c602482936040519485938492639556483760e01b8452600484015260018060a01b03165af180156200113e5762002016575b508562001ea9575b6080516001600160a01b039081168752600b6020526040872080546001600160a01b031916918d16919091179055600a549b600160401b8d10156200101c5760018d01600a556200189b8d620023e7565b5050620018a88d620023e7565b509860018060a01b03608051166001600160601b0360a01b8b5416178a5560018a018d60018060a01b03166001600160601b0360a01b82541617905560028a01336001600160601b0360a01b8254161790556001600160401b03821162001e955781906200191a60038c015462002438565b601f811162001e40575b508890601f831160011462001dcf57899262001dc3575b50508160011b916000199060031b1c19161760038901555b6001600160401b038211620010305781906200197360048a015462002438565b601f811162001d6e575b508690601f831160011462001cfd57879262001cf1575b50508160011b916000199060031b1c19161760048701555b6001600160401b03821162001cdd578190620019cc600588015462002438565b601f811162001c88575b508490601f831160011462001c1757859262001c0b575b50508160011b916000199060031b1c19161760058501555b6001600160401b03831162001bf75790829162001a26600686015462002438565b601f811162001ba0575b5081601f841160011462001b2f579262001b23575b50508160011b916000199060031b1c19161760068201555b82600782015561271082840204600882015560094291015560035460075460018060a01b03600854169161271060018060a01b0360095416946040519660018060a01b0389168852806020890152020460408601526060850152608084015260a083015260c082015260018060a01b036080511690837fdc7fea29d21f6a39e7f1b42ad6100f8cdaff48535852696a1155de8a81d87a0660e03393a4604080516080519381526001600160a01b0393841660208201529190921691810191909152606090f35b01359050878062001a45565b60068601815260208120909450915b601f198416851062001b87576001945083601f1981161062001b6c575b505050811b01600682015562001a5d565b0135600019600384901b60f8161c1916905587808062001b5b565b8181013583556020948501946001909301920162001b3e565b9091925060068501835260208320601f850160051c81016020861062001bef575b9085949392915b601f830160051c8201811062001be057505062001a30565b84815586955060010162001bc8565b508062001bc1565b634e487b7160e01b82526041600452602482fd5b013590508a80620019ed565b60058801865260208620869450915b601f198416851062001c6f576001945083601f1981161062001c54575b505050811b01600585015562001a05565b0135600019600384901b60f8161c191690558a808062001c43565b8181013583556020948501946001909301920162001c26565b90915060058701855260208520601f840160051c81016020851062001cd5575b90849392915b601f830160051c8201811062001cc6575050620019d6565b87815585945060010162001cae565b508062001ca8565b634e487b7160e01b84526041600452602484fd5b013590508c8062001994565b60048a01885260208820889450915b601f198416851062001d55576001945083601f1981161062001d3a575b505050811b016004870155620019ac565b0135600019600384901b60f8161c191690558c808062001d29565b8181013583556020948501946001909301920162001d0c565b90915060048901875260208720601f840160051c81016020851062001dbb575b90849392915b601f830160051c8201811062001dac5750506200197d565b89815585945060010162001d94565b508062001d8e565b013590508e806200193b565b60038c018a5260208a208a9450915b601f198416851062001e27576001945083601f1981161062001e0c575b505050811b01600389015562001953565b0135600019600384901b60f8161c191690558e808062001dfb565b8181013583556020948501946001909301920162001dde565b90915060038b01895260208920601f840160051c81016020851062001e8d575b90849392915b601f830160051c8201811062001e7e57505062001924565b8b815585945060010162001e66565b508062001e60565b634e487b7160e01b88526041600452602488fd5b6001600160a01b038b163b15620010c25785808c6004604051809481936309485dc960e21b835260018060a01b03165af1801562001fa65790879162001ffe575b5050600460208c604051928380926306b456ef60e21b825260018060a01b03165afa90811562001fa657879162001fb5575b506001600160a01b03811662001f34575b506200184a565b6080516001600160a01b03163b1562001fb1576040516315c6deb960e31b81526001600160a01b03918216600482015260805190918891839160249183918591165af1801562001fa65790879162001f8e575b5062001f2d565b62001f999062002360565b620010c257858d62001f87565b6040513d89823e3d90fd5b8680fd5b90506020813d60201162001ff5575b8162001fd36020938362002374565b8101031262001fb157516001600160a01b038116810362001fb1578d62001f1c565b3d915062001fc4565b620020099062002360565b620010c257858d62001eea565b6200202391965062002360565b6000948c62001842565b60405163a9059cbb60e01b81523360048201526127108b8d02046024820152608051602090829060449082906000906001600160a01b03165af19081156200113e57600091620020bd575b50620017fc5760405162461bcd60e51b815260206004820152601760248201527618dc99585d1bdc881d1c985b9cd9995c8819985a5b1959604a1b6044820152606490fd5b620020da915060203d602011620012135762001203818362002374565b8e62002078565b620020fe915060203d602011620012135762001203818362002374565b8e620017e8565b60405162461bcd60e51b81526020600482015260136024820152720d8c2eadcc6d040cccaca40dad2e6dac2e8c6d606b1b6044820152606490fd5b34620001b3576020366003190112620001b3576020906001600160a01b0380620021696200217c565b16600052600b8352604060002054168152f35b600435906001600160a01b0382168203620001b357565b9181601f84011215620001b3578235916001600160401b038311620001b35760208381860195010111620001b357565b60c0600319820112620001b3576001600160401b0390600435828111620001b35781620021f39160040162002193565b93909392602435818111620001b35783620022119160040162002193565b93909392604435838111620001b357826200222f9160040162002193565b93909392606435918211620001b3576200224c9160040162002193565b90916084359060a43590565b919082519283825260005b84811062002285575050826000602080949584010152601f8019910116010190565b60208183018101518483018201520162002263565b90620023206200230d620022fa620022e761014060018060a01b03808851168752806020890151166020880152604088015116604087015260608701519080606088015286019062002258565b6080860151858203608087015262002258565b60a085015184820360a086015262002258565b60c084015183820360c085015262002258565b9160e081015160e083015261010080820151908301526101208091015191015290565b61014081019081106001600160401b038211176200129157604052565b6001600160401b0381116200129157604052565b90601f801991011681019081106001600160401b038211176200129157604052565b60405190620023a58262002343565b8161012060009182815282602082015282604082015260608082015260606080820152606060a0820152606060c08201528260e0820152826101008201520152565b600a548110156200242257600a9081600052027fc65a7bb8d6351c1cf70c95a316cc6a92839c986682d98bc35f958f4883f9d2a80190600090565b634e487b7160e01b600052603260045260246000fd5b90600182811c921680156200246a575b60208310146200245457565b634e487b7160e01b600052602260045260246000fd5b91607f169162002448565b906040519182600082546200248a8162002438565b90818452602094600191600181169081600014620025025750600114620024bf575b505050620024bd9250038362002374565b565b600090815285812095935091905b818310620024e9575050620024bd9350820101388080620024ac565b85548884018501529485019487945091830191620024cd565b92505050620024bd94925060ff191682840152151560051b820101388080620024ac565b90604051620025358162002343565b6101206009829460018060a01b0380825416855280600183015416602086015260028201541660408501526200256e6003820162002475565b6060850152620025816004820162002475565b6080850152620025946005820162002475565b60a0850152620025a76006820162002475565b60c0850152600781015460e085015260088101546101008501520154910152565b919082039182116200127b57565b6001600160401b038111620012915760051b60200190565b8051821015620024225760209160051b010190565b600a54929183821015620026e2578101928382116200127b57808411620026d9575b50620026328184620025c8565b926200263e84620025d6565b936200264e604051958662002374565b8085526200265f601f1991620025d6565b0160005b818110620026bf5750508360005b8284106200267f5750505050565b6200268e6200151585620023e7565b6200269a8284620025ee565b52620026a78183620025ee565b5060001981146200127b576001938401930162002671565b602090620026cc62002396565b8282890101520162002663565b92503862002625565b50509050604051602081018181106001600160401b0382111762001291576040526000815290565b156200271257565b60405162461bcd60e51b815260206004820152600a60248201526937b7363c9037bbb732b960b11b6044820152606490fd5b600454803410620028315780156200282e5760008080808060018060a01b039586600254165af1903d1562002827573d906001600160401b03821162000d6a57604051916200279e601f8201601f19166020018462002374565b825260203d92013e5b15620027e257600254166004546040519081527f4cef2d27cdf43d743c3c66401182e93989938e77d1be10f3ab9e6afdf799f83960203392a3565b60405162461bcd60e51b815260206004820152601a60248201527f6c61756e636820666565207472616e73666572206661696c65640000000000006044820152606490fd5b50620027a7565b50565b60405162461bcd60e51b815260206004820152601760248201527f696e73756666696369656e74206c61756e6368206665650000000000000000006044820152606490fd5b908060209392818452848401376000828201840152601f01601f1916010190565b90816020910312620001b357518015158103620001b3579056fe601f62001e5e38819003918201601f19166101009081019290916001600160401b03841183851017620003b257816101209284926040968752833981010312620003ad576200004e81620003c8565b6020906200005e828401620003c8565b916200006c858501620003c8565b926060850151608086015160a08701519160c088015193620000a06101006200009860e08c01620003c8565b9a01620003c8565b6001600160a01b03989097908982161562000378578983161562000341578916998a15620002fd5761012c8411620002ca57841562000286578515620002425786156200020c5789169687620001c1575b5060a05260805260018060a01b03199788600054161760005560015560c05260e052600455836005541617600555169060065416176006553460025551611a809081620003de8239608051818181610723015281816107a50152818161096801528181610cbc0152610dd4015260a051818181610161015281816102f80152818161054501528181610802015261148a015260c051818181610ac4015281816111040152818161193101526119c7015260e051818181610c43015281816110d10152818161196601526119f80152f35b898916620000f1576064908c519062461bcd60e51b82526004820152601560248201527f6c7020726563697069656e7420726571756972656400000000000000000000006044820152fd5b8b5162461bcd60e51b815260048101899052600f60248201526e1d185c99d95d081c995c5d5a5c9959608a1b6044820152606490fd5b8b5162461bcd60e51b815260048101899052601660248201527f7669727475616c20746f6b656e207265717569726564000000000000000000006044820152606490fd5b8b5162461bcd60e51b815260048101899052601460248201527f7669727475616c206574682072657175697265640000000000000000000000006044820152606490fd5b8b5162461bcd60e51b815260048101899052600c60248201526b0cccaca40e8dede40d0d2ced60a31b6044820152606490fd5b8b5162461bcd60e51b815260048101899052601660248201527f66656520726563697069656e74207265717569726564000000000000000000006044820152606490fd5b8b5162461bcd60e51b815260048101899052601060248201526f199858dd1bdc9e481c995c5d5a5c995960821b6044820152606490fd5b8b5162461bcd60e51b815260048101899052600e60248201526d1d1bdad95b881c995c5d5a5c995960921b6044820152606490fd5b600080fd5b634e487b7160e01b600052604160045260246000fd5b51906001600160a01b0382168203620003ad5756fe608060408181526004918236101561001657600080fd5b600092833560e01c9182630758d92414610f00575081631ad15bbc14610ed757816324a9d85314610eb85781632521772414610dbc5781632760eca114610d9f5781632a2c697214610c8d578163334041a614610c66578163343ee3b714610c2b578163398482d814610c075781634329742d14610b57578163452e68dd14610b2e5781634690484014610b065781634beb394c14610ae757816352b86d2b14610aac5781637f544e4914610a8d5781638c575aa31461092b578163955648371461077d578163a64190c414610752578163c45a01551461070e578163cbcb3171146106ef578163d62ccb3f146106d0578163d79875eb14610463578163d96a094a146101fa578163e1a45218146101dd578163e7c2b772146101b6578163f95a02d014610194575063fc0c546a1461014e57600080fd5b34610190578160031936011261019057517f00000000000000000000000000000000000000000000000000000000000000006001600160a01b03168152602090f35b5080fd5b9050346101b257826003193601126101b25760209250549051908152f35b8280fd5b50503461019057816003193601126101905760209060ff60065460a81c1690519015158152f35b505034610190578160031936011261019057602090516127108152f35b91905060209283600319360112610460576006549061021f60ff8360b01c1615610f7b565b60ff60b01b19918216600160b01b1760068190556102539060ff9061024960a082901c8316610fb4565b60a81c161561129a565b341561042e5761271061026860015434611032565b04906102748234611150565b9461027e86611923565b9561028a8715156112d2565b6102978235881015611314565b600354908188116103f2576102f3926102c1898b946102b982956002546110bc565b600255611150565b600355856103cb575b875163a9059cbb60e01b8152339181019182526020820192909252909283918291604090910190565b0381857f00000000000000000000000000000000000000000000000000000000000000006001600160a01b03165af19182156103c0579061033992610393575b50611363565b7fbeae048c6d270d9469f86cf6e8fedda3c60ad770f16c24c9fc131c8e9a09101d83518061037b87339534846040919493926060820195825260208201520152565b0390a2610386611a28565b6006541660065551908152f35b6103b39150873d89116103b9575b6103ab8183611204565b81019061134b565b38610333565b503d6103a1565b8551903d90823e3d90fd5b6103ed858080808a60018060a01b038254165af16103e76113a7565b506113e7565b6102ca565b865162461bcd60e51b81528084018a90526016602482015275696e73756666696369656e74206c697175696469747960501b6044820152606490fd5b825162461bcd60e51b8152808501869052600c60248201526b195d1a081c995c5d5a5c995960a21b6044820152606490fd5b80fd5b919050346101b257806003193601126101b25781356006549061048c60ff8360b01c1615610f7b565b60ff60b01b19918216600160b01b1760068190556104b69060ff9061024960a082901c8316610fb4565b6104c18115156111c0565b6104ca816119bb565b946104d68615156112d2565b600254861161068d576127106104ee60015488611032565b04956104fa8782611150565b95610509602435881015611314565b85516323b872dd60e01b81523382820190815230602082810191909152604082018790526001600160a01b0394929182908190606001038188887f0000000000000000000000000000000000000000000000000000000000000000165af19081156106835761059a929161058391879161066a5750611363565b61058f866003546110bc565b600355600254611150565b600255828080808a335af16105ad6113a7565b5015610631575086807f846c37eef631e0943682d87352ec117c20008eb7f425c9b85ac011a6d4774cc0936106049360209a610614575b505086519485525060208401879052604084015233929081906060820190565b0390a26006541660065551908152f35b81806106299481938254165af16103e76113a7565b8038806105e4565b606490602087519162461bcd60e51b83528201526013602482015272195d1a081d1c985b9cd9995c8819985a5b1959606a1b6044820152fd5b6103b3915060203d6020116103b9576103ab8183611204565b88513d87823e3d90fd5b835162461bcd60e51b8152602081870152601860248201527f696e73756666696369656e7420657468207265736572766500000000000000006044820152606490fd5b5050346101905781600319360112610190576020906002549051908152f35b5050346101905781600319360112610190576020906003549051908152f35b505034610190578160031936011261019057517f00000000000000000000000000000000000000000000000000000000000000006001600160a01b03168152602090f35b905082346104605760203660031901126104605750610771903561123c565b82519182526020820152f35b8391503461019057602090816003193601126101b2578035906001600160a01b03906107cc337f0000000000000000000000000000000000000000000000000000000000000000841614610f40565b6006549160ff8360a01c166108f757846024916107ea8615156111c0565b88516370a0823160e01b8152308582015292839182907f0000000000000000000000000000000000000000000000000000000000000000165afa9081156108ed5790849187916108b8575b501061087f575060ff60a01b1916600160a01b176006556003819055925192835290917fa71ed34ff06af8d6865a8f541aae52d72fa89f0e5ee15f01d48fa6c62c8569149190a180f35b855162461bcd60e51b81529081018490526013602482015272696e73756666696369656e7420746f6b656e7360681b6044820152606490fd5b809250868092503d83116108e6575b6108d18183611204565b810103126108e25783905188610835565b8580fd5b503d6108c7565b87513d88823e3d90fd5b865162461bcd60e51b8152808301869052600e60248201526d185b1c9958591e481cd95959195960921b6044820152606490fd5b8391503461019057606036600319011261019057610947610f25565b602435916001600160a01b03908184168085036108e2576044359261098f817f0000000000000000000000000000000000000000000000000000000000000000163314610f40565b600654906109a360ff8360a81c1615610ff2565b8415610a585785169081610a18575b600580546001600160a01b0319908116939093179055161760065581905593516001600160a01b039182168152911660208201526040810192909252907fbcdc4bff84f936019028a7bcbef6b449550d6334606377b822720e57e94276c490606090a180f35b826109b257885162461bcd60e51b815260208186015260156024820152741b1c081c9958da5c1a595b9d081c995c5d5a5c9959605a1b6044820152606490fd5b885162461bcd60e51b8152602081860152600f60248201526e1d185c99d95d081c995c5d5a5c9959608a1b6044820152606490fd5b5050346101905781600319360112610190576020906008549051908152f35b505034610190578160031936011261019057602090517f00000000000000000000000000000000000000000000000000000000000000008152f35b905082346104605760203660031901126104605750610771903561115d565b505034610190578160031936011261019057905490516001600160a01b039091168152602090f35b50503461019057816003193601126101905760065490516001600160a01b039091168152602090f35b9050346101b257826003193601126101b25760065491610b7d60ff8460b01c1615610f7b565b60ff60b01b19928316600160b01b176006819055610bb19060ff90610ba760a082901c8316610fb4565b60a81c1615610ff2565b600254825411610bcf575050610bc5611448565b6006541660065580f35b906020606492519162461bcd60e51b835282015260126024820152711d185c99d95d081b9bdd081c995858da195960721b6044820152fd5b505034610190578160031936011261019057602090610c246110c9565b9051908152f35b505034610190578160031936011261019057602090517f00000000000000000000000000000000000000000000000000000000000000008152f35b50503461019057816003193601126101905760209060ff60065460a01c1690519015158152f35b919050346101b257806003193601126101b257610ca8610f25565b60243591906001600160a01b0390610ce3337f0000000000000000000000000000000000000000000000000000000000000000841614610f40565b16928315610d685761012c8311610d37575083546001600160a01b031916831784556001829055519081527fe42708d93b95810922305119a3271ca42233da9ebe1e1e503f0e887817a32c7a90602090a280f35b6020606492519162461bcd60e51b8352820152600c60248201526b0cccaca40e8dede40d0d2ced60a31b6044820152fd5b6020606492519162461bcd60e51b835282015260126024820152711c9958da5c1a595b9d081c995c5d5a5c995960721b6044820152fd5b505034610190578160031936011261019057602090610c2461107b565b9050346101b257826003193601126101b257610e02337f00000000000000000000000000000000000000000000000000000000000000006001600160a01b031614610f40565b60065491610e1660ff8460b01c1615610f7b565b60ff60b01b19928316600160b01b176006819055610e409060ff90610ba760a082901c8316610fb4565b600254918215610e8557507f5d6dc6b9835f5448ae2351719684f59735b30dfa8e62677cc6f9e98bd4c08f7f90600354815193845260208401523392a2610bc5611448565b6020606492519162461bcd60e51b8352820152600e60248201526d6e6f20657468207265736572766560901b6044820152fd5b5050346101905781600319360112610190576020906001549051908152f35b50503461019057816003193601126101905760075490516001600160a01b039091168152602090f35b8490346101905781600319360112610190576005546001600160a01b03168152602090f35b600435906001600160a01b0382168203610f3b57565b600080fd5b15610f4757565b60405162461bcd60e51b815260206004820152600c60248201526b6f6e6c7920666163746f727960a01b6044820152606490fd5b15610f8257565b60405162461bcd60e51b815260206004820152600a6024820152697265656e7472616e637960b01b6044820152606490fd5b15610fbb57565b60405162461bcd60e51b815260206004820152600f60248201526e1c1bdbdb081b9bdd081cd959591959608a1b6044820152606490fd5b15610ff957565b60405162461bcd60e51b8152602060048201526011602482015270185b1c9958591e4819dc98591d585d1959607a1b6044820152606490fd5b8181029291811591840414171561104557565b634e487b7160e01b600052601160045260246000fd5b8115611065570490565b634e487b7160e01b600052601260045260246000fd5b60045480156110b6576002546127109182820291808304841490151715611045576110a59161105b565b908082116110b1575090565b905090565b50600090565b9190820180921161104557565b6110f66003547f0000000000000000000000000000000000000000000000000000000000000000906110bc565b80156110b6576111296002547f0000000000000000000000000000000000000000000000000000000000000000906110bc565b90670de0b6b3a7640000918281029281840414901517156110455761114d9161105b565b90565b9190820391821161104557565b60065460ff8160a01c16159081156111b2575b5080156111aa575b6111a15761119e61119961271061119160015485611032565b048093611150565b611923565b91565b50600090600090565b508015611178565b60ff915060a81c1638611170565b156111c757565b60405162461bcd60e51b81526020600482015260156024820152741d1bdad95b88185b5bdd5b9d081c995c5d5a5c9959605a1b6044820152606490fd5b90601f8019910116810190811067ffffffffffffffff82111761122657604052565b634e487b7160e01b600052604160045260246000fd5b60065460ff8160a01c161590811561128c575b508015611284575b6111a157611264906119bb565b80156111a15761119e61271061127c60015484611032565b048092611150565b508015611257565b60ff915060a81c163861124f565b156112a157565b60405162461bcd60e51b815260206004820152600960248201526819dc98591d585d195960ba1b6044820152606490fd5b156112d957565b60405162461bcd60e51b81526020600482015260136024820152721a5b9cdd59999a58da595b9d081bdd5d1c1d5d606a1b6044820152606490fd5b1561131b57565b60405162461bcd60e51b8152602060048201526008602482015267736c69707061676560c01b6044820152606490fd5b90816020910312610f3b57518015158103610f3b5790565b1561136a57565b60405162461bcd60e51b81526020600482015260156024820152741d1bdad95b881d1c985b9cd9995c8819985a5b1959605a1b6044820152606490fd5b3d156113e2573d9067ffffffffffffffff821161122657604051916113d6601f8201601f191660200184611204565b82523d6000602084013e565b606090565b156113ee57565b60405162461bcd60e51b8152602060048201526013602482015272199959481d1c985b9cd9995c8819985a5b1959606a1b6044820152606490fd5b90816020910312610f3b57516001600160a01b0381168103610f3b5790565b6005546001600160a01b039081169081156118e957600160a81b60ff60a81b1960065416176006554260085560035491600254906000928360035583600255807f0000000000000000000000000000000000000000000000000000000000000000169360409283518263095ea7b360e01b80835260049384840152602492828482015289816044816020998a945af180156118df579186918c936118c2575b50600554895191825288166001600160a01b0316868201908152602081019390935291829081906040010381858d5af18015611888576118a5575b50846005541694806006541695610e1042018042116118925760c48b8b6060948f948d519c8d96879563f305d71960e01b87528d8701528b860152896044860152896064860152608485015260a48401525af19788156118885782998397849a611844575b50600554895163c45a015560e01b815290841688828981845afa91821561181b578892918a918893611825575b508c516315ab88c960e31b815293849182905afa91821561181b578389878e95948d948b966117f5575b508160449495969751978896879563e6a4390560e01b8752860152168c840152165afa9081156117eb57918489928e9488916117be575b50169d8e6bffffffffffffffffffffffff60a01b60075416176007558381116116ed575b50505050868111611683575b505085519788525050508401528201524260608201527f71aa8c3702dbbc54247a4e6446450e64a46250dd72707a247ddb01d72eaef44590608090a2565b828092611691898394611150565b908254165af161169f6113a7565b50156116ad57808080611645565b60189060649386519362461bcd60e51b85528401528201527f6574682064757374207472616e73666572206661696c656400000000000000006044820152fd5b611734936116fa91611150565b86548c5163a9059cbb60e01b81529087166001600160a01b03168a8201908152602081019290925293849291839189918391604090910190565b03925af19081156117b4578491611797575b50156117555789863880611639565b875162461bcd60e51b8152808601879052601a818601527f746f6b656e2064757374207472616e73666572206661696c65640000000000006044820152606490fd5b6117ae9150873d89116103b9576103ab8183611204565b38611746565b89513d86823e3d90fd5b6117de9150843d86116117e4575b6117d68183611204565b810190611429565b38611615565b503d6117cc565b8a513d87823e3d90fd5b8596506118128391604496973d8a116117e4576117d68183611204565b969594506115de565b8b513d88823e3d90fd5b61183d919350823d84116117e4576117d68183611204565b91386115b4565b9a50985095506060893d606011611880575b8161186360609383611204565b810103126101905788519587868b01519a01519699969838611587565b3d9150611856565b87513d84823e3d90fd5b5050634e487b7160e01b82525060118352fd5b6118bb90853d87116103b9576103ab8183611204565b5038611522565b6118d890833d85116103b9576103ab8183611204565b50386114e7565b88513d85823e3d90fd5b60405162461bcd60e51b815260206004820152601260248201527119195e081c9bdd5d195c881b9bdd081cd95d60721b6044820152606490fd5b80156110b6576119566002547f0000000000000000000000000000000000000000000000000000000000000000906110bc565b906119a26003549261199c61198b7f0000000000000000000000000000000000000000000000000000000000000000866110bc565b936119968584611032565b926110bc565b9061105b565b808211156119b3576110a591611150565b505050600090565b600254906119a26119ec7f0000000000000000000000000000000000000000000000000000000000000000846110bc565b9161199c611a1d6003547f0000000000000000000000000000000000000000000000000000000000000000906110bc565b916119968386611032565b60ff60065460a81c16611a485760025460045411611a4857611a48611448565b56fea2646970667358221220a2d2c21743871442ce4b02c5554bb646ad2f4caaae2b91120a487832fdc24a2864736f6c63430008180033604060e08152346200054a57620013ea90813803806200001f816200054f565b938439820160c0838203126200054a5782516001600160401b0393908481116200054a57826200005191830162000575565b9160209081830151908682116200054a576200006f91840162000575565b9184810151906200008360608201620005e7565b90620000a060a06200009860808401620005e7565b9201620005e7565b918651156200051657855115620004e0578315620004aa576001600160a01b03818116979088156200047357808416156200043c57841615620004045780518a8111620003ee576000978854916001938484811c94168015620003e3575b8a851014620003cf578190601f948581116200037c575b508a9085831160011462000317578c926200030b575b5050600019600383901b1c191690841b1789555b80519b8c11620002f75782548381811c91168015620002ec575b89821014620002d85780838e92116200028e575b505087918c1160011462000217579a8091899a9b9c600080516020620013ca8339815191529a926200020b575b5050600019600383901b1c191690821b1790555b8360025560805260a05260c0528484526006825280868520558551908152a351610dcd9081620005fd8239608051818181610218015261026d015260a0518181816105360152610970015260c05181818161015601526106170152f35b0151905038806200019a565b8289528789209190601f198d168a5b818110620002785750918493918e600080516020620013ca8339815191529c9d9e9f94106200025e575b505050811b019055620001ae565b015160001960f88460031b161c1916905538808062000250565b82840151855593850193928a01928a0162000226565b848b52838a8c20918b82850160051c84019410620002ce575b0160051c019084905b828110620002c257508d91506200016d565b8b8155018490620002b0565b92508192620002a7565b634e487b7160e01b8a52602260045260248afd5b90607f169062000159565b634e487b7160e01b89526041600452602489fd5b0151905038806200012b565b8c80528b8d208794509190601f1984168e8e5b8282106200036457505084116200034a575b505050811b0189556200013f565b015160001960f88460031b161c191690553880806200033c565b8385015186558a979095019493840193018e6200032a565b9091508b80528a8c208580850160051c8201928d8610620003c5575b918891869594930160051c01915b828110620003b657505062000115565b8e8155859450889101620003a6565b9250819262000398565b634e487b7160e01b8b52602260045260248bfd5b93607f1693620000fe565b634e487b7160e01b600052604160045260246000fd5b885162461bcd60e51b81526004810187905260116024820152701c1b185d199bdc9b481c995c5d5a5c9959607a1b6044820152606490fd5b895162461bcd60e51b815260048101889052601060248201526f18dc99585d1bdc881c995c5d5a5c995960821b6044820152606490fd5b895162461bcd60e51b815260048101889052601060248201526f199858dd1bdc9e481c995c5d5a5c995960821b6044820152606490fd5b875162461bcd60e51b815260048101869052600f60248201526e1cdd5c1c1b1e481c995c5d5a5c9959608a1b6044820152606490fd5b875162461bcd60e51b815260048101869052600f60248201526e1cde5b589bdb081c995c5d5a5c9959608a1b6044820152606490fd5b875162461bcd60e51b815260048101869052600d60248201526c1b985b59481c995c5d5a5c9959609a1b6044820152606490fd5b600080fd5b6040519190601f01601f191682016001600160401b03811183821017620003ee57604052565b919080601f840112156200054a5782516001600160401b038111620003ee57602090620005ab601f8201601f191683016200054f565b928184528282870101116200054a5760005b818110620005d357508260009394955001015290565b8581018301518482018401528201620005bd565b51906001600160a01b03821682036200054a5756fe608060408181526004918236101561001657600080fd5b600092833560e01c91826302d05d3f1461095c57508163044991d81461093d57816306fdde0314610863578163095ea7b3146107f257816318160ddd146107d357816323b872dd146106cc5781632bebf6bf14610602578163313ce567146105e6578163351fee4614610522578163539aa77f1461050657816370a08231146104ce5781639185f598146104b257816395d89b411461038f5781639e5f358a14610371578163a9059cbb14610340578163ae36f5c81461024757508063c45a015514610204578063cc3cbd2a146101e9578063dd62ed3e146101a1578063e1a4521814610185578063eb13554f146101425763f242ab411461011757600080fd5b3461013e578160031936011261013e5760035490516001600160a01b039091168152602090f35b5080fd5b503461013e578160031936011261013e57517f00000000000000000000000000000000000000000000000000000000000000006001600160a01b03168152602090f35b503461013e578160031936011261013e57602090516127108152f35b503461013e578060031936011261013e57806020926101be6109e8565b6101c6610a03565b6001600160a01b0391821683526007865283832091168252845220549051908152f35b503461013e578160031936011261013e5760209051601e8152f35b503461013e578160031936011261013e57517f00000000000000000000000000000000000000000000000000000000000000006001600160a01b03168152602090f35b90503461033c57602036600319011261033c576102626109e8565b6001600160a01b03907f00000000000000000000000000000000000000000000000000000000000000008216330361030a57169182156102d7575050600380546001600160a01b031916821790557fc3cd203585fbc28dcc1692611d2ebc4190312a5b189047df793c69b157aa0d298280a280f35b906020606492519162461bcd60e51b8352820152600d60248201526c1c185a5c881c995c5d5a5c9959609a1b6044820152fd5b835162461bcd60e51b8152602081850152600c60248201526b6f6e6c7920666163746f727960a01b6044820152606490fd5b8280fd5b50503461013e578060031936011261013e5760209061036a6103606109e8565b6024359033610a88565b5160018152f35b90503461033c578260031936011261033c5760209250549051908152f35b83833461013e578160031936011261013e578051908260018054908160011c90600183169283156104a8575b6020938484108114610495578388529081156104795750600114610423575b505050829003601f01601f191682019267ffffffffffffffff841183851017610410575082918261040c92528261099f565b0390f35b634e487b7160e01b815260418552602490fd5b600187529192508591837fb10e2d527612073b26eecdfd717e6a320cf44b4afac2b0732d9fcbe2b7fa0cf65b83851061046557505050508301018580806103da565b80548886018301529301928490820161044f565b60ff1916878501525050151560051b84010190508580806103da565b634e487b7160e01b895260228a52602489fd5b91607f16916103bb565b50503461013e578160031936011261013e576020905160328152f35b50503461013e57602036600319011261013e5760209181906001600160a01b036104f66109e8565b1681526006845220549051908152f35b50503461013e578160031936011261013e576020905160148152f35b83833461013e578160031936011261013e577f00000000000000000000000000000000000000000000000000000000000000006001600160a01b03811690338290036105b45784610586916020965495869261057f841515610a3c565b5530610ca3565b7fd046302bdc39599e60a5981e59227dcd1c643f512f56f2e984390c3ac6eadedb848351858152a251908152f35b825162461bcd60e51b8152602081870152600c60248201526b37b7363c9031b932b0ba37b960a11b6044820152606490fd5b50503461013e578160031936011261013e576020905160128152f35b9190503461033c578260031936011261033c577f0000000000000000000000000000000000000000000000000000000000000000916001600160a01b0383169033829003610699575061066b602094600554948591610662831515610a3c565b60055530610ca3565b7f0636f1043cff5f4c437926a4412416778ddc5e970feb177685b587e81dad9095848351858152a251908152f35b606490602084519162461bcd60e51b8352820152600d60248201526c6f6e6c7920706c6174666f726d60981b6044820152fd5b9190503461033c57606036600319011261033c576106e86109e8565b6106f0610a03565b6044359160018060a01b038116808752602095600787528588203389528752858820549085821061079b57509480969761036a96866000198203610739575b5050505050610a88565b61074291610a19565b83825260078a528282203383528a528282205582815260078952818120338252895220549086519182527f8c5be1e5ebec7d5bd14f71427d1e84f3dd0314c0f7b2291e5b200ac8c7c3b925883393a3388581808661072f565b865162461bcd60e51b81529081018890526012602482015271185b1b1bddd85b98d948195e18d95959195960721b6044820152606490fd5b50503461013e578160031936011261013e576020906002549051908152f35b50503461013e578060031936011261013e57602091816108106109e8565b91602435918291338152600787528181209460018060a01b0316948582528752205582519081527f8c5be1e5ebec7d5bd14f71427d1e84f3dd0314c0f7b2291e5b200ac8c7c3b925843392a35160018152f35b83833461013e578160031936011261013e5780519082835460018160011c9060018316928315610933575b60209384841081146104955783885290811561047957506001146108de57505050829003601f01601f191682019267ffffffffffffffff841183851017610410575082918261040c92528261099f565b8680529192508591837f290decd9548b62a8d60345a988386fc84ba6bc95484008f6362f93160ef3e5635b83851061091f57505050508301018580806103da565b805488860183015293019284908201610909565b91607f169161088e565b50503461013e578160031936011261013e576020906005549051908152f35b84903461013e578160031936011261013e577f00000000000000000000000000000000000000000000000000000000000000006001600160a01b03168152602090f35b6020808252825181830181905290939260005b8281106109d457505060409293506000838284010152601f8019910116010190565b8181018601518482016040015285016109b2565b600435906001600160a01b03821682036109fe57565b600080fd5b602435906001600160a01b03821682036109fe57565b91908203918211610a2657565b634e487b7160e01b600052601160045260246000fd5b15610a4357565b60405162461bcd60e51b815260206004820152601060248201526f6e6f7468696e6720746f20636c61696d60801b6044820152606490fd5b91908201809211610a2657565b6001600160a01b03808316939192908415610c6f57831692600091848352602092600684526040918282205490868210610c3957610ac7908795610d5b565b80610c30575b610b22575b90610aff7fddf252ad1be2c89b69c2b068fc378daa952ba7f163c4a11628f55a4df523b3ef968493610a19565b878252600686528282205587815220610b19838254610a7b565b905551908152a3565b60328602861590878104603214821715610c1c576127108091049182610b4b575b505050610ad2565b90919550601e880290888204601e141715610c1c5788859493928b920485888a848d610b778685610a19565b93610b8191610a19565b9b8560045490610b9091610a7b565b6004558360055490610ba191610a7b565b600555308a5260068352848a2081815490610bbb91610a7b565b9055845190815230927fddf252ad1be2c89b69c2b068fc378daa952ba7f163c4a11628f55a4df523b3ef91a381519283528a8301527f93bd139ea85d53c55e02dec709128f827ebd5cb8a4a0d873193711b70b0a15b991a390913880610b43565b634e487b7160e01b84526011600452602484fd5b50851515610acd565b835162461bcd60e51b815260048101879052600f60248201526e62616c616e636520746f6f206c6f7760881b6044820152606490fd5b60405162461bcd60e51b815260206004820152600c60248201526b7a65726f206164647265737360a01b6044820152606490fd5b60018060a01b038091169160009383855260066020526040852054818110610d1d577fddf252ad1be2c89b69c2b068fc378daa952ba7f163c4a11628f55a4df523b3ef93602093610cf684604094610a19565b8789526006865283892055169586815220610d12828254610a7b565b9055604051908152a3565b60405162461bcd60e51b81526020600482015260166024820152751a5b9cdd59999a58da595b9d08199959481d985d5b1d60521b6044820152606490fd5b6003546001600160a01b03908116918215610d8e5781168214928315610d82575b50505090565b16149050388080610d7c565b5050505060009056fea2646970667358221220f8a62ec3e2585ff6eb6adf7ef35311b2103f2e59a28e39d345be98605fbde7c364736f6c63430008180033ddf252ad1be2c89b69c2b068fc378daa952ba7f163c4a11628f55a4df523b3efa2646970667358221220940f021f272016912435738117523666dffea9ebbea9dd33685b3ce8c55cd0bf64736f6c63430008180033","opcodes":"PUSH1 0x80 CALLVALUE PUSH3 0x2FD JUMPI PUSH1 0x1F PUSH3 0x5E5D CODESIZE DUP2 SWAP1 SUB SWAP2 DUP3 ADD PUSH1 0x1F NOT AND DUP4 ADD SWAP3 SWAP2 SWAP1 PUSH1 0x1 PUSH1 0x1 PUSH1 0x40 SHL SUB DUP5 GT DUP4 DUP6 LT OR PUSH3 0x302 JUMPI DUP2 PUSH2 0x120 SWAP3 DUP5 SWAP3 PUSH1 0x40 SWAP7 DUP8 MSTORE DUP4 CODECOPY DUP2 ADD SUB SLT PUSH3 0x2FD JUMPI PUSH3 0x52 DUP2 PUSH3 0x318 JUMP JUMPDEST PUSH1 0x20 SWAP2 PUSH3 0x62 DUP4 DUP3 ADD PUSH3 0x318 JUMP JUMPDEST SWAP3 DUP5 DUP3 ADD MLOAD PUSH1 0x60 DUP4 ADD MLOAD PUSH1 0x80 DUP5 ADD MLOAD PUSH1 0xA0 DUP6 ADD MLOAD SWAP2 PUSH1 0xC0 DUP7 ADD MLOAD SWAP4 PUSH3 0x9A PUSH2 0x100 PUSH3 0x92 PUSH1 0xE0 DUP11 ADD PUSH3 0x318 JUMP JUMPDEST SWAP9 ADD PUSH3 0x318 JUMP JUMPDEST PUSH1 0x1 PUSH1 0x1 PUSH1 0xA0 SHL SUB SWAP9 DUP10 AND SWAP10 SWAP1 SWAP8 SWAP1 DUP11 ISZERO PUSH3 0x2B9 JUMPI PUSH2 0x12C DUP4 GT PUSH3 0x286 JUMPI DUP10 AND SWAP1 DUP2 ISZERO PUSH3 0x242 JUMPI DUP5 ISZERO PUSH3 0x1FE JUMPI DUP6 ISZERO PUSH3 0x1BA JUMPI DUP7 ISZERO PUSH3 0x184 JUMPI DUP10 AND SWAP7 DUP8 PUSH3 0x139 JUMPI JUMPDEST POP PUSH1 0x1 DUP1 PUSH1 0xA0 SHL SUB NOT SWAP10 CALLER DUP12 PUSH1 0x0 SLOAD AND OR PUSH1 0x0 SSTORE DUP11 PUSH1 0x1 SLOAD AND OR PUSH1 0x1 SSTORE DUP10 PUSH1 0x2 SLOAD AND OR PUSH1 0x2 SSTORE PUSH1 0x3 SSTORE PUSH1 0x4 SSTORE PUSH1 0x5 SSTORE PUSH1 0x6 SSTORE PUSH1 0x7 SSTORE DUP4 PUSH1 0x8 SLOAD AND OR PUSH1 0x8 SSTORE AND SWAP1 PUSH1 0x9 SLOAD AND OR PUSH1 0x9 SSTORE MLOAD PUSH2 0x5B2F SWAP1 DUP2 PUSH3 0x32E DUP3 CODECOPY RETURN JUMPDEST DUP10 DUP10 AND PUSH3 0xE3 JUMPI PUSH1 0x64 SWAP1 DUP13 MLOAD SWAP1 PUSH3 0x461BCD PUSH1 0xE5 SHL DUP3 MSTORE PUSH1 0x4 DUP3 ADD MSTORE PUSH1 0x15 PUSH1 0x24 DUP3 ADD MSTORE PUSH32 0x6C7020726563697069656E742072657175697265640000000000000000000000 PUSH1 0x44 DUP3 ADD MSTORE REVERT JUMPDEST DUP12 MLOAD PUSH3 0x461BCD PUSH1 0xE5 SHL DUP2 MSTORE PUSH1 0x4 DUP2 ADD DUP10 SWAP1 MSTORE PUSH1 0xF PUSH1 0x24 DUP3 ADD MSTORE PUSH15 0x1D185C99D95D081C995C5D5A5C9959 PUSH1 0x8A SHL PUSH1 0x44 DUP3 ADD MSTORE PUSH1 0x64 SWAP1 REVERT JUMPDEST DUP12 MLOAD PUSH3 0x461BCD PUSH1 0xE5 SHL DUP2 MSTORE PUSH1 0x4 DUP2 ADD DUP10 SWAP1 MSTORE PUSH1 0x16 PUSH1 0x24 DUP3 ADD MSTORE PUSH32 0x7669727475616C20746F6B656E20726571756972656400000000000000000000 PUSH1 0x44 DUP3 ADD MSTORE PUSH1 0x64 SWAP1 REVERT JUMPDEST DUP12 MLOAD PUSH3 0x461BCD PUSH1 0xE5 SHL DUP2 MSTORE PUSH1 0x4 DUP2 ADD DUP10 SWAP1 MSTORE PUSH1 0x14 PUSH1 0x24 DUP3 ADD MSTORE PUSH32 0x7669727475616C20657468207265717569726564000000000000000000000000 PUSH1 0x44 DUP3 ADD MSTORE PUSH1 0x64 SWAP1 REVERT JUMPDEST DUP12 MLOAD PUSH3 0x461BCD PUSH1 0xE5 SHL DUP2 MSTORE PUSH1 0x4 DUP2 ADD DUP10 SWAP1 MSTORE PUSH1 0x1B PUSH1 0x24 DUP3 ADD MSTORE PUSH32 0x706C6174666F726D20726563697069656E742072657175697265640000000000 PUSH1 0x44 DUP3 ADD MSTORE PUSH1 0x64 SWAP1 REVERT JUMPDEST DUP12 MLOAD PUSH3 0x461BCD PUSH1 0xE5 SHL DUP2 MSTORE PUSH1 0x4 DUP2 ADD DUP10 SWAP1 MSTORE PUSH1 0xC PUSH1 0x24 DUP3 ADD MSTORE PUSH12 0xCCCACA40E8DEDE40D0D2CED PUSH1 0xA3 SHL PUSH1 0x44 DUP3 ADD MSTORE PUSH1 0x64 SWAP1 REVERT JUMPDEST DUP12 MLOAD PUSH3 0x461BCD PUSH1 0xE5 SHL DUP2 MSTORE PUSH1 0x4 DUP2 ADD DUP10 SWAP1 MSTORE PUSH1 0x16 PUSH1 0x24 DUP3 ADD MSTORE PUSH32 0x66656520726563697069656E7420726571756972656400000000000000000000 PUSH1 0x44 DUP3 ADD MSTORE PUSH1 0x64 SWAP1 REVERT JUMPDEST PUSH1 0x0 DUP1 REVERT JUMPDEST PUSH4 0x4E487B71 PUSH1 0xE0 SHL PUSH1 0x0 MSTORE PUSH1 0x41 PUSH1 0x4 MSTORE PUSH1 0x24 PUSH1 0x0 REVERT JUMPDEST MLOAD SWAP1 PUSH1 0x1 PUSH1 0x1 PUSH1 0xA0 SHL SUB DUP3 AND DUP3 SUB PUSH3 0x2FD JUMPI JUMP INVALID PUSH1 0xA0 DUP1 PUSH1 0x40 MSTORE PUSH1 0x4 CALLDATASIZE LT ISZERO PUSH3 0x14 JUMPI PUSH1 0x0 DUP1 REVERT JUMPDEST PUSH1 0x0 CALLDATALOAD PUSH1 0xE0 SHR SWAP1 DUP2 PUSH4 0xB0420BB EQ PUSH3 0x2140 JUMPI POP DUP1 PUSH4 0x1036338C EQ PUSH3 0x15E0 JUMPI DUP1 PUSH4 0x13ED4AA6 EQ PUSH3 0x15B5 JUMPI DUP1 PUSH4 0x1C8C0D92 EQ PUSH3 0x1595 JUMPI DUP1 PUSH4 0x46904840 EQ PUSH3 0x156A JUMPI DUP1 PUSH4 0x5930D3CE EQ PUSH3 0x14D6 JUMPI DUP1 PUSH4 0x63F0EB04 EQ PUSH3 0x14B6 JUMPI DUP1 PUSH4 0x83EEB3BB EQ PUSH3 0x1496 JUMPI DUP1 PUSH4 0x8DA5CB5B EQ PUSH3 0x146B JUMPI DUP1 PUSH4 0x93A8E04D EQ PUSH3 0x144B JUMPI DUP1 PUSH4 0x96875AA0 EQ PUSH3 0x65B JUMPI DUP1 PUSH4 0x9B3B9F98 EQ PUSH3 0x5D0 JUMPI DUP1 PUSH4 0x9FF0251F EQ PUSH3 0x5B0 JUMPI DUP1 PUSH4 0xB82942A5 EQ PUSH3 0x24D JUMPI DUP1 PUSH4 0xBCAE25A4 EQ PUSH3 0x22D JUMPI DUP1 PUSH4 0xD578192C EQ PUSH3 0x202 JUMPI DUP1 PUSH4 0xE1A45218 EQ PUSH3 0x1E3 JUMPI DUP1 PUSH4 0xEB13554F EQ PUSH3 0x1B8 JUMPI PUSH4 0xF2FDE38B EQ PUSH3 0x104 JUMPI PUSH1 0x0 DUP1 REVERT JUMPDEST CALLVALUE PUSH3 0x1B3 JUMPI PUSH1 0x20 CALLDATASIZE PUSH1 0x3 NOT ADD SLT PUSH3 0x1B3 JUMPI PUSH3 0x121 PUSH3 0x217C JUMP JUMPDEST PUSH1 0x0 SLOAD PUSH1 0x1 PUSH1 0x1 PUSH1 0xA0 SHL SUB DUP1 DUP3 AND SWAP3 PUSH3 0x13D CALLER DUP6 EQ PUSH3 0x270A JUMP JUMPDEST AND SWAP2 DUP3 ISZERO PUSH3 0x17D JUMPI DUP3 SWAP1 PUSH32 0x8BE0079C531659141344CD1FD0A4F28419497F9722A3DAAFE3B4186F6B6457E0 PUSH1 0x0 DUP1 LOG3 PUSH1 0x1 PUSH1 0x1 PUSH1 0xA0 SHL SUB NOT AND OR PUSH1 0x0 SSTORE STOP JUMPDEST PUSH1 0x40 MLOAD PUSH3 0x461BCD PUSH1 0xE5 SHL DUP2 MSTORE PUSH1 0x20 PUSH1 0x4 DUP3 ADD MSTORE PUSH1 0xE PUSH1 0x24 DUP3 ADD MSTORE PUSH14 0x1BDDDB995C881C995C5D5A5C9959 PUSH1 0x92 SHL PUSH1 0x44 DUP3 ADD MSTORE PUSH1 0x64 SWAP1 REVERT JUMPDEST PUSH1 0x0 DUP1 REVERT JUMPDEST CALLVALUE PUSH3 0x1B3 JUMPI PUSH1 0x0 CALLDATASIZE PUSH1 0x3 NOT ADD SLT PUSH3 0x1B3 JUMPI PUSH1 0x2 SLOAD PUSH1 0x40 MLOAD PUSH1 0x1 PUSH1 0x1 PUSH1 0xA0 SHL SUB SWAP1 SWAP2 AND DUP2 MSTORE PUSH1 0x20 SWAP1 RETURN JUMPDEST CALLVALUE PUSH3 0x1B3 JUMPI PUSH1 0x0 CALLDATASIZE PUSH1 0x3 NOT ADD SLT PUSH3 0x1B3 JUMPI PUSH1 0x20 PUSH1 0x40 MLOAD PUSH2 0x2710 DUP2 MSTORE RETURN JUMPDEST CALLVALUE PUSH3 0x1B3 JUMPI PUSH1 0x0 CALLDATASIZE PUSH1 0x3 NOT ADD SLT PUSH3 0x1B3 JUMPI PUSH1 0x8 SLOAD PUSH1 0x40 MLOAD PUSH1 0x1 PUSH1 0x1 PUSH1 0xA0 SHL SUB SWAP1 SWAP2 AND DUP2 MSTORE PUSH1 0x20 SWAP1 RETURN JUMPDEST CALLVALUE PUSH3 0x1B3 JUMPI PUSH1 0x0 CALLDATASIZE PUSH1 0x3 NOT ADD SLT PUSH3 0x1B3 JUMPI PUSH1 0x20 PUSH1 0x3 SLOAD PUSH1 0x40 MLOAD SWAP1 DUP2 MSTORE RETURN JUMPDEST CALLVALUE PUSH3 0x1B3 JUMPI PUSH2 0x120 CALLDATASIZE PUSH1 0x3 NOT ADD SLT PUSH3 0x1B3 JUMPI PUSH3 0x26B PUSH3 0x217C JUMP JUMPDEST PUSH1 0x24 CALLDATALOAD PUSH1 0x1 PUSH1 0x1 PUSH1 0xA0 SHL SUB DUP2 AND DUP2 SUB PUSH3 0x1B3 JUMPI PUSH1 0x64 SWAP2 PUSH1 0xE4 CALLDATALOAD PUSH1 0x1 PUSH1 0x1 PUSH1 0xA0 SHL SUB DUP2 AND DUP2 SUB PUSH3 0x1B3 JUMPI PUSH2 0x104 CALLDATALOAD SWAP2 PUSH1 0x1 PUSH1 0x1 PUSH1 0xA0 SHL SUB DUP4 AND DUP4 SUB PUSH3 0x1B3 JUMPI PUSH3 0x2C3 PUSH1 0x1 DUP1 PUSH1 0xA0 SHL SUB PUSH1 0x0 SLOAD AND CALLER EQ PUSH3 0x270A JUMP JUMPDEST PUSH1 0x1 PUSH1 0x1 PUSH1 0xA0 SHL SUB AND SWAP3 DUP4 ISZERO PUSH3 0x573 JUMPI PUSH1 0x1 PUSH1 0x1 PUSH1 0xA0 SHL SUB DUP2 AND ISZERO PUSH3 0x52F JUMPI PUSH2 0x12C PUSH1 0x44 CALLDATALOAD GT PUSH3 0x4FC JUMPI PUSH1 0x84 CALLDATALOAD ISZERO PUSH3 0x4C1 JUMPI PUSH1 0xA4 CALLDATALOAD ISZERO PUSH3 0x484 JUMPI PUSH1 0xC4 CALLDATALOAD ISZERO PUSH3 0x44E JUMPI PUSH1 0x1 PUSH1 0x1 PUSH1 0xA0 SHL SUB DUP3 AND PUSH3 0x403 JUMPI JUMPDEST SWAP1 PUSH32 0x62DE0C78F593B14F1D09C895CE83A42EA45A7D77A716A05432A53193305B3C5A SWAP5 PUSH2 0x120 SWAP5 SWAP4 SWAP3 PUSH1 0x1 PUSH1 0x1 PUSH1 0x60 SHL SUB PUSH1 0xA0 SHL DUP6 DUP2 PUSH1 0x1 SLOAD AND OR PUSH1 0x1 SSTORE PUSH1 0x1 DUP1 PUSH1 0xA0 SHL SUB DUP3 AND DUP2 PUSH1 0x2 SLOAD AND OR PUSH1 0x2 SSTORE PUSH1 0x44 CALLDATALOAD PUSH1 0x3 SSTORE DUP3 CALLDATALOAD PUSH1 0x4 SSTORE PUSH1 0x84 CALLDATALOAD PUSH1 0x5 SSTORE PUSH1 0xA4 CALLDATALOAD PUSH1 0x6 SSTORE PUSH1 0xC4 CALLDATALOAD PUSH1 0x7 SSTORE PUSH1 0x1 DUP1 PUSH1 0xA0 SHL SUB DUP5 AND DUP2 PUSH1 0x8 SLOAD AND OR PUSH1 0x8 SSTORE PUSH1 0x1 DUP1 PUSH1 0xA0 SHL SUB DUP6 AND SWAP1 PUSH1 0x9 SLOAD AND OR PUSH1 0x9 SSTORE PUSH1 0x40 MLOAD SWAP5 DUP6 MSTORE PUSH1 0x1 DUP1 PUSH1 0xA0 SHL SUB AND PUSH1 0x20 DUP6 ADD MSTORE PUSH1 0x44 CALLDATALOAD PUSH1 0x40 DUP6 ADD MSTORE CALLDATALOAD PUSH1 0x60 DUP5 ADD MSTORE PUSH1 0x84 CALLDATALOAD PUSH1 0x80 DUP5 ADD MSTORE PUSH1 0xA4 CALLDATALOAD PUSH1 0xA0 DUP5 ADD MSTORE PUSH1 0xC4 CALLDATALOAD PUSH1 0xC0 DUP5 ADD MSTORE PUSH1 0x1 DUP1 PUSH1 0xA0 SHL SUB AND PUSH1 0xE0 DUP4 ADD MSTORE PUSH1 0x1 DUP1 PUSH1 0xA0 SHL SUB AND PUSH2 0x100 DUP3 ADD MSTORE LOG1 STOP JUMPDEST PUSH1 0x1 PUSH1 0x1 PUSH1 0xA0 SHL SUB DUP4 AND PUSH3 0x31B JUMPI PUSH1 0x40 MLOAD PUSH3 0x461BCD PUSH1 0xE5 SHL DUP2 MSTORE PUSH1 0x20 PUSH1 0x4 DUP3 ADD MSTORE PUSH1 0x15 PUSH1 0x24 DUP3 ADD MSTORE PUSH21 0x1B1C081C9958DA5C1A595B9D081C995C5D5A5C9959 PUSH1 0x5A SHL PUSH1 0x44 DUP3 ADD MSTORE DUP6 SWAP1 REVERT JUMPDEST PUSH1 0x40 MLOAD PUSH3 0x461BCD PUSH1 0xE5 SHL DUP2 MSTORE PUSH1 0x20 PUSH1 0x4 DUP3 ADD MSTORE PUSH1 0xF PUSH1 0x24 DUP3 ADD MSTORE PUSH15 0x1D185C99D95D081C995C5D5A5C9959 PUSH1 0x8A SHL PUSH1 0x44 DUP3 ADD MSTORE DUP6 SWAP1 REVERT JUMPDEST PUSH1 0x40 MLOAD PUSH3 0x461BCD PUSH1 0xE5 SHL DUP2 MSTORE PUSH1 0x20 PUSH1 0x4 DUP3 ADD MSTORE PUSH1 0x16 PUSH1 0x24 DUP3 ADD MSTORE PUSH22 0x1D9A5C9D1D585B081D1BDAD95B881C995C5D5A5C9959 PUSH1 0x52 SHL PUSH1 0x44 DUP3 ADD MSTORE DUP6 SWAP1 REVERT JUMPDEST PUSH1 0x40 MLOAD PUSH3 0x461BCD PUSH1 0xE5 SHL DUP2 MSTORE PUSH1 0x20 PUSH1 0x4 DUP3 ADD MSTORE PUSH1 0x14 PUSH1 0x24 DUP3 ADD MSTORE PUSH20 0x1D9A5C9D1D585B08195D1A081C995C5D5A5C9959 PUSH1 0x62 SHL PUSH1 0x44 DUP3 ADD MSTORE DUP6 SWAP1 REVERT JUMPDEST PUSH1 0x40 MLOAD PUSH3 0x461BCD PUSH1 0xE5 SHL DUP2 MSTORE PUSH1 0x20 PUSH1 0x4 DUP3 ADD MSTORE PUSH1 0xC PUSH1 0x24 DUP3 ADD MSTORE PUSH12 0xCCCACA40E8DEDE40D0D2CED PUSH1 0xA3 SHL PUSH1 0x44 DUP3 ADD MSTORE DUP6 SWAP1 REVERT JUMPDEST PUSH1 0x40 MLOAD PUSH3 0x461BCD PUSH1 0xE5 SHL DUP2 MSTORE PUSH1 0x20 PUSH1 0x4 DUP3 ADD MSTORE PUSH1 0x1B PUSH1 0x24 DUP3 ADD MSTORE PUSH32 0x706C6174666F726D20726563697069656E742072657175697265640000000000 PUSH1 0x44 DUP3 ADD MSTORE DUP6 SWAP1 REVERT JUMPDEST PUSH1 0x40 MLOAD PUSH3 0x461BCD PUSH1 0xE5 SHL DUP2 MSTORE PUSH1 0x20 PUSH1 0x4 DUP3 ADD MSTORE PUSH1 0x16 PUSH1 0x24 DUP3 ADD MSTORE PUSH22 0x199959481C9958DA5C1A595B9D081C995C5D5A5C9959 PUSH1 0x52 SHL PUSH1 0x44 DUP3 ADD MSTORE DUP6 SWAP1 REVERT JUMPDEST CALLVALUE PUSH3 0x1B3 JUMPI PUSH1 0x0 CALLDATASIZE PUSH1 0x3 NOT ADD SLT PUSH3 0x1B3 JUMPI PUSH1 0x20 PUSH1 0xA SLOAD PUSH1 0x40 MLOAD SWAP1 DUP2 MSTORE RETURN JUMPDEST CALLVALUE PUSH3 0x1B3 JUMPI PUSH1 0x40 CALLDATASIZE PUSH1 0x3 NOT ADD SLT PUSH3 0x1B3 JUMPI PUSH3 0x5F3 PUSH1 0x24 CALLDATALOAD PUSH1 0x4 CALLDATALOAD PUSH3 0x2603 JUMP JUMPDEST PUSH1 0x40 MLOAD PUSH1 0x20 SWAP2 PUSH1 0x20 DUP3 ADD SWAP3 PUSH1 0x20 DUP4 MSTORE DUP2 MLOAD DUP1 SWAP5 MSTORE PUSH1 0x40 DUP4 ADD SWAP4 PUSH1 0x20 PUSH1 0x40 DUP3 PUSH1 0x5 SHL DUP7 ADD ADD SWAP4 ADD SWAP2 PUSH1 0x0 SWAP6 JUMPDEST DUP3 DUP8 LT PUSH3 0x62C JUMPI DUP6 DUP6 SUB DUP7 RETURN JUMPDEST SWAP1 SWAP2 SWAP3 SWAP4 DUP3 DUP1 PUSH3 0x64A PUSH1 0x1 SWAP4 PUSH1 0x3F NOT DUP11 DUP3 SUB ADD DUP7 MSTORE DUP9 MLOAD PUSH3 0x229A JUMP JUMPDEST SWAP7 ADD SWAP3 ADD SWAP7 ADD SWAP6 SWAP3 SWAP2 SWAP1 SWAP3 PUSH3 0x61E JUMP JUMPDEST PUSH3 0x666 CALLDATASIZE PUSH3 0x21C3 JUMP JUMPDEST PUSH1 0x8 SLOAD SWAP4 SWAP10 SWAP6 SWAP7 SWAP2 SWAP6 SWAP1 SWAP5 SWAP1 SWAP4 PUSH1 0x1 PUSH1 0x1 PUSH1 0xA0 SHL SUB AND ISZERO PUSH3 0x1411 JUMPI PUSH1 0x9 SLOAD PUSH1 0x1 PUSH1 0x1 PUSH1 0xA0 SHL SUB AND ISZERO PUSH3 0x13D5 JUMPI PUSH1 0x4 SLOAD DUP1 CALLVALUE GT ISZERO PUSH3 0x1385 JUMPI PUSH3 0x6AC SWAP1 CALLVALUE PUSH3 0x25C8 JUMP JUMPDEST SWAP7 PUSH3 0x6B7 PUSH3 0x2744 JUMP JUMPDEST PUSH1 0x40 MLOAD DUP9 DUP2 MSTORE PUSH32 0xAC9D85DC25663B5CC567AFAED6BB7823377F8F9F4164BC741A6ED341C04A8EC7 PUSH1 0x20 CALLER SWAP3 LOG2 PUSH1 0x0 SWAP3 DUP11 ISZERO PUSH3 0x1350 JUMPI DUP1 ISZERO PUSH3 0x1319 JUMPI DUP8 ISZERO PUSH3 0x12E2 JUMPI PUSH2 0x7D0 DUP8 GT PUSH3 0x12A7 JUMPI PUSH1 0x2 SLOAD PUSH1 0x40 MLOAD SWAP1 PUSH1 0x1 PUSH1 0x1 PUSH1 0xA0 SHL SUB AND PUSH1 0x1 PUSH1 0x1 PUSH1 0x40 SHL SUB PUSH2 0x13EA DUP4 ADD SWAP1 DUP2 GT SWAP1 DUP4 GT OR PUSH3 0x1291 JUMPI DUP2 SWAP1 PUSH3 0x76F DUP14 DUP16 PUSH3 0x758 DUP13 DUP9 SWAP3 PUSH2 0x13EA PUSH3 0x4710 DUP10 CODECOPY PUSH1 0xC0 PUSH2 0x13EA DUP10 ADD DUP2 DUP2 MSTORE ADD SWAP2 PUSH3 0x2876 JUMP JUMPDEST SWAP2 PUSH2 0x13EA DUP7 ADD DUP4 SUB PUSH1 0x20 PUSH2 0x13EA DUP9 ADD ADD MSTORE PUSH3 0x2876 JUMP JUMPDEST PUSH2 0x13EA DUP4 ADD PUSH1 0x40 DUP2 ADD DUP14 SWAP1 MSTORE ADDRESS PUSH1 0x60 DUP3 ADD MSTORE CALLER PUSH1 0x80 DUP3 ADD MSTORE PUSH1 0xA0 ADD SWAP2 SWAP1 SWAP2 MSTORE SUB SWAP1 PUSH1 0x0 CREATE SWAP9 DUP10 ISZERO PUSH3 0x113E JUMPI DUP10 PUSH1 0x1 DUP1 PUSH1 0xA0 SHL SUB PUSH1 0x1 SLOAD AND PUSH1 0x3 SLOAD PUSH1 0x5 SLOAD PUSH1 0x6 SLOAD PUSH1 0x7 SLOAD SWAP2 PUSH1 0x1 DUP1 PUSH1 0xA0 SHL SUB PUSH1 0x8 SLOAD AND SWAP4 PUSH1 0x1 DUP1 PUSH1 0xA0 SHL SUB PUSH1 0x9 SLOAD AND SWAP6 PUSH1 0x40 MLOAD SWAP8 DUP9 PUSH2 0x1E5E DUP2 ADD LT PUSH1 0x1 PUSH1 0x1 PUSH1 0x40 SHL SUB PUSH2 0x1E5E DUP12 ADD GT OR PUSH3 0x1291 JUMPI PUSH2 0x1E5E PUSH3 0x28B2 DUP11 CODECOPY PUSH1 0x1 DUP1 PUSH1 0xA0 SHL SUB AND PUSH2 0x1E5E DUP10 ADD MSTORE ADDRESS PUSH1 0x20 PUSH2 0x1E5E DUP11 ADD ADD MSTORE PUSH1 0x40 PUSH2 0x1E5E DUP10 ADD ADD MSTORE PUSH1 0x60 PUSH2 0x1E5E DUP9 ADD ADD MSTORE PUSH1 0x80 PUSH2 0x1E5E DUP8 ADD ADD MSTORE PUSH1 0xA0 PUSH2 0x1E5E DUP7 ADD ADD MSTORE PUSH1 0xC0 PUSH2 0x1E5E DUP6 ADD ADD MSTORE PUSH1 0xE0 PUSH2 0x1E5E DUP5 ADD ADD MSTORE PUSH2 0x100 PUSH2 0x1E5E DUP4 ADD ADD MSTORE PUSH2 0x120 DUP2 PUSH2 0x1E5E DUP2 ADD SUB ADD SWAP2 CREATE SWAP10 DUP11 ISZERO PUSH3 0x113E JUMPI DUP9 DUP9 DUP2 MUL DIV DUP9 SUB PUSH3 0x127B JUMPI DUP10 PUSH3 0x8BF PUSH1 0x20 DUP14 PUSH3 0x887 PUSH2 0x2710 DUP14 DUP16 MUL DIV DUP15 PUSH3 0x25C8 JUMP JUMPDEST PUSH1 0x40 MLOAD PUSH4 0xA9059CBB PUSH1 0xE0 SHL DUP2 MSTORE PUSH1 0x1 PUSH1 0x1 PUSH1 0xA0 SHL SUB SWAP1 SWAP3 AND PUSH1 0x4 DUP4 ADD MSTORE PUSH1 0x24 DUP3 ADD DUP2 SWAP1 MSTORE SWAP4 SWAP1 SWAP3 DUP4 SWAP2 SWAP1 DUP3 SWAP1 PUSH1 0x0 SWAP1 DUP3 SWAP1 PUSH1 0x44 DUP3 ADD SWAP1 JUMP JUMPDEST SUB SWAP3 PUSH1 0x1 PUSH1 0x1 PUSH1 0xA0 SHL SUB AND GAS CALL SWAP1 DUP2 ISZERO PUSH3 0x113E JUMPI PUSH1 0x0 SWAP2 PUSH3 0x1257 JUMPI JUMPDEST POP ISZERO PUSH3 0x121B JUMPI DUP11 DUP10 DUP12 PUSH2 0x2710 DUP3 DUP3 MUL DIV PUSH3 0x114A JUMPI JUMPDEST POP POP POP PUSH1 0x1 PUSH1 0x1 PUSH1 0xA0 SHL SUB DUP13 AND EXTCODESIZE ISZERO PUSH3 0x1B3 JUMPI PUSH1 0x0 DUP13 PUSH1 0x24 DUP3 SWAP4 PUSH1 0x40 MLOAD SWAP5 DUP6 SWAP4 DUP5 SWAP3 PUSH4 0x95564837 PUSH1 0xE0 SHL DUP5 MSTORE PUSH1 0x4 DUP5 ADD MSTORE PUSH1 0x1 DUP1 PUSH1 0xA0 SHL SUB AND GAS CALL DUP1 ISZERO PUSH3 0x113E JUMPI PUSH3 0x1127 JUMPI JUMPDEST POP PUSH1 0x1 PUSH1 0x1 PUSH1 0xA0 SHL SUB DUP12 AND EXTCODESIZE ISZERO PUSH3 0x10B3 JUMPI DUP5 DUP1 DUP13 PUSH1 0x4 PUSH1 0x40 MLOAD DUP1 SWAP5 DUP2 SWAP4 PUSH4 0x9485DC9 PUSH1 0xE2 SHL DUP4 MSTORE PUSH1 0x1 DUP1 PUSH1 0xA0 SHL SUB AND GAS CALL DUP1 ISZERO PUSH3 0x10B7 JUMPI SWAP1 DUP7 SWAP2 PUSH3 0x110F JUMPI JUMPDEST POP POP PUSH1 0x4 PUSH1 0x20 DUP13 PUSH1 0x40 MLOAD SWAP3 DUP4 DUP1 SWAP3 PUSH4 0x6B456EF PUSH1 0xE2 SHL DUP3 MSTORE PUSH1 0x1 DUP1 PUSH1 0xA0 SHL SUB AND GAS STATICCALL SWAP1 DUP2 ISZERO PUSH3 0x10B7 JUMPI DUP7 SWAP2 PUSH3 0x10C6 JUMPI JUMPDEST POP PUSH1 0x1 PUSH1 0x1 PUSH1 0xA0 SHL SUB DUP2 AND PUSH3 0x1044 JUMPI JUMPDEST POP PUSH1 0x1 PUSH1 0x1 PUSH1 0xA0 SHL SUB DUP11 DUP2 AND DUP7 MSTORE PUSH1 0xB PUSH1 0x20 MSTORE PUSH1 0x40 DUP7 KECCAK256 DUP1 SLOAD PUSH1 0x1 PUSH1 0x1 PUSH1 0xA0 SHL SUB NOT AND SWAP2 DUP14 AND SWAP2 SWAP1 SWAP2 OR SWAP1 SSTORE PUSH1 0xA SLOAD SWAP12 PUSH1 0x1 PUSH1 0x40 SHL DUP14 LT ISZERO PUSH3 0x1030 JUMPI PUSH1 0x1 DUP14 ADD PUSH1 0xA SSTORE PUSH3 0xA11 DUP14 PUSH3 0x23E7 JUMP JUMPDEST POP POP PUSH3 0xA1E DUP14 PUSH3 0x23E7 JUMP JUMPDEST POP SWAP8 PUSH1 0x1 DUP1 PUSH1 0xA0 SHL SUB DUP13 AND PUSH1 0x1 PUSH1 0x1 PUSH1 0x60 SHL SUB PUSH1 0xA0 SHL DUP11 SLOAD AND OR DUP10 SSTORE PUSH1 0x1 DUP10 ADD DUP14 PUSH1 0x1 DUP1 PUSH1 0xA0 SHL SUB AND PUSH1 0x1 PUSH1 0x1 PUSH1 0x60 SHL SUB PUSH1 0xA0 SHL DUP3 SLOAD AND OR SWAP1 SSTORE PUSH1 0x2 DUP10 ADD CALLER PUSH1 0x1 PUSH1 0x1 PUSH1 0x60 SHL SUB PUSH1 0xA0 SHL DUP3 SLOAD AND OR SWAP1 SSTORE PUSH1 0x1 PUSH1 0x1 PUSH1 0x40 SHL SUB DUP3 GT PUSH3 0x101C JUMPI DUP2 SWAP1 PUSH3 0xA8E PUSH1 0x3 DUP12 ADD SLOAD PUSH3 0x2438 JUMP JUMPDEST PUSH1 0x1F DUP2 GT PUSH3 0xFC7 JUMPI JUMPDEST POP DUP8 SWAP1 PUSH1 0x1F DUP4 GT PUSH1 0x1 EQ PUSH3 0xF56 JUMPI DUP9 SWAP3 PUSH3 0xF4A JUMPI JUMPDEST POP POP DUP2 PUSH1 0x1 SHL SWAP2 PUSH1 0x0 NOT SWAP1 PUSH1 0x3 SHL SHR NOT AND OR PUSH1 0x3 DUP9 ADD SSTORE JUMPDEST PUSH1 0x1 PUSH1 0x1 PUSH1 0x40 SHL SUB DUP3 GT PUSH3 0xF36 JUMPI DUP2 SWAP1 PUSH3 0xAE7 PUSH1 0x4 DUP10 ADD SLOAD PUSH3 0x2438 JUMP JUMPDEST PUSH1 0x1F DUP2 GT PUSH3 0xEE1 JUMPI JUMPDEST POP DUP6 SWAP1 PUSH1 0x1F DUP4 GT PUSH1 0x1 EQ PUSH3 0xE70 JUMPI DUP7 SWAP3 PUSH3 0xE64 JUMPI JUMPDEST POP POP DUP2 PUSH1 0x1 SHL SWAP2 PUSH1 0x0 NOT SWAP1 PUSH1 0x3 SHL SHR NOT AND OR PUSH1 0x4 DUP7 ADD SSTORE JUMPDEST PUSH1 0x1 PUSH1 0x1 PUSH1 0x40 SHL SUB DUP3 GT PUSH3 0xE50 JUMPI DUP2 SWAP1 PUSH3 0xB40 PUSH1 0x5 DUP8 ADD SLOAD PUSH3 0x2438 JUMP JUMPDEST PUSH1 0x1F DUP2 GT PUSH3 0xDFB JUMPI JUMPDEST POP DUP4 SWAP1 PUSH1 0x1F DUP4 GT PUSH1 0x1 EQ PUSH3 0xD8A JUMPI DUP5 SWAP3 PUSH3 0xD7E JUMPI JUMPDEST POP POP DUP2 PUSH1 0x1 SHL SWAP2 PUSH1 0x0 NOT SWAP1 PUSH1 0x3 SHL SHR NOT AND OR PUSH1 0x5 DUP5 ADD SSTORE JUMPDEST PUSH1 0x1 PUSH1 0x1 PUSH1 0x40 SHL SUB DUP3 GT PUSH3 0xD6A JUMPI PUSH3 0xB97 PUSH1 0x6 DUP5 ADD SLOAD PUSH3 0x2438 JUMP JUMPDEST PUSH1 0x1F DUP2 GT PUSH3 0xD21 JUMPI JUMPDEST POP DUP1 PUSH1 0x1F DUP4 GT PUSH1 0x1 EQ PUSH3 0xCA9 JUMPI SWAP1 PUSH3 0xC99 SWAP8 SWAP9 SWAP10 DUP4 PUSH3 0xC9D JUMPI JUMPDEST POP POP DUP2 PUSH1 0x1 SHL SWAP2 PUSH1 0x0 NOT SWAP1 PUSH1 0x3 SHL SHR NOT AND OR PUSH1 0x6 DUP3 ADD SSTORE JUMPDEST DUP3 PUSH1 0x7 DUP3 ADD SSTORE PUSH2 0x2710 DUP3 DUP5 MUL DIV PUSH1 0x8 DUP3 ADD SSTORE PUSH1 0x9 TIMESTAMP SWAP2 ADD SSTORE PUSH1 0x3 SLOAD PUSH1 0x7 SLOAD PUSH1 0x1 DUP1 PUSH1 0xA0 SHL SUB PUSH1 0x8 SLOAD AND SWAP2 PUSH2 0x2710 PUSH1 0x1 DUP1 PUSH1 0xA0 SHL SUB PUSH1 0x9 SLOAD AND SWAP5 PUSH1 0x40 MLOAD SWAP7 PUSH1 0x1 DUP1 PUSH1 0xA0 SHL SUB DUP12 AND DUP9 MSTORE DUP1 PUSH1 0x20 DUP10 ADD MSTORE MUL DIV PUSH1 0x40 DUP7 ADD MSTORE PUSH1 0x60 DUP6 ADD MSTORE PUSH1 0x80 DUP5 ADD MSTORE PUSH1 0xA0 DUP4 ADD MSTORE PUSH1 0xC0 DUP3 ADD MSTORE PUSH1 0x1 DUP1 PUSH1 0xA0 SHL SUB DUP3 AND SWAP1 DUP6 PUSH32 0xDC7FEA29D21F6A39E7F1B42AD6100F8CDAFF48535852696A1155DE8A81D87A06 PUSH1 0xE0 CALLER SWAP4 LOG4 PUSH1 0x40 DUP1 MLOAD SWAP5 DUP6 MSTORE PUSH1 0x1 PUSH1 0x1 PUSH1 0xA0 SHL SUB SWAP2 DUP3 AND PUSH1 0x20 DUP7 ADD MSTORE SWAP3 AND SWAP2 DUP4 ADD SWAP2 SWAP1 SWAP2 MSTORE DUP2 SWAP1 PUSH1 0x60 DUP3 ADD SWAP1 JUMP JUMPDEST SUB SWAP1 RETURN JUMPDEST ADD CALLDATALOAD SWAP1 POP DUP10 DUP1 PUSH3 0xBBE JUMP JUMPDEST SWAP1 PUSH1 0x6 DUP5 ADD DUP3 MSTORE PUSH1 0x20 DUP3 KECCAK256 SWAP2 JUMPDEST PUSH1 0x1F NOT DUP5 AND DUP2 LT PUSH3 0xD08 JUMPI POP SWAP1 PUSH3 0xC99 SWAP8 SWAP9 SWAP10 DUP4 SWAP3 PUSH1 0x1 SWAP5 PUSH1 0x1F NOT DUP2 AND LT PUSH3 0xCED JUMPI JUMPDEST POP POP POP DUP2 SHL ADD PUSH1 0x6 DUP3 ADD SSTORE PUSH3 0xBD6 JUMP JUMPDEST ADD CALLDATALOAD PUSH1 0x0 NOT PUSH1 0x3 DUP5 SWAP1 SHL PUSH1 0xF8 AND SHR NOT AND SWAP1 SSTORE DUP10 DUP1 DUP1 PUSH3 0xCDC JUMP JUMPDEST SWAP1 SWAP2 PUSH1 0x20 PUSH1 0x1 DUP2 SWAP3 DUP6 DUP15 ADD CALLDATALOAD DUP2 SSTORE ADD SWAP4 ADD SWAP2 ADD PUSH3 0xCB6 JUMP JUMPDEST PUSH1 0x6 DUP5 ADD DUP3 MSTORE PUSH1 0x20 DUP3 KECCAK256 PUSH1 0x1F DUP5 ADD PUSH1 0x5 SHR DUP2 ADD PUSH1 0x20 DUP6 LT PUSH3 0xD62 JUMPI JUMPDEST PUSH1 0x1F DUP4 ADD PUSH1 0x5 SHR DUP3 ADD DUP2 LT PUSH3 0xD56 JUMPI POP POP PUSH3 0xBA1 JUMP JUMPDEST DUP4 DUP2 SSTORE PUSH1 0x1 ADD PUSH3 0xD3E JUMP JUMPDEST POP DUP1 PUSH3 0xD3E JUMP JUMPDEST PUSH4 0x4E487B71 PUSH1 0xE0 SHL DUP2 MSTORE PUSH1 0x41 PUSH1 0x4 MSTORE PUSH1 0x24 SWAP1 REVERT JUMPDEST ADD CALLDATALOAD SWAP1 POP DUP12 DUP1 PUSH3 0xB61 JUMP JUMPDEST PUSH1 0x5 DUP8 ADD DUP6 MSTORE PUSH1 0x20 DUP6 KECCAK256 DUP6 SWAP5 POP SWAP2 JUMPDEST PUSH1 0x1F NOT DUP5 AND DUP6 LT PUSH3 0xDE2 JUMPI PUSH1 0x1 SWAP5 POP DUP4 PUSH1 0x1F NOT DUP2 AND LT PUSH3 0xDC7 JUMPI JUMPDEST POP POP POP DUP2 SHL ADD PUSH1 0x5 DUP5 ADD SSTORE PUSH3 0xB79 JUMP JUMPDEST ADD CALLDATALOAD PUSH1 0x0 NOT PUSH1 0x3 DUP5 SWAP1 SHL PUSH1 0xF8 AND SHR NOT AND SWAP1 SSTORE DUP12 DUP1 DUP1 PUSH3 0xDB6 JUMP JUMPDEST DUP2 DUP2 ADD CALLDATALOAD DUP4 SSTORE PUSH1 0x20 SWAP5 DUP6 ADD SWAP5 PUSH1 0x1 SWAP1 SWAP4 ADD SWAP3 ADD PUSH3 0xD99 JUMP JUMPDEST SWAP1 SWAP2 POP PUSH1 0x5 DUP7 ADD DUP5 MSTORE PUSH1 0x20 DUP5 KECCAK256 PUSH1 0x1F DUP5 ADD PUSH1 0x5 SHR DUP2 ADD PUSH1 0x20 DUP6 LT PUSH3 0xE48 JUMPI JUMPDEST SWAP1 DUP5 SWAP4 SWAP3 SWAP2 JUMPDEST PUSH1 0x1F DUP4 ADD PUSH1 0x5 SHR DUP3 ADD DUP2 LT PUSH3 0xE39 JUMPI POP POP PUSH3 0xB4A JUMP JUMPDEST DUP7 DUP2 SSTORE DUP6 SWAP5 POP PUSH1 0x1 ADD PUSH3 0xE21 JUMP JUMPDEST POP DUP1 PUSH3 0xE1B JUMP JUMPDEST PUSH4 0x4E487B71 PUSH1 0xE0 SHL DUP4 MSTORE PUSH1 0x41 PUSH1 0x4 MSTORE PUSH1 0x24 DUP4 REVERT JUMPDEST ADD CALLDATALOAD SWAP1 POP DUP14 DUP1 PUSH3 0xB08 JUMP JUMPDEST PUSH1 0x4 DUP10 ADD DUP8 MSTORE PUSH1 0x20 DUP8 KECCAK256 DUP8 SWAP5 POP SWAP2 JUMPDEST PUSH1 0x1F NOT DUP5 AND DUP6 LT PUSH3 0xEC8 JUMPI PUSH1 0x1 SWAP5 POP DUP4 PUSH1 0x1F NOT DUP2 AND LT PUSH3 0xEAD JUMPI JUMPDEST POP POP POP DUP2 SHL ADD PUSH1 0x4 DUP7 ADD SSTORE PUSH3 0xB20 JUMP JUMPDEST ADD CALLDATALOAD PUSH1 0x0 NOT PUSH1 0x3 DUP5 SWAP1 SHL PUSH1 0xF8 AND SHR NOT AND SWAP1 SSTORE DUP14 DUP1 DUP1 PUSH3 0xE9C JUMP JUMPDEST DUP2 DUP2 ADD CALLDATALOAD DUP4 SSTORE PUSH1 0x20 SWAP5 DUP6 ADD SWAP5 PUSH1 0x1 SWAP1 SWAP4 ADD SWAP3 ADD PUSH3 0xE7F JUMP JUMPDEST SWAP1 SWAP2 POP PUSH1 0x4 DUP9 ADD DUP7 MSTORE PUSH1 0x20 DUP7 KECCAK256 PUSH1 0x1F DUP5 ADD PUSH1 0x5 SHR DUP2 ADD PUSH1 0x20 DUP6 LT PUSH3 0xF2E JUMPI JUMPDEST SWAP1 DUP5 SWAP4 SWAP3 SWAP2 JUMPDEST PUSH1 0x1F DUP4 ADD PUSH1 0x5 SHR DUP3 ADD DUP2 LT PUSH3 0xF1F JUMPI POP POP PUSH3 0xAF1 JUMP JUMPDEST DUP9 DUP2 SSTORE DUP6 SWAP5 POP PUSH1 0x1 ADD PUSH3 0xF07 JUMP JUMPDEST POP DUP1 PUSH3 0xF01 JUMP JUMPDEST PUSH4 0x4E487B71 PUSH1 0xE0 SHL DUP6 MSTORE PUSH1 0x41 PUSH1 0x4 MSTORE PUSH1 0x24 DUP6 REVERT JUMPDEST ADD CALLDATALOAD SWAP1 POP DUP16 DUP1 PUSH3 0xAAF JUMP JUMPDEST PUSH1 0x3 DUP12 ADD DUP10 MSTORE PUSH1 0x20 DUP10 KECCAK256 DUP10 SWAP5 POP SWAP2 JUMPDEST PUSH1 0x1F NOT DUP5 AND DUP6 LT PUSH3 0xFAE JUMPI PUSH1 0x1 SWAP5 POP DUP4 PUSH1 0x1F NOT DUP2 AND LT PUSH3 0xF93 JUMPI JUMPDEST POP POP POP DUP2 SHL ADD PUSH1 0x3 DUP9 ADD SSTORE PUSH3 0xAC7 JUMP JUMPDEST ADD CALLDATALOAD PUSH1 0x0 NOT PUSH1 0x3 DUP5 SWAP1 SHL PUSH1 0xF8 AND SHR NOT AND SWAP1 SSTORE DUP16 DUP1 DUP1 PUSH3 0xF82 JUMP JUMPDEST DUP2 DUP2 ADD CALLDATALOAD DUP4 SSTORE PUSH1 0x20 SWAP5 DUP6 ADD SWAP5 PUSH1 0x1 SWAP1 SWAP4 ADD SWAP3 ADD PUSH3 0xF65 JUMP JUMPDEST SWAP1 SWAP2 POP PUSH1 0x3 DUP11 ADD DUP9 MSTORE PUSH1 0x20 DUP9 KECCAK256 PUSH1 0x1F DUP5 ADD PUSH1 0x5 SHR DUP2 ADD PUSH1 0x20 DUP6 LT PUSH3 0x1014 JUMPI JUMPDEST SWAP1 DUP5 SWAP4 SWAP3 SWAP2 JUMPDEST PUSH1 0x1F DUP4 ADD PUSH1 0x5 SHR DUP3 ADD DUP2 LT PUSH3 0x1005 JUMPI POP POP PUSH3 0xA98 JUMP JUMPDEST DUP11 DUP2 SSTORE DUP6 SWAP5 POP PUSH1 0x1 ADD PUSH3 0xFED JUMP JUMPDEST POP DUP1 PUSH3 0xFE7 JUMP JUMPDEST PUSH4 0x4E487B71 PUSH1 0xE0 SHL DUP8 MSTORE PUSH1 0x41 PUSH1 0x4 MSTORE PUSH1 0x24 DUP8 REVERT JUMPDEST PUSH4 0x4E487B71 PUSH1 0xE0 SHL DUP7 MSTORE PUSH1 0x41 PUSH1 0x4 MSTORE PUSH1 0x24 DUP7 REVERT JUMPDEST PUSH1 0x1 PUSH1 0x1 PUSH1 0xA0 SHL SUB DUP12 AND EXTCODESIZE ISZERO PUSH3 0x10C2 JUMPI DUP6 DUP12 PUSH1 0x24 DUP3 SWAP4 PUSH1 0x40 MLOAD SWAP5 DUP6 SWAP4 DUP5 SWAP3 PUSH4 0x15C6DEB9 PUSH1 0xE3 SHL DUP5 MSTORE PUSH1 0x1 DUP1 PUSH1 0xA0 SHL SUB AND PUSH1 0x4 DUP5 ADD MSTORE PUSH1 0x1 DUP1 PUSH1 0xA0 SHL SUB AND GAS CALL DUP1 ISZERO PUSH3 0x10B7 JUMPI SWAP1 DUP7 SWAP2 PUSH3 0x109B JUMPI JUMPDEST POP PUSH3 0x9C2 JUMP JUMPDEST PUSH3 0x10A6 SWAP1 PUSH3 0x2360 JUMP JUMPDEST PUSH3 0x10B3 JUMPI DUP5 DUP15 PUSH3 0x1094 JUMP JUMPDEST DUP5 DUP1 REVERT JUMPDEST PUSH1 0x40 MLOAD RETURNDATASIZE DUP9 DUP3 RETURNDATACOPY RETURNDATASIZE SWAP1 REVERT JUMPDEST DUP6 DUP1 REVERT JUMPDEST SWAP1 POP PUSH1 0x20 DUP2 RETURNDATASIZE PUSH1 0x20 GT PUSH3 0x1106 JUMPI JUMPDEST DUP2 PUSH3 0x10E4 PUSH1 0x20 SWAP4 DUP4 PUSH3 0x2374 JUMP JUMPDEST DUP2 ADD SUB SLT PUSH3 0x10C2 JUMPI MLOAD PUSH1 0x1 PUSH1 0x1 PUSH1 0xA0 SHL SUB DUP2 AND DUP2 SUB PUSH3 0x10C2 JUMPI DUP15 PUSH3 0x9B1 JUMP JUMPDEST RETURNDATASIZE SWAP2 POP PUSH3 0x10D5 JUMP JUMPDEST PUSH3 0x111A SWAP1 PUSH3 0x2360 JUMP JUMPDEST PUSH3 0x10B3 JUMPI DUP5 DUP15 PUSH3 0x97F JUMP JUMPDEST PUSH3 0x1134 SWAP2 SWAP6 POP PUSH3 0x2360 JUMP JUMPDEST PUSH1 0x0 SWAP4 DUP14 PUSH3 0x93D JUMP JUMPDEST PUSH1 0x40 MLOAD RETURNDATASIZE PUSH1 0x0 DUP3 RETURNDATACOPY RETURNDATASIZE SWAP1 REVERT JUMPDEST PUSH1 0x40 MLOAD PUSH4 0xA9059CBB PUSH1 0xE0 SHL DUP2 MSTORE CALLER PUSH1 0x4 DUP3 ADD MSTORE PUSH2 0x2710 SWAP2 SWAP1 SWAP3 MUL DIV PUSH1 0x24 DUP3 ADD MSTORE SWAP1 PUSH1 0x20 SWAP1 DUP3 SWAP1 DUP2 PUSH1 0x0 DUP2 PUSH1 0x44 DUP2 ADD SUB SWAP3 PUSH1 0x1 PUSH1 0x1 PUSH1 0xA0 SHL SUB AND GAS CALL SWAP1 DUP2 ISZERO PUSH3 0x113E JUMPI PUSH1 0x0 SWAP2 PUSH3 0x11E5 JUMPI JUMPDEST POP ISZERO PUSH3 0x11A6 JUMPI DUP11 DUP10 DUP12 PUSH3 0x8F4 JUMP JUMPDEST PUSH1 0x40 MLOAD PUSH3 0x461BCD PUSH1 0xE5 SHL DUP2 MSTORE PUSH1 0x20 PUSH1 0x4 DUP3 ADD MSTORE PUSH1 0x17 PUSH1 0x24 DUP3 ADD MSTORE PUSH23 0x18DC99585D1BDC881D1C985B9CD9995C8819985A5B1959 PUSH1 0x4A SHL PUSH1 0x44 DUP3 ADD MSTORE PUSH1 0x64 SWAP1 REVERT JUMPDEST PUSH3 0x120C SWAP2 POP PUSH1 0x20 RETURNDATASIZE PUSH1 0x20 GT PUSH3 0x1213 JUMPI JUMPDEST PUSH3 0x1203 DUP2 DUP4 PUSH3 0x2374 JUMP JUMPDEST DUP2 ADD SWAP1 PUSH3 0x2897 JUMP JUMPDEST DUP16 PUSH3 0x1196 JUMP JUMPDEST POP RETURNDATASIZE PUSH3 0x11F7 JUMP JUMPDEST PUSH1 0x40 MLOAD PUSH3 0x461BCD PUSH1 0xE5 SHL DUP2 MSTORE PUSH1 0x20 PUSH1 0x4 DUP3 ADD MSTORE PUSH1 0x14 PUSH1 0x24 DUP3 ADD MSTORE PUSH20 0x1C1BDBDB081D1C985B9CD9995C8819985A5B1959 PUSH1 0x62 SHL PUSH1 0x44 DUP3 ADD MSTORE PUSH1 0x64 SWAP1 REVERT JUMPDEST PUSH3 0x1274 SWAP2 POP PUSH1 0x20 RETURNDATASIZE PUSH1 0x20 GT PUSH3 0x1213 JUMPI PUSH3 0x1203 DUP2 DUP4 PUSH3 0x2374 JUMP JUMPDEST DUP16 PUSH3 0x8DD JUMP JUMPDEST PUSH4 0x4E487B71 PUSH1 0xE0 SHL PUSH1 0x0 MSTORE PUSH1 0x11 PUSH1 0x4 MSTORE PUSH1 0x24 PUSH1 0x0 REVERT JUMPDEST PUSH4 0x4E487B71 PUSH1 0xE0 SHL PUSH1 0x0 MSTORE PUSH1 0x41 PUSH1 0x4 MSTORE PUSH1 0x24 PUSH1 0x0 REVERT JUMPDEST PUSH1 0x40 MLOAD PUSH3 0x461BCD PUSH1 0xE5 SHL DUP2 MSTORE PUSH1 0x20 PUSH1 0x4 DUP3 ADD MSTORE PUSH1 0x13 PUSH1 0x24 DUP3 ADD MSTORE PUSH19 0xC2D8D8DEC6C2E8D2DEDC40E8DEDE40D0D2CED PUSH1 0x6B SHL PUSH1 0x44 DUP3 ADD MSTORE PUSH1 0x64 SWAP1 REVERT JUMPDEST PUSH1 0x40 MLOAD PUSH3 0x461BCD PUSH1 0xE5 SHL DUP2 MSTORE PUSH1 0x20 PUSH1 0x4 DUP3 ADD MSTORE PUSH1 0xF PUSH1 0x24 DUP3 ADD MSTORE PUSH15 0x1CDD5C1C1B1E481C995C5D5A5C9959 PUSH1 0x8A SHL PUSH1 0x44 DUP3 ADD MSTORE PUSH1 0x64 SWAP1 REVERT JUMPDEST PUSH1 0x40 MLOAD PUSH3 0x461BCD PUSH1 0xE5 SHL DUP2 MSTORE PUSH1 0x20 PUSH1 0x4 DUP3 ADD MSTORE PUSH1 0xF PUSH1 0x24 DUP3 ADD MSTORE PUSH15 0x1CDE5B589BDB081C995C5D5A5C9959 PUSH1 0x8A SHL PUSH1 0x44 DUP3 ADD MSTORE PUSH1 0x64 SWAP1 REVERT JUMPDEST PUSH1 0x40 MLOAD PUSH3 0x461BCD PUSH1 0xE5 SHL DUP2 MSTORE PUSH1 0x20 PUSH1 0x4 DUP3 ADD MSTORE PUSH1 0xD PUSH1 0x24 DUP3 ADD MSTORE PUSH13 0x1B985B59481C995C5D5A5C9959 PUSH1 0x9A SHL PUSH1 0x44 DUP3 ADD MSTORE PUSH1 0x64 SWAP1 REVERT JUMPDEST PUSH1 0x40 MLOAD PUSH3 0x461BCD PUSH1 0xE5 SHL DUP2 MSTORE PUSH1 0x20 PUSH1 0x4 DUP3 ADD MSTORE PUSH1 0x22 PUSH1 0x24 DUP3 ADD MSTORE PUSH32 0x696E73756666696369656E742065746820666F72206665652B6C697175696469 PUSH1 0x44 DUP3 ADD MSTORE PUSH2 0x7479 PUSH1 0xF0 SHL PUSH1 0x64 DUP3 ADD MSTORE PUSH1 0x84 SWAP1 REVERT JUMPDEST PUSH1 0x40 MLOAD PUSH3 0x461BCD PUSH1 0xE5 SHL DUP2 MSTORE PUSH1 0x20 PUSH1 0x4 DUP3 ADD MSTORE PUSH1 0x14 PUSH1 0x24 DUP3 ADD MSTORE PUSH20 0x1B1C081C9958DA5C1A595B9D081B9BDD081CD95D PUSH1 0x62 SHL PUSH1 0x44 DUP3 ADD MSTORE PUSH1 0x64 SWAP1 REVERT JUMPDEST PUSH1 0x40 MLOAD PUSH3 0x461BCD PUSH1 0xE5 SHL DUP2 MSTORE PUSH1 0x20 PUSH1 0x4 DUP3 ADD MSTORE PUSH1 0x12 PUSH1 0x24 DUP3 ADD MSTORE PUSH18 0x19195E081C9BDD5D195C881B9BDD081CD95D PUSH1 0x72 SHL PUSH1 0x44 DUP3 ADD MSTORE PUSH1 0x64 SWAP1 REVERT JUMPDEST CALLVALUE PUSH3 0x1B3 JUMPI PUSH1 0x0 CALLDATASIZE PUSH1 0x3 NOT ADD SLT PUSH3 0x1B3 JUMPI PUSH1 0x20 PUSH1 0x6 SLOAD PUSH1 0x40 MLOAD SWAP1 DUP2 MSTORE RETURN JUMPDEST CALLVALUE PUSH3 0x1B3 JUMPI PUSH1 0x0 CALLDATASIZE PUSH1 0x3 NOT ADD SLT PUSH3 0x1B3 JUMPI PUSH1 0x0 SLOAD PUSH1 0x40 MLOAD PUSH1 0x1 PUSH1 0x1 PUSH1 0xA0 SHL SUB SWAP1 SWAP2 AND DUP2 MSTORE PUSH1 0x20 SWAP1 RETURN JUMPDEST CALLVALUE PUSH3 0x1B3 JUMPI PUSH1 0x0 CALLDATASIZE PUSH1 0x3 NOT ADD SLT PUSH3 0x1B3 JUMPI PUSH1 0x20 PUSH1 0x4 SLOAD PUSH1 0x40 MLOAD SWAP1 DUP2 MSTORE RETURN JUMPDEST CALLVALUE PUSH3 0x1B3 JUMPI PUSH1 0x0 CALLDATASIZE PUSH1 0x3 NOT ADD SLT PUSH3 0x1B3 JUMPI PUSH1 0x20 PUSH1 0x7 SLOAD PUSH1 0x40 MLOAD SWAP1 DUP2 MSTORE RETURN JUMPDEST CALLVALUE PUSH3 0x1B3 JUMPI PUSH1 0x20 CALLDATASIZE PUSH1 0x3 NOT ADD SLT PUSH3 0x1B3 JUMPI PUSH1 0x4 CALLDATALOAD PUSH3 0x14F6 PUSH3 0x2396 JUMP JUMPDEST POP PUSH1 0xA SLOAD DUP2 LT ISZERO PUSH3 0x1531 JUMPI PUSH3 0x151C PUSH3 0x1515 PUSH3 0xC99 SWAP3 PUSH3 0x23E7 JUMP JUMPDEST POP PUSH3 0x2526 JUMP JUMPDEST PUSH1 0x40 MLOAD SWAP2 DUP3 SWAP2 PUSH1 0x20 DUP4 MSTORE PUSH1 0x20 DUP4 ADD SWAP1 PUSH3 0x229A JUMP JUMPDEST PUSH1 0x40 MLOAD PUSH3 0x461BCD PUSH1 0xE5 SHL DUP2 MSTORE PUSH1 0x20 PUSH1 0x4 DUP3 ADD MSTORE PUSH1 0x11 PUSH1 0x24 DUP3 ADD MSTORE PUSH17 0x1A5B9D985B1A59081B185D5B98DA081A59 PUSH1 0x7A SHL PUSH1 0x44 DUP3 ADD MSTORE PUSH1 0x64 SWAP1 REVERT JUMPDEST CALLVALUE PUSH3 0x1B3 JUMPI PUSH1 0x0 CALLDATASIZE PUSH1 0x3 NOT ADD SLT PUSH3 0x1B3 JUMPI PUSH1 0x1 SLOAD PUSH1 0x40 MLOAD PUSH1 0x1 PUSH1 0x1 PUSH1 0xA0 SHL SUB SWAP1 SWAP2 AND DUP2 MSTORE PUSH1 0x20 SWAP1 RETURN JUMPDEST CALLVALUE PUSH3 0x1B3 JUMPI PUSH1 0x0 CALLDATASIZE PUSH1 0x3 NOT ADD SLT PUSH3 0x1B3 JUMPI PUSH1 0x20 PUSH1 0x5 SLOAD PUSH1 0x40 MLOAD SWAP1 DUP2 MSTORE RETURN JUMPDEST CALLVALUE PUSH3 0x1B3 JUMPI PUSH1 0x0 CALLDATASIZE PUSH1 0x3 NOT ADD SLT PUSH3 0x1B3 JUMPI PUSH1 0x9 SLOAD PUSH1 0x40 MLOAD PUSH1 0x1 PUSH1 0x1 PUSH1 0xA0 SHL SUB SWAP1 SWAP2 AND DUP2 MSTORE PUSH1 0x20 SWAP1 RETURN JUMPDEST PUSH3 0x15EB CALLDATASIZE PUSH3 0x21C3 JUMP JUMPDEST SWAP6 SWAP3 SWAP2 SWAP4 SWAP1 SWAP7 SWAP8 SWAP9 SWAP5 PUSH1 0x4 SLOAD CALLVALUE SUB PUSH3 0x2105 JUMPI PUSH3 0x1608 PUSH3 0x2744 JUMP JUMPDEST PUSH1 0x0 SWAP4 DUP11 ISZERO PUSH3 0x1350 JUMPI DUP1 ISZERO PUSH3 0x1319 JUMPI DUP9 ISZERO PUSH3 0x12E2 JUMPI PUSH2 0x7D0 DUP9 GT PUSH3 0x12A7 JUMPI PUSH1 0x2 SLOAD PUSH1 0x40 MLOAD SWAP1 PUSH1 0x1 PUSH1 0x1 PUSH1 0xA0 SHL SUB AND PUSH1 0x1 PUSH1 0x1 PUSH1 0x40 SHL SUB PUSH2 0x13EA DUP4 ADD SWAP1 DUP2 GT SWAP1 DUP4 GT OR PUSH3 0x1291 JUMPI DUP2 SWAP1 PUSH3 0x167D DUP14 DUP16 PUSH3 0x758 DUP14 DUP9 SWAP3 PUSH2 0x13EA PUSH3 0x4710 DUP10 CODECOPY PUSH1 0xC0 PUSH2 0x13EA DUP10 ADD DUP2 DUP2 MSTORE ADD SWAP2 PUSH3 0x2876 JUMP JUMPDEST PUSH2 0x13EA DUP4 ADD PUSH1 0x40 DUP2 ADD DUP15 SWAP1 MSTORE ADDRESS PUSH1 0x60 DUP3 ADD MSTORE CALLER PUSH1 0x80 DUP3 ADD MSTORE PUSH1 0xA0 ADD SWAP2 SWAP1 SWAP2 MSTORE SUB SWAP1 PUSH1 0x0 CREATE PUSH1 0x80 MSTORE PUSH1 0x80 MLOAD ISZERO PUSH3 0x113E JUMPI PUSH1 0x1 SLOAD PUSH1 0x3 SLOAD PUSH1 0x5 SLOAD PUSH1 0x6 SLOAD PUSH1 0x7 SLOAD PUSH1 0x8 SLOAD PUSH1 0x9 SLOAD PUSH1 0x40 MLOAD SWAP7 PUSH1 0x1 PUSH1 0x1 PUSH1 0xA0 SHL SUB SWAP2 DUP3 AND SWAP7 SWAP3 DUP3 AND SWAP6 SWAP4 SWAP5 SWAP4 SWAP3 SWAP2 AND PUSH1 0x1 PUSH1 0x1 PUSH1 0x40 SHL SUB PUSH2 0x1E5E DUP10 ADD SWAP1 DUP2 GT SWAP1 DUP10 GT OR PUSH3 0x1291 JUMPI PUSH2 0x1E5E PUSH3 0x28B2 DUP10 CODECOPY PUSH1 0x1 DUP1 PUSH1 0xA0 SHL SUB PUSH1 0x80 MLOAD AND PUSH2 0x1E5E DUP10 ADD MSTORE ADDRESS PUSH1 0x20 PUSH2 0x1E5E DUP11 ADD ADD MSTORE PUSH1 0x40 PUSH2 0x1E5E DUP10 ADD ADD MSTORE PUSH1 0x60 PUSH2 0x1E5E DUP9 ADD ADD MSTORE PUSH1 0x80 PUSH2 0x1E5E DUP8 ADD ADD MSTORE PUSH1 0xA0 PUSH2 0x1E5E DUP7 ADD ADD MSTORE PUSH1 0xC0 PUSH2 0x1E5E DUP6 ADD ADD MSTORE PUSH1 0xE0 PUSH2 0x1E5E DUP5 ADD ADD MSTORE PUSH2 0x100 PUSH2 0x1E5E DUP4 ADD ADD MSTORE PUSH2 0x120 DUP2 PUSH2 0x1E5E DUP2 ADD SUB ADD SWAP1 PUSH1 0x0 CREATE SWAP10 DUP11 ISZERO PUSH3 0x113E JUMPI DUP10 DUP10 DUP2 MUL DIV DUP10 SUB PUSH3 0x127B JUMPI DUP11 PUSH3 0x17C6 PUSH1 0x20 PUSH3 0x1795 PUSH2 0x2710 DUP14 DUP16 MUL DIV DUP15 PUSH3 0x25C8 JUMP JUMPDEST PUSH1 0x40 MLOAD PUSH4 0xA9059CBB PUSH1 0xE0 SHL DUP2 MSTORE PUSH1 0x1 PUSH1 0x1 PUSH1 0xA0 SHL SUB SWAP1 SWAP5 AND PUSH1 0x4 DUP6 ADD MSTORE PUSH1 0x24 DUP5 ADD DUP2 SWAP1 MSTORE SWAP3 SWAP2 DUP3 SWAP1 DUP2 SWAP1 PUSH1 0x44 DUP3 ADD SWAP1 JUMP JUMPDEST SUB DUP2 PUSH1 0x0 PUSH1 0x1 DUP1 PUSH1 0xA0 SHL SUB PUSH1 0x80 MLOAD AND GAS CALL SWAP1 DUP2 ISZERO PUSH3 0x113E JUMPI PUSH1 0x0 SWAP2 PUSH3 0x20E1 JUMPI JUMPDEST POP ISZERO PUSH3 0x121B JUMPI PUSH2 0x2710 DUP11 DUP13 MUL DIV PUSH3 0x202D JUMPI JUMPDEST PUSH1 0x1 PUSH1 0x1 PUSH1 0xA0 SHL SUB DUP13 AND EXTCODESIZE ISZERO PUSH3 0x1B3 JUMPI PUSH1 0x0 DUP13 PUSH1 0x24 DUP3 SWAP4 PUSH1 0x40 MLOAD SWAP5 DUP6 SWAP4 DUP5 SWAP3 PUSH4 0x95564837 PUSH1 0xE0 SHL DUP5 MSTORE PUSH1 0x4 DUP5 ADD MSTORE PUSH1 0x1 DUP1 PUSH1 0xA0 SHL SUB AND GAS CALL DUP1 ISZERO PUSH3 0x113E JUMPI PUSH3 0x2016 JUMPI JUMPDEST POP DUP6 PUSH3 0x1EA9 JUMPI JUMPDEST PUSH1 0x80 MLOAD PUSH1 0x1 PUSH1 0x1 PUSH1 0xA0 SHL SUB SWAP1 DUP2 AND DUP8 MSTORE PUSH1 0xB PUSH1 0x20 MSTORE PUSH1 0x40 DUP8 KECCAK256 DUP1 SLOAD PUSH1 0x1 PUSH1 0x1 PUSH1 0xA0 SHL SUB NOT AND SWAP2 DUP14 AND SWAP2 SWAP1 SWAP2 OR SWAP1 SSTORE PUSH1 0xA SLOAD SWAP12 PUSH1 0x1 PUSH1 0x40 SHL DUP14 LT ISZERO PUSH3 0x101C JUMPI PUSH1 0x1 DUP14 ADD PUSH1 0xA SSTORE PUSH3 0x189B DUP14 PUSH3 0x23E7 JUMP JUMPDEST POP POP PUSH3 0x18A8 DUP14 PUSH3 0x23E7 JUMP JUMPDEST POP SWAP9 PUSH1 0x1 DUP1 PUSH1 0xA0 SHL SUB PUSH1 0x80 MLOAD AND PUSH1 0x1 PUSH1 0x1 PUSH1 0x60 SHL SUB PUSH1 0xA0 SHL DUP12 SLOAD AND OR DUP11 SSTORE PUSH1 0x1 DUP11 ADD DUP14 PUSH1 0x1 DUP1 PUSH1 0xA0 SHL SUB AND PUSH1 0x1 PUSH1 0x1 PUSH1 0x60 SHL SUB PUSH1 0xA0 SHL DUP3 SLOAD AND OR SWAP1 SSTORE PUSH1 0x2 DUP11 ADD CALLER PUSH1 0x1 PUSH1 0x1 PUSH1 0x60 SHL SUB PUSH1 0xA0 SHL DUP3 SLOAD AND OR SWAP1 SSTORE PUSH1 0x1 PUSH1 0x1 PUSH1 0x40 SHL SUB DUP3 GT PUSH3 0x1E95 JUMPI DUP2 SWAP1 PUSH3 0x191A PUSH1 0x3 DUP13 ADD SLOAD PUSH3 0x2438 JUMP JUMPDEST PUSH1 0x1F DUP2 GT PUSH3 0x1E40 JUMPI JUMPDEST POP DUP9 SWAP1 PUSH1 0x1F DUP4 GT PUSH1 0x1 EQ PUSH3 0x1DCF JUMPI DUP10 SWAP3 PUSH3 0x1DC3 JUMPI JUMPDEST POP POP DUP2 PUSH1 0x1 SHL SWAP2 PUSH1 0x0 NOT SWAP1 PUSH1 0x3 SHL SHR NOT AND OR PUSH1 0x3 DUP10 ADD SSTORE JUMPDEST PUSH1 0x1 PUSH1 0x1 PUSH1 0x40 SHL SUB DUP3 GT PUSH3 0x1030 JUMPI DUP2 SWAP1 PUSH3 0x1973 PUSH1 0x4 DUP11 ADD SLOAD PUSH3 0x2438 JUMP JUMPDEST PUSH1 0x1F DUP2 GT PUSH3 0x1D6E JUMPI JUMPDEST POP DUP7 SWAP1 PUSH1 0x1F DUP4 GT PUSH1 0x1 EQ PUSH3 0x1CFD JUMPI DUP8 SWAP3 PUSH3 0x1CF1 JUMPI JUMPDEST POP POP DUP2 PUSH1 0x1 SHL SWAP2 PUSH1 0x0 NOT SWAP1 PUSH1 0x3 SHL SHR NOT AND OR PUSH1 0x4 DUP8 ADD SSTORE JUMPDEST PUSH1 0x1 PUSH1 0x1 PUSH1 0x40 SHL SUB DUP3 GT PUSH3 0x1CDD JUMPI DUP2 SWAP1 PUSH3 0x19CC PUSH1 0x5 DUP9 ADD SLOAD PUSH3 0x2438 JUMP JUMPDEST PUSH1 0x1F DUP2 GT PUSH3 0x1C88 JUMPI JUMPDEST POP DUP5 SWAP1 PUSH1 0x1F DUP4 GT PUSH1 0x1 EQ PUSH3 0x1C17 JUMPI DUP6 SWAP3 PUSH3 0x1C0B JUMPI JUMPDEST POP POP DUP2 PUSH1 0x1 SHL SWAP2 PUSH1 0x0 NOT SWAP1 PUSH1 0x3 SHL SHR NOT AND OR PUSH1 0x5 DUP6 ADD SSTORE JUMPDEST PUSH1 0x1 PUSH1 0x1 PUSH1 0x40 SHL SUB DUP4 GT PUSH3 0x1BF7 JUMPI SWAP1 DUP3 SWAP2 PUSH3 0x1A26 PUSH1 0x6 DUP7 ADD SLOAD PUSH3 0x2438 JUMP JUMPDEST PUSH1 0x1F DUP2 GT PUSH3 0x1BA0 JUMPI JUMPDEST POP DUP2 PUSH1 0x1F DUP5 GT PUSH1 0x1 EQ PUSH3 0x1B2F JUMPI SWAP3 PUSH3 0x1B23 JUMPI JUMPDEST POP POP DUP2 PUSH1 0x1 SHL SWAP2 PUSH1 0x0 NOT SWAP1 PUSH1 0x3 SHL SHR NOT AND OR PUSH1 0x6 DUP3 ADD SSTORE JUMPDEST DUP3 PUSH1 0x7 DUP3 ADD SSTORE PUSH2 0x2710 DUP3 DUP5 MUL DIV PUSH1 0x8 DUP3 ADD SSTORE PUSH1 0x9 TIMESTAMP SWAP2 ADD SSTORE PUSH1 0x3 SLOAD PUSH1 0x7 SLOAD PUSH1 0x1 DUP1 PUSH1 0xA0 SHL SUB PUSH1 0x8 SLOAD AND SWAP2 PUSH2 0x2710 PUSH1 0x1 DUP1 PUSH1 0xA0 SHL SUB PUSH1 0x9 SLOAD AND SWAP5 PUSH1 0x40 MLOAD SWAP7 PUSH1 0x1 DUP1 PUSH1 0xA0 SHL SUB DUP10 AND DUP9 MSTORE DUP1 PUSH1 0x20 DUP10 ADD MSTORE MUL DIV PUSH1 0x40 DUP7 ADD MSTORE PUSH1 0x60 DUP6 ADD MSTORE PUSH1 0x80 DUP5 ADD MSTORE PUSH1 0xA0 DUP4 ADD MSTORE PUSH1 0xC0 DUP3 ADD MSTORE PUSH1 0x1 DUP1 PUSH1 0xA0 SHL SUB PUSH1 0x80 MLOAD AND SWAP1 DUP4 PUSH32 0xDC7FEA29D21F6A39E7F1B42AD6100F8CDAFF48535852696A1155DE8A81D87A06 PUSH1 0xE0 CALLER SWAP4 LOG4 PUSH1 0x40 DUP1 MLOAD PUSH1 0x80 MLOAD SWAP4 DUP2 MSTORE PUSH1 0x1 PUSH1 0x1 PUSH1 0xA0 SHL SUB SWAP4 DUP5 AND PUSH1 0x20 DUP3 ADD MSTORE SWAP2 SWAP1 SWAP3 AND SWAP2 DUP2 ADD SWAP2 SWAP1 SWAP2 MSTORE PUSH1 0x60 SWAP1 RETURN JUMPDEST ADD CALLDATALOAD SWAP1 POP DUP8 DUP1 PUSH3 0x1A45 JUMP JUMPDEST PUSH1 0x6 DUP7 ADD DUP2 MSTORE PUSH1 0x20 DUP2 KECCAK256 SWAP1 SWAP5 POP SWAP2 JUMPDEST PUSH1 0x1F NOT DUP5 AND DUP6 LT PUSH3 0x1B87 JUMPI PUSH1 0x1 SWAP5 POP DUP4 PUSH1 0x1F NOT DUP2 AND LT PUSH3 0x1B6C JUMPI JUMPDEST POP POP POP DUP2 SHL ADD PUSH1 0x6 DUP3 ADD SSTORE PUSH3 0x1A5D JUMP JUMPDEST ADD CALLDATALOAD PUSH1 0x0 NOT PUSH1 0x3 DUP5 SWAP1 SHL PUSH1 0xF8 AND SHR NOT AND SWAP1 SSTORE DUP8 DUP1 DUP1 PUSH3 0x1B5B JUMP JUMPDEST DUP2 DUP2 ADD CALLDATALOAD DUP4 SSTORE PUSH1 0x20 SWAP5 DUP6 ADD SWAP5 PUSH1 0x1 SWAP1 SWAP4 ADD SWAP3 ADD PUSH3 0x1B3E JUMP JUMPDEST SWAP1 SWAP2 SWAP3 POP PUSH1 0x6 DUP6 ADD DUP4 MSTORE PUSH1 0x20 DUP4 KECCAK256 PUSH1 0x1F DUP6 ADD PUSH1 0x5 SHR DUP2 ADD PUSH1 0x20 DUP7 LT PUSH3 0x1BEF JUMPI JUMPDEST SWAP1 DUP6 SWAP5 SWAP4 SWAP3 SWAP2 JUMPDEST PUSH1 0x1F DUP4 ADD PUSH1 0x5 SHR DUP3 ADD DUP2 LT PUSH3 0x1BE0 JUMPI POP POP PUSH3 0x1A30 JUMP JUMPDEST DUP5 DUP2 SSTORE DUP7 SWAP6 POP PUSH1 0x1 ADD PUSH3 0x1BC8 JUMP JUMPDEST POP DUP1 PUSH3 0x1BC1 JUMP JUMPDEST PUSH4 0x4E487B71 PUSH1 0xE0 SHL DUP3 MSTORE PUSH1 0x41 PUSH1 0x4 MSTORE PUSH1 0x24 DUP3 REVERT JUMPDEST ADD CALLDATALOAD SWAP1 POP DUP11 DUP1 PUSH3 0x19ED JUMP JUMPDEST PUSH1 0x5 DUP9 ADD DUP7 MSTORE PUSH1 0x20 DUP7 KECCAK256 DUP7 SWAP5 POP SWAP2 JUMPDEST PUSH1 0x1F NOT DUP5 AND DUP6 LT PUSH3 0x1C6F JUMPI PUSH1 0x1 SWAP5 POP DUP4 PUSH1 0x1F NOT DUP2 AND LT PUSH3 0x1C54 JUMPI JUMPDEST POP POP POP DUP2 SHL ADD PUSH1 0x5 DUP6 ADD SSTORE PUSH3 0x1A05 JUMP JUMPDEST ADD CALLDATALOAD PUSH1 0x0 NOT PUSH1 0x3 DUP5 SWAP1 SHL PUSH1 0xF8 AND SHR NOT AND SWAP1 SSTORE DUP11 DUP1 DUP1 PUSH3 0x1C43 JUMP JUMPDEST DUP2 DUP2 ADD CALLDATALOAD DUP4 SSTORE PUSH1 0x20 SWAP5 DUP6 ADD SWAP5 PUSH1 0x1 SWAP1 SWAP4 ADD SWAP3 ADD PUSH3 0x1C26 JUMP JUMPDEST SWAP1 SWAP2 POP PUSH1 0x5 DUP8 ADD DUP6 MSTORE PUSH1 0x20 DUP6 KECCAK256 PUSH1 0x1F DUP5 ADD PUSH1 0x5 SHR DUP2 ADD PUSH1 0x20 DUP6 LT PUSH3 0x1CD5 JUMPI JUMPDEST SWAP1 DUP5 SWAP4 SWAP3 SWAP2 JUMPDEST PUSH1 0x1F DUP4 ADD PUSH1 0x5 SHR DUP3 ADD DUP2 LT PUSH3 0x1CC6 JUMPI POP POP PUSH3 0x19D6 JUMP JUMPDEST DUP8 DUP2 SSTORE DUP6 SWAP5 POP PUSH1 0x1 ADD PUSH3 0x1CAE JUMP JUMPDEST POP DUP1 PUSH3 0x1CA8 JUMP JUMPDEST PUSH4 0x4E487B71 PUSH1 0xE0 SHL DUP5 MSTORE PUSH1 0x41 PUSH1 0x4 MSTORE PUSH1 0x24 DUP5 REVERT JUMPDEST ADD CALLDATALOAD SWAP1 POP DUP13 DUP1 PUSH3 0x1994 JUMP JUMPDEST PUSH1 0x4 DUP11 ADD DUP9 MSTORE PUSH1 0x20 DUP9 KECCAK256 DUP9 SWAP5 POP SWAP2 JUMPDEST PUSH1 0x1F NOT DUP5 AND DUP6 LT PUSH3 0x1D55 JUMPI PUSH1 0x1 SWAP5 POP DUP4 PUSH1 0x1F NOT DUP2 AND LT PUSH3 0x1D3A JUMPI JUMPDEST POP POP POP DUP2 SHL ADD PUSH1 0x4 DUP8 ADD SSTORE PUSH3 0x19AC JUMP JUMPDEST ADD CALLDATALOAD PUSH1 0x0 NOT PUSH1 0x3 DUP5 SWAP1 SHL PUSH1 0xF8 AND SHR NOT AND SWAP1 SSTORE DUP13 DUP1 DUP1 PUSH3 0x1D29 JUMP JUMPDEST DUP2 DUP2 ADD CALLDATALOAD DUP4 SSTORE PUSH1 0x20 SWAP5 DUP6 ADD SWAP5 PUSH1 0x1 SWAP1 SWAP4 ADD SWAP3 ADD PUSH3 0x1D0C JUMP JUMPDEST SWAP1 SWAP2 POP PUSH1 0x4 DUP10 ADD DUP8 MSTORE PUSH1 0x20 DUP8 KECCAK256 PUSH1 0x1F DUP5 ADD PUSH1 0x5 SHR DUP2 ADD PUSH1 0x20 DUP6 LT PUSH3 0x1DBB JUMPI JUMPDEST SWAP1 DUP5 SWAP4 SWAP3 SWAP2 JUMPDEST PUSH1 0x1F DUP4 ADD PUSH1 0x5 SHR DUP3 ADD DUP2 LT PUSH3 0x1DAC JUMPI POP POP PUSH3 0x197D JUMP JUMPDEST DUP10 DUP2 SSTORE DUP6 SWAP5 POP PUSH1 0x1 ADD PUSH3 0x1D94 JUMP JUMPDEST POP DUP1 PUSH3 0x1D8E JUMP JUMPDEST ADD CALLDATALOAD SWAP1 POP DUP15 DUP1 PUSH3 0x193B JUMP JUMPDEST PUSH1 0x3 DUP13 ADD DUP11 MSTORE PUSH1 0x20 DUP11 KECCAK256 DUP11 SWAP5 POP SWAP2 JUMPDEST PUSH1 0x1F NOT DUP5 AND DUP6 LT PUSH3 0x1E27 JUMPI PUSH1 0x1 SWAP5 POP DUP4 PUSH1 0x1F NOT DUP2 AND LT PUSH3 0x1E0C JUMPI JUMPDEST POP POP POP DUP2 SHL ADD PUSH1 0x3 DUP10 ADD SSTORE PUSH3 0x1953 JUMP JUMPDEST ADD CALLDATALOAD PUSH1 0x0 NOT PUSH1 0x3 DUP5 SWAP1 SHL PUSH1 0xF8 AND SHR NOT AND SWAP1 SSTORE DUP15 DUP1 DUP1 PUSH3 0x1DFB JUMP JUMPDEST DUP2 DUP2 ADD CALLDATALOAD DUP4 SSTORE PUSH1 0x20 SWAP5 DUP6 ADD SWAP5 PUSH1 0x1 SWAP1 SWAP4 ADD SWAP3 ADD PUSH3 0x1DDE JUMP JUMPDEST SWAP1 SWAP2 POP PUSH1 0x3 DUP12 ADD DUP10 MSTORE PUSH1 0x20 DUP10 KECCAK256 PUSH1 0x1F DUP5 ADD PUSH1 0x5 SHR DUP2 ADD PUSH1 0x20 DUP6 LT PUSH3 0x1E8D JUMPI JUMPDEST SWAP1 DUP5 SWAP4 SWAP3 SWAP2 JUMPDEST PUSH1 0x1F DUP4 ADD PUSH1 0x5 SHR DUP3 ADD DUP2 LT PUSH3 0x1E7E JUMPI POP POP PUSH3 0x1924 JUMP JUMPDEST DUP12 DUP2 SSTORE DUP6 SWAP5 POP PUSH1 0x1 ADD PUSH3 0x1E66 JUMP JUMPDEST POP DUP1 PUSH3 0x1E60 JUMP JUMPDEST PUSH4 0x4E487B71 PUSH1 0xE0 SHL DUP9 MSTORE PUSH1 0x41 PUSH1 0x4 MSTORE PUSH1 0x24 DUP9 REVERT JUMPDEST PUSH1 0x1 PUSH1 0x1 PUSH1 0xA0 SHL SUB DUP12 AND EXTCODESIZE ISZERO PUSH3 0x10C2 JUMPI DUP6 DUP1 DUP13 PUSH1 0x4 PUSH1 0x40 MLOAD DUP1 SWAP5 DUP2 SWAP4 PUSH4 0x9485DC9 PUSH1 0xE2 SHL DUP4 MSTORE PUSH1 0x1 DUP1 PUSH1 0xA0 SHL SUB AND GAS CALL DUP1 ISZERO PUSH3 0x1FA6 JUMPI SWAP1 DUP8 SWAP2 PUSH3 0x1FFE JUMPI JUMPDEST POP POP PUSH1 0x4 PUSH1 0x20 DUP13 PUSH1 0x40 MLOAD SWAP3 DUP4 DUP1 SWAP3 PUSH4 0x6B456EF PUSH1 0xE2 SHL DUP3 MSTORE PUSH1 0x1 DUP1 PUSH1 0xA0 SHL SUB AND GAS STATICCALL SWAP1 DUP2 ISZERO PUSH3 0x1FA6 JUMPI DUP8 SWAP2 PUSH3 0x1FB5 JUMPI JUMPDEST POP PUSH1 0x1 PUSH1 0x1 PUSH1 0xA0 SHL SUB DUP2 AND PUSH3 0x1F34 JUMPI JUMPDEST POP PUSH3 0x184A JUMP JUMPDEST PUSH1 0x80 MLOAD PUSH1 0x1 PUSH1 0x1 PUSH1 0xA0 SHL SUB AND EXTCODESIZE ISZERO PUSH3 0x1FB1 JUMPI PUSH1 0x40 MLOAD PUSH4 0x15C6DEB9 PUSH1 0xE3 SHL DUP2 MSTORE PUSH1 0x1 PUSH1 0x1 PUSH1 0xA0 SHL SUB SWAP2 DUP3 AND PUSH1 0x4 DUP3 ADD MSTORE PUSH1 0x80 MLOAD SWAP1 SWAP2 DUP9 SWAP2 DUP4 SWAP2 PUSH1 0x24 SWAP2 DUP4 SWAP2 DUP6 SWAP2 AND GAS CALL DUP1 ISZERO PUSH3 0x1FA6 JUMPI SWAP1 DUP8 SWAP2 PUSH3 0x1F8E JUMPI JUMPDEST POP PUSH3 0x1F2D JUMP JUMPDEST PUSH3 0x1F99 SWAP1 PUSH3 0x2360 JUMP JUMPDEST PUSH3 0x10C2 JUMPI DUP6 DUP14 PUSH3 0x1F87 JUMP JUMPDEST PUSH1 0x40 MLOAD RETURNDATASIZE DUP10 DUP3 RETURNDATACOPY RETURNDATASIZE SWAP1 REVERT JUMPDEST DUP7 DUP1 REVERT JUMPDEST SWAP1 POP PUSH1 0x20 DUP2 RETURNDATASIZE PUSH1 0x20 GT PUSH3 0x1FF5 JUMPI JUMPDEST DUP2 PUSH3 0x1FD3 PUSH1 0x20 SWAP4 DUP4 PUSH3 0x2374 JUMP JUMPDEST DUP2 ADD SUB SLT PUSH3 0x1FB1 JUMPI MLOAD PUSH1 0x1 PUSH1 0x1 PUSH1 0xA0 SHL SUB DUP2 AND DUP2 SUB PUSH3 0x1FB1 JUMPI DUP14 PUSH3 0x1F1C JUMP JUMPDEST RETURNDATASIZE SWAP2 POP PUSH3 0x1FC4 JUMP JUMPDEST PUSH3 0x2009 SWAP1 PUSH3 0x2360 JUMP JUMPDEST PUSH3 0x10C2 JUMPI DUP6 DUP14 PUSH3 0x1EEA JUMP JUMPDEST PUSH3 0x2023 SWAP2 SWAP7 POP PUSH3 0x2360 JUMP JUMPDEST PUSH1 0x0 SWAP5 DUP13 PUSH3 0x1842 JUMP JUMPDEST PUSH1 0x40 MLOAD PUSH4 0xA9059CBB PUSH1 0xE0 SHL DUP2 MSTORE CALLER PUSH1 0x4 DUP3 ADD MSTORE PUSH2 0x2710 DUP12 DUP14 MUL DIV PUSH1 0x24 DUP3 ADD MSTORE PUSH1 0x80 MLOAD PUSH1 0x20 SWAP1 DUP3 SWAP1 PUSH1 0x44 SWAP1 DUP3 SWAP1 PUSH1 0x0 SWAP1 PUSH1 0x1 PUSH1 0x1 PUSH1 0xA0 SHL SUB AND GAS CALL SWAP1 DUP2 ISZERO PUSH3 0x113E JUMPI PUSH1 0x0 SWAP2 PUSH3 0x20BD JUMPI JUMPDEST POP PUSH3 0x17FC JUMPI PUSH1 0x40 MLOAD PUSH3 0x461BCD PUSH1 0xE5 SHL DUP2 MSTORE PUSH1 0x20 PUSH1 0x4 DUP3 ADD MSTORE PUSH1 0x17 PUSH1 0x24 DUP3 ADD MSTORE PUSH23 0x18DC99585D1BDC881D1C985B9CD9995C8819985A5B1959 PUSH1 0x4A SHL PUSH1 0x44 DUP3 ADD MSTORE PUSH1 0x64 SWAP1 REVERT JUMPDEST PUSH3 0x20DA SWAP2 POP PUSH1 0x20 RETURNDATASIZE PUSH1 0x20 GT PUSH3 0x1213 JUMPI PUSH3 0x1203 DUP2 DUP4 PUSH3 0x2374 JUMP JUMPDEST DUP15 PUSH3 0x2078 JUMP JUMPDEST PUSH3 0x20FE SWAP2 POP PUSH1 0x20 RETURNDATASIZE PUSH1 0x20 GT PUSH3 0x1213 JUMPI PUSH3 0x1203 DUP2 DUP4 PUSH3 0x2374 JUMP JUMPDEST DUP15 PUSH3 0x17E8 JUMP JUMPDEST PUSH1 0x40 MLOAD PUSH3 0x461BCD PUSH1 0xE5 SHL DUP2 MSTORE PUSH1 0x20 PUSH1 0x4 DUP3 ADD MSTORE PUSH1 0x13 PUSH1 0x24 DUP3 ADD MSTORE PUSH19 0xD8C2EADCC6D040CCCACA40DAD2E6DAC2E8C6D PUSH1 0x6B SHL PUSH1 0x44 DUP3 ADD MSTORE PUSH1 0x64 SWAP1 REVERT JUMPDEST CALLVALUE PUSH3 0x1B3 JUMPI PUSH1 0x20 CALLDATASIZE PUSH1 0x3 NOT ADD SLT PUSH3 0x1B3 JUMPI PUSH1 0x20 SWAP1 PUSH1 0x1 PUSH1 0x1 PUSH1 0xA0 SHL SUB DUP1 PUSH3 0x2169 PUSH3 0x217C JUMP JUMPDEST AND PUSH1 0x0 MSTORE PUSH1 0xB DUP4 MSTORE PUSH1 0x40 PUSH1 0x0 KECCAK256 SLOAD AND DUP2 MSTORE RETURN JUMPDEST PUSH1 0x4 CALLDATALOAD SWAP1 PUSH1 0x1 PUSH1 0x1 PUSH1 0xA0 SHL SUB DUP3 AND DUP3 SUB PUSH3 0x1B3 JUMPI JUMP JUMPDEST SWAP2 DUP2 PUSH1 0x1F DUP5 ADD SLT ISZERO PUSH3 0x1B3 JUMPI DUP3 CALLDATALOAD SWAP2 PUSH1 0x1 PUSH1 0x1 PUSH1 0x40 SHL SUB DUP4 GT PUSH3 0x1B3 JUMPI PUSH1 0x20 DUP4 DUP2 DUP7 ADD SWAP6 ADD ADD GT PUSH3 0x1B3 JUMPI JUMP JUMPDEST PUSH1 0xC0 PUSH1 0x3 NOT DUP3 ADD SLT PUSH3 0x1B3 JUMPI PUSH1 0x1 PUSH1 0x1 PUSH1 0x40 SHL SUB SWAP1 PUSH1 0x4 CALLDATALOAD DUP3 DUP2 GT PUSH3 0x1B3 JUMPI DUP2 PUSH3 0x21F3 SWAP2 PUSH1 0x4 ADD PUSH3 0x2193 JUMP JUMPDEST SWAP4 SWAP1 SWAP4 SWAP3 PUSH1 0x24 CALLDATALOAD DUP2 DUP2 GT PUSH3 0x1B3 JUMPI DUP4 PUSH3 0x2211 SWAP2 PUSH1 0x4 ADD PUSH3 0x2193 JUMP JUMPDEST SWAP4 SWAP1 SWAP4 SWAP3 PUSH1 0x44 CALLDATALOAD DUP4 DUP2 GT PUSH3 0x1B3 JUMPI DUP3 PUSH3 0x222F SWAP2 PUSH1 0x4 ADD PUSH3 0x2193 JUMP JUMPDEST SWAP4 SWAP1 SWAP4 SWAP3 PUSH1 0x64 CALLDATALOAD SWAP2 DUP3 GT PUSH3 0x1B3 JUMPI PUSH3 0x224C SWAP2 PUSH1 0x4 ADD PUSH3 0x2193 JUMP JUMPDEST SWAP1 SWAP2 PUSH1 0x84 CALLDATALOAD SWAP1 PUSH1 0xA4 CALLDATALOAD SWAP1 JUMP JUMPDEST SWAP2 SWAP1 DUP3 MLOAD SWAP3 DUP4 DUP3 MSTORE PUSH1 0x0 JUMPDEST DUP5 DUP2 LT PUSH3 0x2285 JUMPI POP POP DUP3 PUSH1 0x0 PUSH1 0x20 DUP1 SWAP5 SWAP6 DUP5 ADD ADD MSTORE PUSH1 0x1F DUP1 NOT SWAP2 ADD AND ADD ADD SWAP1 JUMP JUMPDEST PUSH1 0x20 DUP2 DUP4 ADD DUP2 ADD MLOAD DUP5 DUP4 ADD DUP3 ADD MSTORE ADD PUSH3 0x2263 JUMP JUMPDEST SWAP1 PUSH3 0x2320 PUSH3 0x230D PUSH3 0x22FA PUSH3 0x22E7 PUSH2 0x140 PUSH1 0x1 DUP1 PUSH1 0xA0 SHL SUB DUP1 DUP9 MLOAD AND DUP8 MSTORE DUP1 PUSH1 0x20 DUP10 ADD MLOAD AND PUSH1 0x20 DUP9 ADD MSTORE PUSH1 0x40 DUP9 ADD MLOAD AND PUSH1 0x40 DUP8 ADD MSTORE PUSH1 0x60 DUP8 ADD MLOAD SWAP1 DUP1 PUSH1 0x60 DUP9 ADD MSTORE DUP7 ADD SWAP1 PUSH3 0x2258 JUMP JUMPDEST PUSH1 0x80 DUP7 ADD MLOAD DUP6 DUP3 SUB PUSH1 0x80 DUP8 ADD MSTORE PUSH3 0x2258 JUMP JUMPDEST PUSH1 0xA0 DUP6 ADD MLOAD DUP5 DUP3 SUB PUSH1 0xA0 DUP7 ADD MSTORE PUSH3 0x2258 JUMP JUMPDEST PUSH1 0xC0 DUP5 ADD MLOAD DUP4 DUP3 SUB PUSH1 0xC0 DUP6 ADD MSTORE PUSH3 0x2258 JUMP JUMPDEST SWAP2 PUSH1 0xE0 DUP2 ADD MLOAD PUSH1 0xE0 DUP4 ADD MSTORE PUSH2 0x100 DUP1 DUP3 ADD MLOAD SWAP1 DUP4 ADD MSTORE PUSH2 0x120 DUP1 SWAP2 ADD MLOAD SWAP2 ADD MSTORE SWAP1 JUMP JUMPDEST PUSH2 0x140 DUP2 ADD SWAP1 DUP2 LT PUSH1 0x1 PUSH1 0x1 PUSH1 0x40 SHL SUB DUP3 GT OR PUSH3 0x1291 JUMPI PUSH1 0x40 MSTORE JUMP JUMPDEST PUSH1 0x1 PUSH1 0x1 PUSH1 0x40 SHL SUB DUP2 GT PUSH3 0x1291 JUMPI PUSH1 0x40 MSTORE JUMP JUMPDEST SWAP1 PUSH1 0x1F DUP1 NOT SWAP2 ADD AND DUP2 ADD SWAP1 DUP2 LT PUSH1 0x1 PUSH1 0x1 PUSH1 0x40 SHL SUB DUP3 GT OR PUSH3 0x1291 JUMPI PUSH1 0x40 MSTORE JUMP JUMPDEST PUSH1 0x40 MLOAD SWAP1 PUSH3 0x23A5 DUP3 PUSH3 0x2343 JUMP JUMPDEST DUP2 PUSH2 0x120 PUSH1 0x0 SWAP2 DUP3 DUP2 MSTORE DUP3 PUSH1 0x20 DUP3 ADD MSTORE DUP3 PUSH1 0x40 DUP3 ADD MSTORE PUSH1 0x60 DUP1 DUP3 ADD MSTORE PUSH1 0x60 PUSH1 0x80 DUP3 ADD MSTORE PUSH1 0x60 PUSH1 0xA0 DUP3 ADD MSTORE PUSH1 0x60 PUSH1 0xC0 DUP3 ADD MSTORE DUP3 PUSH1 0xE0 DUP3 ADD MSTORE DUP3 PUSH2 0x100 DUP3 ADD MSTORE ADD MSTORE JUMP JUMPDEST PUSH1 0xA SLOAD DUP2 LT ISZERO PUSH3 0x2422 JUMPI PUSH1 0xA SWAP1 DUP2 PUSH1 0x0 MSTORE MUL PUSH32 0xC65A7BB8D6351C1CF70C95A316CC6A92839C986682D98BC35F958F4883F9D2A8 ADD SWAP1 PUSH1 0x0 SWAP1 JUMP JUMPDEST PUSH4 0x4E487B71 PUSH1 0xE0 SHL PUSH1 0x0 MSTORE PUSH1 0x32 PUSH1 0x4 MSTORE PUSH1 0x24 PUSH1 0x0 REVERT JUMPDEST SWAP1 PUSH1 0x1 DUP3 DUP2 SHR SWAP3 AND DUP1 ISZERO PUSH3 0x246A JUMPI JUMPDEST PUSH1 0x20 DUP4 LT EQ PUSH3 0x2454 JUMPI JUMP JUMPDEST PUSH4 0x4E487B71 PUSH1 0xE0 SHL PUSH1 0x0 MSTORE PUSH1 0x22 PUSH1 0x4 MSTORE PUSH1 0x24 PUSH1 0x0 REVERT JUMPDEST SWAP2 PUSH1 0x7F AND SWAP2 PUSH3 0x2448 JUMP JUMPDEST SWAP1 PUSH1 0x40 MLOAD SWAP2 DUP3 PUSH1 0x0 DUP3 SLOAD PUSH3 0x248A DUP2 PUSH3 0x2438 JUMP JUMPDEST SWAP1 DUP2 DUP5 MSTORE PUSH1 0x20 SWAP5 PUSH1 0x1 SWAP2 PUSH1 0x1 DUP2 AND SWAP1 DUP2 PUSH1 0x0 EQ PUSH3 0x2502 JUMPI POP PUSH1 0x1 EQ PUSH3 0x24BF JUMPI JUMPDEST POP POP POP PUSH3 0x24BD SWAP3 POP SUB DUP4 PUSH3 0x2374 JUMP JUMPDEST JUMP JUMPDEST PUSH1 0x0 SWAP1 DUP2 MSTORE DUP6 DUP2 KECCAK256 SWAP6 SWAP4 POP SWAP2 SWAP1 JUMPDEST DUP2 DUP4 LT PUSH3 0x24E9 JUMPI POP POP PUSH3 0x24BD SWAP4 POP DUP3 ADD ADD CODESIZE DUP1 DUP1 PUSH3 0x24AC JUMP JUMPDEST DUP6 SLOAD DUP9 DUP5 ADD DUP6 ADD MSTORE SWAP5 DUP6 ADD SWAP5 DUP8 SWAP5 POP SWAP2 DUP4 ADD SWAP2 PUSH3 0x24CD JUMP JUMPDEST SWAP3 POP POP POP PUSH3 0x24BD SWAP5 SWAP3 POP PUSH1 0xFF NOT AND DUP3 DUP5 ADD MSTORE ISZERO ISZERO PUSH1 0x5 SHL DUP3 ADD ADD CODESIZE DUP1 DUP1 PUSH3 0x24AC JUMP JUMPDEST SWAP1 PUSH1 0x40 MLOAD PUSH3 0x2535 DUP2 PUSH3 0x2343 JUMP JUMPDEST PUSH2 0x120 PUSH1 0x9 DUP3 SWAP5 PUSH1 0x1 DUP1 PUSH1 0xA0 SHL SUB DUP1 DUP3 SLOAD AND DUP6 MSTORE DUP1 PUSH1 0x1 DUP4 ADD SLOAD AND PUSH1 0x20 DUP7 ADD MSTORE PUSH1 0x2 DUP3 ADD SLOAD AND PUSH1 0x40 DUP6 ADD MSTORE PUSH3 0x256E PUSH1 0x3 DUP3 ADD PUSH3 0x2475 JUMP JUMPDEST PUSH1 0x60 DUP6 ADD MSTORE PUSH3 0x2581 PUSH1 0x4 DUP3 ADD PUSH3 0x2475 JUMP JUMPDEST PUSH1 0x80 DUP6 ADD MSTORE PUSH3 0x2594 PUSH1 0x5 DUP3 ADD PUSH3 0x2475 JUMP JUMPDEST PUSH1 0xA0 DUP6 ADD MSTORE PUSH3 0x25A7 PUSH1 0x6 DUP3 ADD PUSH3 0x2475 JUMP JUMPDEST PUSH1 0xC0 DUP6 ADD MSTORE PUSH1 0x7 DUP2 ADD SLOAD PUSH1 0xE0 DUP6 ADD MSTORE PUSH1 0x8 DUP2 ADD SLOAD PUSH2 0x100 DUP6 ADD MSTORE ADD SLOAD SWAP2 ADD MSTORE JUMP JUMPDEST SWAP2 SWAP1 DUP3 SUB SWAP2 DUP3 GT PUSH3 0x127B JUMPI JUMP JUMPDEST PUSH1 0x1 PUSH1 0x1 PUSH1 0x40 SHL SUB DUP2 GT PUSH3 0x1291 JUMPI PUSH1 0x5 SHL PUSH1 0x20 ADD SWAP1 JUMP JUMPDEST DUP1 MLOAD DUP3 LT ISZERO PUSH3 0x2422 JUMPI PUSH1 0x20 SWAP2 PUSH1 0x5 SHL ADD ADD SWAP1 JUMP JUMPDEST PUSH1 0xA SLOAD SWAP3 SWAP2 DUP4 DUP3 LT ISZERO PUSH3 0x26E2 JUMPI DUP2 ADD SWAP3 DUP4 DUP3 GT PUSH3 0x127B JUMPI DUP1 DUP5 GT PUSH3 0x26D9 JUMPI JUMPDEST POP PUSH3 0x2632 DUP2 DUP5 PUSH3 0x25C8 JUMP JUMPDEST SWAP3 PUSH3 0x263E DUP5 PUSH3 0x25D6 JUMP JUMPDEST SWAP4 PUSH3 0x264E PUSH1 0x40 MLOAD SWAP6 DUP7 PUSH3 0x2374 JUMP JUMPDEST DUP1 DUP6 MSTORE PUSH3 0x265F PUSH1 0x1F NOT SWAP2 PUSH3 0x25D6 JUMP JUMPDEST ADD PUSH1 0x0 JUMPDEST DUP2 DUP2 LT PUSH3 0x26BF JUMPI POP POP DUP4 PUSH1 0x0 JUMPDEST DUP3 DUP5 LT PUSH3 0x267F JUMPI POP POP POP POP JUMP JUMPDEST PUSH3 0x268E PUSH3 0x1515 DUP6 PUSH3 0x23E7 JUMP JUMPDEST PUSH3 0x269A DUP3 DUP5 PUSH3 0x25EE JUMP JUMPDEST MSTORE PUSH3 0x26A7 DUP2 DUP4 PUSH3 0x25EE JUMP JUMPDEST POP PUSH1 0x0 NOT DUP2 EQ PUSH3 0x127B JUMPI PUSH1 0x1 SWAP4 DUP5 ADD SWAP4 ADD PUSH3 0x2671 JUMP JUMPDEST PUSH1 0x20 SWAP1 PUSH3 0x26CC PUSH3 0x2396 JUMP JUMPDEST DUP3 DUP3 DUP10 ADD ADD MSTORE ADD PUSH3 0x2663 JUMP JUMPDEST SWAP3 POP CODESIZE PUSH3 0x2625 JUMP JUMPDEST POP POP SWAP1 POP PUSH1 0x40 MLOAD PUSH1 0x20 DUP2 ADD DUP2 DUP2 LT PUSH1 0x1 PUSH1 0x1 PUSH1 0x40 SHL SUB DUP3 GT OR PUSH3 0x1291 JUMPI PUSH1 0x40 MSTORE PUSH1 0x0 DUP2 MSTORE SWAP1 JUMP JUMPDEST ISZERO PUSH3 0x2712 JUMPI JUMP JUMPDEST PUSH1 0x40 MLOAD PUSH3 0x461BCD PUSH1 0xE5 SHL DUP2 MSTORE PUSH1 0x20 PUSH1 0x4 DUP3 ADD MSTORE PUSH1 0xA PUSH1 0x24 DUP3 ADD MSTORE PUSH10 0x37B7363C9037BBB732B9 PUSH1 0xB1 SHL PUSH1 0x44 DUP3 ADD MSTORE PUSH1 0x64 SWAP1 REVERT JUMPDEST PUSH1 0x4 SLOAD DUP1 CALLVALUE LT PUSH3 0x2831 JUMPI DUP1 ISZERO PUSH3 0x282E JUMPI PUSH1 0x0 DUP1 DUP1 DUP1 DUP1 PUSH1 0x1 DUP1 PUSH1 0xA0 SHL SUB SWAP6 DUP7 PUSH1 0x2 SLOAD AND GAS CALL SWAP1 RETURNDATASIZE ISZERO PUSH3 0x2827 JUMPI RETURNDATASIZE SWAP1 PUSH1 0x1 PUSH1 0x1 PUSH1 0x40 SHL SUB DUP3 GT PUSH3 0xD6A JUMPI PUSH1 0x40 MLOAD SWAP2 PUSH3 0x279E PUSH1 0x1F DUP3 ADD PUSH1 0x1F NOT AND PUSH1 0x20 ADD DUP5 PUSH3 0x2374 JUMP JUMPDEST DUP3 MSTORE PUSH1 0x20 RETURNDATASIZE SWAP3 ADD RETURNDATACOPY JUMPDEST ISZERO PUSH3 0x27E2 JUMPI PUSH1 0x2 SLOAD AND PUSH1 0x4 SLOAD PUSH1 0x40 MLOAD SWAP1 DUP2 MSTORE PUSH32 0x4CEF2D27CDF43D743C3C66401182E93989938E77D1BE10F3AB9E6AFDF799F839 PUSH1 0x20 CALLER SWAP3 LOG3 JUMP JUMPDEST PUSH1 0x40 MLOAD PUSH3 0x461BCD PUSH1 0xE5 SHL DUP2 MSTORE PUSH1 0x20 PUSH1 0x4 DUP3 ADD MSTORE PUSH1 0x1A PUSH1 0x24 DUP3 ADD MSTORE PUSH32 0x6C61756E636820666565207472616E73666572206661696C6564000000000000 PUSH1 0x44 DUP3 ADD MSTORE PUSH1 0x64 SWAP1 REVERT JUMPDEST POP PUSH3 0x27A7 JUMP JUMPDEST POP JUMP JUMPDEST PUSH1 0x40 MLOAD PUSH3 0x461BCD PUSH1 0xE5 SHL DUP2 MSTORE PUSH1 0x20 PUSH1 0x4 DUP3 ADD MSTORE PUSH1 0x17 PUSH1 0x24 DUP3 ADD MSTORE PUSH32 0x696E73756666696369656E74206C61756E636820666565000000000000000000 PUSH1 0x44 DUP3 ADD MSTORE PUSH1 0x64 SWAP1 REVERT JUMPDEST SWAP1 DUP1 PUSH1 0x20 SWAP4 SWAP3 DUP2 DUP5 MSTORE DUP5 DUP5 ADD CALLDATACOPY PUSH1 0x0 DUP3 DUP3 ADD DUP5 ADD MSTORE PUSH1 0x1F ADD PUSH1 0x1F NOT AND ADD ADD SWAP1 JUMP JUMPDEST SWAP1 DUP2 PUSH1 0x20 SWAP2 SUB SLT PUSH3 0x1B3 JUMPI MLOAD DUP1 ISZERO ISZERO DUP2 SUB PUSH3 0x1B3 JUMPI SWAP1 JUMP INVALID PUSH1 0x1F PUSH3 0x1E5E CODESIZE DUP2 SWAP1 SUB SWAP2 DUP3 ADD PUSH1 0x1F NOT AND PUSH2 0x100 SWAP1 DUP2 ADD SWAP3 SWAP1 SWAP2 PUSH1 0x1 PUSH1 0x1 PUSH1 0x40 SHL SUB DUP5 GT DUP4 DUP6 LT OR PUSH3 0x3B2 JUMPI DUP2 PUSH2 0x120 SWAP3 DUP5 SWAP3 PUSH1 0x40 SWAP7 DUP8 MSTORE DUP4 CODECOPY DUP2 ADD SUB SLT PUSH3 0x3AD JUMPI PUSH3 0x4E DUP2 PUSH3 0x3C8 JUMP JUMPDEST PUSH1 0x20 SWAP1 PUSH3 0x5E DUP3 DUP5 ADD PUSH3 0x3C8 JUMP JUMPDEST SWAP2 PUSH3 0x6C DUP6 DUP6 ADD PUSH3 0x3C8 JUMP JUMPDEST SWAP3 PUSH1 0x60 DUP6 ADD MLOAD PUSH1 0x80 DUP7 ADD MLOAD PUSH1 0xA0 DUP8 ADD MLOAD SWAP2 PUSH1 0xC0 DUP9 ADD MLOAD SWAP4 PUSH3 0xA0 PUSH2 0x100 PUSH3 0x98 PUSH1 0xE0 DUP13 ADD PUSH3 0x3C8 JUMP JUMPDEST SWAP11 ADD PUSH3 0x3C8 JUMP JUMPDEST PUSH1 0x1 PUSH1 0x1 PUSH1 0xA0 SHL SUB SWAP9 SWAP1 SWAP8 SWAP1 DUP10 DUP3 AND ISZERO PUSH3 0x378 JUMPI DUP10 DUP4 AND ISZERO PUSH3 0x341 JUMPI DUP10 AND SWAP10 DUP11 ISZERO PUSH3 0x2FD JUMPI PUSH2 0x12C DUP5 GT PUSH3 0x2CA JUMPI DUP5 ISZERO PUSH3 0x286 JUMPI DUP6 ISZERO PUSH3 0x242 JUMPI DUP7 ISZERO PUSH3 0x20C JUMPI DUP10 AND SWAP7 DUP8 PUSH3 0x1C1 JUMPI JUMPDEST POP PUSH1 0xA0 MSTORE PUSH1 0x80 MSTORE PUSH1 0x1 DUP1 PUSH1 0xA0 SHL SUB NOT SWAP8 DUP9 PUSH1 0x0 SLOAD AND OR PUSH1 0x0 SSTORE PUSH1 0x1 SSTORE PUSH1 0xC0 MSTORE PUSH1 0xE0 MSTORE PUSH1 0x4 SSTORE DUP4 PUSH1 0x5 SLOAD AND OR PUSH1 0x5 SSTORE AND SWAP1 PUSH1 0x6 SLOAD AND OR PUSH1 0x6 SSTORE CALLVALUE PUSH1 0x2 SSTORE MLOAD PUSH2 0x1A80 SWAP1 DUP2 PUSH3 0x3DE DUP3 CODECOPY PUSH1 0x80 MLOAD DUP2 DUP2 DUP2 PUSH2 0x723 ADD MSTORE DUP2 DUP2 PUSH2 0x7A5 ADD MSTORE DUP2 DUP2 PUSH2 0x968 ADD MSTORE DUP2 DUP2 PUSH2 0xCBC ADD MSTORE PUSH2 0xDD4 ADD MSTORE PUSH1 0xA0 MLOAD DUP2 DUP2 DUP2 PUSH2 0x161 ADD MSTORE DUP2 DUP2 PUSH2 0x2F8 ADD MSTORE DUP2 DUP2 PUSH2 0x545 ADD MSTORE DUP2 DUP2 PUSH2 0x802 ADD MSTORE PUSH2 0x148A ADD MSTORE PUSH1 0xC0 MLOAD DUP2 DUP2 DUP2 PUSH2 0xAC4 ADD MSTORE DUP2 DUP2 PUSH2 0x1104 ADD MSTORE DUP2 DUP2 PUSH2 0x1931 ADD MSTORE PUSH2 0x19C7 ADD MSTORE PUSH1 0xE0 MLOAD DUP2 DUP2 DUP2 PUSH2 0xC43 ADD MSTORE DUP2 DUP2 PUSH2 0x10D1 ADD MSTORE DUP2 DUP2 PUSH2 0x1966 ADD MSTORE PUSH2 0x19F8 ADD MSTORE RETURN JUMPDEST DUP10 DUP10 AND PUSH3 0xF1 JUMPI PUSH1 0x64 SWAP1 DUP13 MLOAD SWAP1 PUSH3 0x461BCD PUSH1 0xE5 SHL DUP3 MSTORE PUSH1 0x4 DUP3 ADD MSTORE PUSH1 0x15 PUSH1 0x24 DUP3 ADD MSTORE PUSH32 0x6C7020726563697069656E742072657175697265640000000000000000000000 PUSH1 0x44 DUP3 ADD MSTORE REVERT JUMPDEST DUP12 MLOAD PUSH3 0x461BCD PUSH1 0xE5 SHL DUP2 MSTORE PUSH1 0x4 DUP2 ADD DUP10 SWAP1 MSTORE PUSH1 0xF PUSH1 0x24 DUP3 ADD MSTORE PUSH15 0x1D185C99D95D081C995C5D5A5C9959 PUSH1 0x8A SHL PUSH1 0x44 DUP3 ADD MSTORE PUSH1 0x64 SWAP1 REVERT JUMPDEST DUP12 MLOAD PUSH3 0x461BCD PUSH1 0xE5 SHL DUP2 MSTORE PUSH1 0x4 DUP2 ADD DUP10 SWAP1 MSTORE PUSH1 0x16 PUSH1 0x24 DUP3 ADD MSTORE PUSH32 0x7669727475616C20746F6B656E20726571756972656400000000000000000000 PUSH1 0x44 DUP3 ADD MSTORE PUSH1 0x64 SWAP1 REVERT JUMPDEST DUP12 MLOAD PUSH3 0x461BCD PUSH1 0xE5 SHL DUP2 MSTORE PUSH1 0x4 DUP2 ADD DUP10 SWAP1 MSTORE PUSH1 0x14 PUSH1 0x24 DUP3 ADD MSTORE PUSH32 0x7669727475616C20657468207265717569726564000000000000000000000000 PUSH1 0x44 DUP3 ADD MSTORE PUSH1 0x64 SWAP1 REVERT JUMPDEST DUP12 MLOAD PUSH3 0x461BCD PUSH1 0xE5 SHL DUP2 MSTORE PUSH1 0x4 DUP2 ADD DUP10 SWAP1 MSTORE PUSH1 0xC PUSH1 0x24 DUP3 ADD MSTORE PUSH12 0xCCCACA40E8DEDE40D0D2CED PUSH1 0xA3 SHL PUSH1 0x44 DUP3 ADD MSTORE PUSH1 0x64 SWAP1 REVERT JUMPDEST DUP12 MLOAD PUSH3 0x461BCD PUSH1 0xE5 SHL DUP2 MSTORE PUSH1 0x4 DUP2 ADD DUP10 SWAP1 MSTORE PUSH1 0x16 PUSH1 0x24 DUP3 ADD MSTORE PUSH32 0x66656520726563697069656E7420726571756972656400000000000000000000 PUSH1 0x44 DUP3 ADD MSTORE PUSH1 0x64 SWAP1 REVERT JUMPDEST DUP12 MLOAD PUSH3 0x461BCD PUSH1 0xE5 SHL DUP2 MSTORE PUSH1 0x4 DUP2 ADD DUP10 SWAP1 MSTORE PUSH1 0x10 PUSH1 0x24 DUP3 ADD MSTORE PUSH16 0x199858DD1BDC9E481C995C5D5A5C9959 PUSH1 0x82 SHL PUSH1 0x44 DUP3 ADD MSTORE PUSH1 0x64 SWAP1 REVERT JUMPDEST DUP12 MLOAD PUSH3 0x461BCD PUSH1 0xE5 SHL DUP2 MSTORE PUSH1 0x4 DUP2 ADD DUP10 SWAP1 MSTORE PUSH1 0xE PUSH1 0x24 DUP3 ADD MSTORE PUSH14 0x1D1BDAD95B881C995C5D5A5C9959 PUSH1 0x92 SHL PUSH1 0x44 DUP3 ADD MSTORE PUSH1 0x64 SWAP1 REVERT JUMPDEST PUSH1 0x0 DUP1 REVERT JUMPDEST PUSH4 0x4E487B71 PUSH1 0xE0 SHL PUSH1 0x0 MSTORE PUSH1 0x41 PUSH1 0x4 MSTORE PUSH1 0x24 PUSH1 0x0 REVERT JUMPDEST MLOAD SWAP1 PUSH1 0x1 PUSH1 0x1 PUSH1 0xA0 SHL SUB DUP3 AND DUP3 SUB PUSH3 0x3AD JUMPI JUMP INVALID PUSH1 0x80 PUSH1 0x40 DUP2 DUP2 MSTORE PUSH1 0x4 SWAP2 DUP3 CALLDATASIZE LT ISZERO PUSH2 0x16 JUMPI PUSH1 0x0 DUP1 REVERT JUMPDEST PUSH1 0x0 SWAP3 DUP4 CALLDATALOAD PUSH1 0xE0 SHR SWAP2 DUP3 PUSH4 0x758D924 EQ PUSH2 0xF00 JUMPI POP DUP2 PUSH4 0x1AD15BBC EQ PUSH2 0xED7 JUMPI DUP2 PUSH4 0x24A9D853 EQ PUSH2 0xEB8 JUMPI DUP2 PUSH4 0x25217724 EQ PUSH2 0xDBC JUMPI DUP2 PUSH4 0x2760ECA1 EQ PUSH2 0xD9F JUMPI DUP2 PUSH4 0x2A2C6972 EQ PUSH2 0xC8D JUMPI DUP2 PUSH4 0x334041A6 EQ PUSH2 0xC66 JUMPI DUP2 PUSH4 0x343EE3B7 EQ PUSH2 0xC2B JUMPI DUP2 PUSH4 0x398482D8 EQ PUSH2 0xC07 JUMPI DUP2 PUSH4 0x4329742D EQ PUSH2 0xB57 JUMPI DUP2 PUSH4 0x452E68DD EQ PUSH2 0xB2E JUMPI DUP2 PUSH4 0x46904840 EQ PUSH2 0xB06 JUMPI DUP2 PUSH4 0x4BEB394C EQ PUSH2 0xAE7 JUMPI DUP2 PUSH4 0x52B86D2B EQ PUSH2 0xAAC JUMPI DUP2 PUSH4 0x7F544E49 EQ PUSH2 0xA8D JUMPI DUP2 PUSH4 0x8C575AA3 EQ PUSH2 0x92B JUMPI DUP2 PUSH4 0x95564837 EQ PUSH2 0x77D JUMPI DUP2 PUSH4 0xA64190C4 EQ PUSH2 0x752 JUMPI DUP2 PUSH4 0xC45A0155 EQ PUSH2 0x70E JUMPI DUP2 PUSH4 0xCBCB3171 EQ PUSH2 0x6EF JUMPI DUP2 PUSH4 0xD62CCB3F EQ PUSH2 0x6D0 JUMPI DUP2 PUSH4 0xD79875EB EQ PUSH2 0x463 JUMPI DUP2 PUSH4 0xD96A094A EQ PUSH2 0x1FA JUMPI DUP2 PUSH4 0xE1A45218 EQ PUSH2 0x1DD JUMPI DUP2 PUSH4 0xE7C2B772 EQ PUSH2 0x1B6 JUMPI DUP2 PUSH4 0xF95A02D0 EQ PUSH2 0x194 JUMPI POP PUSH4 0xFC0C546A EQ PUSH2 0x14E JUMPI PUSH1 0x0 DUP1 REVERT JUMPDEST CALLVALUE PUSH2 0x190 JUMPI DUP2 PUSH1 0x3 NOT CALLDATASIZE ADD SLT PUSH2 0x190 JUMPI MLOAD PUSH32 0x0 PUSH1 0x1 PUSH1 0x1 PUSH1 0xA0 SHL SUB AND DUP2 MSTORE PUSH1 0x20 SWAP1 RETURN JUMPDEST POP DUP1 REVERT JUMPDEST SWAP1 POP CALLVALUE PUSH2 0x1B2 JUMPI DUP3 PUSH1 0x3 NOT CALLDATASIZE ADD SLT PUSH2 0x1B2 JUMPI PUSH1 0x20 SWAP3 POP SLOAD SWAP1 MLOAD SWAP1 DUP2 MSTORE RETURN JUMPDEST DUP3 DUP1 REVERT JUMPDEST POP POP CALLVALUE PUSH2 0x190 JUMPI DUP2 PUSH1 0x3 NOT CALLDATASIZE ADD SLT PUSH2 0x190 JUMPI PUSH1 0x20 SWAP1 PUSH1 0xFF PUSH1 0x6 SLOAD PUSH1 0xA8 SHR AND SWAP1 MLOAD SWAP1 ISZERO ISZERO DUP2 MSTORE RETURN JUMPDEST POP POP CALLVALUE PUSH2 0x190 JUMPI DUP2 PUSH1 0x3 NOT CALLDATASIZE ADD SLT PUSH2 0x190 JUMPI PUSH1 0x20 SWAP1 MLOAD PUSH2 0x2710 DUP2 MSTORE RETURN JUMPDEST SWAP2 SWAP1 POP PUSH1 0x20 SWAP3 DUP4 PUSH1 0x3 NOT CALLDATASIZE ADD SLT PUSH2 0x460 JUMPI PUSH1 0x6 SLOAD SWAP1 PUSH2 0x21F PUSH1 0xFF DUP4 PUSH1 0xB0 SHR AND ISZERO PUSH2 0xF7B JUMP JUMPDEST PUSH1 0xFF PUSH1 0xB0 SHL NOT SWAP2 DUP3 AND PUSH1 0x1 PUSH1 0xB0 SHL OR PUSH1 0x6 DUP2 SWAP1 SSTORE PUSH2 0x253 SWAP1 PUSH1 0xFF SWAP1 PUSH2 0x249 PUSH1 0xA0 DUP3 SWAP1 SHR DUP4 AND PUSH2 0xFB4 JUMP JUMPDEST PUSH1 0xA8 SHR AND ISZERO PUSH2 0x129A JUMP JUMPDEST CALLVALUE ISZERO PUSH2 0x42E JUMPI PUSH2 0x2710 PUSH2 0x268 PUSH1 0x1 SLOAD CALLVALUE PUSH2 0x1032 JUMP JUMPDEST DIV SWAP1 PUSH2 0x274 DUP3 CALLVALUE PUSH2 0x1150 JUMP JUMPDEST SWAP5 PUSH2 0x27E DUP7 PUSH2 0x1923 JUMP JUMPDEST SWAP6 PUSH2 0x28A DUP8 ISZERO ISZERO PUSH2 0x12D2 JUMP JUMPDEST PUSH2 0x297 DUP3 CALLDATALOAD DUP9 LT ISZERO PUSH2 0x1314 JUMP JUMPDEST PUSH1 0x3 SLOAD SWAP1 DUP2 DUP9 GT PUSH2 0x3F2 JUMPI PUSH2 0x2F3 SWAP3 PUSH2 0x2C1 DUP10 DUP12 SWAP5 PUSH2 0x2B9 DUP3 SWAP6 PUSH1 0x2 SLOAD PUSH2 0x10BC JUMP JUMPDEST PUSH1 0x2 SSTORE PUSH2 0x1150 JUMP JUMPDEST PUSH1 0x3 SSTORE DUP6 PUSH2 0x3CB JUMPI JUMPDEST DUP8 MLOAD PUSH4 0xA9059CBB PUSH1 0xE0 SHL DUP2 MSTORE CALLER SWAP2 DUP2 ADD SWAP2 DUP3 MSTORE PUSH1 0x20 DUP3 ADD SWAP3 SWAP1 SWAP3 MSTORE SWAP1 SWAP3 DUP4 SWAP2 DUP3 SWAP2 PUSH1 0x40 SWAP1 SWAP2 ADD SWAP1 JUMP JUMPDEST SUB DUP2 DUP6 PUSH32 0x0 PUSH1 0x1 PUSH1 0x1 PUSH1 0xA0 SHL SUB AND GAS CALL SWAP2 DUP3 ISZERO PUSH2 0x3C0 JUMPI SWAP1 PUSH2 0x339 SWAP3 PUSH2 0x393 JUMPI JUMPDEST POP PUSH2 0x1363 JUMP JUMPDEST PUSH32 0xBEAE048C6D270D9469F86CF6E8FEDDA3C60AD770F16C24C9FC131C8E9A09101D DUP4 MLOAD DUP1 PUSH2 0x37B DUP8 CALLER SWAP6 CALLVALUE DUP5 PUSH1 0x40 SWAP2 SWAP5 SWAP4 SWAP3 PUSH1 0x60 DUP3 ADD SWAP6 DUP3 MSTORE PUSH1 0x20 DUP3 ADD MSTORE ADD MSTORE JUMP JUMPDEST SUB SWAP1 LOG2 PUSH2 0x386 PUSH2 0x1A28 JUMP JUMPDEST PUSH1 0x6 SLOAD AND PUSH1 0x6 SSTORE MLOAD SWAP1 DUP2 MSTORE RETURN JUMPDEST PUSH2 0x3B3 SWAP2 POP DUP8 RETURNDATASIZE DUP10 GT PUSH2 0x3B9 JUMPI JUMPDEST PUSH2 0x3AB DUP2 DUP4 PUSH2 0x1204 JUMP JUMPDEST DUP2 ADD SWAP1 PUSH2 0x134B JUMP JUMPDEST CODESIZE PUSH2 0x333 JUMP JUMPDEST POP RETURNDATASIZE PUSH2 0x3A1 JUMP JUMPDEST DUP6 MLOAD SWAP1 RETURNDATASIZE SWAP1 DUP3 RETURNDATACOPY RETURNDATASIZE SWAP1 REVERT JUMPDEST PUSH2 0x3ED DUP6 DUP1 DUP1 DUP1 DUP11 PUSH1 0x1 DUP1 PUSH1 0xA0 SHL SUB DUP3 SLOAD AND GAS CALL PUSH2 0x3E7 PUSH2 0x13A7 JUMP JUMPDEST POP PUSH2 0x13E7 JUMP JUMPDEST PUSH2 0x2CA JUMP JUMPDEST DUP7 MLOAD PUSH3 0x461BCD PUSH1 0xE5 SHL DUP2 MSTORE DUP1 DUP5 ADD DUP11 SWAP1 MSTORE PUSH1 0x16 PUSH1 0x24 DUP3 ADD MSTORE PUSH22 0x696E73756666696369656E74206C6971756964697479 PUSH1 0x50 SHL PUSH1 0x44 DUP3 ADD MSTORE PUSH1 0x64 SWAP1 REVERT JUMPDEST DUP3 MLOAD PUSH3 0x461BCD PUSH1 0xE5 SHL DUP2 MSTORE DUP1 DUP6 ADD DUP7 SWAP1 MSTORE PUSH1 0xC PUSH1 0x24 DUP3 ADD MSTORE PUSH12 0x195D1A081C995C5D5A5C9959 PUSH1 0xA2 SHL PUSH1 0x44 DUP3 ADD MSTORE PUSH1 0x64 SWAP1 REVERT JUMPDEST DUP1 REVERT JUMPDEST SWAP2 SWAP1 POP CALLVALUE PUSH2 0x1B2 JUMPI DUP1 PUSH1 0x3 NOT CALLDATASIZE ADD SLT PUSH2 0x1B2 JUMPI DUP2 CALLDATALOAD PUSH1 0x6 SLOAD SWAP1 PUSH2 0x48C PUSH1 0xFF DUP4 PUSH1 0xB0 SHR AND ISZERO PUSH2 0xF7B JUMP JUMPDEST PUSH1 0xFF PUSH1 0xB0 SHL NOT SWAP2 DUP3 AND PUSH1 0x1 PUSH1 0xB0 SHL OR PUSH1 0x6 DUP2 SWAP1 SSTORE PUSH2 0x4B6 SWAP1 PUSH1 0xFF SWAP1 PUSH2 0x249 PUSH1 0xA0 DUP3 SWAP1 SHR DUP4 AND PUSH2 0xFB4 JUMP JUMPDEST PUSH2 0x4C1 DUP2 ISZERO ISZERO PUSH2 0x11C0 JUMP JUMPDEST PUSH2 0x4CA DUP2 PUSH2 0x19BB JUMP JUMPDEST SWAP5 PUSH2 0x4D6 DUP7 ISZERO ISZERO PUSH2 0x12D2 JUMP JUMPDEST PUSH1 0x2 SLOAD DUP7 GT PUSH2 0x68D JUMPI PUSH2 0x2710 PUSH2 0x4EE PUSH1 0x1 SLOAD DUP9 PUSH2 0x1032 JUMP JUMPDEST DIV SWAP6 PUSH2 0x4FA DUP8 DUP3 PUSH2 0x1150 JUMP JUMPDEST SWAP6 PUSH2 0x509 PUSH1 0x24 CALLDATALOAD DUP9 LT ISZERO PUSH2 0x1314 JUMP JUMPDEST DUP6 MLOAD PUSH4 0x23B872DD PUSH1 0xE0 SHL DUP2 MSTORE CALLER DUP3 DUP3 ADD SWAP1 DUP2 MSTORE ADDRESS PUSH1 0x20 DUP3 DUP2 ADD SWAP2 SWAP1 SWAP2 MSTORE PUSH1 0x40 DUP3 ADD DUP8 SWAP1 MSTORE PUSH1 0x1 PUSH1 0x1 PUSH1 0xA0 SHL SUB SWAP5 SWAP3 SWAP2 DUP3 SWAP1 DUP2 SWAP1 PUSH1 0x60 ADD SUB DUP2 DUP9 DUP9 PUSH32 0x0 AND GAS CALL SWAP1 DUP2 ISZERO PUSH2 0x683 JUMPI PUSH2 0x59A SWAP3 SWAP2 PUSH2 0x583 SWAP2 DUP8 SWAP2 PUSH2 0x66A JUMPI POP PUSH2 0x1363 JUMP JUMPDEST PUSH2 0x58F DUP7 PUSH1 0x3 SLOAD PUSH2 0x10BC JUMP JUMPDEST PUSH1 0x3 SSTORE PUSH1 0x2 SLOAD PUSH2 0x1150 JUMP JUMPDEST PUSH1 0x2 SSTORE DUP3 DUP1 DUP1 DUP1 DUP11 CALLER GAS CALL PUSH2 0x5AD PUSH2 0x13A7 JUMP JUMPDEST POP ISZERO PUSH2 0x631 JUMPI POP DUP7 DUP1 PUSH32 0x846C37EEF631E0943682D87352EC117C20008EB7F425C9B85AC011A6D4774CC0 SWAP4 PUSH2 0x604 SWAP4 PUSH1 0x20 SWAP11 PUSH2 0x614 JUMPI JUMPDEST POP POP DUP7 MLOAD SWAP5 DUP6 MSTORE POP PUSH1 0x20 DUP5 ADD DUP8 SWAP1 MSTORE PUSH1 0x40 DUP5 ADD MSTORE CALLER SWAP3 SWAP1 DUP2 SWAP1 PUSH1 0x60 DUP3 ADD SWAP1 JUMP JUMPDEST SUB SWAP1 LOG2 PUSH1 0x6 SLOAD AND PUSH1 0x6 SSTORE MLOAD SWAP1 DUP2 MSTORE RETURN JUMPDEST DUP2 DUP1 PUSH2 0x629 SWAP5 DUP2 SWAP4 DUP3 SLOAD AND GAS CALL PUSH2 0x3E7 PUSH2 0x13A7 JUMP JUMPDEST DUP1 CODESIZE DUP1 PUSH2 0x5E4 JUMP JUMPDEST PUSH1 0x64 SWAP1 PUSH1 0x20 DUP8 MLOAD SWAP2 PUSH3 0x461BCD PUSH1 0xE5 SHL DUP4 MSTORE DUP3 ADD MSTORE PUSH1 0x13 PUSH1 0x24 DUP3 ADD MSTORE PUSH19 0x195D1A081D1C985B9CD9995C8819985A5B1959 PUSH1 0x6A SHL PUSH1 0x44 DUP3 ADD MSTORE REVERT JUMPDEST PUSH2 0x3B3 SWAP2 POP PUSH1 0x20 RETURNDATASIZE PUSH1 0x20 GT PUSH2 0x3B9 JUMPI PUSH2 0x3AB DUP2 DUP4 PUSH2 0x1204 JUMP JUMPDEST DUP9 MLOAD RETURNDATASIZE DUP8 DUP3 RETURNDATACOPY RETURNDATASIZE SWAP1 REVERT JUMPDEST DUP4 MLOAD PUSH3 0x461BCD PUSH1 0xE5 SHL DUP2 MSTORE PUSH1 0x20 DUP2 DUP8 ADD MSTORE PUSH1 0x18 PUSH1 0x24 DUP3 ADD MSTORE PUSH32 0x696E73756666696369656E742065746820726573657276650000000000000000 PUSH1 0x44 DUP3 ADD MSTORE PUSH1 0x64 SWAP1 REVERT JUMPDEST POP POP CALLVALUE PUSH2 0x190 JUMPI DUP2 PUSH1 0x3 NOT CALLDATASIZE ADD SLT PUSH2 0x190 JUMPI PUSH1 0x20 SWAP1 PUSH1 0x2 SLOAD SWAP1 MLOAD SWAP1 DUP2 MSTORE RETURN JUMPDEST POP POP CALLVALUE PUSH2 0x190 JUMPI DUP2 PUSH1 0x3 NOT CALLDATASIZE ADD SLT PUSH2 0x190 JUMPI PUSH1 0x20 SWAP1 PUSH1 0x3 SLOAD SWAP1 MLOAD SWAP1 DUP2 MSTORE RETURN JUMPDEST POP POP CALLVALUE PUSH2 0x190 JUMPI DUP2 PUSH1 0x3 NOT CALLDATASIZE ADD SLT PUSH2 0x190 JUMPI MLOAD PUSH32 0x0 PUSH1 0x1 PUSH1 0x1 PUSH1 0xA0 SHL SUB AND DUP2 MSTORE PUSH1 0x20 SWAP1 RETURN JUMPDEST SWAP1 POP DUP3 CALLVALUE PUSH2 0x460 JUMPI PUSH1 0x20 CALLDATASIZE PUSH1 0x3 NOT ADD SLT PUSH2 0x460 JUMPI POP PUSH2 0x771 SWAP1 CALLDATALOAD PUSH2 0x123C JUMP JUMPDEST DUP3 MLOAD SWAP2 DUP3 MSTORE PUSH1 0x20 DUP3 ADD MSTORE RETURN JUMPDEST DUP4 SWAP2 POP CALLVALUE PUSH2 0x190 JUMPI PUSH1 0x20 SWAP1 DUP2 PUSH1 0x3 NOT CALLDATASIZE ADD SLT PUSH2 0x1B2 JUMPI DUP1 CALLDATALOAD SWAP1 PUSH1 0x1 PUSH1 0x1 PUSH1 0xA0 SHL SUB SWAP1 PUSH2 0x7CC CALLER PUSH32 0x0 DUP5 AND EQ PUSH2 0xF40 JUMP JUMPDEST PUSH1 0x6 SLOAD SWAP2 PUSH1 0xFF DUP4 PUSH1 0xA0 SHR AND PUSH2 0x8F7 JUMPI DUP5 PUSH1 0x24 SWAP2 PUSH2 0x7EA DUP7 ISZERO ISZERO PUSH2 0x11C0 JUMP JUMPDEST DUP9 MLOAD PUSH4 0x70A08231 PUSH1 0xE0 SHL DUP2 MSTORE ADDRESS DUP6 DUP3 ADD MSTORE SWAP3 DUP4 SWAP2 DUP3 SWAP1 PUSH32 0x0 AND GAS STATICCALL SWAP1 DUP2 ISZERO PUSH2 0x8ED JUMPI SWAP1 DUP5 SWAP2 DUP8 SWAP2 PUSH2 0x8B8 JUMPI JUMPDEST POP LT PUSH2 0x87F JUMPI POP PUSH1 0xFF PUSH1 0xA0 SHL NOT AND PUSH1 0x1 PUSH1 0xA0 SHL OR PUSH1 0x6 SSTORE PUSH1 0x3 DUP2 SWAP1 SSTORE SWAP3 MLOAD SWAP3 DUP4 MSTORE SWAP1 SWAP2 PUSH32 0xA71ED34FF06AF8D6865A8F541AAE52D72FA89F0E5EE15F01D48FA6C62C856914 SWAP2 SWAP1 LOG1 DUP1 RETURN JUMPDEST DUP6 MLOAD PUSH3 0x461BCD PUSH1 0xE5 SHL DUP2 MSTORE SWAP1 DUP2 ADD DUP5 SWAP1 MSTORE PUSH1 0x13 PUSH1 0x24 DUP3 ADD MSTORE PUSH19 0x696E73756666696369656E7420746F6B656E73 PUSH1 0x68 SHL PUSH1 0x44 DUP3 ADD MSTORE PUSH1 0x64 SWAP1 REVERT JUMPDEST DUP1 SWAP3 POP DUP7 DUP1 SWAP3 POP RETURNDATASIZE DUP4 GT PUSH2 0x8E6 JUMPI JUMPDEST PUSH2 0x8D1 DUP2 DUP4 PUSH2 0x1204 JUMP JUMPDEST DUP2 ADD SUB SLT PUSH2 0x8E2 JUMPI DUP4 SWAP1 MLOAD DUP9 PUSH2 0x835 JUMP JUMPDEST DUP6 DUP1 REVERT JUMPDEST POP RETURNDATASIZE PUSH2 0x8C7 JUMP JUMPDEST DUP8 MLOAD RETURNDATASIZE DUP9 DUP3 RETURNDATACOPY RETURNDATASIZE SWAP1 REVERT JUMPDEST DUP7 MLOAD PUSH3 0x461BCD PUSH1 0xE5 SHL DUP2 MSTORE DUP1 DUP4 ADD DUP7 SWAP1 MSTORE PUSH1 0xE PUSH1 0x24 DUP3 ADD MSTORE PUSH14 0x185B1C9958591E481CD959591959 PUSH1 0x92 SHL PUSH1 0x44 DUP3 ADD MSTORE PUSH1 0x64 SWAP1 REVERT JUMPDEST DUP4 SWAP2 POP CALLVALUE PUSH2 0x190 JUMPI PUSH1 0x60 CALLDATASIZE PUSH1 0x3 NOT ADD SLT PUSH2 0x190 JUMPI PUSH2 0x947 PUSH2 0xF25 JUMP JUMPDEST PUSH1 0x24 CALLDATALOAD SWAP2 PUSH1 0x1 PUSH1 0x1 PUSH1 0xA0 SHL SUB SWAP1 DUP2 DUP5 AND DUP1 DUP6 SUB PUSH2 0x8E2 JUMPI PUSH1 0x44 CALLDATALOAD SWAP3 PUSH2 0x98F DUP2 PUSH32 0x0 AND CALLER EQ PUSH2 0xF40 JUMP JUMPDEST PUSH1 0x6 SLOAD SWAP1 PUSH2 0x9A3 PUSH1 0xFF DUP4 PUSH1 0xA8 SHR AND ISZERO PUSH2 0xFF2 JUMP JUMPDEST DUP5 ISZERO PUSH2 0xA58 JUMPI DUP6 AND SWAP1 DUP2 PUSH2 0xA18 JUMPI JUMPDEST PUSH1 0x5 DUP1 SLOAD PUSH1 0x1 PUSH1 0x1 PUSH1 0xA0 SHL SUB NOT SWAP1 DUP2 AND SWAP4 SWAP1 SWAP4 OR SWAP1 SSTORE AND OR PUSH1 0x6 SSTORE DUP2 SWAP1 SSTORE SWAP4 MLOAD PUSH1 0x1 PUSH1 0x1 PUSH1 0xA0 SHL SUB SWAP2 DUP3 AND DUP2 MSTORE SWAP2 AND PUSH1 0x20 DUP3 ADD MSTORE PUSH1 0x40 DUP2 ADD SWAP3 SWAP1 SWAP3 MSTORE SWAP1 PUSH32 0xBCDC4BFF84F936019028A7BCBEF6B449550D6334606377B822720E57E94276C4 SWAP1 PUSH1 0x60 SWAP1 LOG1 DUP1 RETURN JUMPDEST DUP3 PUSH2 0x9B2 JUMPI DUP9 MLOAD PUSH3 0x461BCD PUSH1 0xE5 SHL DUP2 MSTORE PUSH1 0x20 DUP2 DUP7 ADD MSTORE PUSH1 0x15 PUSH1 0x24 DUP3 ADD MSTORE PUSH21 0x1B1C081C9958DA5C1A595B9D081C995C5D5A5C9959 PUSH1 0x5A SHL PUSH1 0x44 DUP3 ADD MSTORE PUSH1 0x64 SWAP1 REVERT JUMPDEST DUP9 MLOAD PUSH3 0x461BCD PUSH1 0xE5 SHL DUP2 MSTORE PUSH1 0x20 DUP2 DUP7 ADD MSTORE PUSH1 0xF PUSH1 0x24 DUP3 ADD MSTORE PUSH15 0x1D185C99D95D081C995C5D5A5C9959 PUSH1 0x8A SHL PUSH1 0x44 DUP3 ADD MSTORE PUSH1 0x64 SWAP1 REVERT JUMPDEST POP POP CALLVALUE PUSH2 0x190 JUMPI DUP2 PUSH1 0x3 NOT CALLDATASIZE ADD SLT PUSH2 0x190 JUMPI PUSH1 0x20 SWAP1 PUSH1 0x8 SLOAD SWAP1 MLOAD SWAP1 DUP2 MSTORE RETURN JUMPDEST POP POP CALLVALUE PUSH2 0x190 JUMPI DUP2 PUSH1 0x3 NOT CALLDATASIZE ADD SLT PUSH2 0x190 JUMPI PUSH1 0x20 SWAP1 MLOAD PUSH32 0x0 DUP2 MSTORE RETURN JUMPDEST SWAP1 POP DUP3 CALLVALUE PUSH2 0x460 JUMPI PUSH1 0x20 CALLDATASIZE PUSH1 0x3 NOT ADD SLT PUSH2 0x460 JUMPI POP PUSH2 0x771 SWAP1 CALLDATALOAD PUSH2 0x115D JUMP JUMPDEST POP POP CALLVALUE PUSH2 0x190 JUMPI DUP2 PUSH1 0x3 NOT CALLDATASIZE ADD SLT PUSH2 0x190 JUMPI SWAP1 SLOAD SWAP1 MLOAD PUSH1 0x1 PUSH1 0x1 PUSH1 0xA0 SHL SUB SWAP1 SWAP2 AND DUP2 MSTORE PUSH1 0x20 SWAP1 RETURN JUMPDEST POP POP CALLVALUE PUSH2 0x190 JUMPI DUP2 PUSH1 0x3 NOT CALLDATASIZE ADD SLT PUSH2 0x190 JUMPI PUSH1 0x6 SLOAD SWAP1 MLOAD PUSH1 0x1 PUSH1 0x1 PUSH1 0xA0 SHL SUB SWAP1 SWAP2 AND DUP2 MSTORE PUSH1 0x20 SWAP1 RETURN JUMPDEST SWAP1 POP CALLVALUE PUSH2 0x1B2 JUMPI DUP3 PUSH1 0x3 NOT CALLDATASIZE ADD SLT PUSH2 0x1B2 JUMPI PUSH1 0x6 SLOAD SWAP2 PUSH2 0xB7D PUSH1 0xFF DUP5 PUSH1 0xB0 SHR AND ISZERO PUSH2 0xF7B JUMP JUMPDEST PUSH1 0xFF PUSH1 0xB0 SHL NOT SWAP3 DUP4 AND PUSH1 0x1 PUSH1 0xB0 SHL OR PUSH1 0x6 DUP2 SWAP1 SSTORE PUSH2 0xBB1 SWAP1 PUSH1 0xFF SWAP1 PUSH2 0xBA7 PUSH1 0xA0 DUP3 SWAP1 SHR DUP4 AND PUSH2 0xFB4 JUMP JUMPDEST PUSH1 0xA8 SHR AND ISZERO PUSH2 0xFF2 JUMP JUMPDEST PUSH1 0x2 SLOAD DUP3 SLOAD GT PUSH2 0xBCF JUMPI POP POP PUSH2 0xBC5 PUSH2 0x1448 JUMP JUMPDEST PUSH1 0x6 SLOAD AND PUSH1 0x6 SSTORE DUP1 RETURN JUMPDEST SWAP1 PUSH1 0x20 PUSH1 0x64 SWAP3 MLOAD SWAP2 PUSH3 0x461BCD PUSH1 0xE5 SHL DUP4 MSTORE DUP3 ADD MSTORE PUSH1 0x12 PUSH1 0x24 DUP3 ADD MSTORE PUSH18 0x1D185C99D95D081B9BDD081C995858DA1959 PUSH1 0x72 SHL PUSH1 0x44 DUP3 ADD MSTORE REVERT JUMPDEST POP POP CALLVALUE PUSH2 0x190 JUMPI DUP2 PUSH1 0x3 NOT CALLDATASIZE ADD SLT PUSH2 0x190 JUMPI PUSH1 0x20 SWAP1 PUSH2 0xC24 PUSH2 0x10C9 JUMP JUMPDEST SWAP1 MLOAD SWAP1 DUP2 MSTORE RETURN JUMPDEST POP POP CALLVALUE PUSH2 0x190 JUMPI DUP2 PUSH1 0x3 NOT CALLDATASIZE ADD SLT PUSH2 0x190 JUMPI PUSH1 0x20 SWAP1 MLOAD PUSH32 0x0 DUP2 MSTORE RETURN JUMPDEST POP POP CALLVALUE PUSH2 0x190 JUMPI DUP2 PUSH1 0x3 NOT CALLDATASIZE ADD SLT PUSH2 0x190 JUMPI PUSH1 0x20 SWAP1 PUSH1 0xFF PUSH1 0x6 SLOAD PUSH1 0xA0 SHR AND SWAP1 MLOAD SWAP1 ISZERO ISZERO DUP2 MSTORE RETURN JUMPDEST SWAP2 SWAP1 POP CALLVALUE PUSH2 0x1B2 JUMPI DUP1 PUSH1 0x3 NOT CALLDATASIZE ADD SLT PUSH2 0x1B2 JUMPI PUSH2 0xCA8 PUSH2 0xF25 JUMP JUMPDEST PUSH1 0x24 CALLDATALOAD SWAP2 SWAP1 PUSH1 0x1 PUSH1 0x1 PUSH1 0xA0 SHL SUB SWAP1 PUSH2 0xCE3 CALLER PUSH32 0x0 DUP5 AND EQ PUSH2 0xF40 JUMP JUMPDEST AND SWAP3 DUP4 ISZERO PUSH2 0xD68 JUMPI PUSH2 0x12C DUP4 GT PUSH2 0xD37 JUMPI POP DUP4 SLOAD PUSH1 0x1 PUSH1 0x1 PUSH1 0xA0 SHL SUB NOT AND DUP4 OR DUP5 SSTORE PUSH1 0x1 DUP3 SWAP1 SSTORE MLOAD SWAP1 DUP2 MSTORE PUSH32 0xE42708D93B95810922305119A3271CA42233DA9EBE1E1E503F0E887817A32C7A SWAP1 PUSH1 0x20 SWAP1 LOG2 DUP1 RETURN JUMPDEST PUSH1 0x20 PUSH1 0x64 SWAP3 MLOAD SWAP2 PUSH3 0x461BCD PUSH1 0xE5 SHL DUP4 MSTORE DUP3 ADD MSTORE PUSH1 0xC PUSH1 0x24 DUP3 ADD MSTORE PUSH12 0xCCCACA40E8DEDE40D0D2CED PUSH1 0xA3 SHL PUSH1 0x44 DUP3 ADD MSTORE REVERT JUMPDEST PUSH1 0x20 PUSH1 0x64 SWAP3 MLOAD SWAP2 PUSH3 0x461BCD PUSH1 0xE5 SHL DUP4 MSTORE DUP3 ADD MSTORE PUSH1 0x12 PUSH1 0x24 DUP3 ADD MSTORE PUSH18 0x1C9958DA5C1A595B9D081C995C5D5A5C9959 PUSH1 0x72 SHL PUSH1 0x44 DUP3 ADD MSTORE REVERT JUMPDEST POP POP CALLVALUE PUSH2 0x190 JUMPI DUP2 PUSH1 0x3 NOT CALLDATASIZE ADD SLT PUSH2 0x190 JUMPI PUSH1 0x20 SWAP1 PUSH2 0xC24 PUSH2 0x107B JUMP JUMPDEST SWAP1 POP CALLVALUE PUSH2 0x1B2 JUMPI DUP3 PUSH1 0x3 NOT CALLDATASIZE ADD SLT PUSH2 0x1B2 JUMPI PUSH2 0xE02 CALLER PUSH32 0x0 PUSH1 0x1 PUSH1 0x1 PUSH1 0xA0 SHL SUB AND EQ PUSH2 0xF40 JUMP JUMPDEST PUSH1 0x6 SLOAD SWAP2 PUSH2 0xE16 PUSH1 0xFF DUP5 PUSH1 0xB0 SHR AND ISZERO PUSH2 0xF7B JUMP JUMPDEST PUSH1 0xFF PUSH1 0xB0 SHL NOT SWAP3 DUP4 AND PUSH1 0x1 PUSH1 0xB0 SHL OR PUSH1 0x6 DUP2 SWAP1 SSTORE PUSH2 0xE40 SWAP1 PUSH1 0xFF SWAP1 PUSH2 0xBA7 PUSH1 0xA0 DUP3 SWAP1 SHR DUP4 AND PUSH2 0xFB4 JUMP JUMPDEST PUSH1 0x2 SLOAD SWAP2 DUP3 ISZERO PUSH2 0xE85 JUMPI POP PUSH32 0x5D6DC6B9835F5448AE2351719684F59735B30DFA8E62677CC6F9E98BD4C08F7F SWAP1 PUSH1 0x3 SLOAD DUP2 MLOAD SWAP4 DUP5 MSTORE PUSH1 0x20 DUP5 ADD MSTORE CALLER SWAP3 LOG2 PUSH2 0xBC5 PUSH2 0x1448 JUMP JUMPDEST PUSH1 0x20 PUSH1 0x64 SWAP3 MLOAD SWAP2 PUSH3 0x461BCD PUSH1 0xE5 SHL DUP4 MSTORE DUP3 ADD MSTORE PUSH1 0xE PUSH1 0x24 DUP3 ADD MSTORE PUSH14 0x6E6F206574682072657365727665 PUSH1 0x90 SHL PUSH1 0x44 DUP3 ADD MSTORE REVERT JUMPDEST POP POP CALLVALUE PUSH2 0x190 JUMPI DUP2 PUSH1 0x3 NOT CALLDATASIZE ADD SLT PUSH2 0x190 JUMPI PUSH1 0x20 SWAP1 PUSH1 0x1 SLOAD SWAP1 MLOAD SWAP1 DUP2 MSTORE RETURN JUMPDEST POP POP CALLVALUE PUSH2 0x190 JUMPI DUP2 PUSH1 0x3 NOT CALLDATASIZE ADD SLT PUSH2 0x190 JUMPI PUSH1 0x7 SLOAD SWAP1 MLOAD PUSH1 0x1 PUSH1 0x1 PUSH1 0xA0 SHL SUB SWAP1 SWAP2 AND DUP2 MSTORE PUSH1 0x20 SWAP1 RETURN JUMPDEST DUP5 SWAP1 CALLVALUE PUSH2 0x190 JUMPI DUP2 PUSH1 0x3 NOT CALLDATASIZE ADD SLT PUSH2 0x190 JUMPI PUSH1 0x5 SLOAD PUSH1 0x1 PUSH1 0x1 PUSH1 0xA0 SHL SUB AND DUP2 MSTORE PUSH1 0x20 SWAP1 RETURN JUMPDEST PUSH1 0x4 CALLDATALOAD SWAP1 PUSH1 0x1 PUSH1 0x1 PUSH1 0xA0 SHL SUB DUP3 AND DUP3 SUB PUSH2 0xF3B JUMPI JUMP JUMPDEST PUSH1 0x0 DUP1 REVERT JUMPDEST ISZERO PUSH2 0xF47 JUMPI JUMP JUMPDEST PUSH1 0x40 MLOAD PUSH3 0x461BCD PUSH1 0xE5 SHL DUP2 MSTORE PUSH1 0x20 PUSH1 0x4 DUP3 ADD MSTORE PUSH1 0xC PUSH1 0x24 DUP3 ADD MSTORE PUSH12 0x6F6E6C7920666163746F7279 PUSH1 0xA0 SHL PUSH1 0x44 DUP3 ADD MSTORE PUSH1 0x64 SWAP1 REVERT JUMPDEST ISZERO PUSH2 0xF82 JUMPI JUMP JUMPDEST PUSH1 0x40 MLOAD PUSH3 0x461BCD PUSH1 0xE5 SHL DUP2 MSTORE PUSH1 0x20 PUSH1 0x4 DUP3 ADD MSTORE PUSH1 0xA PUSH1 0x24 DUP3 ADD MSTORE PUSH10 0x7265656E7472616E6379 PUSH1 0xB0 SHL PUSH1 0x44 DUP3 ADD MSTORE PUSH1 0x64 SWAP1 REVERT JUMPDEST ISZERO PUSH2 0xFBB JUMPI JUMP JUMPDEST PUSH1 0x40 MLOAD PUSH3 0x461BCD PUSH1 0xE5 SHL DUP2 MSTORE PUSH1 0x20 PUSH1 0x4 DUP3 ADD MSTORE PUSH1 0xF PUSH1 0x24 DUP3 ADD MSTORE PUSH15 0x1C1BDBDB081B9BDD081CD959591959 PUSH1 0x8A SHL PUSH1 0x44 DUP3 ADD MSTORE PUSH1 0x64 SWAP1 REVERT JUMPDEST ISZERO PUSH2 0xFF9 JUMPI JUMP JUMPDEST PUSH1 0x40 MLOAD PUSH3 0x461BCD PUSH1 0xE5 SHL DUP2 MSTORE PUSH1 0x20 PUSH1 0x4 DUP3 ADD MSTORE PUSH1 0x11 PUSH1 0x24 DUP3 ADD MSTORE PUSH17 0x185B1C9958591E4819DC98591D585D1959 PUSH1 0x7A SHL PUSH1 0x44 DUP3 ADD MSTORE PUSH1 0x64 SWAP1 REVERT JUMPDEST DUP2 DUP2 MUL SWAP3 SWAP2 DUP2 ISZERO SWAP2 DUP5 DIV EQ OR ISZERO PUSH2 0x1045 JUMPI JUMP JUMPDEST PUSH4 0x4E487B71 PUSH1 0xE0 SHL PUSH1 0x0 MSTORE PUSH1 0x11 PUSH1 0x4 MSTORE PUSH1 0x24 PUSH1 0x0 REVERT JUMPDEST DUP2 ISZERO PUSH2 0x1065 JUMPI DIV SWAP1 JUMP JUMPDEST PUSH4 0x4E487B71 PUSH1 0xE0 SHL PUSH1 0x0 MSTORE PUSH1 0x12 PUSH1 0x4 MSTORE PUSH1 0x24 PUSH1 0x0 REVERT JUMPDEST PUSH1 0x4 SLOAD DUP1 ISZERO PUSH2 0x10B6 JUMPI PUSH1 0x2 SLOAD PUSH2 0x2710 SWAP2 DUP3 DUP3 MUL SWAP2 DUP1 DUP4 DIV DUP5 EQ SWAP1 ISZERO OR ISZERO PUSH2 0x1045 JUMPI PUSH2 0x10A5 SWAP2 PUSH2 0x105B JUMP JUMPDEST SWAP1 DUP1 DUP3 GT PUSH2 0x10B1 JUMPI POP SWAP1 JUMP JUMPDEST SWAP1 POP SWAP1 JUMP JUMPDEST POP PUSH1 0x0 SWAP1 JUMP JUMPDEST SWAP2 SWAP1 DUP3 ADD DUP1 SWAP3 GT PUSH2 0x1045 JUMPI JUMP JUMPDEST PUSH2 0x10F6 PUSH1 0x3 SLOAD PUSH32 0x0 SWAP1 PUSH2 0x10BC JUMP JUMPDEST DUP1 ISZERO PUSH2 0x10B6 JUMPI PUSH2 0x1129 PUSH1 0x2 SLOAD PUSH32 0x0 SWAP1 PUSH2 0x10BC JUMP JUMPDEST SWAP1 PUSH8 0xDE0B6B3A7640000 SWAP2 DUP3 DUP2 MUL SWAP3 DUP2 DUP5 DIV EQ SWAP1 ISZERO OR ISZERO PUSH2 0x1045 JUMPI PUSH2 0x114D SWAP2 PUSH2 0x105B JUMP JUMPDEST SWAP1 JUMP JUMPDEST SWAP2 SWAP1 DUP3 SUB SWAP2 DUP3 GT PUSH2 0x1045 JUMPI JUMP JUMPDEST PUSH1 0x6 SLOAD PUSH1 0xFF DUP2 PUSH1 0xA0 SHR AND ISZERO SWAP1 DUP2 ISZERO PUSH2 0x11B2 JUMPI JUMPDEST POP DUP1 ISZERO PUSH2 0x11AA JUMPI JUMPDEST PUSH2 0x11A1 JUMPI PUSH2 0x119E PUSH2 0x1199 PUSH2 0x2710 PUSH2 0x1191 PUSH1 0x1 SLOAD DUP6 PUSH2 0x1032 JUMP JUMPDEST DIV DUP1 SWAP4 PUSH2 0x1150 JUMP JUMPDEST PUSH2 0x1923 JUMP JUMPDEST SWAP2 JUMP JUMPDEST POP PUSH1 0x0 SWAP1 PUSH1 0x0 SWAP1 JUMP JUMPDEST POP DUP1 ISZERO PUSH2 0x1178 JUMP JUMPDEST PUSH1 0xFF SWAP2 POP PUSH1 0xA8 SHR AND CODESIZE PUSH2 0x1170 JUMP JUMPDEST ISZERO PUSH2 0x11C7 JUMPI JUMP JUMPDEST PUSH1 0x40 MLOAD PUSH3 0x461BCD PUSH1 0xE5 SHL DUP2 MSTORE PUSH1 0x20 PUSH1 0x4 DUP3 ADD MSTORE PUSH1 0x15 PUSH1 0x24 DUP3 ADD MSTORE PUSH21 0x1D1BDAD95B88185B5BDD5B9D081C995C5D5A5C9959 PUSH1 0x5A SHL PUSH1 0x44 DUP3 ADD MSTORE PUSH1 0x64 SWAP1 REVERT JUMPDEST SWAP1 PUSH1 0x1F DUP1 NOT SWAP2 ADD AND DUP2 ADD SWAP1 DUP2 LT PUSH8 0xFFFFFFFFFFFFFFFF DUP3 GT OR PUSH2 0x1226 JUMPI PUSH1 0x40 MSTORE JUMP JUMPDEST PUSH4 0x4E487B71 PUSH1 0xE0 SHL PUSH1 0x0 MSTORE PUSH1 0x41 PUSH1 0x4 MSTORE PUSH1 0x24 PUSH1 0x0 REVERT JUMPDEST PUSH1 0x6 SLOAD PUSH1 0xFF DUP2 PUSH1 0xA0 SHR AND ISZERO SWAP1 DUP2 ISZERO PUSH2 0x128C JUMPI JUMPDEST POP DUP1 ISZERO PUSH2 0x1284 JUMPI JUMPDEST PUSH2 0x11A1 JUMPI PUSH2 0x1264 SWAP1 PUSH2 0x19BB JUMP JUMPDEST DUP1 ISZERO PUSH2 0x11A1 JUMPI PUSH2 0x119E PUSH2 0x2710 PUSH2 0x127C PUSH1 0x1 SLOAD DUP5 PUSH2 0x1032 JUMP JUMPDEST DIV DUP1 SWAP3 PUSH2 0x1150 JUMP JUMPDEST POP DUP1 ISZERO PUSH2 0x1257 JUMP JUMPDEST PUSH1 0xFF SWAP2 POP PUSH1 0xA8 SHR AND CODESIZE PUSH2 0x124F JUMP JUMPDEST ISZERO PUSH2 0x12A1 JUMPI JUMP JUMPDEST PUSH1 0x40 MLOAD PUSH3 0x461BCD PUSH1 0xE5 SHL DUP2 MSTORE PUSH1 0x20 PUSH1 0x4 DUP3 ADD MSTORE PUSH1 0x9 PUSH1 0x24 DUP3 ADD MSTORE PUSH9 0x19DC98591D585D1959 PUSH1 0xBA SHL PUSH1 0x44 DUP3 ADD MSTORE PUSH1 0x64 SWAP1 REVERT JUMPDEST ISZERO PUSH2 0x12D9 JUMPI JUMP JUMPDEST PUSH1 0x40 MLOAD PUSH3 0x461BCD PUSH1 0xE5 SHL DUP2 MSTORE PUSH1 0x20 PUSH1 0x4 DUP3 ADD MSTORE PUSH1 0x13 PUSH1 0x24 DUP3 ADD MSTORE PUSH19 0x1A5B9CDD59999A58DA595B9D081BDD5D1C1D5D PUSH1 0x6A SHL PUSH1 0x44 DUP3 ADD MSTORE PUSH1 0x64 SWAP1 REVERT JUMPDEST ISZERO PUSH2 0x131B JUMPI JUMP JUMPDEST PUSH1 0x40 MLOAD PUSH3 0x461BCD PUSH1 0xE5 SHL DUP2 MSTORE PUSH1 0x20 PUSH1 0x4 DUP3 ADD MSTORE PUSH1 0x8 PUSH1 0x24 DUP3 ADD MSTORE PUSH8 0x736C697070616765 PUSH1 0xC0 SHL PUSH1 0x44 DUP3 ADD MSTORE PUSH1 0x64 SWAP1 REVERT JUMPDEST SWAP1 DUP2 PUSH1 0x20 SWAP2 SUB SLT PUSH2 0xF3B JUMPI MLOAD DUP1 ISZERO ISZERO DUP2 SUB PUSH2 0xF3B JUMPI SWAP1 JUMP JUMPDEST ISZERO PUSH2 0x136A JUMPI JUMP JUMPDEST PUSH1 0x40 MLOAD PUSH3 0x461BCD PUSH1 0xE5 SHL DUP2 MSTORE PUSH1 0x20 PUSH1 0x4 DUP3 ADD MSTORE PUSH1 0x15 PUSH1 0x24 DUP3 ADD MSTORE PUSH21 0x1D1BDAD95B881D1C985B9CD9995C8819985A5B1959 PUSH1 0x5A SHL PUSH1 0x44 DUP3 ADD MSTORE PUSH1 0x64 SWAP1 REVERT JUMPDEST RETURNDATASIZE ISZERO PUSH2 0x13E2 JUMPI RETURNDATASIZE SWAP1 PUSH8 0xFFFFFFFFFFFFFFFF DUP3 GT PUSH2 0x1226 JUMPI PUSH1 0x40 MLOAD SWAP2 PUSH2 0x13D6 PUSH1 0x1F DUP3 ADD PUSH1 0x1F NOT AND PUSH1 0x20 ADD DUP5 PUSH2 0x1204 JUMP JUMPDEST DUP3 MSTORE RETURNDATASIZE PUSH1 0x0 PUSH1 0x20 DUP5 ADD RETURNDATACOPY JUMP JUMPDEST PUSH1 0x60 SWAP1 JUMP JUMPDEST ISZERO PUSH2 0x13EE JUMPI JUMP JUMPDEST PUSH1 0x40 MLOAD PUSH3 0x461BCD PUSH1 0xE5 SHL DUP2 MSTORE PUSH1 0x20 PUSH1 0x4 DUP3 ADD MSTORE PUSH1 0x13 PUSH1 0x24 DUP3 ADD MSTORE PUSH19 0x199959481D1C985B9CD9995C8819985A5B1959 PUSH1 0x6A SHL PUSH1 0x44 DUP3 ADD MSTORE PUSH1 0x64 SWAP1 REVERT JUMPDEST SWAP1 DUP2 PUSH1 0x20 SWAP2 SUB SLT PUSH2 0xF3B JUMPI MLOAD PUSH1 0x1 PUSH1 0x1 PUSH1 0xA0 SHL SUB DUP2 AND DUP2 SUB PUSH2 0xF3B JUMPI SWAP1 JUMP JUMPDEST PUSH1 0x5 SLOAD PUSH1 0x1 PUSH1 0x1 PUSH1 0xA0 SHL SUB SWAP1 DUP2 AND SWAP1 DUP2 ISZERO PUSH2 0x18E9 JUMPI PUSH1 0x1 PUSH1 0xA8 SHL PUSH1 0xFF PUSH1 0xA8 SHL NOT PUSH1 0x6 SLOAD AND OR PUSH1 0x6 SSTORE TIMESTAMP PUSH1 0x8 SSTORE PUSH1 0x3 SLOAD SWAP2 PUSH1 0x2 SLOAD SWAP1 PUSH1 0x0 SWAP3 DUP4 PUSH1 0x3 SSTORE DUP4 PUSH1 0x2 SSTORE DUP1 PUSH32 0x0 AND SWAP4 PUSH1 0x40 SWAP3 DUP4 MLOAD DUP3 PUSH4 0x95EA7B3 PUSH1 0xE0 SHL DUP1 DUP4 MSTORE PUSH1 0x4 SWAP4 DUP5 DUP5 ADD MSTORE PUSH1 0x24 SWAP3 DUP3 DUP5 DUP3 ADD MSTORE DUP10 DUP2 PUSH1 0x44 DUP2 PUSH1 0x20 SWAP10 DUP11 SWAP5 GAS CALL DUP1 ISZERO PUSH2 0x18DF JUMPI SWAP2 DUP7 SWAP2 DUP13 SWAP4 PUSH2 0x18C2 JUMPI JUMPDEST POP PUSH1 0x5 SLOAD DUP10 MLOAD SWAP2 DUP3 MSTORE DUP9 AND PUSH1 0x1 PUSH1 0x1 PUSH1 0xA0 SHL SUB AND DUP7 DUP3 ADD SWAP1 DUP2 MSTORE PUSH1 0x20 DUP2 ADD SWAP4 SWAP1 SWAP4 MSTORE SWAP2 DUP3 SWAP1 DUP2 SWAP1 PUSH1 0x40 ADD SUB DUP2 DUP6 DUP14 GAS CALL DUP1 ISZERO PUSH2 0x1888 JUMPI PUSH2 0x18A5 JUMPI JUMPDEST POP DUP5 PUSH1 0x5 SLOAD AND SWAP5 DUP1 PUSH1 0x6 SLOAD AND SWAP6 PUSH2 0xE10 TIMESTAMP ADD DUP1 TIMESTAMP GT PUSH2 0x1892 JUMPI PUSH1 0xC4 DUP12 DUP12 PUSH1 0x60 SWAP5 DUP16 SWAP5 DUP14 MLOAD SWAP13 DUP14 SWAP7 DUP8 SWAP6 PUSH4 0xF305D719 PUSH1 0xE0 SHL DUP8 MSTORE DUP14 DUP8 ADD MSTORE DUP12 DUP7 ADD MSTORE DUP10 PUSH1 0x44 DUP7 ADD MSTORE DUP10 PUSH1 0x64 DUP7 ADD MSTORE PUSH1 0x84 DUP6 ADD MSTORE PUSH1 0xA4 DUP5 ADD MSTORE GAS CALL SWAP8 DUP9 ISZERO PUSH2 0x1888 JUMPI DUP3 SWAP10 DUP4 SWAP8 DUP5 SWAP11 PUSH2 0x1844 JUMPI JUMPDEST POP PUSH1 0x5 SLOAD DUP10 MLOAD PUSH4 0xC45A0155 PUSH1 0xE0 SHL DUP2 MSTORE SWAP1 DUP5 AND DUP9 DUP3 DUP10 DUP2 DUP5 GAS STATICCALL SWAP2 DUP3 ISZERO PUSH2 0x181B JUMPI DUP9 SWAP3 SWAP2 DUP11 SWAP2 DUP9 SWAP4 PUSH2 0x1825 JUMPI JUMPDEST POP DUP13 MLOAD PUSH4 0x15AB88C9 PUSH1 0xE3 SHL DUP2 MSTORE SWAP4 DUP5 SWAP2 DUP3 SWAP1 GAS STATICCALL SWAP2 DUP3 ISZERO PUSH2 0x181B JUMPI DUP4 DUP10 DUP8 DUP15 SWAP6 SWAP5 DUP14 SWAP5 DUP12 SWAP7 PUSH2 0x17F5 JUMPI JUMPDEST POP DUP2 PUSH1 0x44 SWAP5 SWAP6 SWAP7 SWAP8 MLOAD SWAP8 DUP9 SWAP7 DUP8 SWAP6 PUSH4 0xE6A43905 PUSH1 0xE0 SHL DUP8 MSTORE DUP7 ADD MSTORE AND DUP13 DUP5 ADD MSTORE AND GAS STATICCALL SWAP1 DUP2 ISZERO PUSH2 0x17EB JUMPI SWAP2 DUP5 DUP10 SWAP3 DUP15 SWAP5 DUP9 SWAP2 PUSH2 0x17BE JUMPI JUMPDEST POP AND SWAP14 DUP15 PUSH12 0xFFFFFFFFFFFFFFFFFFFFFFFF PUSH1 0xA0 SHL PUSH1 0x7 SLOAD AND OR PUSH1 0x7 SSTORE DUP4 DUP2 GT PUSH2 0x16ED JUMPI JUMPDEST POP POP POP POP DUP7 DUP2 GT PUSH2 0x1683 JUMPI JUMPDEST POP POP DUP6 MLOAD SWAP8 DUP9 MSTORE POP POP POP DUP5 ADD MSTORE DUP3 ADD MSTORE TIMESTAMP PUSH1 0x60 DUP3 ADD MSTORE PUSH32 0x71AA8C3702DBBC54247A4E6446450E64A46250DD72707A247DDB01D72EAEF445 SWAP1 PUSH1 0x80 SWAP1 LOG2 JUMP JUMPDEST DUP3 DUP1 SWAP3 PUSH2 0x1691 DUP10 DUP4 SWAP5 PUSH2 0x1150 JUMP JUMPDEST SWAP1 DUP3 SLOAD AND GAS CALL PUSH2 0x169F PUSH2 0x13A7 JUMP JUMPDEST POP ISZERO PUSH2 0x16AD JUMPI DUP1 DUP1 DUP1 PUSH2 0x1645 JUMP JUMPDEST PUSH1 0x18 SWAP1 PUSH1 0x64 SWAP4 DUP7 MLOAD SWAP4 PUSH3 0x461BCD PUSH1 0xE5 SHL DUP6 MSTORE DUP5 ADD MSTORE DUP3 ADD MSTORE PUSH32 0x6574682064757374207472616E73666572206661696C65640000000000000000 PUSH1 0x44 DUP3 ADD MSTORE REVERT JUMPDEST PUSH2 0x1734 SWAP4 PUSH2 0x16FA SWAP2 PUSH2 0x1150 JUMP JUMPDEST DUP7 SLOAD DUP13 MLOAD PUSH4 0xA9059CBB PUSH1 0xE0 SHL DUP2 MSTORE SWAP1 DUP8 AND PUSH1 0x1 PUSH1 0x1 PUSH1 0xA0 SHL SUB AND DUP11 DUP3 ADD SWAP1 DUP2 MSTORE PUSH1 0x20 DUP2 ADD SWAP3 SWAP1 SWAP3 MSTORE SWAP4 DUP5 SWAP3 SWAP2 DUP4 SWAP2 DUP10 SWAP2 DUP4 SWAP2 PUSH1 0x40 SWAP1 SWAP2 ADD SWAP1 JUMP JUMPDEST SUB SWAP3 GAS CALL SWAP1 DUP2 ISZERO PUSH2 0x17B4 JUMPI DUP5 SWAP2 PUSH2 0x1797 JUMPI JUMPDEST POP ISZERO PUSH2 0x1755 JUMPI DUP10 DUP7 CODESIZE DUP1 PUSH2 0x1639 JUMP JUMPDEST DUP8 MLOAD PUSH3 0x461BCD PUSH1 0xE5 SHL DUP2 MSTORE DUP1 DUP7 ADD DUP8 SWAP1 MSTORE PUSH1 0x1A DUP2 DUP7 ADD MSTORE PUSH32 0x746F6B656E2064757374207472616E73666572206661696C6564000000000000 PUSH1 0x44 DUP3 ADD MSTORE PUSH1 0x64 SWAP1 REVERT JUMPDEST PUSH2 0x17AE SWAP2 POP DUP8 RETURNDATASIZE DUP10 GT PUSH2 0x3B9 JUMPI PUSH2 0x3AB DUP2 DUP4 PUSH2 0x1204 JUMP JUMPDEST CODESIZE PUSH2 0x1746 JUMP JUMPDEST DUP10 MLOAD RETURNDATASIZE DUP7 DUP3 RETURNDATACOPY RETURNDATASIZE SWAP1 REVERT JUMPDEST PUSH2 0x17DE SWAP2 POP DUP5 RETURNDATASIZE DUP7 GT PUSH2 0x17E4 JUMPI JUMPDEST PUSH2 0x17D6 DUP2 DUP4 PUSH2 0x1204 JUMP JUMPDEST DUP2 ADD SWAP1 PUSH2 0x1429 JUMP JUMPDEST CODESIZE PUSH2 0x1615 JUMP JUMPDEST POP RETURNDATASIZE PUSH2 0x17CC JUMP JUMPDEST DUP11 MLOAD RETURNDATASIZE DUP8 DUP3 RETURNDATACOPY RETURNDATASIZE SWAP1 REVERT JUMPDEST DUP6 SWAP7 POP PUSH2 0x1812 DUP4 SWAP2 PUSH1 0x44 SWAP7 SWAP8 RETURNDATASIZE DUP11 GT PUSH2 0x17E4 JUMPI PUSH2 0x17D6 DUP2 DUP4 PUSH2 0x1204 JUMP JUMPDEST SWAP7 SWAP6 SWAP5 POP PUSH2 0x15DE JUMP JUMPDEST DUP12 MLOAD RETURNDATASIZE DUP9 DUP3 RETURNDATACOPY RETURNDATASIZE SWAP1 REVERT JUMPDEST PUSH2 0x183D SWAP2 SWAP4 POP DUP3 RETURNDATASIZE DUP5 GT PUSH2 0x17E4 JUMPI PUSH2 0x17D6 DUP2 DUP4 PUSH2 0x1204 JUMP JUMPDEST SWAP2 CODESIZE PUSH2 0x15B4 JUMP JUMPDEST SWAP11 POP SWAP9 POP SWAP6 POP PUSH1 0x60 DUP10 RETURNDATASIZE PUSH1 0x60 GT PUSH2 0x1880 JUMPI JUMPDEST DUP2 PUSH2 0x1863 PUSH1 0x60 SWAP4 DUP4 PUSH2 0x1204 JUMP JUMPDEST DUP2 ADD SUB SLT PUSH2 0x190 JUMPI DUP9 MLOAD SWAP6 DUP8 DUP7 DUP12 ADD MLOAD SWAP11 ADD MLOAD SWAP7 SWAP10 SWAP7 SWAP9 CODESIZE PUSH2 0x1587 JUMP JUMPDEST RETURNDATASIZE SWAP2 POP PUSH2 0x1856 JUMP JUMPDEST DUP8 MLOAD RETURNDATASIZE DUP5 DUP3 RETURNDATACOPY RETURNDATASIZE SWAP1 REVERT JUMPDEST POP POP PUSH4 0x4E487B71 PUSH1 0xE0 SHL DUP3 MSTORE POP PUSH1 0x11 DUP4 MSTORE REVERT JUMPDEST PUSH2 0x18BB SWAP1 DUP6 RETURNDATASIZE DUP8 GT PUSH2 0x3B9 JUMPI PUSH2 0x3AB DUP2 DUP4 PUSH2 0x1204 JUMP JUMPDEST POP CODESIZE PUSH2 0x1522 JUMP JUMPDEST PUSH2 0x18D8 SWAP1 DUP4 RETURNDATASIZE DUP6 GT PUSH2 0x3B9 JUMPI PUSH2 0x3AB DUP2 DUP4 PUSH2 0x1204 JUMP JUMPDEST POP CODESIZE PUSH2 0x14E7 JUMP JUMPDEST DUP9 MLOAD RETURNDATASIZE DUP6 DUP3 RETURNDATACOPY RETURNDATASIZE SWAP1 REVERT JUMPDEST PUSH1 0x40 MLOAD PUSH3 0x461BCD PUSH1 0xE5 SHL DUP2 MSTORE PUSH1 0x20 PUSH1 0x4 DUP3 ADD MSTORE PUSH1 0x12 PUSH1 0x24 DUP3 ADD MSTORE PUSH18 0x19195E081C9BDD5D195C881B9BDD081CD95D PUSH1 0x72 SHL PUSH1 0x44 DUP3 ADD MSTORE PUSH1 0x64 SWAP1 REVERT JUMPDEST DUP1 ISZERO PUSH2 0x10B6 JUMPI PUSH2 0x1956 PUSH1 0x2 SLOAD PUSH32 0x0 SWAP1 PUSH2 0x10BC JUMP JUMPDEST SWAP1 PUSH2 0x19A2 PUSH1 0x3 SLOAD SWAP3 PUSH2 0x199C PUSH2 0x198B PUSH32 0x0 DUP7 PUSH2 0x10BC JUMP JUMPDEST SWAP4 PUSH2 0x1996 DUP6 DUP5 PUSH2 0x1032 JUMP JUMPDEST SWAP3 PUSH2 0x10BC JUMP JUMPDEST SWAP1 PUSH2 0x105B JUMP JUMPDEST DUP1 DUP3 GT ISZERO PUSH2 0x19B3 JUMPI PUSH2 0x10A5 SWAP2 PUSH2 0x1150 JUMP JUMPDEST POP POP POP PUSH1 0x0 SWAP1 JUMP JUMPDEST PUSH1 0x2 SLOAD SWAP1 PUSH2 0x19A2 PUSH2 0x19EC PUSH32 0x0 DUP5 PUSH2 0x10BC JUMP JUMPDEST SWAP2 PUSH2 0x199C PUSH2 0x1A1D PUSH1 0x3 SLOAD PUSH32 0x0 SWAP1 PUSH2 0x10BC JUMP JUMPDEST SWAP2 PUSH2 0x1996 DUP4 DUP7 PUSH2 0x1032 JUMP JUMPDEST PUSH1 0xFF PUSH1 0x6 SLOAD PUSH1 0xA8 SHR AND PUSH2 0x1A48 JUMPI PUSH1 0x2 SLOAD PUSH1 0x4 SLOAD GT PUSH2 0x1A48 JUMPI PUSH2 0x1A48 PUSH2 0x1448 JUMP JUMPDEST JUMP INVALID LOG2 PUSH5 0x6970667358 0x22 SLT KECCAK256 LOG2 0xD2 0xC2 OR NUMBER DUP8 EQ TIMESTAMP 0xCE 0x4B MUL 0xC5 SSTORE 0x4B 0xB6 CHAINID 0xAD 0x2F 0x4C 0xAA 0xAE 0x2B SWAP2 SLT EXP BASEFEE PUSH25 0x32FDC24A2864736F6C63430008180033604060E08152346200 SDIV BLOBBASEFEE JUMPI PUSH3 0x13EA SWAP1 DUP2 CODESIZE SUB DUP1 PUSH3 0x1F DUP2 PUSH3 0x54F JUMP JUMPDEST SWAP4 DUP5 CODECOPY DUP3 ADD PUSH1 0xC0 DUP4 DUP3 SUB SLT PUSH3 0x54A JUMPI DUP3 MLOAD PUSH1 0x1 PUSH1 0x1 PUSH1 0x40 SHL SUB SWAP4 SWAP1 DUP5 DUP2 GT PUSH3 0x54A JUMPI DUP3 PUSH3 0x51 SWAP2 DUP4 ADD PUSH3 0x575 JUMP JUMPDEST SWAP2 PUSH1 0x20 SWAP1 DUP2 DUP4 ADD MLOAD SWAP1 DUP7 DUP3 GT PUSH3 0x54A JUMPI PUSH3 0x6F SWAP2 DUP5 ADD PUSH3 0x575 JUMP JUMPDEST SWAP2 DUP5 DUP2 ADD MLOAD SWAP1 PUSH3 0x83 PUSH1 0x60 DUP3 ADD PUSH3 0x5E7 JUMP JUMPDEST SWAP1 PUSH3 0xA0 PUSH1 0xA0 PUSH3 0x98 PUSH1 0x80 DUP5 ADD PUSH3 0x5E7 JUMP JUMPDEST SWAP3 ADD PUSH3 0x5E7 JUMP JUMPDEST SWAP2 DUP7 MLOAD ISZERO PUSH3 0x516 JUMPI DUP6 MLOAD ISZERO PUSH3 0x4E0 JUMPI DUP4 ISZERO PUSH3 0x4AA JUMPI PUSH1 0x1 PUSH1 0x1 PUSH1 0xA0 SHL SUB DUP2 DUP2 AND SWAP8 SWAP1 DUP9 ISZERO PUSH3 0x473 JUMPI DUP1 DUP5 AND ISZERO PUSH3 0x43C JUMPI DUP5 AND ISZERO PUSH3 0x404 JUMPI DUP1 MLOAD DUP11 DUP2 GT PUSH3 0x3EE JUMPI PUSH1 0x0 SWAP8 DUP9 SLOAD SWAP2 PUSH1 0x1 SWAP4 DUP5 DUP5 DUP2 SHR SWAP5 AND DUP1 ISZERO PUSH3 0x3E3 JUMPI JUMPDEST DUP11 DUP6 LT EQ PUSH3 0x3CF JUMPI DUP2 SWAP1 PUSH1 0x1F SWAP5 DUP6 DUP2 GT PUSH3 0x37C JUMPI JUMPDEST POP DUP11 SWAP1 DUP6 DUP4 GT PUSH1 0x1 EQ PUSH3 0x317 JUMPI DUP13 SWAP3 PUSH3 0x30B JUMPI JUMPDEST POP POP PUSH1 0x0 NOT PUSH1 0x3 DUP4 SWAP1 SHL SHR NOT AND SWAP1 DUP5 SHL OR DUP10 SSTORE JUMPDEST DUP1 MLOAD SWAP12 DUP13 GT PUSH3 0x2F7 JUMPI DUP3 SLOAD DUP4 DUP2 DUP2 SHR SWAP2 AND DUP1 ISZERO PUSH3 0x2EC JUMPI JUMPDEST DUP10 DUP3 LT EQ PUSH3 0x2D8 JUMPI DUP1 DUP4 DUP15 SWAP3 GT PUSH3 0x28E JUMPI JUMPDEST POP POP DUP8 SWAP2 DUP13 GT PUSH1 0x1 EQ PUSH3 0x217 JUMPI SWAP11 DUP1 SWAP2 DUP10 SWAP11 SWAP12 SWAP13 PUSH1 0x0 DUP1 MLOAD PUSH1 0x20 PUSH3 0x13CA DUP4 CODECOPY DUP2 MLOAD SWAP2 MSTORE SWAP11 SWAP3 PUSH3 0x20B JUMPI JUMPDEST POP POP PUSH1 0x0 NOT PUSH1 0x3 DUP4 SWAP1 SHL SHR NOT AND SWAP1 DUP3 SHL OR SWAP1 SSTORE JUMPDEST DUP4 PUSH1 0x2 SSTORE PUSH1 0x80 MSTORE PUSH1 0xA0 MSTORE PUSH1 0xC0 MSTORE DUP5 DUP5 MSTORE PUSH1 0x6 DUP3 MSTORE DUP1 DUP7 DUP6 KECCAK256 SSTORE DUP6 MLOAD SWAP1 DUP2 MSTORE LOG3 MLOAD PUSH2 0xDCD SWAP1 DUP2 PUSH3 0x5FD DUP3 CODECOPY PUSH1 0x80 MLOAD DUP2 DUP2 DUP2 PUSH2 0x218 ADD MSTORE PUSH2 0x26D ADD MSTORE PUSH1 0xA0 MLOAD DUP2 DUP2 DUP2 PUSH2 0x536 ADD MSTORE PUSH2 0x970 ADD MSTORE PUSH1 0xC0 MLOAD DUP2 DUP2 DUP2 PUSH2 0x156 ADD MSTORE PUSH2 0x617 ADD MSTORE RETURN JUMPDEST ADD MLOAD SWAP1 POP CODESIZE DUP1 PUSH3 0x19A JUMP JUMPDEST DUP3 DUP10 MSTORE DUP8 DUP10 KECCAK256 SWAP2 SWAP1 PUSH1 0x1F NOT DUP14 AND DUP11 JUMPDEST DUP2 DUP2 LT PUSH3 0x278 JUMPI POP SWAP2 DUP5 SWAP4 SWAP2 DUP15 PUSH1 0x0 DUP1 MLOAD PUSH1 0x20 PUSH3 0x13CA DUP4 CODECOPY DUP2 MLOAD SWAP2 MSTORE SWAP13 SWAP14 SWAP15 SWAP16 SWAP5 LT PUSH3 0x25E JUMPI JUMPDEST POP POP POP DUP2 SHL ADD SWAP1 SSTORE PUSH3 0x1AE JUMP JUMPDEST ADD MLOAD PUSH1 0x0 NOT PUSH1 0xF8 DUP5 PUSH1 0x3 SHL AND SHR NOT AND SWAP1 SSTORE CODESIZE DUP1 DUP1 PUSH3 0x250 JUMP JUMPDEST DUP3 DUP5 ADD MLOAD DUP6 SSTORE SWAP4 DUP6 ADD SWAP4 SWAP3 DUP11 ADD SWAP3 DUP11 ADD PUSH3 0x226 JUMP JUMPDEST DUP5 DUP12 MSTORE DUP4 DUP11 DUP13 KECCAK256 SWAP2 DUP12 DUP3 DUP6 ADD PUSH1 0x5 SHR DUP5 ADD SWAP5 LT PUSH3 0x2CE JUMPI JUMPDEST ADD PUSH1 0x5 SHR ADD SWAP1 DUP5 SWAP1 JUMPDEST DUP3 DUP2 LT PUSH3 0x2C2 JUMPI POP DUP14 SWAP2 POP PUSH3 0x16D JUMP JUMPDEST DUP12 DUP2 SSTORE ADD DUP5 SWAP1 PUSH3 0x2B0 JUMP JUMPDEST SWAP3 POP DUP2 SWAP3 PUSH3 0x2A7 JUMP JUMPDEST PUSH4 0x4E487B71 PUSH1 0xE0 SHL DUP11 MSTORE PUSH1 0x22 PUSH1 0x4 MSTORE PUSH1 0x24 DUP11 REVERT JUMPDEST SWAP1 PUSH1 0x7F AND SWAP1 PUSH3 0x159 JUMP JUMPDEST PUSH4 0x4E487B71 PUSH1 0xE0 SHL DUP10 MSTORE PUSH1 0x41 PUSH1 0x4 MSTORE PUSH1 0x24 DUP10 REVERT JUMPDEST ADD MLOAD SWAP1 POP CODESIZE DUP1 PUSH3 0x12B JUMP JUMPDEST DUP13 DUP1 MSTORE DUP12 DUP14 KECCAK256 DUP8 SWAP5 POP SWAP2 SWAP1 PUSH1 0x1F NOT DUP5 AND DUP15 DUP15 JUMPDEST DUP3 DUP3 LT PUSH3 0x364 JUMPI POP POP DUP5 GT PUSH3 0x34A JUMPI JUMPDEST POP POP POP DUP2 SHL ADD DUP10 SSTORE PUSH3 0x13F JUMP JUMPDEST ADD MLOAD PUSH1 0x0 NOT PUSH1 0xF8 DUP5 PUSH1 0x3 SHL AND SHR NOT AND SWAP1 SSTORE CODESIZE DUP1 DUP1 PUSH3 0x33C JUMP JUMPDEST DUP4 DUP6 ADD MLOAD DUP7 SSTORE DUP11 SWAP8 SWAP1 SWAP6 ADD SWAP5 SWAP4 DUP5 ADD SWAP4 ADD DUP15 PUSH3 0x32A JUMP JUMPDEST SWAP1 SWAP2 POP DUP12 DUP1 MSTORE DUP11 DUP13 KECCAK256 DUP6 DUP1 DUP6 ADD PUSH1 0x5 SHR DUP3 ADD SWAP3 DUP14 DUP7 LT PUSH3 0x3C5 JUMPI JUMPDEST SWAP2 DUP9 SWAP2 DUP7 SWAP6 SWAP5 SWAP4 ADD PUSH1 0x5 SHR ADD SWAP2 JUMPDEST DUP3 DUP2 LT PUSH3 0x3B6 JUMPI POP POP PUSH3 0x115 JUMP JUMPDEST DUP15 DUP2 SSTORE DUP6 SWAP5 POP DUP9 SWAP2 ADD PUSH3 0x3A6 JUMP JUMPDEST SWAP3 POP DUP2 SWAP3 PUSH3 0x398 JUMP JUMPDEST PUSH4 0x4E487B71 PUSH1 0xE0 SHL DUP12 MSTORE PUSH1 0x22 PUSH1 0x4 MSTORE PUSH1 0x24 DUP12 REVERT JUMPDEST SWAP4 PUSH1 0x7F AND SWAP4 PUSH3 0xFE JUMP JUMPDEST PUSH4 0x4E487B71 PUSH1 0xE0 SHL PUSH1 0x0 MSTORE PUSH1 0x41 PUSH1 0x4 MSTORE PUSH1 0x24 PUSH1 0x0 REVERT JUMPDEST DUP9 MLOAD PUSH3 0x461BCD PUSH1 0xE5 SHL DUP2 MSTORE PUSH1 0x4 DUP2 ADD DUP8 SWAP1 MSTORE PUSH1 0x11 PUSH1 0x24 DUP3 ADD MSTORE PUSH17 0x1C1B185D199BDC9B481C995C5D5A5C9959 PUSH1 0x7A SHL PUSH1 0x44 DUP3 ADD MSTORE PUSH1 0x64 SWAP1 REVERT JUMPDEST DUP10 MLOAD PUSH3 0x461BCD PUSH1 0xE5 SHL DUP2 MSTORE PUSH1 0x4 DUP2 ADD DUP9 SWAP1 MSTORE PUSH1 0x10 PUSH1 0x24 DUP3 ADD MSTORE PUSH16 0x18DC99585D1BDC881C995C5D5A5C9959 PUSH1 0x82 SHL PUSH1 0x44 DUP3 ADD MSTORE PUSH1 0x64 SWAP1 REVERT JUMPDEST DUP10 MLOAD PUSH3 0x461BCD PUSH1 0xE5 SHL DUP2 MSTORE PUSH1 0x4 DUP2 ADD DUP9 SWAP1 MSTORE PUSH1 0x10 PUSH1 0x24 DUP3 ADD MSTORE PUSH16 0x199858DD1BDC9E481C995C5D5A5C9959 PUSH1 0x82 SHL PUSH1 0x44 DUP3 ADD MSTORE PUSH1 0x64 SWAP1 REVERT JUMPDEST DUP8 MLOAD PUSH3 0x461BCD PUSH1 0xE5 SHL DUP2 MSTORE PUSH1 0x4 DUP2 ADD DUP7 SWAP1 MSTORE PUSH1 0xF PUSH1 0x24 DUP3 ADD MSTORE PUSH15 0x1CDD5C1C1B1E481C995C5D5A5C9959 PUSH1 0x8A SHL PUSH1 0x44 DUP3 ADD MSTORE PUSH1 0x64 SWAP1 REVERT JUMPDEST DUP8 MLOAD PUSH3 0x461BCD PUSH1 0xE5 SHL DUP2 MSTORE PUSH1 0x4 DUP2 ADD DUP7 SWAP1 MSTORE PUSH1 0xF PUSH1 0x24 DUP3 ADD MSTORE PUSH15 0x1CDE5B589BDB081C995C5D5A5C9959 PUSH1 0x8A SHL PUSH1 0x44 DUP3 ADD MSTORE PUSH1 0x64 SWAP1 REVERT JUMPDEST DUP8 MLOAD PUSH3 0x461BCD PUSH1 0xE5 SHL DUP2 MSTORE PUSH1 0x4 DUP2 ADD DUP7 SWAP1 MSTORE PUSH1 0xD PUSH1 0x24 DUP3 ADD MSTORE PUSH13 0x1B985B59481C995C5D5A5C9959 PUSH1 0x9A SHL PUSH1 0x44 DUP3 ADD MSTORE PUSH1 0x64 SWAP1 REVERT JUMPDEST PUSH1 0x0 DUP1 REVERT JUMPDEST PUSH1 0x40 MLOAD SWAP2 SWAP1 PUSH1 0x1F ADD PUSH1 0x1F NOT AND DUP3 ADD PUSH1 0x1 PUSH1 0x1 PUSH1 0x40 SHL SUB DUP2 GT DUP4 DUP3 LT OR PUSH3 0x3EE JUMPI PUSH1 0x40 MSTORE JUMP JUMPDEST SWAP2 SWAP1 DUP1 PUSH1 0x1F DUP5 ADD SLT ISZERO PUSH3 0x54A JUMPI DUP3 MLOAD PUSH1 0x1 PUSH1 0x1 PUSH1 0x40 SHL SUB DUP2 GT PUSH3 0x3EE JUMPI PUSH1 0x20 SWAP1 PUSH3 0x5AB PUSH1 0x1F DUP3 ADD PUSH1 0x1F NOT AND DUP4 ADD PUSH3 0x54F JUMP JUMPDEST SWAP3 DUP2 DUP5 MSTORE DUP3 DUP3 DUP8 ADD ADD GT PUSH3 0x54A JUMPI PUSH1 0x0 JUMPDEST DUP2 DUP2 LT PUSH3 0x5D3 JUMPI POP DUP3 PUSH1 0x0 SWAP4 SWAP5 SWAP6 POP ADD ADD MSTORE SWAP1 JUMP JUMPDEST DUP6 DUP2 ADD DUP4 ADD MLOAD DUP5 DUP3 ADD DUP5 ADD MSTORE DUP3 ADD PUSH3 0x5BD JUMP JUMPDEST MLOAD SWAP1 PUSH1 0x1 PUSH1 0x1 PUSH1 0xA0 SHL SUB DUP3 AND DUP3 SUB PUSH3 0x54A JUMPI JUMP INVALID PUSH1 0x80 PUSH1 0x40 DUP2 DUP2 MSTORE PUSH1 0x4 SWAP2 DUP3 CALLDATASIZE LT ISZERO PUSH2 0x16 JUMPI PUSH1 0x0 DUP1 REVERT JUMPDEST PUSH1 0x0 SWAP3 DUP4 CALLDATALOAD PUSH1 0xE0 SHR SWAP2 DUP3 PUSH4 0x2D05D3F EQ PUSH2 0x95C JUMPI POP DUP2 PUSH4 0x44991D8 EQ PUSH2 0x93D JUMPI DUP2 PUSH4 0x6FDDE03 EQ PUSH2 0x863 JUMPI DUP2 PUSH4 0x95EA7B3 EQ PUSH2 0x7F2 JUMPI DUP2 PUSH4 0x18160DDD EQ PUSH2 0x7D3 JUMPI DUP2 PUSH4 0x23B872DD EQ PUSH2 0x6CC JUMPI DUP2 PUSH4 0x2BEBF6BF EQ PUSH2 0x602 JUMPI DUP2 PUSH4 0x313CE567 EQ PUSH2 0x5E6 JUMPI DUP2 PUSH4 0x351FEE46 EQ PUSH2 0x522 JUMPI DUP2 PUSH4 0x539AA77F EQ PUSH2 0x506 JUMPI DUP2 PUSH4 0x70A08231 EQ PUSH2 0x4CE JUMPI DUP2 PUSH4 0x9185F598 EQ PUSH2 0x4B2 JUMPI DUP2 PUSH4 0x95D89B41 EQ PUSH2 0x38F JUMPI DUP2 PUSH4 0x9E5F358A EQ PUSH2 0x371 JUMPI DUP2 PUSH4 0xA9059CBB EQ PUSH2 0x340 JUMPI DUP2 PUSH4 0xAE36F5C8 EQ PUSH2 0x247 JUMPI POP DUP1 PUSH4 0xC45A0155 EQ PUSH2 0x204 JUMPI DUP1 PUSH4 0xCC3CBD2A EQ PUSH2 0x1E9 JUMPI DUP1 PUSH4 0xDD62ED3E EQ PUSH2 0x1A1 JUMPI DUP1 PUSH4 0xE1A45218 EQ PUSH2 0x185 JUMPI DUP1 PUSH4 0xEB13554F EQ PUSH2 0x142 JUMPI PUSH4 0xF242AB41 EQ PUSH2 0x117 JUMPI PUSH1 0x0 DUP1 REVERT JUMPDEST CALLVALUE PUSH2 0x13E JUMPI DUP2 PUSH1 0x3 NOT CALLDATASIZE ADD SLT PUSH2 0x13E JUMPI PUSH1 0x3 SLOAD SWAP1 MLOAD PUSH1 0x1 PUSH1 0x1 PUSH1 0xA0 SHL SUB SWAP1 SWAP2 AND DUP2 MSTORE PUSH1 0x20 SWAP1 RETURN JUMPDEST POP DUP1 REVERT JUMPDEST POP CALLVALUE PUSH2 0x13E JUMPI DUP2 PUSH1 0x3 NOT CALLDATASIZE ADD SLT PUSH2 0x13E JUMPI MLOAD PUSH32 0x0 PUSH1 0x1 PUSH1 0x1 PUSH1 0xA0 SHL SUB AND DUP2 MSTORE PUSH1 0x20 SWAP1 RETURN JUMPDEST POP CALLVALUE PUSH2 0x13E JUMPI DUP2 PUSH1 0x3 NOT CALLDATASIZE ADD SLT PUSH2 0x13E JUMPI PUSH1 0x20 SWAP1 MLOAD PUSH2 0x2710 DUP2 MSTORE RETURN JUMPDEST POP CALLVALUE PUSH2 0x13E JUMPI DUP1 PUSH1 0x3 NOT CALLDATASIZE ADD SLT PUSH2 0x13E JUMPI DUP1 PUSH1 0x20 SWAP3 PUSH2 0x1BE PUSH2 0x9E8 JUMP JUMPDEST PUSH2 0x1C6 PUSH2 0xA03 JUMP JUMPDEST PUSH1 0x1 PUSH1 0x1 PUSH1 0xA0 SHL SUB SWAP2 DUP3 AND DUP4 MSTORE PUSH1 0x7 DUP7 MSTORE DUP4 DUP4 KECCAK256 SWAP2 AND DUP3 MSTORE DUP5 MSTORE KECCAK256 SLOAD SWAP1 MLOAD SWAP1 DUP2 MSTORE RETURN JUMPDEST POP CALLVALUE PUSH2 0x13E JUMPI DUP2 PUSH1 0x3 NOT CALLDATASIZE ADD SLT PUSH2 0x13E JUMPI PUSH1 0x20 SWAP1 MLOAD PUSH1 0x1E DUP2 MSTORE RETURN JUMPDEST POP CALLVALUE PUSH2 0x13E JUMPI DUP2 PUSH1 0x3 NOT CALLDATASIZE ADD SLT PUSH2 0x13E JUMPI MLOAD PUSH32 0x0 PUSH1 0x1 PUSH1 0x1 PUSH1 0xA0 SHL SUB AND DUP2 MSTORE PUSH1 0x20 SWAP1 RETURN JUMPDEST SWAP1 POP CALLVALUE PUSH2 0x33C JUMPI PUSH1 0x20 CALLDATASIZE PUSH1 0x3 NOT ADD SLT PUSH2 0x33C JUMPI PUSH2 0x262 PUSH2 0x9E8 JUMP JUMPDEST PUSH1 0x1 PUSH1 0x1 PUSH1 0xA0 SHL SUB SWAP1 PUSH32 0x0 DUP3 AND CALLER SUB PUSH2 0x30A JUMPI AND SWAP2 DUP3 ISZERO PUSH2 0x2D7 JUMPI POP POP PUSH1 0x3 DUP1 SLOAD PUSH1 0x1 PUSH1 0x1 PUSH1 0xA0 SHL SUB NOT AND DUP3 OR SWAP1 SSTORE PUSH32 0xC3CD203585FBC28DCC1692611D2EBC4190312A5B189047DF793C69B157AA0D29 DUP3 DUP1 LOG2 DUP1 RETURN JUMPDEST SWAP1 PUSH1 0x20 PUSH1 0x64 SWAP3 MLOAD SWAP2 PUSH3 0x461BCD PUSH1 0xE5 SHL DUP4 MSTORE DUP3 ADD MSTORE PUSH1 0xD PUSH1 0x24 DUP3 ADD MSTORE PUSH13 0x1C185A5C881C995C5D5A5C9959 PUSH1 0x9A SHL PUSH1 0x44 DUP3 ADD MSTORE REVERT JUMPDEST DUP4 MLOAD PUSH3 0x461BCD PUSH1 0xE5 SHL DUP2 MSTORE PUSH1 0x20 DUP2 DUP6 ADD MSTORE PUSH1 0xC PUSH1 0x24 DUP3 ADD MSTORE PUSH12 0x6F6E6C7920666163746F7279 PUSH1 0xA0 SHL PUSH1 0x44 DUP3 ADD MSTORE PUSH1 0x64 SWAP1 REVERT JUMPDEST DUP3 DUP1 REVERT JUMPDEST POP POP CALLVALUE PUSH2 0x13E JUMPI DUP1 PUSH1 0x3 NOT CALLDATASIZE ADD SLT PUSH2 0x13E JUMPI PUSH1 0x20 SWAP1 PUSH2 0x36A PUSH2 0x360 PUSH2 0x9E8 JUMP JUMPDEST PUSH1 0x24 CALLDATALOAD SWAP1 CALLER PUSH2 0xA88 JUMP JUMPDEST MLOAD PUSH1 0x1 DUP2 MSTORE RETURN JUMPDEST SWAP1 POP CALLVALUE PUSH2 0x33C JUMPI DUP3 PUSH1 0x3 NOT CALLDATASIZE ADD SLT PUSH2 0x33C JUMPI PUSH1 0x20 SWAP3 POP SLOAD SWAP1 MLOAD SWAP1 DUP2 MSTORE RETURN JUMPDEST DUP4 DUP4 CALLVALUE PUSH2 0x13E JUMPI DUP2 PUSH1 0x3 NOT CALLDATASIZE ADD SLT PUSH2 0x13E JUMPI DUP1 MLOAD SWAP1 DUP3 PUSH1 0x1 DUP1 SLOAD SWAP1 DUP2 PUSH1 0x1 SHR SWAP1 PUSH1 0x1 DUP4 AND SWAP3 DUP4 ISZERO PUSH2 0x4A8 JUMPI JUMPDEST PUSH1 0x20 SWAP4 DUP5 DUP5 LT DUP2 EQ PUSH2 0x495 JUMPI DUP4 DUP9 MSTORE SWAP1 DUP2 ISZERO PUSH2 0x479 JUMPI POP PUSH1 0x1 EQ PUSH2 0x423 JUMPI JUMPDEST POP POP POP DUP3 SWAP1 SUB PUSH1 0x1F ADD PUSH1 0x1F NOT AND DUP3 ADD SWAP3 PUSH8 0xFFFFFFFFFFFFFFFF DUP5 GT DUP4 DUP6 LT OR PUSH2 0x410 JUMPI POP DUP3 SWAP2 DUP3 PUSH2 0x40C SWAP3 MSTORE DUP3 PUSH2 0x99F JUMP JUMPDEST SUB SWAP1 RETURN JUMPDEST PUSH4 0x4E487B71 PUSH1 0xE0 SHL DUP2 MSTORE PUSH1 0x41 DUP6 MSTORE PUSH1 0x24 SWAP1 REVERT JUMPDEST PUSH1 0x1 DUP8 MSTORE SWAP2 SWAP3 POP DUP6 SWAP2 DUP4 PUSH32 0xB10E2D527612073B26EECDFD717E6A320CF44B4AFAC2B0732D9FCBE2B7FA0CF6 JUMPDEST DUP4 DUP6 LT PUSH2 0x465 JUMPI POP POP POP POP DUP4 ADD ADD DUP6 DUP1 DUP1 PUSH2 0x3DA JUMP JUMPDEST DUP1 SLOAD DUP9 DUP7 ADD DUP4 ADD MSTORE SWAP4 ADD SWAP3 DUP5 SWAP1 DUP3 ADD PUSH2 0x44F JUMP JUMPDEST PUSH1 0xFF NOT AND DUP8 DUP6 ADD MSTORE POP POP ISZERO ISZERO PUSH1 0x5 SHL DUP5 ADD ADD SWAP1 POP DUP6 DUP1 DUP1 PUSH2 0x3DA JUMP JUMPDEST PUSH4 0x4E487B71 PUSH1 0xE0 SHL DUP10 MSTORE PUSH1 0x22 DUP11 MSTORE PUSH1 0x24 DUP10 REVERT JUMPDEST SWAP2 PUSH1 0x7F AND SWAP2 PUSH2 0x3BB JUMP JUMPDEST POP POP CALLVALUE PUSH2 0x13E JUMPI DUP2 PUSH1 0x3 NOT CALLDATASIZE ADD SLT PUSH2 0x13E JUMPI PUSH1 0x20 SWAP1 MLOAD PUSH1 0x32 DUP2 MSTORE RETURN JUMPDEST POP POP CALLVALUE PUSH2 0x13E JUMPI PUSH1 0x20 CALLDATASIZE PUSH1 0x3 NOT ADD SLT PUSH2 0x13E JUMPI PUSH1 0x20 SWAP2 DUP2 SWAP1 PUSH1 0x1 PUSH1 0x1 PUSH1 0xA0 SHL SUB PUSH2 0x4F6 PUSH2 0x9E8 JUMP JUMPDEST AND DUP2 MSTORE PUSH1 0x6 DUP5 MSTORE KECCAK256 SLOAD SWAP1 MLOAD SWAP1 DUP2 MSTORE RETURN JUMPDEST POP POP CALLVALUE PUSH2 0x13E JUMPI DUP2 PUSH1 0x3 NOT CALLDATASIZE ADD SLT PUSH2 0x13E JUMPI PUSH1 0x20 SWAP1 MLOAD PUSH1 0x14 DUP2 MSTORE RETURN JUMPDEST DUP4 DUP4 CALLVALUE PUSH2 0x13E JUMPI DUP2 PUSH1 0x3 NOT CALLDATASIZE ADD SLT PUSH2 0x13E JUMPI PUSH32 0x0 PUSH1 0x1 PUSH1 0x1 PUSH1 0xA0 SHL SUB DUP2 AND SWAP1 CALLER DUP3 SWAP1 SUB PUSH2 0x5B4 JUMPI DUP5 PUSH2 0x586 SWAP2 PUSH1 0x20 SWAP7 SLOAD SWAP6 DUP7 SWAP3 PUSH2 0x57F DUP5 ISZERO ISZERO PUSH2 0xA3C JUMP JUMPDEST SSTORE ADDRESS PUSH2 0xCA3 JUMP JUMPDEST PUSH32 0xD046302BDC39599E60A5981E59227DCD1C643F512F56F2E984390C3AC6EADEDB DUP5 DUP4 MLOAD DUP6 DUP2 MSTORE LOG2 MLOAD SWAP1 DUP2 MSTORE RETURN JUMPDEST DUP3 MLOAD PUSH3 0x461BCD PUSH1 0xE5 SHL DUP2 MSTORE PUSH1 0x20 DUP2 DUP8 ADD MSTORE PUSH1 0xC PUSH1 0x24 DUP3 ADD MSTORE PUSH12 0x37B7363C9031B932B0BA37B9 PUSH1 0xA1 SHL PUSH1 0x44 DUP3 ADD MSTORE PUSH1 0x64 SWAP1 REVERT JUMPDEST POP POP CALLVALUE PUSH2 0x13E JUMPI DUP2 PUSH1 0x3 NOT CALLDATASIZE ADD SLT PUSH2 0x13E JUMPI PUSH1 0x20 SWAP1 MLOAD PUSH1 0x12 DUP2 MSTORE RETURN JUMPDEST SWAP2 SWAP1 POP CALLVALUE PUSH2 0x33C JUMPI DUP3 PUSH1 0x3 NOT CALLDATASIZE ADD SLT PUSH2 0x33C JUMPI PUSH32 0x0 SWAP2 PUSH1 0x1 PUSH1 0x1 PUSH1 0xA0 SHL SUB DUP4 AND SWAP1 CALLER DUP3 SWAP1 SUB PUSH2 0x699 JUMPI POP PUSH2 0x66B PUSH1 0x20 SWAP5 PUSH1 0x5 SLOAD SWAP5 DUP6 SWAP2 PUSH2 0x662 DUP4 ISZERO ISZERO PUSH2 0xA3C JUMP JUMPDEST PUSH1 0x5 SSTORE ADDRESS PUSH2 0xCA3 JUMP JUMPDEST PUSH32 0x636F1043CFF5F4C437926A4412416778DDC5E970FEB177685B587E81DAD9095 DUP5 DUP4 MLOAD DUP6 DUP2 MSTORE LOG2 MLOAD SWAP1 DUP2 MSTORE RETURN JUMPDEST PUSH1 0x64 SWAP1 PUSH1 0x20 DUP5 MLOAD SWAP2 PUSH3 0x461BCD PUSH1 0xE5 SHL DUP4 MSTORE DUP3 ADD MSTORE PUSH1 0xD PUSH1 0x24 DUP3 ADD MSTORE PUSH13 0x6F6E6C7920706C6174666F726D PUSH1 0x98 SHL PUSH1 0x44 DUP3 ADD MSTORE REVERT JUMPDEST SWAP2 SWAP1 POP CALLVALUE PUSH2 0x33C JUMPI PUSH1 0x60 CALLDATASIZE PUSH1 0x3 NOT ADD SLT PUSH2 0x33C JUMPI PUSH2 0x6E8 PUSH2 0x9E8 JUMP JUMPDEST PUSH2 0x6F0 PUSH2 0xA03 JUMP JUMPDEST PUSH1 0x44 CALLDATALOAD SWAP2 PUSH1 0x1 DUP1 PUSH1 0xA0 SHL SUB DUP2 AND DUP1 DUP8 MSTORE PUSH1 0x20 SWAP6 PUSH1 0x7 DUP8 MSTORE DUP6 DUP9 KECCAK256 CALLER DUP10 MSTORE DUP8 MSTORE DUP6 DUP9 KECCAK256 SLOAD SWAP1 DUP6 DUP3 LT PUSH2 0x79B JUMPI POP SWAP5 DUP1 SWAP7 SWAP8 PUSH2 0x36A SWAP7 DUP7 PUSH1 0x0 NOT DUP3 SUB PUSH2 0x739 JUMPI JUMPDEST POP POP POP POP POP PUSH2 0xA88 JUMP JUMPDEST PUSH2 0x742 SWAP2 PUSH2 0xA19 JUMP JUMPDEST DUP4 DUP3 MSTORE PUSH1 0x7 DUP11 MSTORE DUP3 DUP3 KECCAK256 CALLER DUP4 MSTORE DUP11 MSTORE DUP3 DUP3 KECCAK256 SSTORE DUP3 DUP2 MSTORE PUSH1 0x7 DUP10 MSTORE DUP2 DUP2 KECCAK256 CALLER DUP3 MSTORE DUP10 MSTORE KECCAK256 SLOAD SWAP1 DUP7 MLOAD SWAP2 DUP3 MSTORE PUSH32 0x8C5BE1E5EBEC7D5BD14F71427D1E84F3DD0314C0F7B2291E5B200AC8C7C3B925 DUP9 CALLER SWAP4 LOG3 CODESIZE DUP6 DUP2 DUP1 DUP7 PUSH2 0x72F JUMP JUMPDEST DUP7 MLOAD PUSH3 0x461BCD PUSH1 0xE5 SHL DUP2 MSTORE SWAP1 DUP2 ADD DUP9 SWAP1 MSTORE PUSH1 0x12 PUSH1 0x24 DUP3 ADD MSTORE PUSH18 0x185B1B1BDDD85B98D948195E18D959591959 PUSH1 0x72 SHL PUSH1 0x44 DUP3 ADD MSTORE PUSH1 0x64 SWAP1 REVERT JUMPDEST POP POP CALLVALUE PUSH2 0x13E JUMPI DUP2 PUSH1 0x3 NOT CALLDATASIZE ADD SLT PUSH2 0x13E JUMPI PUSH1 0x20 SWAP1 PUSH1 0x2 SLOAD SWAP1 MLOAD SWAP1 DUP2 MSTORE RETURN JUMPDEST POP POP CALLVALUE PUSH2 0x13E JUMPI DUP1 PUSH1 0x3 NOT CALLDATASIZE ADD SLT PUSH2 0x13E JUMPI PUSH1 0x20 SWAP2 DUP2 PUSH2 0x810 PUSH2 0x9E8 JUMP JUMPDEST SWAP2 PUSH1 0x24 CALLDATALOAD SWAP2 DUP3 SWAP2 CALLER DUP2 MSTORE PUSH1 0x7 DUP8 MSTORE DUP2 DUP2 KECCAK256 SWAP5 PUSH1 0x1 DUP1 PUSH1 0xA0 SHL SUB AND SWAP5 DUP6 DUP3 MSTORE DUP8 MSTORE KECCAK256 SSTORE DUP3 MLOAD SWAP1 DUP2 MSTORE PUSH32 0x8C5BE1E5EBEC7D5BD14F71427D1E84F3DD0314C0F7B2291E5B200AC8C7C3B925 DUP5 CALLER SWAP3 LOG3 MLOAD PUSH1 0x1 DUP2 MSTORE RETURN JUMPDEST DUP4 DUP4 CALLVALUE PUSH2 0x13E JUMPI DUP2 PUSH1 0x3 NOT CALLDATASIZE ADD SLT PUSH2 0x13E JUMPI DUP1 MLOAD SWAP1 DUP3 DUP4 SLOAD PUSH1 0x1 DUP2 PUSH1 0x1 SHR SWAP1 PUSH1 0x1 DUP4 AND SWAP3 DUP4 ISZERO PUSH2 0x933 JUMPI JUMPDEST PUSH1 0x20 SWAP4 DUP5 DUP5 LT DUP2 EQ PUSH2 0x495 JUMPI DUP4 DUP9 MSTORE SWAP1 DUP2 ISZERO PUSH2 0x479 JUMPI POP PUSH1 0x1 EQ PUSH2 0x8DE JUMPI POP POP POP DUP3 SWAP1 SUB PUSH1 0x1F ADD PUSH1 0x1F NOT AND DUP3 ADD SWAP3 PUSH8 0xFFFFFFFFFFFFFFFF DUP5 GT DUP4 DUP6 LT OR PUSH2 0x410 JUMPI POP DUP3 SWAP2 DUP3 PUSH2 0x40C SWAP3 MSTORE DUP3 PUSH2 0x99F JUMP JUMPDEST DUP7 DUP1 MSTORE SWAP2 SWAP3 POP DUP6 SWAP2 DUP4 PUSH32 0x290DECD9548B62A8D60345A988386FC84BA6BC95484008F6362F93160EF3E563 JUMPDEST DUP4 DUP6 LT PUSH2 0x91F JUMPI POP POP POP POP DUP4 ADD ADD DUP6 DUP1 DUP1 PUSH2 0x3DA JUMP JUMPDEST DUP1 SLOAD DUP9 DUP7 ADD DUP4 ADD MSTORE SWAP4 ADD SWAP3 DUP5 SWAP1 DUP3 ADD PUSH2 0x909 JUMP JUMPDEST SWAP2 PUSH1 0x7F AND SWAP2 PUSH2 0x88E JUMP JUMPDEST POP POP CALLVALUE PUSH2 0x13E JUMPI DUP2 PUSH1 0x3 NOT CALLDATASIZE ADD SLT PUSH2 0x13E JUMPI PUSH1 0x20 SWAP1 PUSH1 0x5 SLOAD SWAP1 MLOAD SWAP1 DUP2 MSTORE RETURN JUMPDEST DUP5 SWAP1 CALLVALUE PUSH2 0x13E JUMPI DUP2 PUSH1 0x3 NOT CALLDATASIZE ADD SLT PUSH2 0x13E JUMPI PUSH32 0x0 PUSH1 0x1 PUSH1 0x1 PUSH1 0xA0 SHL SUB AND DUP2 MSTORE PUSH1 0x20 SWAP1 RETURN JUMPDEST PUSH1 0x20 DUP1 DUP3 MSTORE DUP3 MLOAD DUP2 DUP4 ADD DUP2 SWAP1 MSTORE SWAP1 SWAP4 SWAP3 PUSH1 0x0 JUMPDEST DUP3 DUP2 LT PUSH2 0x9D4 JUMPI POP POP PUSH1 0x40 SWAP3 SWAP4 POP PUSH1 0x0 DUP4 DUP3 DUP5 ADD ADD MSTORE PUSH1 0x1F DUP1 NOT SWAP2 ADD AND ADD ADD SWAP1 JUMP JUMPDEST DUP2 DUP2 ADD DUP7 ADD MLOAD DUP5 DUP3 ADD PUSH1 0x40 ADD MSTORE DUP6 ADD PUSH2 0x9B2 JUMP JUMPDEST PUSH1 0x4 CALLDATALOAD SWAP1 PUSH1 0x1 PUSH1 0x1 PUSH1 0xA0 SHL SUB DUP3 AND DUP3 SUB PUSH2 0x9FE JUMPI JUMP JUMPDEST PUSH1 0x0 DUP1 REVERT JUMPDEST PUSH1 0x24 CALLDATALOAD SWAP1 PUSH1 0x1 PUSH1 0x1 PUSH1 0xA0 SHL SUB DUP3 AND DUP3 SUB PUSH2 0x9FE JUMPI JUMP JUMPDEST SWAP2 SWAP1 DUP3 SUB SWAP2 DUP3 GT PUSH2 0xA26 JUMPI JUMP JUMPDEST PUSH4 0x4E487B71 PUSH1 0xE0 SHL PUSH1 0x0 MSTORE PUSH1 0x11 PUSH1 0x4 MSTORE PUSH1 0x24 PUSH1 0x0 REVERT JUMPDEST ISZERO PUSH2 0xA43 JUMPI JUMP JUMPDEST PUSH1 0x40 MLOAD PUSH3 0x461BCD PUSH1 0xE5 SHL DUP2 MSTORE PUSH1 0x20 PUSH1 0x4 DUP3 ADD MSTORE PUSH1 0x10 PUSH1 0x24 DUP3 ADD MSTORE PUSH16 0x6E6F7468696E6720746F20636C61696D PUSH1 0x80 SHL PUSH1 0x44 DUP3 ADD MSTORE PUSH1 0x64 SWAP1 REVERT JUMPDEST SWAP2 SWAP1 DUP3 ADD DUP1 SWAP3 GT PUSH2 0xA26 JUMPI JUMP JUMPDEST PUSH1 0x1 PUSH1 0x1 PUSH1 0xA0 SHL SUB DUP1 DUP4 AND SWAP4 SWAP2 SWAP3 SWAP1 DUP5 ISZERO PUSH2 0xC6F JUMPI DUP4 AND SWAP3 PUSH1 0x0 SWAP2 DUP5 DUP4 MSTORE PUSH1 0x20 SWAP3 PUSH1 0x6 DUP5 MSTORE PUSH1 0x40 SWAP2 DUP3 DUP3 KECCAK256 SLOAD SWAP1 DUP7 DUP3 LT PUSH2 0xC39 JUMPI PUSH2 0xAC7 SWAP1 DUP8 SWAP6 PUSH2 0xD5B JUMP JUMPDEST DUP1 PUSH2 0xC30 JUMPI JUMPDEST PUSH2 0xB22 JUMPI JUMPDEST SWAP1 PUSH2 0xAFF PUSH32 0xDDF252AD1BE2C89B69C2B068FC378DAA952BA7F163C4A11628F55A4DF523B3EF SWAP7 DUP5 SWAP4 PUSH2 0xA19 JUMP JUMPDEST DUP8 DUP3 MSTORE PUSH1 0x6 DUP7 MSTORE DUP3 DUP3 KECCAK256 SSTORE DUP8 DUP2 MSTORE KECCAK256 PUSH2 0xB19 DUP4 DUP3 SLOAD PUSH2 0xA7B JUMP JUMPDEST SWAP1 SSTORE MLOAD SWAP1 DUP2 MSTORE LOG3 JUMP JUMPDEST PUSH1 0x32 DUP7 MUL DUP7 ISZERO SWAP1 DUP8 DUP2 DIV PUSH1 0x32 EQ DUP3 OR ISZERO PUSH2 0xC1C JUMPI PUSH2 0x2710 DUP1 SWAP2 DIV SWAP2 DUP3 PUSH2 0xB4B JUMPI JUMPDEST POP POP POP PUSH2 0xAD2 JUMP JUMPDEST SWAP1 SWAP2 SWAP6 POP PUSH1 0x1E DUP9 MUL SWAP1 DUP9 DUP3 DIV PUSH1 0x1E EQ OR ISZERO PUSH2 0xC1C JUMPI DUP9 DUP6 SWAP5 SWAP4 SWAP3 DUP12 SWAP3 DIV DUP6 DUP9 DUP11 DUP5 DUP14 PUSH2 0xB77 DUP7 DUP6 PUSH2 0xA19 JUMP JUMPDEST SWAP4 PUSH2 0xB81 SWAP2 PUSH2 0xA19 JUMP JUMPDEST SWAP12 DUP6 PUSH1 0x4 SLOAD SWAP1 PUSH2 0xB90 SWAP2 PUSH2 0xA7B JUMP JUMPDEST PUSH1 0x4 SSTORE DUP4 PUSH1 0x5 SLOAD SWAP1 PUSH2 0xBA1 SWAP2 PUSH2 0xA7B JUMP JUMPDEST PUSH1 0x5 SSTORE ADDRESS DUP11 MSTORE PUSH1 0x6 DUP4 MSTORE DUP5 DUP11 KECCAK256 DUP2 DUP2 SLOAD SWAP1 PUSH2 0xBBB SWAP2 PUSH2 0xA7B JUMP JUMPDEST SWAP1 SSTORE DUP5 MLOAD SWAP1 DUP2 MSTORE ADDRESS SWAP3 PUSH32 0xDDF252AD1BE2C89B69C2B068FC378DAA952BA7F163C4A11628F55A4DF523B3EF SWAP2 LOG3 DUP2 MLOAD SWAP3 DUP4 MSTORE DUP11 DUP4 ADD MSTORE PUSH32 0x93BD139EA85D53C55E02DEC709128F827EBD5CB8A4A0D873193711B70B0A15B9 SWAP2 LOG3 SWAP1 SWAP2 CODESIZE DUP1 PUSH2 0xB43 JUMP JUMPDEST PUSH4 0x4E487B71 PUSH1 0xE0 SHL DUP5 MSTORE PUSH1 0x11 PUSH1 0x4 MSTORE PUSH1 0x24 DUP5 REVERT JUMPDEST POP DUP6 ISZERO ISZERO PUSH2 0xACD JUMP JUMPDEST DUP4 MLOAD PUSH3 0x461BCD PUSH1 0xE5 SHL DUP2 MSTORE PUSH1 0x4 DUP2 ADD DUP8 SWAP1 MSTORE PUSH1 0xF PUSH1 0x24 DUP3 ADD MSTORE PUSH15 0x62616C616E636520746F6F206C6F77 PUSH1 0x88 SHL PUSH1 0x44 DUP3 ADD MSTORE PUSH1 0x64 SWAP1 REVERT JUMPDEST PUSH1 0x40 MLOAD PUSH3 0x461BCD PUSH1 0xE5 SHL DUP2 MSTORE PUSH1 0x20 PUSH1 0x4 DUP3 ADD MSTORE PUSH1 0xC PUSH1 0x24 DUP3 ADD MSTORE PUSH12 0x7A65726F2061646472657373 PUSH1 0xA0 SHL PUSH1 0x44 DUP3 ADD MSTORE PUSH1 0x64 SWAP1 REVERT JUMPDEST PUSH1 0x1 DUP1 PUSH1 0xA0 SHL SUB DUP1 SWAP2 AND SWAP2 PUSH1 0x0 SWAP4 DUP4 DUP6 MSTORE PUSH1 0x6 PUSH1 0x20 MSTORE PUSH1 0x40 DUP6 KECCAK256 SLOAD DUP2 DUP2 LT PUSH2 0xD1D JUMPI PUSH32 0xDDF252AD1BE2C89B69C2B068FC378DAA952BA7F163C4A11628F55A4DF523B3EF SWAP4 PUSH1 0x20 SWAP4 PUSH2 0xCF6 DUP5 PUSH1 0x40 SWAP5 PUSH2 0xA19 JUMP JUMPDEST DUP8 DUP10 MSTORE PUSH1 0x6 DUP7 MSTORE DUP4 DUP10 KECCAK256 SSTORE AND SWAP6 DUP7 DUP2 MSTORE KECCAK256 PUSH2 0xD12 DUP3 DUP3 SLOAD PUSH2 0xA7B JUMP JUMPDEST SWAP1 SSTORE PUSH1 0x40 MLOAD SWAP1 DUP2 MSTORE LOG3 JUMP JUMPDEST PUSH1 0x40 MLOAD PUSH3 0x461BCD PUSH1 0xE5 SHL DUP2 MSTORE PUSH1 0x20 PUSH1 0x4 DUP3 ADD MSTORE PUSH1 0x16 PUSH1 0x24 DUP3 ADD MSTORE PUSH22 0x1A5B9CDD59999A58DA595B9D08199959481D985D5B1D PUSH1 0x52 SHL PUSH1 0x44 DUP3 ADD MSTORE PUSH1 0x64 SWAP1 REVERT JUMPDEST PUSH1 0x3 SLOAD PUSH1 0x1 PUSH1 0x1 PUSH1 0xA0 SHL SUB SWAP1 DUP2 AND SWAP2 DUP3 ISZERO PUSH2 0xD8E JUMPI DUP2 AND DUP3 EQ SWAP3 DUP4 ISZERO PUSH2 0xD82 JUMPI JUMPDEST POP POP POP SWAP1 JUMP JUMPDEST AND EQ SWAP1 POP CODESIZE DUP1 DUP1 PUSH2 0xD7C JUMP JUMPDEST POP POP POP POP PUSH1 0x0 SWAP1 JUMP INVALID LOG2 PUSH5 0x6970667358 0x22 SLT KECCAK256 0xF8 0xA6 0x2E 0xC3 0xE2 PC PUSH0 0xF6 0xEB PUSH11 0xDF7EF35311B2103F2E59A2 DUP15 CODECOPY 0xD3 GASLIMIT 0xBE SWAP9 PUSH1 0x5F 0xBD 0xE7 0xC3 PUSH5 0x736F6C6343 STOP ADDMOD XOR STOP CALLER 0xDD CALLCODE MSTORE 0xAD SHL 0xE2 0xC8 SWAP12 PUSH10 0xC2B068FC378DAA952BA7 CALL PUSH4 0xC4A11628 CREATE2 GAS 0x4D CREATE2 0x23 0xB3 0xEF LOG2 PUSH5 0x6970667358 0x22 SLT KECCAK256 SWAP5 0xF MUL 0x1F 0x27 KECCAK256 AND SWAP2 0x24 CALLDATALOAD PUSH20 0x8117523666DFFEA9EBBEA9DD33685B3CE8C55CD0 0xBF PUSH5 0x736F6C6343 STOP ADDMOD XOR STOP CALLER "},"methodIdentifiers":{"BPS_DENOMINATOR()":"e1a45218","createLaunch(string,string,string,string,uint256,uint256)":"1036338c","createLaunchInstant(string,string,string,string,uint256,uint256)":"96875aa0","defaultDexRouter()":"d578192c","defaultFeeBps()":"bcae25a4","defaultGraduationTargetEth()":"63f0eb04","defaultLpRecipient()":"13ed4aa6","defaultVirtualEthReserve()":"1c8c0d92","defaultVirtualTokenReserve()":"93a8e04d","feeRecipient()":"46904840","getLaunch(uint256)":"5930d3ce","getLaunchCount()":"9ff0251f","getLaunches(uint256,uint256)":"9b3b9f98","launchFeeWei()":"83eeb3bb","owner()":"8da5cb5b","platformFeeRecipient()":"eb13554f","poolByToken(address)":"0b0420bb","setDefaults(address,address,uint256,uint256,uint256,uint256,uint256,address,address)":"b82942a5","transferOwnership(address)":"f2fde38b"}}}}}