{"contracts/mocks/MockDex.sol":{"MockDexRouter":{"abi":[{"inputs":[{"internalType":"address","name":"_weth","type":"address"}],"stateMutability":"nonpayable","type":"constructor"},{"inputs":[],"name":"WETH","outputs":[{"internalType":"address","name":"","type":"address"}],"stateMutability":"view","type":"function"},{"inputs":[{"internalType":"address","name":"token","type":"address"},{"internalType":"uint256","name":"amountTokenDesired","type":"uint256"},{"internalType":"uint256","name":"","type":"uint256"},{"internalType":"uint256","name":"","type":"uint256"},{"internalType":"address","name":"","type":"address"},{"internalType":"uint256","name":"","type":"uint256"}],"name":"addLiquidityETH","outputs":[{"internalType":"uint256","name":"amountToken","type":"uint256"},{"internalType":"uint256","name":"amountETH","type":"uint256"},{"internalType":"uint256","name":"liquidity","type":"uint256"}],"stateMutability":"payable","type":"function"},{"inputs":[],"name":"factory","outputs":[{"internalType":"address","name":"","type":"address"}],"stateMutability":"view","type":"function"}],"evm":{"bytecode":{"linkReferences":{},"object":"60c03461010d576001600160401b0390601f610c1638819003918201601f1916830191848311848410176100c25780849260209460405283398101031261010d57516001600160a01b03919082811680820361010d57156100d8576080526040519061065d90818301908111838210176100c25782916105b9833903906000f080156100b6571660a0526040516104a69081610113823960805181818160b401526103e5015260a051818181607e01526103a20152f35b6040513d6000823e3d90fd5b634e487b7160e01b600052604160045260246000fd5b60405162461bcd60e51b815260206004820152600d60248201526c1dd95d1a081c995c5d5a5c9959609a1b6044820152606490fd5b600080fdfe60806040908082526004918236101561001757600080fd5b600091823560e01c908163ad5c4648146103d157508063c45a01551461038e5763f305d7191461004657600080fd5b60c036600319011261038a576001600160a01b03918335838116929190839003610387576024948535946084358181160361038357807f0000000000000000000000000000000000000000000000000000000000000000169484519163e6a4390560e01b83528184840152807f00000000000000000000000000000000000000000000000000000000000000001696878a8501526020978885604481855afa948515610379579289928c95928995869861035a575b50828816156102e3575b5050606490895194859384926323b872dd60e01b8452338b850152891680988401528d60448401525af19081156102d957859161029f575b501561026557803b15610261578380918987518094819363c223428960e01b83528c898401525af180156102575761022a575b50828080809334905af13d15610225573d67ffffffffffffffff8111610213578451906101a6601f8201601f1916880183610414565b815283863d92013e5b156101db57506060945050348310156101d45782915b81519384523490840152820152f35b34916101c5565b825162461bcd60e51b815290810184905260138187015272195d1a081d1c985b9cd9995c8819985a5b1959606a1b6044820152606490fd5b634e487b7160e01b8452604183528784fd5b6101af565b67ffffffffffffffff81949294116102455784529138610170565b5060418792634e487b7160e01b835252fd5b85513d86823e3d90fd5b8380fd5b845162461bcd60e51b81528084018790526015818a0152741d1bdad95b881d1c985b9cd9995c8819985a5b1959605a1b6044820152606490fd5b90508681813d83116102d2575b6102b68183610414565b810103126102ce575180151581036102ce573861013d565b8480fd5b503d6102ac565b86513d87823e3d90fd5b8a51630edef2e760e31b815289810185905296870152306044870152909550909392839160649183915af19081156102d9578992606487938a93859161032d575b50959038610105565b61034d9150843d8611610353575b6103458183610414565b81019061044c565b38610324565b503d61033b565b610372919850853d8711610353576103458183610414565b96386100fb565b88513d89823e3d90fd5b8280fd5b80fd5b5080fd5b503461038a578160031936011261038a57517f00000000000000000000000000000000000000000000000000000000000000006001600160a01b03168152602090f35b83903461038a578160031936011261038a577f00000000000000000000000000000000000000000000000000000000000000006001600160a01b03168152602090f35b90601f8019910116810190811067ffffffffffffffff82111761043657604052565b634e487b7160e01b600052604160045260246000fd5b9081602091031261046b57516001600160a01b038116810361046b5790565b600080fdfea2646970667358221220516f5526aca6617d3759933504908af0a62ced9b28eed791ace9b48d348a749964736f6c634300081800336080806040523461001657610641908161001c8239f35b600080fdfe608060408181526004918236101561001657600080fd5b600092833560e01c91826376f797381461008857505063e6a439051461003b57600080fd5b3461008457806003193601126100845760209181610057610266565b91610060610281565b6001600160a01b039384168252818652828220908416825285522054915191168152f35b5080fd5b83859134610262576060366003190112610262576100a4610266565b6100ac610281565b916001600160a01b036044358181169391929084900361025e578285169083831690828214610231575010156102295781905b169182156101ff578286526020968688528286882095169485885288528286882054166101d3578551916103748084019284841067ffffffffffffffff8511176101c057509183916060936102988439868252878b8301528882015203019086f080156101b657169381815280865283812083825286528484808320926bffffffffffffffffffffffff60a01b938385825416179055808952818120858252895220918254161790557fa92a2b95c8d8436f6ac4c673c61487364f877efb9534d4296fad8ef904546c94858451868152a351908152f35b84513d87823e3d90fd5b634e487b7160e01b8a5260419052602489fd5b855162461bcd60e51b8152908101889052600660248201526565786973747360d01b6044820152606490fd5b845162461bcd60e51b815260208189015260248101889052637a65726f60e01b6044820152606490fd5b9281906100df565b62461bcd60e51b815260208a82015260096024820152681a59195b9d1a58d85b60ba1b6044820152606490fd5b8680fd5b8280fd5b600435906001600160a01b038216820361027c57565b600080fd5b602435906001600160a01b038216820361027c5756fe60e0346100a057601f61037438819003918201601f19168301916001600160401b038311848410176100a5578084926060946040528339810103126100a057610047816100bb565b906100606040610059602084016100bb565b92016100bb565b9160805260a05260c0526040516102a490816100d082396080518160c0015260a051816101c2015260c051818181602101528181610108015261014f0152f35b600080fd5b634e487b7160e01b600052604160045260246000fd5b51906001600160a01b03821682036100a05756fe6080806040526004361015610060575b50361561001b57600080fd5b61004f337f00000000000000000000000000000000000000000000000000000000000000006001600160a01b031614610211565b61005b3460015461024b565b600155005b600090813560e01c90816301809a32146101f1575080633fc8cef3146101ac578063478aa2841461018f578063c223428914610137578063f887ea40146100f25763fc0c546a0361000f57346100ef57806003193601126100ef576040517f00000000000000000000000000000000000000000000000000000000000000006001600160a01b03168152602090f35b80fd5b50346100ef57806003193601126100ef576040517f00000000000000000000000000000000000000000000000000000000000000006001600160a01b03168152602090f35b50346100ef5760203660031901126100ef5761017d337f00000000000000000000000000000000000000000000000000000000000000006001600160a01b031614610211565b61018a600435825461024b565b815580f35b50346100ef57806003193601126100ef5760209054604051908152f35b50346100ef57806003193601126100ef576040517f00000000000000000000000000000000000000000000000000000000000000006001600160a01b03168152602090f35b90503461020d578160031936011261020d576020906001548152f35b5080fd5b1561021857565b60405162461bcd60e51b815260206004820152600b60248201526a37b7363c903937baba32b960a91b6044820152606490fd5b9190820180921161025857565b634e487b7160e01b600052601160045260246000fdfea26469706673582212202fe0f3f04894a9b16067ac041f54db2e17b77a74aa93afe73a0ba74f7a52aac764736f6c63430008180033a26469706673582212204849c7c85866bfde7f9fa508a81d5638e93d0c5317e2062d2fd185fff281ed4764736f6c63430008180033","opcodes":"PUSH1 0xC0 CALLVALUE PUSH2 0x10D JUMPI PUSH1 0x1 PUSH1 0x1 PUSH1 0x40 SHL SUB SWAP1 PUSH1 0x1F PUSH2 0xC16 CODESIZE DUP2 SWAP1 SUB SWAP2 DUP3 ADD PUSH1 0x1F NOT AND DUP4 ADD SWAP2 DUP5 DUP4 GT DUP5 DUP5 LT OR PUSH2 0xC2 JUMPI DUP1 DUP5 SWAP3 PUSH1 0x20 SWAP5 PUSH1 0x40 MSTORE DUP4 CODECOPY DUP2 ADD SUB SLT PUSH2 0x10D JUMPI MLOAD PUSH1 0x1 PUSH1 0x1 PUSH1 0xA0 SHL SUB SWAP2 SWAP1 DUP3 DUP2 AND DUP1 DUP3 SUB PUSH2 0x10D JUMPI ISZERO PUSH2 0xD8 JUMPI PUSH1 0x80 MSTORE PUSH1 0x40 MLOAD SWAP1 PUSH2 0x65D SWAP1 DUP2 DUP4 ADD SWAP1 DUP2 GT DUP4 DUP3 LT OR PUSH2 0xC2 JUMPI DUP3 SWAP2 PUSH2 0x5B9 DUP4 CODECOPY SUB SWAP1 PUSH1 0x0 CREATE DUP1 ISZERO PUSH2 0xB6 JUMPI AND PUSH1 0xA0 MSTORE PUSH1 0x40 MLOAD PUSH2 0x4A6 SWAP1 DUP2 PUSH2 0x113 DUP3 CODECOPY PUSH1 0x80 MLOAD DUP2 DUP2 DUP2 PUSH1 0xB4 ADD MSTORE PUSH2 0x3E5 ADD MSTORE PUSH1 0xA0 MLOAD DUP2 DUP2 DUP2 PUSH1 0x7E ADD MSTORE PUSH2 0x3A2 ADD MSTORE RETURN JUMPDEST PUSH1 0x40 MLOAD RETURNDATASIZE PUSH1 0x0 DUP3 RETURNDATACOPY RETURNDATASIZE SWAP1 REVERT JUMPDEST PUSH4 0x4E487B71 PUSH1 0xE0 SHL PUSH1 0x0 MSTORE PUSH1 0x41 PUSH1 0x4 MSTORE PUSH1 0x24 PUSH1 0x0 REVERT JUMPDEST PUSH1 0x40 MLOAD PUSH3 0x461BCD PUSH1 0xE5 SHL DUP2 MSTORE PUSH1 0x20 PUSH1 0x4 DUP3 ADD MSTORE PUSH1 0xD PUSH1 0x24 DUP3 ADD MSTORE PUSH13 0x1DD95D1A081C995C5D5A5C9959 PUSH1 0x9A SHL PUSH1 0x44 DUP3 ADD MSTORE PUSH1 0x64 SWAP1 REVERT JUMPDEST PUSH1 0x0 DUP1 REVERT INVALID PUSH1 0x80 PUSH1 0x40 SWAP1 DUP1 DUP3 MSTORE PUSH1 0x4 SWAP2 DUP3 CALLDATASIZE LT ISZERO PUSH2 0x17 JUMPI PUSH1 0x0 DUP1 REVERT JUMPDEST PUSH1 0x0 SWAP2 DUP3 CALLDATALOAD PUSH1 0xE0 SHR SWAP1 DUP2 PUSH4 0xAD5C4648 EQ PUSH2 0x3D1 JUMPI POP DUP1 PUSH4 0xC45A0155 EQ PUSH2 0x38E JUMPI PUSH4 0xF305D719 EQ PUSH2 0x46 JUMPI PUSH1 0x0 DUP1 REVERT JUMPDEST PUSH1 0xC0 CALLDATASIZE PUSH1 0x3 NOT ADD SLT PUSH2 0x38A JUMPI PUSH1 0x1 PUSH1 0x1 PUSH1 0xA0 SHL SUB SWAP2 DUP4 CALLDATALOAD DUP4 DUP2 AND SWAP3 SWAP2 SWAP1 DUP4 SWAP1 SUB PUSH2 0x387 JUMPI PUSH1 0x24 SWAP5 DUP6 CALLDATALOAD SWAP5 PUSH1 0x84 CALLDATALOAD DUP2 DUP2 AND SUB PUSH2 0x383 JUMPI DUP1 PUSH32 0x0 AND SWAP5 DUP5 MLOAD SWAP2 PUSH4 0xE6A43905 PUSH1 0xE0 SHL DUP4 MSTORE DUP2 DUP5 DUP5 ADD MSTORE DUP1 PUSH32 0x0 AND SWAP7 DUP8 DUP11 DUP6 ADD MSTORE PUSH1 0x20 SWAP8 DUP9 DUP6 PUSH1 0x44 DUP2 DUP6 GAS STATICCALL SWAP5 DUP6 ISZERO PUSH2 0x379 JUMPI SWAP3 DUP10 SWAP3 DUP13 SWAP6 SWAP3 DUP10 SWAP6 DUP7 SWAP9 PUSH2 0x35A JUMPI JUMPDEST POP DUP3 DUP9 AND ISZERO PUSH2 0x2E3 JUMPI JUMPDEST POP POP PUSH1 0x64 SWAP1 DUP10 MLOAD SWAP5 DUP6 SWAP4 DUP5 SWAP3 PUSH4 0x23B872DD PUSH1 0xE0 SHL DUP5 MSTORE CALLER DUP12 DUP6 ADD MSTORE DUP10 AND DUP1 SWAP9 DUP5 ADD MSTORE DUP14 PUSH1 0x44 DUP5 ADD MSTORE GAS CALL SWAP1 DUP2 ISZERO PUSH2 0x2D9 JUMPI DUP6 SWAP2 PUSH2 0x29F JUMPI JUMPDEST POP ISZERO PUSH2 0x265 JUMPI DUP1 EXTCODESIZE ISZERO PUSH2 0x261 JUMPI DUP4 DUP1 SWAP2 DUP10 DUP8 MLOAD DUP1 SWAP5 DUP2 SWAP4 PUSH4 0xC2234289 PUSH1 0xE0 SHL DUP4 MSTORE DUP13 DUP10 DUP5 ADD MSTORE GAS CALL DUP1 ISZERO PUSH2 0x257 JUMPI PUSH2 0x22A JUMPI JUMPDEST POP DUP3 DUP1 DUP1 DUP1 SWAP4 CALLVALUE SWAP1 GAS CALL RETURNDATASIZE ISZERO PUSH2 0x225 JUMPI RETURNDATASIZE PUSH8 0xFFFFFFFFFFFFFFFF DUP2 GT PUSH2 0x213 JUMPI DUP5 MLOAD SWAP1 PUSH2 0x1A6 PUSH1 0x1F DUP3 ADD PUSH1 0x1F NOT AND DUP9 ADD DUP4 PUSH2 0x414 JUMP JUMPDEST DUP2 MSTORE DUP4 DUP7 RETURNDATASIZE SWAP3 ADD RETURNDATACOPY JUMPDEST ISZERO PUSH2 0x1DB JUMPI POP PUSH1 0x60 SWAP5 POP POP CALLVALUE DUP4 LT ISZERO PUSH2 0x1D4 JUMPI DUP3 SWAP2 JUMPDEST DUP2 MLOAD SWAP4 DUP5 MSTORE CALLVALUE SWAP1 DUP5 ADD MSTORE DUP3 ADD MSTORE RETURN JUMPDEST CALLVALUE SWAP2 PUSH2 0x1C5 JUMP JUMPDEST DUP3 MLOAD PUSH3 0x461BCD PUSH1 0xE5 SHL DUP2 MSTORE SWAP1 DUP2 ADD DUP5 SWAP1 MSTORE PUSH1 0x13 DUP2 DUP8 ADD MSTORE PUSH19 0x195D1A081D1C985B9CD9995C8819985A5B1959 PUSH1 0x6A SHL PUSH1 0x44 DUP3 ADD MSTORE PUSH1 0x64 SWAP1 REVERT JUMPDEST PUSH4 0x4E487B71 PUSH1 0xE0 SHL DUP5 MSTORE PUSH1 0x41 DUP4 MSTORE DUP8 DUP5 REVERT JUMPDEST PUSH2 0x1AF JUMP JUMPDEST PUSH8 0xFFFFFFFFFFFFFFFF DUP2 SWAP5 SWAP3 SWAP5 GT PUSH2 0x245 JUMPI DUP5 MSTORE SWAP2 CODESIZE PUSH2 0x170 JUMP JUMPDEST POP PUSH1 0x41 DUP8 SWAP3 PUSH4 0x4E487B71 PUSH1 0xE0 SHL DUP4 MSTORE MSTORE REVERT JUMPDEST DUP6 MLOAD RETURNDATASIZE DUP7 DUP3 RETURNDATACOPY RETURNDATASIZE SWAP1 REVERT JUMPDEST DUP4 DUP1 REVERT JUMPDEST DUP5 MLOAD PUSH3 0x461BCD PUSH1 0xE5 SHL DUP2 MSTORE DUP1 DUP5 ADD DUP8 SWAP1 MSTORE PUSH1 0x15 DUP2 DUP11 ADD MSTORE PUSH21 0x1D1BDAD95B881D1C985B9CD9995C8819985A5B1959 PUSH1 0x5A SHL PUSH1 0x44 DUP3 ADD MSTORE PUSH1 0x64 SWAP1 REVERT JUMPDEST SWAP1 POP DUP7 DUP2 DUP2 RETURNDATASIZE DUP4 GT PUSH2 0x2D2 JUMPI JUMPDEST PUSH2 0x2B6 DUP2 DUP4 PUSH2 0x414 JUMP JUMPDEST DUP2 ADD SUB SLT PUSH2 0x2CE JUMPI MLOAD DUP1 ISZERO ISZERO DUP2 SUB PUSH2 0x2CE JUMPI CODESIZE PUSH2 0x13D JUMP JUMPDEST DUP5 DUP1 REVERT JUMPDEST POP RETURNDATASIZE PUSH2 0x2AC JUMP JUMPDEST DUP7 MLOAD RETURNDATASIZE DUP8 DUP3 RETURNDATACOPY RETURNDATASIZE SWAP1 REVERT JUMPDEST DUP11 MLOAD PUSH4 0xEDEF2E7 PUSH1 0xE3 SHL DUP2 MSTORE DUP10 DUP2 ADD DUP6 SWAP1 MSTORE SWAP7 DUP8 ADD MSTORE ADDRESS PUSH1 0x44 DUP8 ADD MSTORE SWAP1 SWAP6 POP SWAP1 SWAP4 SWAP3 DUP4 SWAP2 PUSH1 0x64 SWAP2 DUP4 SWAP2 GAS CALL SWAP1 DUP2 ISZERO PUSH2 0x2D9 JUMPI DUP10 SWAP3 PUSH1 0x64 DUP8 SWAP4 DUP11 SWAP4 DUP6 SWAP2 PUSH2 0x32D JUMPI JUMPDEST POP SWAP6 SWAP1 CODESIZE PUSH2 0x105 JUMP JUMPDEST PUSH2 0x34D SWAP2 POP DUP5 RETURNDATASIZE DUP7 GT PUSH2 0x353 JUMPI JUMPDEST PUSH2 0x345 DUP2 DUP4 PUSH2 0x414 JUMP JUMPDEST DUP2 ADD SWAP1 PUSH2 0x44C JUMP JUMPDEST CODESIZE PUSH2 0x324 JUMP JUMPDEST POP RETURNDATASIZE PUSH2 0x33B JUMP JUMPDEST PUSH2 0x372 SWAP2 SWAP9 POP DUP6 RETURNDATASIZE DUP8 GT PUSH2 0x353 JUMPI PUSH2 0x345 DUP2 DUP4 PUSH2 0x414 JUMP JUMPDEST SWAP7 CODESIZE PUSH2 0xFB JUMP JUMPDEST DUP9 MLOAD RETURNDATASIZE DUP10 DUP3 RETURNDATACOPY RETURNDATASIZE SWAP1 REVERT JUMPDEST DUP3 DUP1 REVERT JUMPDEST DUP1 REVERT JUMPDEST POP DUP1 REVERT JUMPDEST POP CALLVALUE PUSH2 0x38A JUMPI DUP2 PUSH1 0x3 NOT CALLDATASIZE ADD SLT PUSH2 0x38A JUMPI MLOAD PUSH32 0x0 PUSH1 0x1 PUSH1 0x1 PUSH1 0xA0 SHL SUB AND DUP2 MSTORE PUSH1 0x20 SWAP1 RETURN JUMPDEST DUP4 SWAP1 CALLVALUE PUSH2 0x38A JUMPI DUP2 PUSH1 0x3 NOT CALLDATASIZE ADD SLT PUSH2 0x38A JUMPI PUSH32 0x0 PUSH1 0x1 PUSH1 0x1 PUSH1 0xA0 SHL SUB AND DUP2 MSTORE PUSH1 0x20 SWAP1 RETURN JUMPDEST SWAP1 PUSH1 0x1F DUP1 NOT SWAP2 ADD AND DUP2 ADD SWAP1 DUP2 LT PUSH8 0xFFFFFFFFFFFFFFFF DUP3 GT OR PUSH2 0x436 JUMPI PUSH1 0x40 MSTORE JUMP JUMPDEST PUSH4 0x4E487B71 PUSH1 0xE0 SHL PUSH1 0x0 MSTORE PUSH1 0x41 PUSH1 0x4 MSTORE PUSH1 0x24 PUSH1 0x0 REVERT JUMPDEST SWAP1 DUP2 PUSH1 0x20 SWAP2 SUB SLT PUSH2 0x46B JUMPI MLOAD PUSH1 0x1 PUSH1 0x1 PUSH1 0xA0 SHL SUB DUP2 AND DUP2 SUB PUSH2 0x46B JUMPI SWAP1 JUMP JUMPDEST PUSH1 0x0 DUP1 REVERT INVALID LOG2 PUSH5 0x6970667358 0x22 SLT KECCAK256 MLOAD PUSH16 0x5526ACA6617D3759933504908AF0A62C 0xED SWAP12 0x28 0xEE 0xD7 SWAP2 0xAC 0xE9 0xB4 DUP14 CALLVALUE DUP11 PUSH21 0x9964736F6C63430008180033608080604052346100 AND JUMPI PUSH2 0x641 SWAP1 DUP2 PUSH2 0x1C DUP3 CODECOPY RETURN JUMPDEST PUSH1 0x0 DUP1 REVERT INVALID PUSH1 0x80 PUSH1 0x40 DUP2 DUP2 MSTORE PUSH1 0x4 SWAP2 DUP3 CALLDATASIZE LT ISZERO PUSH2 0x16 JUMPI PUSH1 0x0 DUP1 REVERT JUMPDEST PUSH1 0x0 SWAP3 DUP4 CALLDATALOAD PUSH1 0xE0 SHR SWAP2 DUP3 PUSH4 0x76F79738 EQ PUSH2 0x88 JUMPI POP POP PUSH4 0xE6A43905 EQ PUSH2 0x3B JUMPI PUSH1 0x0 DUP1 REVERT JUMPDEST CALLVALUE PUSH2 0x84 JUMPI DUP1 PUSH1 0x3 NOT CALLDATASIZE ADD SLT PUSH2 0x84 JUMPI PUSH1 0x20 SWAP2 DUP2 PUSH2 0x57 PUSH2 0x266 JUMP JUMPDEST SWAP2 PUSH2 0x60 PUSH2 0x281 JUMP JUMPDEST PUSH1 0x1 PUSH1 0x1 PUSH1 0xA0 SHL SUB SWAP4 DUP5 AND DUP3 MSTORE DUP2 DUP7 MSTORE DUP3 DUP3 KECCAK256 SWAP1 DUP5 AND DUP3 MSTORE DUP6 MSTORE KECCAK256 SLOAD SWAP2 MLOAD SWAP2 AND DUP2 MSTORE RETURN JUMPDEST POP DUP1 REVERT JUMPDEST DUP4 DUP6 SWAP2 CALLVALUE PUSH2 0x262 JUMPI PUSH1 0x60 CALLDATASIZE PUSH1 0x3 NOT ADD SLT PUSH2 0x262 JUMPI PUSH2 0xA4 PUSH2 0x266 JUMP JUMPDEST PUSH2 0xAC PUSH2 0x281 JUMP JUMPDEST SWAP2 PUSH1 0x1 PUSH1 0x1 PUSH1 0xA0 SHL SUB PUSH1 0x44 CALLDATALOAD DUP2 DUP2 AND SWAP4 SWAP2 SWAP3 SWAP1 DUP5 SWAP1 SUB PUSH2 0x25E JUMPI DUP3 DUP6 AND SWAP1 DUP4 DUP4 AND SWAP1 DUP3 DUP3 EQ PUSH2 0x231 JUMPI POP LT ISZERO PUSH2 0x229 JUMPI DUP2 SWAP1 JUMPDEST AND SWAP2 DUP3 ISZERO PUSH2 0x1FF JUMPI DUP3 DUP7 MSTORE PUSH1 0x20 SWAP7 DUP7 DUP9 MSTORE DUP3 DUP7 DUP9 KECCAK256 SWAP6 AND SWAP5 DUP6 DUP9 MSTORE DUP9 MSTORE DUP3 DUP7 DUP9 KECCAK256 SLOAD AND PUSH2 0x1D3 JUMPI DUP6 MLOAD SWAP2 PUSH2 0x374 DUP1 DUP5 ADD SWAP3 DUP5 DUP5 LT PUSH8 0xFFFFFFFFFFFFFFFF DUP6 GT OR PUSH2 0x1C0 JUMPI POP SWAP2 DUP4 SWAP2 PUSH1 0x60 SWAP4 PUSH2 0x298 DUP5 CODECOPY DUP7 DUP3 MSTORE DUP8 DUP12 DUP4 ADD MSTORE DUP9 DUP3 ADD MSTORE SUB ADD SWAP1 DUP7 CREATE DUP1 ISZERO PUSH2 0x1B6 JUMPI AND SWAP4 DUP2 DUP2 MSTORE DUP1 DUP7 MSTORE DUP4 DUP2 KECCAK256 DUP4 DUP3 MSTORE DUP7 MSTORE DUP5 DUP5 DUP1 DUP4 KECCAK256 SWAP3 PUSH12 0xFFFFFFFFFFFFFFFFFFFFFFFF PUSH1 0xA0 SHL SWAP4 DUP4 DUP6 DUP3 SLOAD AND OR SWAP1 SSTORE DUP1 DUP10 MSTORE DUP2 DUP2 KECCAK256 DUP6 DUP3 MSTORE DUP10 MSTORE KECCAK256 SWAP2 DUP3 SLOAD AND OR SWAP1 SSTORE PUSH32 0xA92A2B95C8D8436F6AC4C673C61487364F877EFB9534D4296FAD8EF904546C94 DUP6 DUP5 MLOAD DUP7 DUP2 MSTORE LOG3 MLOAD SWAP1 DUP2 MSTORE RETURN JUMPDEST DUP5 MLOAD RETURNDATASIZE DUP8 DUP3 RETURNDATACOPY RETURNDATASIZE SWAP1 REVERT JUMPDEST PUSH4 0x4E487B71 PUSH1 0xE0 SHL DUP11 MSTORE PUSH1 0x41 SWAP1 MSTORE PUSH1 0x24 DUP10 REVERT JUMPDEST DUP6 MLOAD PUSH3 0x461BCD PUSH1 0xE5 SHL DUP2 MSTORE SWAP1 DUP2 ADD DUP9 SWAP1 MSTORE PUSH1 0x6 PUSH1 0x24 DUP3 ADD MSTORE PUSH6 0x657869737473 PUSH1 0xD0 SHL PUSH1 0x44 DUP3 ADD MSTORE PUSH1 0x64 SWAP1 REVERT JUMPDEST DUP5 MLOAD PUSH3 0x461BCD PUSH1 0xE5 SHL DUP2 MSTORE PUSH1 0x20 DUP2 DUP10 ADD MSTORE PUSH1 0x24 DUP2 ADD DUP9 SWAP1 MSTORE PUSH4 0x7A65726F PUSH1 0xE0 SHL PUSH1 0x44 DUP3 ADD MSTORE PUSH1 0x64 SWAP1 REVERT JUMPDEST SWAP3 DUP2 SWAP1 PUSH2 0xDF JUMP JUMPDEST PUSH3 0x461BCD PUSH1 0xE5 SHL DUP2 MSTORE PUSH1 0x20 DUP11 DUP3 ADD MSTORE PUSH1 0x9 PUSH1 0x24 DUP3 ADD MSTORE PUSH9 0x1A59195B9D1A58D85B PUSH1 0xBA SHL PUSH1 0x44 DUP3 ADD MSTORE PUSH1 0x64 SWAP1 REVERT JUMPDEST DUP7 DUP1 REVERT JUMPDEST DUP3 DUP1 REVERT JUMPDEST PUSH1 0x4 CALLDATALOAD SWAP1 PUSH1 0x1 PUSH1 0x1 PUSH1 0xA0 SHL SUB DUP3 AND DUP3 SUB PUSH2 0x27C JUMPI JUMP JUMPDEST PUSH1 0x0 DUP1 REVERT JUMPDEST PUSH1 0x24 CALLDATALOAD SWAP1 PUSH1 0x1 PUSH1 0x1 PUSH1 0xA0 SHL SUB DUP3 AND DUP3 SUB PUSH2 0x27C JUMPI JUMP INVALID PUSH1 0xE0 CALLVALUE PUSH2 0xA0 JUMPI PUSH1 0x1F PUSH2 0x374 CODESIZE DUP2 SWAP1 SUB SWAP2 DUP3 ADD PUSH1 0x1F NOT AND DUP4 ADD SWAP2 PUSH1 0x1 PUSH1 0x1 PUSH1 0x40 SHL SUB DUP4 GT DUP5 DUP5 LT OR PUSH2 0xA5 JUMPI DUP1 DUP5 SWAP3 PUSH1 0x60 SWAP5 PUSH1 0x40 MSTORE DUP4 CODECOPY DUP2 ADD SUB SLT PUSH2 0xA0 JUMPI PUSH2 0x47 DUP2 PUSH2 0xBB JUMP JUMPDEST SWAP1 PUSH2 0x60 PUSH1 0x40 PUSH2 0x59 PUSH1 0x20 DUP5 ADD PUSH2 0xBB JUMP JUMPDEST SWAP3 ADD PUSH2 0xBB JUMP JUMPDEST SWAP2 PUSH1 0x80 MSTORE PUSH1 0xA0 MSTORE PUSH1 0xC0 MSTORE PUSH1 0x40 MLOAD PUSH2 0x2A4 SWAP1 DUP2 PUSH2 0xD0 DUP3 CODECOPY PUSH1 0x80 MLOAD DUP2 PUSH1 0xC0 ADD MSTORE PUSH1 0xA0 MLOAD DUP2 PUSH2 0x1C2 ADD MSTORE PUSH1 0xC0 MLOAD DUP2 DUP2 DUP2 PUSH1 0x21 ADD MSTORE DUP2 DUP2 PUSH2 0x108 ADD MSTORE PUSH2 0x14F ADD MSTORE RETURN JUMPDEST PUSH1 0x0 DUP1 REVERT JUMPDEST PUSH4 0x4E487B71 PUSH1 0xE0 SHL PUSH1 0x0 MSTORE PUSH1 0x41 PUSH1 0x4 MSTORE PUSH1 0x24 PUSH1 0x0 REVERT JUMPDEST MLOAD SWAP1 PUSH1 0x1 PUSH1 0x1 PUSH1 0xA0 SHL SUB DUP3 AND DUP3 SUB PUSH2 0xA0 JUMPI JUMP INVALID PUSH1 0x80 DUP1 PUSH1 0x40 MSTORE PUSH1 0x4 CALLDATASIZE LT ISZERO PUSH2 0x60 JUMPI JUMPDEST POP CALLDATASIZE ISZERO PUSH2 0x1B JUMPI PUSH1 0x0 DUP1 REVERT JUMPDEST PUSH2 0x4F CALLER PUSH32 0x0 PUSH1 0x1 PUSH1 0x1 PUSH1 0xA0 SHL SUB AND EQ PUSH2 0x211 JUMP JUMPDEST PUSH2 0x5B CALLVALUE PUSH1 0x1 SLOAD PUSH2 0x24B JUMP JUMPDEST PUSH1 0x1 SSTORE STOP JUMPDEST PUSH1 0x0 SWAP1 DUP2 CALLDATALOAD PUSH1 0xE0 SHR SWAP1 DUP2 PUSH4 0x1809A32 EQ PUSH2 0x1F1 JUMPI POP DUP1 PUSH4 0x3FC8CEF3 EQ PUSH2 0x1AC JUMPI DUP1 PUSH4 0x478AA284 EQ PUSH2 0x18F JUMPI DUP1 PUSH4 0xC2234289 EQ PUSH2 0x137 JUMPI DUP1 PUSH4 0xF887EA40 EQ PUSH2 0xF2 JUMPI PUSH4 0xFC0C546A SUB PUSH2 0xF JUMPI CALLVALUE PUSH2 0xEF JUMPI DUP1 PUSH1 0x3 NOT CALLDATASIZE ADD SLT PUSH2 0xEF JUMPI PUSH1 0x40 MLOAD PUSH32 0x0 PUSH1 0x1 PUSH1 0x1 PUSH1 0xA0 SHL SUB AND DUP2 MSTORE PUSH1 0x20 SWAP1 RETURN JUMPDEST DUP1 REVERT JUMPDEST POP CALLVALUE PUSH2 0xEF JUMPI DUP1 PUSH1 0x3 NOT CALLDATASIZE ADD SLT PUSH2 0xEF JUMPI PUSH1 0x40 MLOAD PUSH32 0x0 PUSH1 0x1 PUSH1 0x1 PUSH1 0xA0 SHL SUB AND DUP2 MSTORE PUSH1 0x20 SWAP1 RETURN JUMPDEST POP CALLVALUE PUSH2 0xEF JUMPI PUSH1 0x20 CALLDATASIZE PUSH1 0x3 NOT ADD SLT PUSH2 0xEF JUMPI PUSH2 0x17D CALLER PUSH32 0x0 PUSH1 0x1 PUSH1 0x1 PUSH1 0xA0 SHL SUB AND EQ PUSH2 0x211 JUMP JUMPDEST PUSH2 0x18A PUSH1 0x4 CALLDATALOAD DUP3 SLOAD PUSH2 0x24B JUMP JUMPDEST DUP2 SSTORE DUP1 RETURN JUMPDEST POP CALLVALUE PUSH2 0xEF JUMPI DUP1 PUSH1 0x3 NOT CALLDATASIZE ADD SLT PUSH2 0xEF JUMPI PUSH1 0x20 SWAP1 SLOAD PUSH1 0x40 MLOAD SWAP1 DUP2 MSTORE RETURN JUMPDEST POP CALLVALUE PUSH2 0xEF JUMPI DUP1 PUSH1 0x3 NOT CALLDATASIZE ADD SLT PUSH2 0xEF JUMPI PUSH1 0x40 MLOAD PUSH32 0x0 PUSH1 0x1 PUSH1 0x1 PUSH1 0xA0 SHL SUB AND DUP2 MSTORE PUSH1 0x20 SWAP1 RETURN JUMPDEST SWAP1 POP CALLVALUE PUSH2 0x20D JUMPI DUP2 PUSH1 0x3 NOT CALLDATASIZE ADD SLT PUSH2 0x20D JUMPI PUSH1 0x20 SWAP1 PUSH1 0x1 SLOAD DUP2 MSTORE RETURN JUMPDEST POP DUP1 REVERT JUMPDEST ISZERO PUSH2 0x218 JUMPI JUMP JUMPDEST PUSH1 0x40 MLOAD PUSH3 0x461BCD PUSH1 0xE5 SHL DUP2 MSTORE PUSH1 0x20 PUSH1 0x4 DUP3 ADD MSTORE PUSH1 0xB PUSH1 0x24 DUP3 ADD MSTORE PUSH11 0x37B7363C903937BABA32B9 PUSH1 0xA9 SHL PUSH1 0x44 DUP3 ADD MSTORE PUSH1 0x64 SWAP1 REVERT JUMPDEST SWAP2 SWAP1 DUP3 ADD DUP1 SWAP3 GT PUSH2 0x258 JUMPI JUMP JUMPDEST PUSH4 0x4E487B71 PUSH1 0xE0 SHL PUSH1 0x0 MSTORE PUSH1 0x11 PUSH1 0x4 MSTORE PUSH1 0x24 PUSH1 0x0 REVERT INVALID LOG2 PUSH5 0x6970667358 0x22 SLT KECCAK256 0x2F 0xE0 RETURN CREATE BASEFEE SWAP5 0xA9 0xB1 PUSH1 0x67 0xAC DIV 0x1F SLOAD 0xDB 0x2E OR 0xB7 PUSH27 0x74AA93AFE73A0BA74F7A52AAC764736F6C63430008180033A26469 PUSH17 0x6673582212204849C7C85866BFDE7F9FA5 ADDMOD 0xA8 SAR JUMP CODESIZE 0xE9 RETURNDATASIZE 0xC MSTORE8 OR 0xE2 MOD 0x2D 0x2F 0xD1 DUP6 SELFDESTRUCT CALLCODE DUP2 0xED SELFBALANCE PUSH5 0x736F6C6343 STOP ADDMOD XOR STOP CALLER "},"methodIdentifiers":{"WETH()":"ad5c4648","addLiquidityETH(address,uint256,uint256,uint256,address,uint256)":"f305d719","factory()":"c45a0155"}}}}}