{"contracts/MemeToken.sol":{"MemeToken":{"abi":[{"inputs":[{"internalType":"string","name":"_name","type":"string"},{"internalType":"string","name":"_symbol","type":"string"},{"internalType":"uint256","name":"_totalSupply","type":"uint256"},{"internalType":"address","name":"_factory","type":"address"},{"internalType":"address","name":"_creator","type":"address"},{"internalType":"address","name":"_platformFeeRecipient","type":"address"}],"stateMutability":"nonpayable","type":"constructor"},{"anonymous":false,"inputs":[{"indexed":true,"internalType":"address","name":"owner","type":"address"},{"indexed":true,"internalType":"address","name":"spender","type":"address"},{"indexed":false,"internalType":"uint256","name":"value","type":"uint256"}],"name":"Approval","type":"event"},{"anonymous":false,"inputs":[{"indexed":true,"internalType":"address","name":"creator","type":"address"},{"indexed":false,"internalType":"uint256","name":"amount","type":"uint256"}],"name":"CreatorFeesClaimed","type":"event"},{"anonymous":false,"inputs":[{"indexed":true,"internalType":"address","name":"pair","type":"address"}],"name":"DexPairSet","type":"event"},{"anonymous":false,"inputs":[{"indexed":true,"internalType":"address","name":"byFactory","type":"address"}],"name":"FactoryControlRenounced","type":"event"},{"anonymous":false,"inputs":[{"indexed":true,"internalType":"address","name":"recipient","type":"address"},{"indexed":false,"internalType":"uint256","name":"amount","type":"uint256"}],"name":"PlatformFeesClaimed","type":"event"},{"anonymous":false,"inputs":[{"indexed":true,"internalType":"address","name":"from","type":"address"},{"indexed":true,"internalType":"address","name":"to","type":"address"},{"indexed":false,"internalType":"uint256","name":"creatorFee","type":"uint256"},{"indexed":false,"internalType":"uint256","name":"platformFee","type":"uint256"}],"name":"TradeFeeAccrued","type":"event"},{"anonymous":false,"inputs":[{"indexed":true,"internalType":"address","name":"from","type":"address"},{"indexed":true,"internalType":"address","name":"to","type":"address"},{"indexed":false,"internalType":"uint256","name":"value","type":"uint256"}],"name":"Transfer","type":"event"},{"inputs":[],"name":"BPS_DENOMINATOR","outputs":[{"internalType":"uint256","name":"","type":"uint256"}],"stateMutability":"view","type":"function"},{"inputs":[],"name":"CREATOR_FEE_BPS","outputs":[{"internalType":"uint256","name":"","type":"uint256"}],"stateMutability":"view","type":"function"},{"inputs":[],"name":"PLATFORM_FEE_BPS","outputs":[{"internalType":"uint256","name":"","type":"uint256"}],"stateMutability":"view","type":"function"},{"inputs":[],"name":"TRADE_FEE_BPS","outputs":[{"internalType":"uint256","name":"","type":"uint256"}],"stateMutability":"view","type":"function"},{"inputs":[{"internalType":"address","name":"owner","type":"address"},{"internalType":"address","name":"spender","type":"address"}],"name":"allowance","outputs":[{"internalType":"uint256","name":"","type":"uint256"}],"stateMutability":"view","type":"function"},{"inputs":[{"internalType":"address","name":"spender","type":"address"},{"internalType":"uint256","name":"amount","type":"uint256"}],"name":"approve","outputs":[{"internalType":"bool","name":"","type":"bool"}],"stateMutability":"nonpayable","type":"function"},{"inputs":[{"internalType":"address","name":"account","type":"address"}],"name":"balanceOf","outputs":[{"internalType":"uint256","name":"","type":"uint256"}],"stateMutability":"view","type":"function"},{"inputs":[],"name":"claimCreatorFees","outputs":[{"internalType":"uint256","name":"amount","type":"uint256"}],"stateMutability":"nonpayable","type":"function"},{"inputs":[],"name":"claimPlatformFees","outputs":[{"internalType":"uint256","name":"amount","type":"uint256"}],"stateMutability":"nonpayable","type":"function"},{"inputs":[],"name":"creator","outputs":[{"internalType":"address","name":"","type":"address"}],"stateMutability":"view","type":"function"},{"inputs":[],"name":"creatorClaimable","outputs":[{"internalType":"uint256","name":"","type":"uint256"}],"stateMutability":"view","type":"function"},{"inputs":[],"name":"decimals","outputs":[{"internalType":"uint8","name":"","type":"uint8"}],"stateMutability":"view","type":"function"},{"inputs":[],"name":"dexPair","outputs":[{"internalType":"address","name":"","type":"address"}],"stateMutability":"view","type":"function"},{"inputs":[],"name":"factory","outputs":[{"internalType":"address","name":"","type":"address"}],"stateMutability":"view","type":"function"},{"inputs":[],"name":"factoryControlRenounced","outputs":[{"internalType":"bool","name":"","type":"bool"}],"stateMutability":"view","type":"function"},{"inputs":[],"name":"name","outputs":[{"internalType":"string","name":"","type":"string"}],"stateMutability":"view","type":"function"},{"inputs":[],"name":"platformClaimable","outputs":[{"internalType":"uint256","name":"","type":"uint256"}],"stateMutability":"view","type":"function"},{"inputs":[],"name":"platformFeeRecipient","outputs":[{"internalType":"address","name":"","type":"address"}],"stateMutability":"view","type":"function"},{"inputs":[],"name":"renounceFactoryControl","outputs":[],"stateMutability":"nonpayable","type":"function"},{"inputs":[{"internalType":"address","name":"pair","type":"address"}],"name":"setDexPair","outputs":[],"stateMutability":"nonpayable","type":"function"},{"inputs":[],"name":"symbol","outputs":[{"internalType":"string","name":"","type":"string"}],"stateMutability":"view","type":"function"},{"inputs":[],"name":"totalSupply","outputs":[{"internalType":"uint256","name":"","type":"uint256"}],"stateMutability":"view","type":"function"},{"inputs":[{"internalType":"address","name":"to","type":"address"},{"internalType":"uint256","name":"amount","type":"uint256"}],"name":"transfer","outputs":[{"internalType":"bool","name":"","type":"bool"}],"stateMutability":"nonpayable","type":"function"},{"inputs":[{"internalType":"address","name":"from","type":"address"},{"internalType":"address","name":"to","type":"address"},{"internalType":"uint256","name":"amount","type":"uint256"}],"name":"transferFrom","outputs":[{"internalType":"bool","name":"","type":"bool"}],"stateMutability":"nonpayable","type":"function"}],"evm":{"bytecode":{"linkReferences":{},"object":"604060e081523462000551576200159090813803806200001f8162000556565b938439820160c083820312620005515782516001600160401b039390848111620005515782620000519183016200057c565b91602090818301519086821162000551576200006f9184016200057c565b9184810151906200008360608201620005ee565b90620000a060a06200009860808401620005ee565b9201620005ee565b918651156200051d57855115620004e7578315620004b1576001600160a01b03818116979088156200047a578084161562000443578416156200040b5780518a8111620003f5576000978854916001938484811c94168015620003ea575b8a851014620003d6578190601f9485811162000383575b508a908583116001146200031e578c9262000312575b5050600019600383901b1c191690841b1789555b80519b8c11620002fe5782548381811c91168015620002f3575b89821014620002df5780838e921162000295575b505087918c116001146200021e579a8091899a9b9c600080516020620015708339815191529a9262000212575b5050600019600383901b1c191690821b1790555b8360025560805260a05260c0528484526006825280868520558551908152a351610f6c9081620006048239608051818181610217015281816102fa0152610356015260a0518181816106730152610ad4015260c05181818161016c01526107540152f35b0151905038806200019a565b8289528789209190601f198d168a5b8181106200027f5750918493918e600080516020620015708339815191529c9d9e9f941062000265575b505050811b019055620001ae565b015160001960f88460031b161c1916905538808062000257565b82840151855593850193928a01928a016200022d565b848b52838a8c20918b82850160051c84019410620002d5575b0160051c019084905b828110620002c957508d91506200016d565b8b8155018490620002b7565b92508192620002ae565b634e487b7160e01b8a52602260045260248afd5b90607f169062000159565b634e487b7160e01b89526041600452602489fd5b0151905038806200012b565b8c80528b8d208794509190601f1984168e8e5b8282106200036b575050841162000351575b505050811b0189556200013f565b015160001960f88460031b161c1916905538808062000343565b8385015186558a979095019493840193018e62000331565b9091508b80528a8c208580850160051c8201928d8610620003cc575b918891869594930160051c01915b828110620003bd57505062000115565b8e8155859450889101620003ad565b925081926200039f565b634e487b7160e01b8b52602260045260248bfd5b93607f1693620000fe565b634e487b7160e01b600052604160045260246000fd5b885162461bcd60e51b81526004810187905260116024820152701c1b185d199bdc9b481c995c5d5a5c9959607a1b6044820152606490fd5b895162461bcd60e51b815260048101889052601060248201526f18dc99585d1bdc881c995c5d5a5c995960821b6044820152606490fd5b895162461bcd60e51b815260048101889052601060248201526f199858dd1bdc9e481c995c5d5a5c995960821b6044820152606490fd5b875162461bcd60e51b815260048101869052600f60248201526e1cdd5c1c1b1e481c995c5d5a5c9959608a1b6044820152606490fd5b875162461bcd60e51b815260048101869052600f60248201526e1cde5b589bdb081c995c5d5a5c9959608a1b6044820152606490fd5b875162461bcd60e51b815260048101869052600d60248201526c1b985b59481c995c5d5a5c9959609a1b6044820152606490fd5b600080fd5b6040519190601f01601f191682016001600160401b03811183821017620003f557604052565b919080601f84011215620005515782516001600160401b038111620003f557602090620005b2601f8201601f1916830162000556565b92818452828287010111620005515760005b818110620005da57508260009394955001015290565b8581018301518482018401528201620005c4565b51906001600160a01b0382168203620005515756fe608060408181526004918236101561001657600080fd5b600092833560e01c91826302d05d3f14610ac057508163044991d814610aa157816306fdde03146109c7578163095ea7b31461095657816318160ddd146109375781631e26906b1461091057816323b872dd146108095781632bebf6bf1461073f578163313ce56714610723578163351fee461461065f578163539aa77f1461064357816370a082311461060b5781639185f598146105ef57816395d89b41146104cc5781639e5f358a146104ae578163a9059cbb1461047d578163ae36f5c814610329578163c45a0155146102e5578163cc3cbd2a146102c9578163dc4b1c0e146101ff57508063dd62ed3e146101b7578063e1a452181461019b578063eb13554f146101585763f242ab411461012d57600080fd5b3461015457816003193601126101545760035490516001600160a01b039091168152602090f35b5080fd5b5034610154578160031936011261015457517f00000000000000000000000000000000000000000000000000000000000000006001600160a01b03168152602090f35b5034610154578160031936011261015457602090516127108152f35b5034610154578060031936011261015457806020926101d4610b4c565b6101dc610b67565b6001600160a01b0391821683526007865283832091168252845220549051908152f35b9050346102c557826003193601126102c557610245337f00000000000000000000000000000000000000000000000000000000000000006001600160a01b031614610bdf565b6003549160ff8360a01c1661028e57505060ff60a01b1916600160a01b17600355337f60b9765cf08f04b4850cd9a0f8da6fa9e854afd328723cc3f6adea6fb4f18d238280a280f35b906020606492519162461bcd60e51b83528201526011602482015270185b1c9958591e481c995b9bdd5b98d959607a1b6044820152fd5b8280fd5b50503461015457816003193601126101545760209051601e8152f35b505034610154578160031936011261015457517f00000000000000000000000000000000000000000000000000000000000000006001600160a01b03168152602090f35b8391503461015457602036600319011261015457610345610b4c565b6001600160a01b0390819061037d337f0000000000000000000000000000000000000000000000000000000000000000841614610bdf565b1691821561044a576003549160ff8360a01c166104075782166103d157506001600160a01b03191681176003557fc3cd203585fbc28dcc1692611d2ebc4190312a5b189047df793c69b157aa0d298280a280f35b606490602086519162461bcd60e51b8352820152601060248201526f1c185a5c88185b1c9958591e481cd95d60821b6044820152fd5b855162461bcd60e51b8152602081840152601960248201527f666163746f727920636f6e74726f6c2072656e6f756e636564000000000000006044820152606490fd5b606490602086519162461bcd60e51b8352820152600d60248201526c1c185a5c881c995c5d5a5c9959609a1b6044820152fd5b5050346101545780600319360112610154576020906104a761049d610b4c565b6024359033610c27565b5160018152f35b9050346102c557826003193601126102c55760209250549051908152f35b8383346101545781600319360112610154578051908260018054908160011c90600183169283156105e5575b60209384841081146105d2578388529081156105b65750600114610560575b505050829003601f01601f191682019267ffffffffffffffff84118385101761054d5750829182610549925282610b03565b0390f35b634e487b7160e01b815260418552602490fd5b600187529192508591837fb10e2d527612073b26eecdfd717e6a320cf44b4afac2b0732d9fcbe2b7fa0cf65b8385106105a25750505050830101858080610517565b80548886018301529301928490820161058c565b60ff1916878501525050151560051b8401019050858080610517565b634e487b7160e01b895260228a52602489fd5b91607f16916104f8565b5050346101545781600319360112610154576020905160328152f35b5050346101545760203660031901126101545760209181906001600160a01b03610633610b4c565b1681526006845220549051908152f35b5050346101545781600319360112610154576020905160148152f35b8383346101545781600319360112610154577f00000000000000000000000000000000000000000000000000000000000000006001600160a01b03811690338290036106f157846106c391602096549586926106bc841515610ba0565b5530610e42565b7fd046302bdc39599e60a5981e59227dcd1c643f512f56f2e984390c3ac6eadedb848351858152a251908152f35b825162461bcd60e51b8152602081870152600c60248201526b37b7363c9031b932b0ba37b960a11b6044820152606490fd5b5050346101545781600319360112610154576020905160128152f35b919050346102c557826003193601126102c5577f0000000000000000000000000000000000000000000000000000000000000000916001600160a01b03831690338290036107d657506107a860209460055494859161079f831515610ba0565b60055530610e42565b7f0636f1043cff5f4c437926a4412416778ddc5e970feb177685b587e81dad9095848351858152a251908152f35b606490602084519162461bcd60e51b8352820152600d60248201526c6f6e6c7920706c6174666f726d60981b6044820152fd5b919050346102c55760603660031901126102c557610825610b4c565b61082d610b67565b6044359160018060a01b03811680875260209560078752858820338952875285882054908582106108d85750948096976104a796866000198203610876575b5050505050610c27565b61087f91610b7d565b83825260078a528282203383528a528282205582815260078952818120338252895220549086519182527f8c5be1e5ebec7d5bd14f71427d1e84f3dd0314c0f7b2291e5b200ac8c7c3b925883393a3388581808661086c565b865162461bcd60e51b81529081018890526012602482015271185b1b1bddd85b98d948195e18d95959195960721b6044820152606490fd5b50503461015457816003193601126101545760209060ff60035460a01c1690519015158152f35b5050346101545781600319360112610154576020906002549051908152f35b50503461015457806003193601126101545760209181610974610b4c565b91602435918291338152600787528181209460018060a01b0316948582528752205582519081527f8c5be1e5ebec7d5bd14f71427d1e84f3dd0314c0f7b2291e5b200ac8c7c3b925843392a35160018152f35b83833461015457816003193601126101545780519082835460018160011c9060018316928315610a97575b60209384841081146105d2578388529081156105b65750600114610a4257505050829003601f01601f191682019267ffffffffffffffff84118385101761054d5750829182610549925282610b03565b8680529192508591837f290decd9548b62a8d60345a988386fc84ba6bc95484008f6362f93160ef3e5635b838510610a835750505050830101858080610517565b805488860183015293019284908201610a6d565b91607f16916109f2565b5050346101545781600319360112610154576020906005549051908152f35b8490346101545781600319360112610154577f00000000000000000000000000000000000000000000000000000000000000006001600160a01b03168152602090f35b6020808252825181830181905290939260005b828110610b3857505060409293506000838284010152601f8019910116010190565b818101860151848201604001528501610b16565b600435906001600160a01b0382168203610b6257565b600080fd5b602435906001600160a01b0382168203610b6257565b91908203918211610b8a57565b634e487b7160e01b600052601160045260246000fd5b15610ba757565b60405162461bcd60e51b815260206004820152601060248201526f6e6f7468696e6720746f20636c61696d60801b6044820152606490fd5b15610be657565b60405162461bcd60e51b815260206004820152600c60248201526b6f6e6c7920666163746f727960a01b6044820152606490fd5b91908201809211610b8a57565b6001600160a01b03808316939192908415610e0e57831692600091848352602092600684526040918282205490868210610dd857610c66908795610efa565b80610dcf575b610cc1575b90610c9e7fddf252ad1be2c89b69c2b068fc378daa952ba7f163c4a11628f55a4df523b3ef968493610b7d565b878252600686528282205587815220610cb8838254610c1a565b905551908152a3565b60328602861590878104603214821715610dbb576127108091049182610cea575b505050610c71565b90919550601e880290888204601e141715610dbb5788859493928b920485888a848d610d168685610b7d565b93610d2091610b7d565b9b8560045490610d2f91610c1a565b6004558360055490610d4091610c1a565b600555308a5260068352848a2081815490610d5a91610c1a565b9055845190815230927fddf252ad1be2c89b69c2b068fc378daa952ba7f163c4a11628f55a4df523b3ef91a381519283528a8301527f93bd139ea85d53c55e02dec709128f827ebd5cb8a4a0d873193711b70b0a15b991a390913880610ce2565b634e487b7160e01b84526011600452602484fd5b50851515610c6c565b835162461bcd60e51b815260048101879052600f60248201526e62616c616e636520746f6f206c6f7760881b6044820152606490fd5b60405162461bcd60e51b815260206004820152600c60248201526b7a65726f206164647265737360a01b6044820152606490fd5b60018060a01b038091169160009383855260066020526040852054818110610ebc577fddf252ad1be2c89b69c2b068fc378daa952ba7f163c4a11628f55a4df523b3ef93602093610e9584604094610b7d565b8789526006865283892055169586815220610eb1828254610c1a565b9055604051908152a3565b60405162461bcd60e51b81526020600482015260166024820152751a5b9cdd59999a58da595b9d08199959481d985d5b1d60521b6044820152606490fd5b6003546001600160a01b03908116918215610f2d5781168214928315610f21575b50505090565b16149050388080610f1b565b5050505060009056fea2646970667358221220c5cb74b2236009bdabcbe103cf29e158d33f78f1563cd239df947769f06fb56764736f6c63430008180033ddf252ad1be2c89b69c2b068fc378daa952ba7f163c4a11628f55a4df523b3ef","opcodes":"PUSH1 0x40 PUSH1 0xE0 DUP2 MSTORE CALLVALUE PUSH3 0x551 JUMPI PUSH3 0x1590 SWAP1 DUP2 CODESIZE SUB DUP1 PUSH3 0x1F DUP2 PUSH3 0x556 JUMP JUMPDEST SWAP4 DUP5 CODECOPY DUP3 ADD PUSH1 0xC0 DUP4 DUP3 SUB SLT PUSH3 0x551 JUMPI DUP3 MLOAD PUSH1 0x1 PUSH1 0x1 PUSH1 0x40 SHL SUB SWAP4 SWAP1 DUP5 DUP2 GT PUSH3 0x551 JUMPI DUP3 PUSH3 0x51 SWAP2 DUP4 ADD PUSH3 0x57C JUMP JUMPDEST SWAP2 PUSH1 0x20 SWAP1 DUP2 DUP4 ADD MLOAD SWAP1 DUP7 DUP3 GT PUSH3 0x551 JUMPI PUSH3 0x6F SWAP2 DUP5 ADD PUSH3 0x57C JUMP JUMPDEST SWAP2 DUP5 DUP2 ADD MLOAD SWAP1 PUSH3 0x83 PUSH1 0x60 DUP3 ADD PUSH3 0x5EE JUMP JUMPDEST SWAP1 PUSH3 0xA0 PUSH1 0xA0 PUSH3 0x98 PUSH1 0x80 DUP5 ADD PUSH3 0x5EE JUMP JUMPDEST SWAP3 ADD PUSH3 0x5EE JUMP JUMPDEST SWAP2 DUP7 MLOAD ISZERO PUSH3 0x51D JUMPI DUP6 MLOAD ISZERO PUSH3 0x4E7 JUMPI DUP4 ISZERO PUSH3 0x4B1 JUMPI PUSH1 0x1 PUSH1 0x1 PUSH1 0xA0 SHL SUB DUP2 DUP2 AND SWAP8 SWAP1 DUP9 ISZERO PUSH3 0x47A JUMPI DUP1 DUP5 AND ISZERO PUSH3 0x443 JUMPI DUP5 AND ISZERO PUSH3 0x40B JUMPI DUP1 MLOAD DUP11 DUP2 GT PUSH3 0x3F5 JUMPI PUSH1 0x0 SWAP8 DUP9 SLOAD SWAP2 PUSH1 0x1 SWAP4 DUP5 DUP5 DUP2 SHR SWAP5 AND DUP1 ISZERO PUSH3 0x3EA JUMPI JUMPDEST DUP11 DUP6 LT EQ PUSH3 0x3D6 JUMPI DUP2 SWAP1 PUSH1 0x1F SWAP5 DUP6 DUP2 GT PUSH3 0x383 JUMPI JUMPDEST POP DUP11 SWAP1 DUP6 DUP4 GT PUSH1 0x1 EQ PUSH3 0x31E JUMPI DUP13 SWAP3 PUSH3 0x312 JUMPI JUMPDEST POP POP PUSH1 0x0 NOT PUSH1 0x3 DUP4 SWAP1 SHL SHR NOT AND SWAP1 DUP5 SHL OR DUP10 SSTORE JUMPDEST DUP1 MLOAD SWAP12 DUP13 GT PUSH3 0x2FE JUMPI DUP3 SLOAD DUP4 DUP2 DUP2 SHR SWAP2 AND DUP1 ISZERO PUSH3 0x2F3 JUMPI JUMPDEST DUP10 DUP3 LT EQ PUSH3 0x2DF JUMPI DUP1 DUP4 DUP15 SWAP3 GT PUSH3 0x295 JUMPI JUMPDEST POP POP DUP8 SWAP2 DUP13 GT PUSH1 0x1 EQ PUSH3 0x21E JUMPI SWAP11 DUP1 SWAP2 DUP10 SWAP11 SWAP12 SWAP13 PUSH1 0x0 DUP1 MLOAD PUSH1 0x20 PUSH3 0x1570 DUP4 CODECOPY DUP2 MLOAD SWAP2 MSTORE SWAP11 SWAP3 PUSH3 0x212 JUMPI JUMPDEST POP POP PUSH1 0x0 NOT PUSH1 0x3 DUP4 SWAP1 SHL SHR NOT AND SWAP1 DUP3 SHL OR SWAP1 SSTORE JUMPDEST DUP4 PUSH1 0x2 SSTORE PUSH1 0x80 MSTORE PUSH1 0xA0 MSTORE PUSH1 0xC0 MSTORE DUP5 DUP5 MSTORE PUSH1 0x6 DUP3 MSTORE DUP1 DUP7 DUP6 KECCAK256 SSTORE DUP6 MLOAD SWAP1 DUP2 MSTORE LOG3 MLOAD PUSH2 0xF6C SWAP1 DUP2 PUSH3 0x604 DUP3 CODECOPY PUSH1 0x80 MLOAD DUP2 DUP2 DUP2 PUSH2 0x217 ADD MSTORE DUP2 DUP2 PUSH2 0x2FA ADD MSTORE PUSH2 0x356 ADD MSTORE PUSH1 0xA0 MLOAD DUP2 DUP2 DUP2 PUSH2 0x673 ADD MSTORE PUSH2 0xAD4 ADD MSTORE PUSH1 0xC0 MLOAD DUP2 DUP2 DUP2 PUSH2 0x16C ADD MSTORE PUSH2 0x754 ADD MSTORE RETURN JUMPDEST ADD MLOAD SWAP1 POP CODESIZE DUP1 PUSH3 0x19A JUMP JUMPDEST DUP3 DUP10 MSTORE DUP8 DUP10 KECCAK256 SWAP2 SWAP1 PUSH1 0x1F NOT DUP14 AND DUP11 JUMPDEST DUP2 DUP2 LT PUSH3 0x27F JUMPI POP SWAP2 DUP5 SWAP4 SWAP2 DUP15 PUSH1 0x0 DUP1 MLOAD PUSH1 0x20 PUSH3 0x1570 DUP4 CODECOPY DUP2 MLOAD SWAP2 MSTORE SWAP13 SWAP14 SWAP15 SWAP16 SWAP5 LT PUSH3 0x265 JUMPI JUMPDEST POP POP POP DUP2 SHL ADD SWAP1 SSTORE PUSH3 0x1AE JUMP JUMPDEST ADD MLOAD PUSH1 0x0 NOT PUSH1 0xF8 DUP5 PUSH1 0x3 SHL AND SHR NOT AND SWAP1 SSTORE CODESIZE DUP1 DUP1 PUSH3 0x257 JUMP JUMPDEST DUP3 DUP5 ADD MLOAD DUP6 SSTORE SWAP4 DUP6 ADD SWAP4 SWAP3 DUP11 ADD SWAP3 DUP11 ADD PUSH3 0x22D JUMP JUMPDEST DUP5 DUP12 MSTORE DUP4 DUP11 DUP13 KECCAK256 SWAP2 DUP12 DUP3 DUP6 ADD PUSH1 0x5 SHR DUP5 ADD SWAP5 LT PUSH3 0x2D5 JUMPI JUMPDEST ADD PUSH1 0x5 SHR ADD SWAP1 DUP5 SWAP1 JUMPDEST DUP3 DUP2 LT PUSH3 0x2C9 JUMPI POP DUP14 SWAP2 POP PUSH3 0x16D JUMP JUMPDEST DUP12 DUP2 SSTORE ADD DUP5 SWAP1 PUSH3 0x2B7 JUMP JUMPDEST SWAP3 POP DUP2 SWAP3 PUSH3 0x2AE JUMP JUMPDEST PUSH4 0x4E487B71 PUSH1 0xE0 SHL DUP11 MSTORE PUSH1 0x22 PUSH1 0x4 MSTORE PUSH1 0x24 DUP11 REVERT JUMPDEST SWAP1 PUSH1 0x7F AND SWAP1 PUSH3 0x159 JUMP JUMPDEST PUSH4 0x4E487B71 PUSH1 0xE0 SHL DUP10 MSTORE PUSH1 0x41 PUSH1 0x4 MSTORE PUSH1 0x24 DUP10 REVERT JUMPDEST ADD MLOAD SWAP1 POP CODESIZE DUP1 PUSH3 0x12B JUMP JUMPDEST DUP13 DUP1 MSTORE DUP12 DUP14 KECCAK256 DUP8 SWAP5 POP SWAP2 SWAP1 PUSH1 0x1F NOT DUP5 AND DUP15 DUP15 JUMPDEST DUP3 DUP3 LT PUSH3 0x36B JUMPI POP POP DUP5 GT PUSH3 0x351 JUMPI JUMPDEST POP POP POP DUP2 SHL ADD DUP10 SSTORE PUSH3 0x13F JUMP JUMPDEST ADD MLOAD PUSH1 0x0 NOT PUSH1 0xF8 DUP5 PUSH1 0x3 SHL AND SHR NOT AND SWAP1 SSTORE CODESIZE DUP1 DUP1 PUSH3 0x343 JUMP JUMPDEST DUP4 DUP6 ADD MLOAD DUP7 SSTORE DUP11 SWAP8 SWAP1 SWAP6 ADD SWAP5 SWAP4 DUP5 ADD SWAP4 ADD DUP15 PUSH3 0x331 JUMP JUMPDEST SWAP1 SWAP2 POP DUP12 DUP1 MSTORE DUP11 DUP13 KECCAK256 DUP6 DUP1 DUP6 ADD PUSH1 0x5 SHR DUP3 ADD SWAP3 DUP14 DUP7 LT PUSH3 0x3CC JUMPI JUMPDEST SWAP2 DUP9 SWAP2 DUP7 SWAP6 SWAP5 SWAP4 ADD PUSH1 0x5 SHR ADD SWAP2 JUMPDEST DUP3 DUP2 LT PUSH3 0x3BD JUMPI POP POP PUSH3 0x115 JUMP JUMPDEST DUP15 DUP2 SSTORE DUP6 SWAP5 POP DUP9 SWAP2 ADD PUSH3 0x3AD JUMP JUMPDEST SWAP3 POP DUP2 SWAP3 PUSH3 0x39F JUMP JUMPDEST PUSH4 0x4E487B71 PUSH1 0xE0 SHL DUP12 MSTORE PUSH1 0x22 PUSH1 0x4 MSTORE PUSH1 0x24 DUP12 REVERT JUMPDEST SWAP4 PUSH1 0x7F AND SWAP4 PUSH3 0xFE JUMP JUMPDEST PUSH4 0x4E487B71 PUSH1 0xE0 SHL PUSH1 0x0 MSTORE PUSH1 0x41 PUSH1 0x4 MSTORE PUSH1 0x24 PUSH1 0x0 REVERT JUMPDEST DUP9 MLOAD PUSH3 0x461BCD PUSH1 0xE5 SHL DUP2 MSTORE PUSH1 0x4 DUP2 ADD DUP8 SWAP1 MSTORE PUSH1 0x11 PUSH1 0x24 DUP3 ADD MSTORE PUSH17 0x1C1B185D199BDC9B481C995C5D5A5C9959 PUSH1 0x7A SHL PUSH1 0x44 DUP3 ADD MSTORE PUSH1 0x64 SWAP1 REVERT JUMPDEST DUP10 MLOAD PUSH3 0x461BCD PUSH1 0xE5 SHL DUP2 MSTORE PUSH1 0x4 DUP2 ADD DUP9 SWAP1 MSTORE PUSH1 0x10 PUSH1 0x24 DUP3 ADD MSTORE PUSH16 0x18DC99585D1BDC881C995C5D5A5C9959 PUSH1 0x82 SHL PUSH1 0x44 DUP3 ADD MSTORE PUSH1 0x64 SWAP1 REVERT JUMPDEST DUP10 MLOAD PUSH3 0x461BCD PUSH1 0xE5 SHL DUP2 MSTORE PUSH1 0x4 DUP2 ADD DUP9 SWAP1 MSTORE PUSH1 0x10 PUSH1 0x24 DUP3 ADD MSTORE PUSH16 0x199858DD1BDC9E481C995C5D5A5C9959 PUSH1 0x82 SHL PUSH1 0x44 DUP3 ADD MSTORE PUSH1 0x64 SWAP1 REVERT JUMPDEST DUP8 MLOAD PUSH3 0x461BCD PUSH1 0xE5 SHL DUP2 MSTORE PUSH1 0x4 DUP2 ADD DUP7 SWAP1 MSTORE PUSH1 0xF PUSH1 0x24 DUP3 ADD MSTORE PUSH15 0x1CDD5C1C1B1E481C995C5D5A5C9959 PUSH1 0x8A SHL PUSH1 0x44 DUP3 ADD MSTORE PUSH1 0x64 SWAP1 REVERT JUMPDEST DUP8 MLOAD PUSH3 0x461BCD PUSH1 0xE5 SHL DUP2 MSTORE PUSH1 0x4 DUP2 ADD DUP7 SWAP1 MSTORE PUSH1 0xF PUSH1 0x24 DUP3 ADD MSTORE PUSH15 0x1CDE5B589BDB081C995C5D5A5C9959 PUSH1 0x8A SHL PUSH1 0x44 DUP3 ADD MSTORE PUSH1 0x64 SWAP1 REVERT JUMPDEST DUP8 MLOAD PUSH3 0x461BCD PUSH1 0xE5 SHL DUP2 MSTORE PUSH1 0x4 DUP2 ADD DUP7 SWAP1 MSTORE PUSH1 0xD PUSH1 0x24 DUP3 ADD MSTORE PUSH13 0x1B985B59481C995C5D5A5C9959 PUSH1 0x9A SHL PUSH1 0x44 DUP3 ADD MSTORE PUSH1 0x64 SWAP1 REVERT JUMPDEST PUSH1 0x0 DUP1 REVERT JUMPDEST PUSH1 0x40 MLOAD SWAP2 SWAP1 PUSH1 0x1F ADD PUSH1 0x1F NOT AND DUP3 ADD PUSH1 0x1 PUSH1 0x1 PUSH1 0x40 SHL SUB DUP2 GT DUP4 DUP3 LT OR PUSH3 0x3F5 JUMPI PUSH1 0x40 MSTORE JUMP JUMPDEST SWAP2 SWAP1 DUP1 PUSH1 0x1F DUP5 ADD SLT ISZERO PUSH3 0x551 JUMPI DUP3 MLOAD PUSH1 0x1 PUSH1 0x1 PUSH1 0x40 SHL SUB DUP2 GT PUSH3 0x3F5 JUMPI PUSH1 0x20 SWAP1 PUSH3 0x5B2 PUSH1 0x1F DUP3 ADD PUSH1 0x1F NOT AND DUP4 ADD PUSH3 0x556 JUMP JUMPDEST SWAP3 DUP2 DUP5 MSTORE DUP3 DUP3 DUP8 ADD ADD GT PUSH3 0x551 JUMPI PUSH1 0x0 JUMPDEST DUP2 DUP2 LT PUSH3 0x5DA JUMPI POP DUP3 PUSH1 0x0 SWAP4 SWAP5 SWAP6 POP ADD ADD MSTORE SWAP1 JUMP JUMPDEST DUP6 DUP2 ADD DUP4 ADD MLOAD DUP5 DUP3 ADD DUP5 ADD MSTORE DUP3 ADD PUSH3 0x5C4 JUMP JUMPDEST MLOAD SWAP1 PUSH1 0x1 PUSH1 0x1 PUSH1 0xA0 SHL SUB DUP3 AND DUP3 SUB PUSH3 0x551 JUMPI JUMP INVALID PUSH1 0x80 PUSH1 0x40 DUP2 DUP2 MSTORE PUSH1 0x4 SWAP2 DUP3 CALLDATASIZE LT ISZERO PUSH2 0x16 JUMPI PUSH1 0x0 DUP1 REVERT JUMPDEST PUSH1 0x0 SWAP3 DUP4 CALLDATALOAD PUSH1 0xE0 SHR SWAP2 DUP3 PUSH4 0x2D05D3F EQ PUSH2 0xAC0 JUMPI POP DUP2 PUSH4 0x44991D8 EQ PUSH2 0xAA1 JUMPI DUP2 PUSH4 0x6FDDE03 EQ PUSH2 0x9C7 JUMPI DUP2 PUSH4 0x95EA7B3 EQ PUSH2 0x956 JUMPI DUP2 PUSH4 0x18160DDD EQ PUSH2 0x937 JUMPI DUP2 PUSH4 0x1E26906B EQ PUSH2 0x910 JUMPI DUP2 PUSH4 0x23B872DD EQ PUSH2 0x809 JUMPI DUP2 PUSH4 0x2BEBF6BF EQ PUSH2 0x73F JUMPI DUP2 PUSH4 0x313CE567 EQ PUSH2 0x723 JUMPI DUP2 PUSH4 0x351FEE46 EQ PUSH2 0x65F JUMPI DUP2 PUSH4 0x539AA77F EQ PUSH2 0x643 JUMPI DUP2 PUSH4 0x70A08231 EQ PUSH2 0x60B JUMPI DUP2 PUSH4 0x9185F598 EQ PUSH2 0x5EF JUMPI DUP2 PUSH4 0x95D89B41 EQ PUSH2 0x4CC JUMPI DUP2 PUSH4 0x9E5F358A EQ PUSH2 0x4AE JUMPI DUP2 PUSH4 0xA9059CBB EQ PUSH2 0x47D JUMPI DUP2 PUSH4 0xAE36F5C8 EQ PUSH2 0x329 JUMPI DUP2 PUSH4 0xC45A0155 EQ PUSH2 0x2E5 JUMPI DUP2 PUSH4 0xCC3CBD2A EQ PUSH2 0x2C9 JUMPI DUP2 PUSH4 0xDC4B1C0E EQ PUSH2 0x1FF JUMPI POP DUP1 PUSH4 0xDD62ED3E EQ PUSH2 0x1B7 JUMPI DUP1 PUSH4 0xE1A45218 EQ PUSH2 0x19B JUMPI DUP1 PUSH4 0xEB13554F EQ PUSH2 0x158 JUMPI PUSH4 0xF242AB41 EQ PUSH2 0x12D JUMPI PUSH1 0x0 DUP1 REVERT JUMPDEST CALLVALUE PUSH2 0x154 JUMPI DUP2 PUSH1 0x3 NOT CALLDATASIZE ADD SLT PUSH2 0x154 JUMPI PUSH1 0x3 SLOAD SWAP1 MLOAD PUSH1 0x1 PUSH1 0x1 PUSH1 0xA0 SHL SUB SWAP1 SWAP2 AND DUP2 MSTORE PUSH1 0x20 SWAP1 RETURN JUMPDEST POP DUP1 REVERT JUMPDEST POP CALLVALUE PUSH2 0x154 JUMPI DUP2 PUSH1 0x3 NOT CALLDATASIZE ADD SLT PUSH2 0x154 JUMPI MLOAD PUSH32 0x0 PUSH1 0x1 PUSH1 0x1 PUSH1 0xA0 SHL SUB AND DUP2 MSTORE PUSH1 0x20 SWAP1 RETURN JUMPDEST POP CALLVALUE PUSH2 0x154 JUMPI DUP2 PUSH1 0x3 NOT CALLDATASIZE ADD SLT PUSH2 0x154 JUMPI PUSH1 0x20 SWAP1 MLOAD PUSH2 0x2710 DUP2 MSTORE RETURN JUMPDEST POP CALLVALUE PUSH2 0x154 JUMPI DUP1 PUSH1 0x3 NOT CALLDATASIZE ADD SLT PUSH2 0x154 JUMPI DUP1 PUSH1 0x20 SWAP3 PUSH2 0x1D4 PUSH2 0xB4C JUMP JUMPDEST PUSH2 0x1DC PUSH2 0xB67 JUMP JUMPDEST PUSH1 0x1 PUSH1 0x1 PUSH1 0xA0 SHL SUB SWAP2 DUP3 AND DUP4 MSTORE PUSH1 0x7 DUP7 MSTORE DUP4 DUP4 KECCAK256 SWAP2 AND DUP3 MSTORE DUP5 MSTORE KECCAK256 SLOAD SWAP1 MLOAD SWAP1 DUP2 MSTORE RETURN JUMPDEST SWAP1 POP CALLVALUE PUSH2 0x2C5 JUMPI DUP3 PUSH1 0x3 NOT CALLDATASIZE ADD SLT PUSH2 0x2C5 JUMPI PUSH2 0x245 CALLER PUSH32 0x0 PUSH1 0x1 PUSH1 0x1 PUSH1 0xA0 SHL SUB AND EQ PUSH2 0xBDF JUMP JUMPDEST PUSH1 0x3 SLOAD SWAP2 PUSH1 0xFF DUP4 PUSH1 0xA0 SHR AND PUSH2 0x28E JUMPI POP POP PUSH1 0xFF PUSH1 0xA0 SHL NOT AND PUSH1 0x1 PUSH1 0xA0 SHL OR PUSH1 0x3 SSTORE CALLER PUSH32 0x60B9765CF08F04B4850CD9A0F8DA6FA9E854AFD328723CC3F6ADEA6FB4F18D23 DUP3 DUP1 LOG2 DUP1 RETURN JUMPDEST SWAP1 PUSH1 0x20 PUSH1 0x64 SWAP3 MLOAD SWAP2 PUSH3 0x461BCD PUSH1 0xE5 SHL DUP4 MSTORE DUP3 ADD MSTORE PUSH1 0x11 PUSH1 0x24 DUP3 ADD MSTORE PUSH17 0x185B1C9958591E481C995B9BDD5B98D959 PUSH1 0x7A SHL PUSH1 0x44 DUP3 ADD MSTORE REVERT JUMPDEST DUP3 DUP1 REVERT JUMPDEST POP POP CALLVALUE PUSH2 0x154 JUMPI DUP2 PUSH1 0x3 NOT CALLDATASIZE ADD SLT PUSH2 0x154 JUMPI PUSH1 0x20 SWAP1 MLOAD PUSH1 0x1E DUP2 MSTORE RETURN JUMPDEST POP POP CALLVALUE PUSH2 0x154 JUMPI DUP2 PUSH1 0x3 NOT CALLDATASIZE ADD SLT PUSH2 0x154 JUMPI MLOAD PUSH32 0x0 PUSH1 0x1 PUSH1 0x1 PUSH1 0xA0 SHL SUB AND DUP2 MSTORE PUSH1 0x20 SWAP1 RETURN JUMPDEST DUP4 SWAP2 POP CALLVALUE PUSH2 0x154 JUMPI PUSH1 0x20 CALLDATASIZE PUSH1 0x3 NOT ADD SLT PUSH2 0x154 JUMPI PUSH2 0x345 PUSH2 0xB4C JUMP JUMPDEST PUSH1 0x1 PUSH1 0x1 PUSH1 0xA0 SHL SUB SWAP1 DUP2 SWAP1 PUSH2 0x37D CALLER PUSH32 0x0 DUP5 AND EQ PUSH2 0xBDF JUMP JUMPDEST AND SWAP2 DUP3 ISZERO PUSH2 0x44A JUMPI PUSH1 0x3 SLOAD SWAP2 PUSH1 0xFF DUP4 PUSH1 0xA0 SHR AND PUSH2 0x407 JUMPI DUP3 AND PUSH2 0x3D1 JUMPI POP PUSH1 0x1 PUSH1 0x1 PUSH1 0xA0 SHL SUB NOT AND DUP2 OR PUSH1 0x3 SSTORE PUSH32 0xC3CD203585FBC28DCC1692611D2EBC4190312A5B189047DF793C69B157AA0D29 DUP3 DUP1 LOG2 DUP1 RETURN JUMPDEST PUSH1 0x64 SWAP1 PUSH1 0x20 DUP7 MLOAD SWAP2 PUSH3 0x461BCD PUSH1 0xE5 SHL DUP4 MSTORE DUP3 ADD MSTORE PUSH1 0x10 PUSH1 0x24 DUP3 ADD MSTORE PUSH16 0x1C185A5C88185B1C9958591E481CD95D PUSH1 0x82 SHL PUSH1 0x44 DUP3 ADD MSTORE REVERT JUMPDEST DUP6 MLOAD PUSH3 0x461BCD PUSH1 0xE5 SHL DUP2 MSTORE PUSH1 0x20 DUP2 DUP5 ADD MSTORE PUSH1 0x19 PUSH1 0x24 DUP3 ADD MSTORE PUSH32 0x666163746F727920636F6E74726F6C2072656E6F756E63656400000000000000 PUSH1 0x44 DUP3 ADD MSTORE PUSH1 0x64 SWAP1 REVERT JUMPDEST PUSH1 0x64 SWAP1 PUSH1 0x20 DUP7 MLOAD SWAP2 PUSH3 0x461BCD PUSH1 0xE5 SHL DUP4 MSTORE DUP3 ADD MSTORE PUSH1 0xD PUSH1 0x24 DUP3 ADD MSTORE PUSH13 0x1C185A5C881C995C5D5A5C9959 PUSH1 0x9A SHL PUSH1 0x44 DUP3 ADD MSTORE REVERT JUMPDEST POP POP CALLVALUE PUSH2 0x154 JUMPI DUP1 PUSH1 0x3 NOT CALLDATASIZE ADD SLT PUSH2 0x154 JUMPI PUSH1 0x20 SWAP1 PUSH2 0x4A7 PUSH2 0x49D PUSH2 0xB4C JUMP JUMPDEST PUSH1 0x24 CALLDATALOAD SWAP1 CALLER PUSH2 0xC27 JUMP JUMPDEST MLOAD PUSH1 0x1 DUP2 MSTORE RETURN JUMPDEST SWAP1 POP CALLVALUE PUSH2 0x2C5 JUMPI DUP3 PUSH1 0x3 NOT CALLDATASIZE ADD SLT PUSH2 0x2C5 JUMPI PUSH1 0x20 SWAP3 POP SLOAD SWAP1 MLOAD SWAP1 DUP2 MSTORE RETURN JUMPDEST DUP4 DUP4 CALLVALUE PUSH2 0x154 JUMPI DUP2 PUSH1 0x3 NOT CALLDATASIZE ADD SLT PUSH2 0x154 JUMPI DUP1 MLOAD SWAP1 DUP3 PUSH1 0x1 DUP1 SLOAD SWAP1 DUP2 PUSH1 0x1 SHR SWAP1 PUSH1 0x1 DUP4 AND SWAP3 DUP4 ISZERO PUSH2 0x5E5 JUMPI JUMPDEST PUSH1 0x20 SWAP4 DUP5 DUP5 LT DUP2 EQ PUSH2 0x5D2 JUMPI DUP4 DUP9 MSTORE SWAP1 DUP2 ISZERO PUSH2 0x5B6 JUMPI POP PUSH1 0x1 EQ PUSH2 0x560 JUMPI JUMPDEST POP POP POP DUP3 SWAP1 SUB PUSH1 0x1F ADD PUSH1 0x1F NOT AND DUP3 ADD SWAP3 PUSH8 0xFFFFFFFFFFFFFFFF DUP5 GT DUP4 DUP6 LT OR PUSH2 0x54D JUMPI POP DUP3 SWAP2 DUP3 PUSH2 0x549 SWAP3 MSTORE DUP3 PUSH2 0xB03 JUMP JUMPDEST SUB SWAP1 RETURN JUMPDEST PUSH4 0x4E487B71 PUSH1 0xE0 SHL DUP2 MSTORE PUSH1 0x41 DUP6 MSTORE PUSH1 0x24 SWAP1 REVERT JUMPDEST PUSH1 0x1 DUP8 MSTORE SWAP2 SWAP3 POP DUP6 SWAP2 DUP4 PUSH32 0xB10E2D527612073B26EECDFD717E6A320CF44B4AFAC2B0732D9FCBE2B7FA0CF6 JUMPDEST DUP4 DUP6 LT PUSH2 0x5A2 JUMPI POP POP POP POP DUP4 ADD ADD DUP6 DUP1 DUP1 PUSH2 0x517 JUMP JUMPDEST DUP1 SLOAD DUP9 DUP7 ADD DUP4 ADD MSTORE SWAP4 ADD SWAP3 DUP5 SWAP1 DUP3 ADD PUSH2 0x58C JUMP JUMPDEST PUSH1 0xFF NOT AND DUP8 DUP6 ADD MSTORE POP POP ISZERO ISZERO PUSH1 0x5 SHL DUP5 ADD ADD SWAP1 POP DUP6 DUP1 DUP1 PUSH2 0x517 JUMP JUMPDEST PUSH4 0x4E487B71 PUSH1 0xE0 SHL DUP10 MSTORE PUSH1 0x22 DUP11 MSTORE PUSH1 0x24 DUP10 REVERT JUMPDEST SWAP2 PUSH1 0x7F AND SWAP2 PUSH2 0x4F8 JUMP JUMPDEST POP POP CALLVALUE PUSH2 0x154 JUMPI DUP2 PUSH1 0x3 NOT CALLDATASIZE ADD SLT PUSH2 0x154 JUMPI PUSH1 0x20 SWAP1 MLOAD PUSH1 0x32 DUP2 MSTORE RETURN JUMPDEST POP POP CALLVALUE PUSH2 0x154 JUMPI PUSH1 0x20 CALLDATASIZE PUSH1 0x3 NOT ADD SLT PUSH2 0x154 JUMPI PUSH1 0x20 SWAP2 DUP2 SWAP1 PUSH1 0x1 PUSH1 0x1 PUSH1 0xA0 SHL SUB PUSH2 0x633 PUSH2 0xB4C JUMP JUMPDEST AND DUP2 MSTORE PUSH1 0x6 DUP5 MSTORE KECCAK256 SLOAD SWAP1 MLOAD SWAP1 DUP2 MSTORE RETURN JUMPDEST POP POP CALLVALUE PUSH2 0x154 JUMPI DUP2 PUSH1 0x3 NOT CALLDATASIZE ADD SLT PUSH2 0x154 JUMPI PUSH1 0x20 SWAP1 MLOAD PUSH1 0x14 DUP2 MSTORE RETURN JUMPDEST DUP4 DUP4 CALLVALUE PUSH2 0x154 JUMPI DUP2 PUSH1 0x3 NOT CALLDATASIZE ADD SLT PUSH2 0x154 JUMPI PUSH32 0x0 PUSH1 0x1 PUSH1 0x1 PUSH1 0xA0 SHL SUB DUP2 AND SWAP1 CALLER DUP3 SWAP1 SUB PUSH2 0x6F1 JUMPI DUP5 PUSH2 0x6C3 SWAP2 PUSH1 0x20 SWAP7 SLOAD SWAP6 DUP7 SWAP3 PUSH2 0x6BC DUP5 ISZERO ISZERO PUSH2 0xBA0 JUMP JUMPDEST SSTORE ADDRESS PUSH2 0xE42 JUMP JUMPDEST PUSH32 0xD046302BDC39599E60A5981E59227DCD1C643F512F56F2E984390C3AC6EADEDB DUP5 DUP4 MLOAD DUP6 DUP2 MSTORE LOG2 MLOAD SWAP1 DUP2 MSTORE RETURN JUMPDEST DUP3 MLOAD PUSH3 0x461BCD PUSH1 0xE5 SHL DUP2 MSTORE PUSH1 0x20 DUP2 DUP8 ADD MSTORE PUSH1 0xC PUSH1 0x24 DUP3 ADD MSTORE PUSH12 0x37B7363C9031B932B0BA37B9 PUSH1 0xA1 SHL PUSH1 0x44 DUP3 ADD MSTORE PUSH1 0x64 SWAP1 REVERT JUMPDEST POP POP CALLVALUE PUSH2 0x154 JUMPI DUP2 PUSH1 0x3 NOT CALLDATASIZE ADD SLT PUSH2 0x154 JUMPI PUSH1 0x20 SWAP1 MLOAD PUSH1 0x12 DUP2 MSTORE RETURN JUMPDEST SWAP2 SWAP1 POP CALLVALUE PUSH2 0x2C5 JUMPI DUP3 PUSH1 0x3 NOT CALLDATASIZE ADD SLT PUSH2 0x2C5 JUMPI PUSH32 0x0 SWAP2 PUSH1 0x1 PUSH1 0x1 PUSH1 0xA0 SHL SUB DUP4 AND SWAP1 CALLER DUP3 SWAP1 SUB PUSH2 0x7D6 JUMPI POP PUSH2 0x7A8 PUSH1 0x20 SWAP5 PUSH1 0x5 SLOAD SWAP5 DUP6 SWAP2 PUSH2 0x79F DUP4 ISZERO ISZERO PUSH2 0xBA0 JUMP JUMPDEST PUSH1 0x5 SSTORE ADDRESS PUSH2 0xE42 JUMP JUMPDEST PUSH32 0x636F1043CFF5F4C437926A4412416778DDC5E970FEB177685B587E81DAD9095 DUP5 DUP4 MLOAD DUP6 DUP2 MSTORE LOG2 MLOAD SWAP1 DUP2 MSTORE RETURN JUMPDEST PUSH1 0x64 SWAP1 PUSH1 0x20 DUP5 MLOAD SWAP2 PUSH3 0x461BCD PUSH1 0xE5 SHL DUP4 MSTORE DUP3 ADD MSTORE PUSH1 0xD PUSH1 0x24 DUP3 ADD MSTORE PUSH13 0x6F6E6C7920706C6174666F726D PUSH1 0x98 SHL PUSH1 0x44 DUP3 ADD MSTORE REVERT JUMPDEST SWAP2 SWAP1 POP CALLVALUE PUSH2 0x2C5 JUMPI PUSH1 0x60 CALLDATASIZE PUSH1 0x3 NOT ADD SLT PUSH2 0x2C5 JUMPI PUSH2 0x825 PUSH2 0xB4C JUMP JUMPDEST PUSH2 0x82D PUSH2 0xB67 JUMP JUMPDEST PUSH1 0x44 CALLDATALOAD SWAP2 PUSH1 0x1 DUP1 PUSH1 0xA0 SHL SUB DUP2 AND DUP1 DUP8 MSTORE PUSH1 0x20 SWAP6 PUSH1 0x7 DUP8 MSTORE DUP6 DUP9 KECCAK256 CALLER DUP10 MSTORE DUP8 MSTORE DUP6 DUP9 KECCAK256 SLOAD SWAP1 DUP6 DUP3 LT PUSH2 0x8D8 JUMPI POP SWAP5 DUP1 SWAP7 SWAP8 PUSH2 0x4A7 SWAP7 DUP7 PUSH1 0x0 NOT DUP3 SUB PUSH2 0x876 JUMPI JUMPDEST POP POP POP POP POP PUSH2 0xC27 JUMP JUMPDEST PUSH2 0x87F SWAP2 PUSH2 0xB7D JUMP JUMPDEST DUP4 DUP3 MSTORE PUSH1 0x7 DUP11 MSTORE DUP3 DUP3 KECCAK256 CALLER DUP4 MSTORE DUP11 MSTORE DUP3 DUP3 KECCAK256 SSTORE DUP3 DUP2 MSTORE PUSH1 0x7 DUP10 MSTORE DUP2 DUP2 KECCAK256 CALLER DUP3 MSTORE DUP10 MSTORE KECCAK256 SLOAD SWAP1 DUP7 MLOAD SWAP2 DUP3 MSTORE PUSH32 0x8C5BE1E5EBEC7D5BD14F71427D1E84F3DD0314C0F7B2291E5B200AC8C7C3B925 DUP9 CALLER SWAP4 LOG3 CODESIZE DUP6 DUP2 DUP1 DUP7 PUSH2 0x86C JUMP JUMPDEST DUP7 MLOAD PUSH3 0x461BCD PUSH1 0xE5 SHL DUP2 MSTORE SWAP1 DUP2 ADD DUP9 SWAP1 MSTORE PUSH1 0x12 PUSH1 0x24 DUP3 ADD MSTORE PUSH18 0x185B1B1BDDD85B98D948195E18D959591959 PUSH1 0x72 SHL PUSH1 0x44 DUP3 ADD MSTORE PUSH1 0x64 SWAP1 REVERT JUMPDEST POP POP CALLVALUE PUSH2 0x154 JUMPI DUP2 PUSH1 0x3 NOT CALLDATASIZE ADD SLT PUSH2 0x154 JUMPI PUSH1 0x20 SWAP1 PUSH1 0xFF PUSH1 0x3 SLOAD PUSH1 0xA0 SHR AND SWAP1 MLOAD SWAP1 ISZERO ISZERO DUP2 MSTORE RETURN JUMPDEST POP POP CALLVALUE PUSH2 0x154 JUMPI DUP2 PUSH1 0x3 NOT CALLDATASIZE ADD SLT PUSH2 0x154 JUMPI PUSH1 0x20 SWAP1 PUSH1 0x2 SLOAD SWAP1 MLOAD SWAP1 DUP2 MSTORE RETURN JUMPDEST POP POP CALLVALUE PUSH2 0x154 JUMPI DUP1 PUSH1 0x3 NOT CALLDATASIZE ADD SLT PUSH2 0x154 JUMPI PUSH1 0x20 SWAP2 DUP2 PUSH2 0x974 PUSH2 0xB4C JUMP JUMPDEST SWAP2 PUSH1 0x24 CALLDATALOAD SWAP2 DUP3 SWAP2 CALLER DUP2 MSTORE PUSH1 0x7 DUP8 MSTORE DUP2 DUP2 KECCAK256 SWAP5 PUSH1 0x1 DUP1 PUSH1 0xA0 SHL SUB AND SWAP5 DUP6 DUP3 MSTORE DUP8 MSTORE KECCAK256 SSTORE DUP3 MLOAD SWAP1 DUP2 MSTORE PUSH32 0x8C5BE1E5EBEC7D5BD14F71427D1E84F3DD0314C0F7B2291E5B200AC8C7C3B925 DUP5 CALLER SWAP3 LOG3 MLOAD PUSH1 0x1 DUP2 MSTORE RETURN JUMPDEST DUP4 DUP4 CALLVALUE PUSH2 0x154 JUMPI DUP2 PUSH1 0x3 NOT CALLDATASIZE ADD SLT PUSH2 0x154 JUMPI DUP1 MLOAD SWAP1 DUP3 DUP4 SLOAD PUSH1 0x1 DUP2 PUSH1 0x1 SHR SWAP1 PUSH1 0x1 DUP4 AND SWAP3 DUP4 ISZERO PUSH2 0xA97 JUMPI JUMPDEST PUSH1 0x20 SWAP4 DUP5 DUP5 LT DUP2 EQ PUSH2 0x5D2 JUMPI DUP4 DUP9 MSTORE SWAP1 DUP2 ISZERO PUSH2 0x5B6 JUMPI POP PUSH1 0x1 EQ PUSH2 0xA42 JUMPI POP POP POP DUP3 SWAP1 SUB PUSH1 0x1F ADD PUSH1 0x1F NOT AND DUP3 ADD SWAP3 PUSH8 0xFFFFFFFFFFFFFFFF DUP5 GT DUP4 DUP6 LT OR PUSH2 0x54D JUMPI POP DUP3 SWAP2 DUP3 PUSH2 0x549 SWAP3 MSTORE DUP3 PUSH2 0xB03 JUMP JUMPDEST DUP7 DUP1 MSTORE SWAP2 SWAP3 POP DUP6 SWAP2 DUP4 PUSH32 0x290DECD9548B62A8D60345A988386FC84BA6BC95484008F6362F93160EF3E563 JUMPDEST DUP4 DUP6 LT PUSH2 0xA83 JUMPI POP POP POP POP DUP4 ADD ADD DUP6 DUP1 DUP1 PUSH2 0x517 JUMP JUMPDEST DUP1 SLOAD DUP9 DUP7 ADD DUP4 ADD MSTORE SWAP4 ADD SWAP3 DUP5 SWAP1 DUP3 ADD PUSH2 0xA6D JUMP JUMPDEST SWAP2 PUSH1 0x7F AND SWAP2 PUSH2 0x9F2 JUMP JUMPDEST POP POP CALLVALUE PUSH2 0x154 JUMPI DUP2 PUSH1 0x3 NOT CALLDATASIZE ADD SLT PUSH2 0x154 JUMPI PUSH1 0x20 SWAP1 PUSH1 0x5 SLOAD SWAP1 MLOAD SWAP1 DUP2 MSTORE RETURN JUMPDEST DUP5 SWAP1 CALLVALUE PUSH2 0x154 JUMPI DUP2 PUSH1 0x3 NOT CALLDATASIZE ADD SLT PUSH2 0x154 JUMPI PUSH32 0x0 PUSH1 0x1 PUSH1 0x1 PUSH1 0xA0 SHL SUB AND DUP2 MSTORE PUSH1 0x20 SWAP1 RETURN JUMPDEST PUSH1 0x20 DUP1 DUP3 MSTORE DUP3 MLOAD DUP2 DUP4 ADD DUP2 SWAP1 MSTORE SWAP1 SWAP4 SWAP3 PUSH1 0x0 JUMPDEST DUP3 DUP2 LT PUSH2 0xB38 JUMPI POP POP PUSH1 0x40 SWAP3 SWAP4 POP PUSH1 0x0 DUP4 DUP3 DUP5 ADD ADD MSTORE PUSH1 0x1F DUP1 NOT SWAP2 ADD AND ADD ADD SWAP1 JUMP JUMPDEST DUP2 DUP2 ADD DUP7 ADD MLOAD DUP5 DUP3 ADD PUSH1 0x40 ADD MSTORE DUP6 ADD PUSH2 0xB16 JUMP JUMPDEST PUSH1 0x4 CALLDATALOAD SWAP1 PUSH1 0x1 PUSH1 0x1 PUSH1 0xA0 SHL SUB DUP3 AND DUP3 SUB PUSH2 0xB62 JUMPI JUMP JUMPDEST PUSH1 0x0 DUP1 REVERT JUMPDEST PUSH1 0x24 CALLDATALOAD SWAP1 PUSH1 0x1 PUSH1 0x1 PUSH1 0xA0 SHL SUB DUP3 AND DUP3 SUB PUSH2 0xB62 JUMPI JUMP JUMPDEST SWAP2 SWAP1 DUP3 SUB SWAP2 DUP3 GT PUSH2 0xB8A JUMPI JUMP JUMPDEST PUSH4 0x4E487B71 PUSH1 0xE0 SHL PUSH1 0x0 MSTORE PUSH1 0x11 PUSH1 0x4 MSTORE PUSH1 0x24 PUSH1 0x0 REVERT JUMPDEST ISZERO PUSH2 0xBA7 JUMPI JUMP JUMPDEST PUSH1 0x40 MLOAD PUSH3 0x461BCD PUSH1 0xE5 SHL DUP2 MSTORE PUSH1 0x20 PUSH1 0x4 DUP3 ADD MSTORE PUSH1 0x10 PUSH1 0x24 DUP3 ADD MSTORE PUSH16 0x6E6F7468696E6720746F20636C61696D PUSH1 0x80 SHL PUSH1 0x44 DUP3 ADD MSTORE PUSH1 0x64 SWAP1 REVERT JUMPDEST ISZERO PUSH2 0xBE6 JUMPI JUMP JUMPDEST PUSH1 0x40 MLOAD PUSH3 0x461BCD PUSH1 0xE5 SHL DUP2 MSTORE PUSH1 0x20 PUSH1 0x4 DUP3 ADD MSTORE PUSH1 0xC PUSH1 0x24 DUP3 ADD MSTORE PUSH12 0x6F6E6C7920666163746F7279 PUSH1 0xA0 SHL PUSH1 0x44 DUP3 ADD MSTORE PUSH1 0x64 SWAP1 REVERT JUMPDEST SWAP2 SWAP1 DUP3 ADD DUP1 SWAP3 GT PUSH2 0xB8A JUMPI JUMP JUMPDEST PUSH1 0x1 PUSH1 0x1 PUSH1 0xA0 SHL SUB DUP1 DUP4 AND SWAP4 SWAP2 SWAP3 SWAP1 DUP5 ISZERO PUSH2 0xE0E JUMPI DUP4 AND SWAP3 PUSH1 0x0 SWAP2 DUP5 DUP4 MSTORE PUSH1 0x20 SWAP3 PUSH1 0x6 DUP5 MSTORE PUSH1 0x40 SWAP2 DUP3 DUP3 KECCAK256 SLOAD SWAP1 DUP7 DUP3 LT PUSH2 0xDD8 JUMPI PUSH2 0xC66 SWAP1 DUP8 SWAP6 PUSH2 0xEFA JUMP JUMPDEST DUP1 PUSH2 0xDCF JUMPI JUMPDEST PUSH2 0xCC1 JUMPI JUMPDEST SWAP1 PUSH2 0xC9E PUSH32 0xDDF252AD1BE2C89B69C2B068FC378DAA952BA7F163C4A11628F55A4DF523B3EF SWAP7 DUP5 SWAP4 PUSH2 0xB7D JUMP JUMPDEST DUP8 DUP3 MSTORE PUSH1 0x6 DUP7 MSTORE DUP3 DUP3 KECCAK256 SSTORE DUP8 DUP2 MSTORE KECCAK256 PUSH2 0xCB8 DUP4 DUP3 SLOAD PUSH2 0xC1A JUMP JUMPDEST SWAP1 SSTORE MLOAD SWAP1 DUP2 MSTORE LOG3 JUMP JUMPDEST PUSH1 0x32 DUP7 MUL DUP7 ISZERO SWAP1 DUP8 DUP2 DIV PUSH1 0x32 EQ DUP3 OR ISZERO PUSH2 0xDBB JUMPI PUSH2 0x2710 DUP1 SWAP2 DIV SWAP2 DUP3 PUSH2 0xCEA JUMPI JUMPDEST POP POP POP PUSH2 0xC71 JUMP JUMPDEST SWAP1 SWAP2 SWAP6 POP PUSH1 0x1E DUP9 MUL SWAP1 DUP9 DUP3 DIV PUSH1 0x1E EQ OR ISZERO PUSH2 0xDBB JUMPI DUP9 DUP6 SWAP5 SWAP4 SWAP3 DUP12 SWAP3 DIV DUP6 DUP9 DUP11 DUP5 DUP14 PUSH2 0xD16 DUP7 DUP6 PUSH2 0xB7D JUMP JUMPDEST SWAP4 PUSH2 0xD20 SWAP2 PUSH2 0xB7D JUMP JUMPDEST SWAP12 DUP6 PUSH1 0x4 SLOAD SWAP1 PUSH2 0xD2F SWAP2 PUSH2 0xC1A JUMP JUMPDEST PUSH1 0x4 SSTORE DUP4 PUSH1 0x5 SLOAD SWAP1 PUSH2 0xD40 SWAP2 PUSH2 0xC1A JUMP JUMPDEST PUSH1 0x5 SSTORE ADDRESS DUP11 MSTORE PUSH1 0x6 DUP4 MSTORE DUP5 DUP11 KECCAK256 DUP2 DUP2 SLOAD SWAP1 PUSH2 0xD5A SWAP2 PUSH2 0xC1A JUMP JUMPDEST SWAP1 SSTORE DUP5 MLOAD SWAP1 DUP2 MSTORE ADDRESS SWAP3 PUSH32 0xDDF252AD1BE2C89B69C2B068FC378DAA952BA7F163C4A11628F55A4DF523B3EF SWAP2 LOG3 DUP2 MLOAD SWAP3 DUP4 MSTORE DUP11 DUP4 ADD MSTORE PUSH32 0x93BD139EA85D53C55E02DEC709128F827EBD5CB8A4A0D873193711B70B0A15B9 SWAP2 LOG3 SWAP1 SWAP2 CODESIZE DUP1 PUSH2 0xCE2 JUMP JUMPDEST PUSH4 0x4E487B71 PUSH1 0xE0 SHL DUP5 MSTORE PUSH1 0x11 PUSH1 0x4 MSTORE PUSH1 0x24 DUP5 REVERT JUMPDEST POP DUP6 ISZERO ISZERO PUSH2 0xC6C JUMP JUMPDEST DUP4 MLOAD PUSH3 0x461BCD PUSH1 0xE5 SHL DUP2 MSTORE PUSH1 0x4 DUP2 ADD DUP8 SWAP1 MSTORE PUSH1 0xF PUSH1 0x24 DUP3 ADD MSTORE PUSH15 0x62616C616E636520746F6F206C6F77 PUSH1 0x88 SHL PUSH1 0x44 DUP3 ADD MSTORE PUSH1 0x64 SWAP1 REVERT JUMPDEST PUSH1 0x40 MLOAD PUSH3 0x461BCD PUSH1 0xE5 SHL DUP2 MSTORE PUSH1 0x20 PUSH1 0x4 DUP3 ADD MSTORE PUSH1 0xC PUSH1 0x24 DUP3 ADD MSTORE PUSH12 0x7A65726F2061646472657373 PUSH1 0xA0 SHL PUSH1 0x44 DUP3 ADD MSTORE PUSH1 0x64 SWAP1 REVERT JUMPDEST PUSH1 0x1 DUP1 PUSH1 0xA0 SHL SUB DUP1 SWAP2 AND SWAP2 PUSH1 0x0 SWAP4 DUP4 DUP6 MSTORE PUSH1 0x6 PUSH1 0x20 MSTORE PUSH1 0x40 DUP6 KECCAK256 SLOAD DUP2 DUP2 LT PUSH2 0xEBC JUMPI PUSH32 0xDDF252AD1BE2C89B69C2B068FC378DAA952BA7F163C4A11628F55A4DF523B3EF SWAP4 PUSH1 0x20 SWAP4 PUSH2 0xE95 DUP5 PUSH1 0x40 SWAP5 PUSH2 0xB7D JUMP JUMPDEST DUP8 DUP10 MSTORE PUSH1 0x6 DUP7 MSTORE DUP4 DUP10 KECCAK256 SSTORE AND SWAP6 DUP7 DUP2 MSTORE KECCAK256 PUSH2 0xEB1 DUP3 DUP3 SLOAD PUSH2 0xC1A JUMP JUMPDEST SWAP1 SSTORE PUSH1 0x40 MLOAD SWAP1 DUP2 MSTORE LOG3 JUMP JUMPDEST PUSH1 0x40 MLOAD PUSH3 0x461BCD PUSH1 0xE5 SHL DUP2 MSTORE PUSH1 0x20 PUSH1 0x4 DUP3 ADD MSTORE PUSH1 0x16 PUSH1 0x24 DUP3 ADD MSTORE PUSH22 0x1A5B9CDD59999A58DA595B9D08199959481D985D5B1D PUSH1 0x52 SHL PUSH1 0x44 DUP3 ADD MSTORE PUSH1 0x64 SWAP1 REVERT JUMPDEST PUSH1 0x3 SLOAD PUSH1 0x1 PUSH1 0x1 PUSH1 0xA0 SHL SUB SWAP1 DUP2 AND SWAP2 DUP3 ISZERO PUSH2 0xF2D JUMPI DUP2 AND DUP3 EQ SWAP3 DUP4 ISZERO PUSH2 0xF21 JUMPI JUMPDEST POP POP POP SWAP1 JUMP JUMPDEST AND EQ SWAP1 POP CODESIZE DUP1 DUP1 PUSH2 0xF1B JUMP JUMPDEST POP POP POP POP PUSH1 0x0 SWAP1 JUMP INVALID LOG2 PUSH5 0x6970667358 0x22 SLT KECCAK256 0xC5 0xCB PUSH21 0xB2236009BDABCBE103CF29E158D33F78F1563CD239 0xDF SWAP5 PUSH24 0x69F06FB56764736F6C63430008180033DDF252AD1BE2C89B PUSH10 0xC2B068FC378DAA952BA7 CALL PUSH4 0xC4A11628 CREATE2 GAS 0x4D CREATE2 0x23 0xB3 0xEF "},"methodIdentifiers":{"BPS_DENOMINATOR()":"e1a45218","CREATOR_FEE_BPS()":"cc3cbd2a","PLATFORM_FEE_BPS()":"539aa77f","TRADE_FEE_BPS()":"9185f598","allowance(address,address)":"dd62ed3e","approve(address,uint256)":"095ea7b3","balanceOf(address)":"70a08231","claimCreatorFees()":"351fee46","claimPlatformFees()":"2bebf6bf","creator()":"02d05d3f","creatorClaimable()":"9e5f358a","decimals()":"313ce567","dexPair()":"f242ab41","factory()":"c45a0155","factoryControlRenounced()":"1e26906b","name()":"06fdde03","platformClaimable()":"044991d8","platformFeeRecipient()":"eb13554f","renounceFactoryControl()":"dc4b1c0e","setDexPair(address)":"ae36f5c8","symbol()":"95d89b41","totalSupply()":"18160ddd","transfer(address,uint256)":"a9059cbb","transferFrom(address,address,uint256)":"23b872dd"}}}}}