{
  "_format": "hh-sol-artifact-1",
  "contractName": "MemeToken",
  "sourceName": "contracts/MemeToken.sol",
  "abi": [
    {
      "inputs": [
        {
          "internalType": "string",
          "name": "_name",
          "type": "string"
        },
        {
          "internalType": "string",
          "name": "_symbol",
          "type": "string"
        },
        {
          "internalType": "uint256",
          "name": "_totalSupply",
          "type": "uint256"
        },
        {
          "internalType": "address",
          "name": "_factory",
          "type": "address"
        },
        {
          "internalType": "address",
          "name": "_creator",
          "type": "address"
        },
        {
          "internalType": "address",
          "name": "_platformFeeRecipient",
          "type": "address"
        }
      ],
      "stateMutability": "nonpayable",
      "type": "constructor"
    },
    {
      "anonymous": false,
      "inputs": [
        {
          "indexed": true,
          "internalType": "address",
          "name": "owner",
          "type": "address"
        },
        {
          "indexed": true,
          "internalType": "address",
          "name": "spender",
          "type": "address"
        },
        {
          "indexed": false,
          "internalType": "uint256",
          "name": "value",
          "type": "uint256"
        }
      ],
      "name": "Approval",
      "type": "event"
    },
    {
      "anonymous": false,
      "inputs": [
        {
          "indexed": true,
          "internalType": "address",
          "name": "creator",
          "type": "address"
        },
        {
          "indexed": false,
          "internalType": "uint256",
          "name": "amount",
          "type": "uint256"
        }
      ],
      "name": "CreatorFeesClaimed",
      "type": "event"
    },
    {
      "anonymous": false,
      "inputs": [
        {
          "indexed": true,
          "internalType": "address",
          "name": "pair",
          "type": "address"
        }
      ],
      "name": "DexPairSet",
      "type": "event"
    },
    {
      "anonymous": false,
      "inputs": [
        {
          "indexed": true,
          "internalType": "address",
          "name": "byFactory",
          "type": "address"
        }
      ],
      "name": "FactoryControlRenounced",
      "type": "event"
    },
    {
      "anonymous": false,
      "inputs": [
        {
          "indexed": true,
          "internalType": "address",
          "name": "recipient",
          "type": "address"
        },
        {
          "indexed": false,
          "internalType": "uint256",
          "name": "amount",
          "type": "uint256"
        }
      ],
      "name": "PlatformFeesClaimed",
      "type": "event"
    },
    {
      "anonymous": false,
      "inputs": [
        {
          "indexed": true,
          "internalType": "address",
          "name": "from",
          "type": "address"
        },
        {
          "indexed": true,
          "internalType": "address",
          "name": "to",
          "type": "address"
        },
        {
          "indexed": false,
          "internalType": "uint256",
          "name": "creatorFee",
          "type": "uint256"
        },
        {
          "indexed": false,
          "internalType": "uint256",
          "name": "platformFee",
          "type": "uint256"
        }
      ],
      "name": "TradeFeeAccrued",
      "type": "event"
    },
    {
      "anonymous": false,
      "inputs": [
        {
          "indexed": true,
          "internalType": "address",
          "name": "from",
          "type": "address"
        },
        {
          "indexed": true,
          "internalType": "address",
          "name": "to",
          "type": "address"
        },
        {
          "indexed": false,
          "internalType": "uint256",
          "name": "value",
          "type": "uint256"
        }
      ],
      "name": "Transfer",
      "type": "event"
    },
    {
      "inputs": [],
      "name": "BPS_DENOMINATOR",
      "outputs": [
        {
          "internalType": "uint256",
          "name": "",
          "type": "uint256"
        }
      ],
      "stateMutability": "view",
      "type": "function"
    },
    {
      "inputs": [],
      "name": "CREATOR_FEE_BPS",
      "outputs": [
        {
          "internalType": "uint256",
          "name": "",
          "type": "uint256"
        }
      ],
      "stateMutability": "view",
      "type": "function"
    },
    {
      "inputs": [],
      "name": "PLATFORM_FEE_BPS",
      "outputs": [
        {
          "internalType": "uint256",
          "name": "",
          "type": "uint256"
        }
      ],
      "stateMutability": "view",
      "type": "function"
    },
    {
      "inputs": [],
      "name": "TRADE_FEE_BPS",
      "outputs": [
        {
          "internalType": "uint256",
          "name": "",
          "type": "uint256"
        }
      ],
      "stateMutability": "view",
      "type": "function"
    },
    {
      "inputs": [
        {
          "internalType": "address",
          "name": "owner",
          "type": "address"
        },
        {
          "internalType": "address",
          "name": "spender",
          "type": "address"
        }
      ],
      "name": "allowance",
      "outputs": [
        {
          "internalType": "uint256",
          "name": "",
          "type": "uint256"
        }
      ],
      "stateMutability": "view",
      "type": "function"
    },
    {
      "inputs": [
        {
          "internalType": "address",
          "name": "spender",
          "type": "address"
        },
        {
          "internalType": "uint256",
          "name": "amount",
          "type": "uint256"
        }
      ],
      "name": "approve",
      "outputs": [
        {
          "internalType": "bool",
          "name": "",
          "type": "bool"
        }
      ],
      "stateMutability": "nonpayable",
      "type": "function"
    },
    {
      "inputs": [
        {
          "internalType": "address",
          "name": "account",
          "type": "address"
        }
      ],
      "name": "balanceOf",
      "outputs": [
        {
          "internalType": "uint256",
          "name": "",
          "type": "uint256"
        }
      ],
      "stateMutability": "view",
      "type": "function"
    },
    {
      "inputs": [],
      "name": "claimCreatorFees",
      "outputs": [
        {
          "internalType": "uint256",
          "name": "amount",
          "type": "uint256"
        }
      ],
      "stateMutability": "nonpayable",
      "type": "function"
    },
    {
      "inputs": [],
      "name": "claimPlatformFees",
      "outputs": [
        {
          "internalType": "uint256",
          "name": "amount",
          "type": "uint256"
        }
      ],
      "stateMutability": "nonpayable",
      "type": "function"
    },
    {
      "inputs": [],
      "name": "creator",
      "outputs": [
        {
          "internalType": "address",
          "name": "",
          "type": "address"
        }
      ],
      "stateMutability": "view",
      "type": "function"
    },
    {
      "inputs": [],
      "name": "creatorClaimable",
      "outputs": [
        {
          "internalType": "uint256",
          "name": "",
          "type": "uint256"
        }
      ],
      "stateMutability": "view",
      "type": "function"
    },
    {
      "inputs": [],
      "name": "decimals",
      "outputs": [
        {
          "internalType": "uint8",
          "name": "",
          "type": "uint8"
        }
      ],
      "stateMutability": "view",
      "type": "function"
    },
    {
      "inputs": [],
      "name": "dexPair",
      "outputs": [
        {
          "internalType": "address",
          "name": "",
          "type": "address"
        }
      ],
      "stateMutability": "view",
      "type": "function"
    },
    {
      "inputs": [],
      "name": "factory",
      "outputs": [
        {
          "internalType": "address",
          "name": "",
          "type": "address"
        }
      ],
      "stateMutability": "view",
      "type": "function"
    },
    {
      "inputs": [],
      "name": "factoryControlRenounced",
      "outputs": [
        {
          "internalType": "bool",
          "name": "",
          "type": "bool"
        }
      ],
      "stateMutability": "view",
      "type": "function"
    },
    {
      "inputs": [],
      "name": "name",
      "outputs": [
        {
          "internalType": "string",
          "name": "",
          "type": "string"
        }
      ],
      "stateMutability": "view",
      "type": "function"
    },
    {
      "inputs": [],
      "name": "platformClaimable",
      "outputs": [
        {
          "internalType": "uint256",
          "name": "",
          "type": "uint256"
        }
      ],
      "stateMutability": "view",
      "type": "function"
    },
    {
      "inputs": [],
      "name": "platformFeeRecipient",
      "outputs": [
        {
          "internalType": "address",
          "name": "",
          "type": "address"
        }
      ],
      "stateMutability": "view",
      "type": "function"
    },
    {
      "inputs": [],
      "name": "renounceFactoryControl",
      "outputs": [],
      "stateMutability": "nonpayable",
      "type": "function"
    },
    {
      "inputs": [
        {
          "internalType": "address",
          "name": "pair",
          "type": "address"
        }
      ],
      "name": "setDexPair",
      "outputs": [],
      "stateMutability": "nonpayable",
      "type": "function"
    },
    {
      "inputs": [],
      "name": "symbol",
      "outputs": [
        {
          "internalType": "string",
          "name": "",
          "type": "string"
        }
      ],
      "stateMutability": "view",
      "type": "function"
    },
    {
      "inputs": [],
      "name": "totalSupply",
      "outputs": [
        {
          "internalType": "uint256",
          "name": "",
          "type": "uint256"
        }
      ],
      "stateMutability": "view",
      "type": "function"
    },
    {
      "inputs": [
        {
          "internalType": "address",
          "name": "to",
          "type": "address"
        },
        {
          "internalType": "uint256",
          "name": "amount",
          "type": "uint256"
        }
      ],
      "name": "transfer",
      "outputs": [
        {
          "internalType": "bool",
          "name": "",
          "type": "bool"
        }
      ],
      "stateMutability": "nonpayable",
      "type": "function"
    },
    {
      "inputs": [
        {
          "internalType": "address",
          "name": "from",
          "type": "address"
        },
        {
          "internalType": "address",
          "name": "to",
          "type": "address"
        },
        {
          "internalType": "uint256",
          "name": "amount",
          "type": "uint256"
        }
      ],
      "name": "transferFrom",
      "outputs": [
        {
          "internalType": "bool",
          "name": "",
          "type": "bool"
        }
      ],
      "stateMutability": "nonpayable",
      "type": "function"
    }
  ],
  "bytecode": "0x604060e081523462000551576200159090813803806200001f8162000556565b938439820160c083820312620005515782516001600160401b039390848111620005515782620000519183016200057c565b91602090818301519086821162000551576200006f9184016200057c565b9184810151906200008360608201620005ee565b90620000a060a06200009860808401620005ee565b9201620005ee565b918651156200051d57855115620004e7578315620004b1576001600160a01b03818116979088156200047a578084161562000443578416156200040b5780518a8111620003f5576000978854916001938484811c94168015620003ea575b8a851014620003d6578190601f9485811162000383575b508a908583116001146200031e578c9262000312575b5050600019600383901b1c191690841b1789555b80519b8c11620002fe5782548381811c91168015620002f3575b89821014620002df5780838e921162000295575b505087918c116001146200021e579a8091899a9b9c600080516020620015708339815191529a9262000212575b5050600019600383901b1c191690821b1790555b8360025560805260a05260c0528484526006825280868520558551908152a351610f6c9081620006048239608051818181610217015281816102fa0152610356015260a0518181816106730152610ad4015260c05181818161016c01526107540152f35b0151905038806200019a565b8289528789209190601f198d168a5b8181106200027f5750918493918e600080516020620015708339815191529c9d9e9f941062000265575b505050811b019055620001ae565b015160001960f88460031b161c1916905538808062000257565b82840151855593850193928a01928a016200022d565b848b52838a8c20918b82850160051c84019410620002d5575b0160051c019084905b828110620002c957508d91506200016d565b8b8155018490620002b7565b92508192620002ae565b634e487b7160e01b8a52602260045260248afd5b90607f169062000159565b634e487b7160e01b89526041600452602489fd5b0151905038806200012b565b8c80528b8d208794509190601f1984168e8e5b8282106200036b575050841162000351575b505050811b0189556200013f565b015160001960f88460031b161c1916905538808062000343565b8385015186558a979095019493840193018e62000331565b9091508b80528a8c208580850160051c8201928d8610620003cc575b918891869594930160051c01915b828110620003bd57505062000115565b8e8155859450889101620003ad565b925081926200039f565b634e487b7160e01b8b52602260045260248bfd5b93607f1693620000fe565b634e487b7160e01b600052604160045260246000fd5b885162461bcd60e51b81526004810187905260116024820152701c1b185d199bdc9b481c995c5d5a5c9959607a1b6044820152606490fd5b895162461bcd60e51b815260048101889052601060248201526f18dc99585d1bdc881c995c5d5a5c995960821b6044820152606490fd5b895162461bcd60e51b815260048101889052601060248201526f199858dd1bdc9e481c995c5d5a5c995960821b6044820152606490fd5b875162461bcd60e51b815260048101869052600f60248201526e1cdd5c1c1b1e481c995c5d5a5c9959608a1b6044820152606490fd5b875162461bcd60e51b815260048101869052600f60248201526e1cde5b589bdb081c995c5d5a5c9959608a1b6044820152606490fd5b875162461bcd60e51b815260048101869052600d60248201526c1b985b59481c995c5d5a5c9959609a1b6044820152606490fd5b600080fd5b6040519190601f01601f191682016001600160401b03811183821017620003f557604052565b919080601f84011215620005515782516001600160401b038111620003f557602090620005b2601f8201601f1916830162000556565b92818452828287010111620005515760005b818110620005da57508260009394955001015290565b8581018301518482018401528201620005c4565b51906001600160a01b0382168203620005515756fe608060408181526004918236101561001657600080fd5b600092833560e01c91826302d05d3f14610ac057508163044991d814610aa157816306fdde03146109c7578163095ea7b31461095657816318160ddd146109375781631e26906b1461091057816323b872dd146108095781632bebf6bf1461073f578163313ce56714610723578163351fee461461065f578163539aa77f1461064357816370a082311461060b5781639185f598146105ef57816395d89b41146104cc5781639e5f358a146104ae578163a9059cbb1461047d578163ae36f5c814610329578163c45a0155146102e5578163cc3cbd2a146102c9578163dc4b1c0e146101ff57508063dd62ed3e146101b7578063e1a452181461019b578063eb13554f146101585763f242ab411461012d57600080fd5b3461015457816003193601126101545760035490516001600160a01b039091168152602090f35b5080fd5b5034610154578160031936011261015457517f00000000000000000000000000000000000000000000000000000000000000006001600160a01b03168152602090f35b5034610154578160031936011261015457602090516127108152f35b5034610154578060031936011261015457806020926101d4610b4c565b6101dc610b67565b6001600160a01b0391821683526007865283832091168252845220549051908152f35b9050346102c557826003193601126102c557610245337f00000000000000000000000000000000000000000000000000000000000000006001600160a01b031614610bdf565b6003549160ff8360a01c1661028e57505060ff60a01b1916600160a01b17600355337f60b9765cf08f04b4850cd9a0f8da6fa9e854afd328723cc3f6adea6fb4f18d238280a280f35b906020606492519162461bcd60e51b83528201526011602482015270185b1c9958591e481c995b9bdd5b98d959607a1b6044820152fd5b8280fd5b50503461015457816003193601126101545760209051601e8152f35b505034610154578160031936011261015457517f00000000000000000000000000000000000000000000000000000000000000006001600160a01b03168152602090f35b8391503461015457602036600319011261015457610345610b4c565b6001600160a01b0390819061037d337f0000000000000000000000000000000000000000000000000000000000000000841614610bdf565b1691821561044a576003549160ff8360a01c166104075782166103d157506001600160a01b03191681176003557fc3cd203585fbc28dcc1692611d2ebc4190312a5b189047df793c69b157aa0d298280a280f35b606490602086519162461bcd60e51b8352820152601060248201526f1c185a5c88185b1c9958591e481cd95d60821b6044820152fd5b855162461bcd60e51b8152602081840152601960248201527f666163746f727920636f6e74726f6c2072656e6f756e636564000000000000006044820152606490fd5b606490602086519162461bcd60e51b8352820152600d60248201526c1c185a5c881c995c5d5a5c9959609a1b6044820152fd5b5050346101545780600319360112610154576020906104a761049d610b4c565b6024359033610c27565b5160018152f35b9050346102c557826003193601126102c55760209250549051908152f35b8383346101545781600319360112610154578051908260018054908160011c90600183169283156105e5575b60209384841081146105d2578388529081156105b65750600114610560575b505050829003601f01601f191682019267ffffffffffffffff84118385101761054d5750829182610549925282610b03565b0390f35b634e487b7160e01b815260418552602490fd5b600187529192508591837fb10e2d527612073b26eecdfd717e6a320cf44b4afac2b0732d9fcbe2b7fa0cf65b8385106105a25750505050830101858080610517565b80548886018301529301928490820161058c565b60ff1916878501525050151560051b8401019050858080610517565b634e487b7160e01b895260228a52602489fd5b91607f16916104f8565b5050346101545781600319360112610154576020905160328152f35b5050346101545760203660031901126101545760209181906001600160a01b03610633610b4c565b1681526006845220549051908152f35b5050346101545781600319360112610154576020905160148152f35b8383346101545781600319360112610154577f00000000000000000000000000000000000000000000000000000000000000006001600160a01b03811690338290036106f157846106c391602096549586926106bc841515610ba0565b5530610e42565b7fd046302bdc39599e60a5981e59227dcd1c643f512f56f2e984390c3ac6eadedb848351858152a251908152f35b825162461bcd60e51b8152602081870152600c60248201526b37b7363c9031b932b0ba37b960a11b6044820152606490fd5b5050346101545781600319360112610154576020905160128152f35b919050346102c557826003193601126102c5577f0000000000000000000000000000000000000000000000000000000000000000916001600160a01b03831690338290036107d657506107a860209460055494859161079f831515610ba0565b60055530610e42565b7f0636f1043cff5f4c437926a4412416778ddc5e970feb177685b587e81dad9095848351858152a251908152f35b606490602084519162461bcd60e51b8352820152600d60248201526c6f6e6c7920706c6174666f726d60981b6044820152fd5b919050346102c55760603660031901126102c557610825610b4c565b61082d610b67565b6044359160018060a01b03811680875260209560078752858820338952875285882054908582106108d85750948096976104a796866000198203610876575b5050505050610c27565b61087f91610b7d565b83825260078a528282203383528a528282205582815260078952818120338252895220549086519182527f8c5be1e5ebec7d5bd14f71427d1e84f3dd0314c0f7b2291e5b200ac8c7c3b925883393a3388581808661086c565b865162461bcd60e51b81529081018890526012602482015271185b1b1bddd85b98d948195e18d95959195960721b6044820152606490fd5b50503461015457816003193601126101545760209060ff60035460a01c1690519015158152f35b5050346101545781600319360112610154576020906002549051908152f35b50503461015457806003193601126101545760209181610974610b4c565b91602435918291338152600787528181209460018060a01b0316948582528752205582519081527f8c5be1e5ebec7d5bd14f71427d1e84f3dd0314c0f7b2291e5b200ac8c7c3b925843392a35160018152f35b83833461015457816003193601126101545780519082835460018160011c9060018316928315610a97575b60209384841081146105d2578388529081156105b65750600114610a4257505050829003601f01601f191682019267ffffffffffffffff84118385101761054d5750829182610549925282610b03565b8680529192508591837f290decd9548b62a8d60345a988386fc84ba6bc95484008f6362f93160ef3e5635b838510610a835750505050830101858080610517565b805488860183015293019284908201610a6d565b91607f16916109f2565b5050346101545781600319360112610154576020906005549051908152f35b8490346101545781600319360112610154577f00000000000000000000000000000000000000000000000000000000000000006001600160a01b03168152602090f35b6020808252825181830181905290939260005b828110610b3857505060409293506000838284010152601f8019910116010190565b818101860151848201604001528501610b16565b600435906001600160a01b0382168203610b6257565b600080fd5b602435906001600160a01b0382168203610b6257565b91908203918211610b8a57565b634e487b7160e01b600052601160045260246000fd5b15610ba757565b60405162461bcd60e51b815260206004820152601060248201526f6e6f7468696e6720746f20636c61696d60801b6044820152606490fd5b15610be657565b60405162461bcd60e51b815260206004820152600c60248201526b6f6e6c7920666163746f727960a01b6044820152606490fd5b91908201809211610b8a57565b6001600160a01b03808316939192908415610e0e57831692600091848352602092600684526040918282205490868210610dd857610c66908795610efa565b80610dcf575b610cc1575b90610c9e7fddf252ad1be2c89b69c2b068fc378daa952ba7f163c4a11628f55a4df523b3ef968493610b7d565b878252600686528282205587815220610cb8838254610c1a565b905551908152a3565b60328602861590878104603214821715610dbb576127108091049182610cea575b505050610c71565b90919550601e880290888204601e141715610dbb5788859493928b920485888a848d610d168685610b7d565b93610d2091610b7d565b9b8560045490610d2f91610c1a565b6004558360055490610d4091610c1a565b600555308a5260068352848a2081815490610d5a91610c1a565b9055845190815230927fddf252ad1be2c89b69c2b068fc378daa952ba7f163c4a11628f55a4df523b3ef91a381519283528a8301527f93bd139ea85d53c55e02dec709128f827ebd5cb8a4a0d873193711b70b0a15b991a390913880610ce2565b634e487b7160e01b84526011600452602484fd5b50851515610c6c565b835162461bcd60e51b815260048101879052600f60248201526e62616c616e636520746f6f206c6f7760881b6044820152606490fd5b60405162461bcd60e51b815260206004820152600c60248201526b7a65726f206164647265737360a01b6044820152606490fd5b60018060a01b038091169160009383855260066020526040852054818110610ebc577fddf252ad1be2c89b69c2b068fc378daa952ba7f163c4a11628f55a4df523b3ef93602093610e9584604094610b7d565b8789526006865283892055169586815220610eb1828254610c1a565b9055604051908152a3565b60405162461bcd60e51b81526020600482015260166024820152751a5b9cdd59999a58da595b9d08199959481d985d5b1d60521b6044820152606490fd5b6003546001600160a01b03908116918215610f2d5781168214928315610f21575b50505090565b16149050388080610f1b565b5050505060009056fea2646970667358221220c5cb74b2236009bdabcbe103cf29e158d33f78f1563cd239df947769f06fb56764736f6c63430008180033ddf252ad1be2c89b69c2b068fc378daa952ba7f163c4a11628f55a4df523b3ef",
  "linkReferences": {},
  "deployedLinkReferences": {}
}