{
  "_format": "hh-sol-artifact-1",
  "contractName": "MemeToken",
  "sourceName": "contracts/MemeToken.sol",
  "abi": [
    {
      "inputs": [
        {
          "internalType": "string",
          "name": "_name",
          "type": "string"
        },
        {
          "internalType": "string",
          "name": "_symbol",
          "type": "string"
        },
        {
          "internalType": "uint256",
          "name": "_totalSupply",
          "type": "uint256"
        },
        {
          "internalType": "address",
          "name": "_factory",
          "type": "address"
        },
        {
          "internalType": "address",
          "name": "_creator",
          "type": "address"
        },
        {
          "internalType": "address",
          "name": "_platformFeeRecipient",
          "type": "address"
        }
      ],
      "stateMutability": "nonpayable",
      "type": "constructor"
    },
    {
      "anonymous": false,
      "inputs": [
        {
          "indexed": true,
          "internalType": "address",
          "name": "owner",
          "type": "address"
        },
        {
          "indexed": true,
          "internalType": "address",
          "name": "spender",
          "type": "address"
        },
        {
          "indexed": false,
          "internalType": "uint256",
          "name": "value",
          "type": "uint256"
        }
      ],
      "name": "Approval",
      "type": "event"
    },
    {
      "anonymous": false,
      "inputs": [
        {
          "indexed": true,
          "internalType": "address",
          "name": "creator",
          "type": "address"
        },
        {
          "indexed": false,
          "internalType": "uint256",
          "name": "amount",
          "type": "uint256"
        }
      ],
      "name": "CreatorFeesClaimed",
      "type": "event"
    },
    {
      "anonymous": false,
      "inputs": [
        {
          "indexed": true,
          "internalType": "address",
          "name": "pair",
          "type": "address"
        }
      ],
      "name": "DexPairSet",
      "type": "event"
    },
    {
      "anonymous": false,
      "inputs": [
        {
          "indexed": true,
          "internalType": "address",
          "name": "recipient",
          "type": "address"
        },
        {
          "indexed": false,
          "internalType": "uint256",
          "name": "amount",
          "type": "uint256"
        }
      ],
      "name": "PlatformFeesClaimed",
      "type": "event"
    },
    {
      "anonymous": false,
      "inputs": [
        {
          "indexed": true,
          "internalType": "address",
          "name": "from",
          "type": "address"
        },
        {
          "indexed": true,
          "internalType": "address",
          "name": "to",
          "type": "address"
        },
        {
          "indexed": false,
          "internalType": "uint256",
          "name": "creatorFee",
          "type": "uint256"
        },
        {
          "indexed": false,
          "internalType": "uint256",
          "name": "platformFee",
          "type": "uint256"
        }
      ],
      "name": "TradeFeeAccrued",
      "type": "event"
    },
    {
      "anonymous": false,
      "inputs": [
        {
          "indexed": true,
          "internalType": "address",
          "name": "from",
          "type": "address"
        },
        {
          "indexed": true,
          "internalType": "address",
          "name": "to",
          "type": "address"
        },
        {
          "indexed": false,
          "internalType": "uint256",
          "name": "value",
          "type": "uint256"
        }
      ],
      "name": "Transfer",
      "type": "event"
    },
    {
      "inputs": [],
      "name": "BPS_DENOMINATOR",
      "outputs": [
        {
          "internalType": "uint256",
          "name": "",
          "type": "uint256"
        }
      ],
      "stateMutability": "view",
      "type": "function"
    },
    {
      "inputs": [],
      "name": "CREATOR_FEE_BPS",
      "outputs": [
        {
          "internalType": "uint256",
          "name": "",
          "type": "uint256"
        }
      ],
      "stateMutability": "view",
      "type": "function"
    },
    {
      "inputs": [],
      "name": "PLATFORM_FEE_BPS",
      "outputs": [
        {
          "internalType": "uint256",
          "name": "",
          "type": "uint256"
        }
      ],
      "stateMutability": "view",
      "type": "function"
    },
    {
      "inputs": [],
      "name": "TRADE_FEE_BPS",
      "outputs": [
        {
          "internalType": "uint256",
          "name": "",
          "type": "uint256"
        }
      ],
      "stateMutability": "view",
      "type": "function"
    },
    {
      "inputs": [
        {
          "internalType": "address",
          "name": "owner",
          "type": "address"
        },
        {
          "internalType": "address",
          "name": "spender",
          "type": "address"
        }
      ],
      "name": "allowance",
      "outputs": [
        {
          "internalType": "uint256",
          "name": "",
          "type": "uint256"
        }
      ],
      "stateMutability": "view",
      "type": "function"
    },
    {
      "inputs": [
        {
          "internalType": "address",
          "name": "spender",
          "type": "address"
        },
        {
          "internalType": "uint256",
          "name": "amount",
          "type": "uint256"
        }
      ],
      "name": "approve",
      "outputs": [
        {
          "internalType": "bool",
          "name": "",
          "type": "bool"
        }
      ],
      "stateMutability": "nonpayable",
      "type": "function"
    },
    {
      "inputs": [
        {
          "internalType": "address",
          "name": "account",
          "type": "address"
        }
      ],
      "name": "balanceOf",
      "outputs": [
        {
          "internalType": "uint256",
          "name": "",
          "type": "uint256"
        }
      ],
      "stateMutability": "view",
      "type": "function"
    },
    {
      "inputs": [],
      "name": "claimCreatorFees",
      "outputs": [
        {
          "internalType": "uint256",
          "name": "amount",
          "type": "uint256"
        }
      ],
      "stateMutability": "nonpayable",
      "type": "function"
    },
    {
      "inputs": [],
      "name": "claimPlatformFees",
      "outputs": [
        {
          "internalType": "uint256",
          "name": "amount",
          "type": "uint256"
        }
      ],
      "stateMutability": "nonpayable",
      "type": "function"
    },
    {
      "inputs": [],
      "name": "creator",
      "outputs": [
        {
          "internalType": "address",
          "name": "",
          "type": "address"
        }
      ],
      "stateMutability": "view",
      "type": "function"
    },
    {
      "inputs": [],
      "name": "creatorClaimable",
      "outputs": [
        {
          "internalType": "uint256",
          "name": "",
          "type": "uint256"
        }
      ],
      "stateMutability": "view",
      "type": "function"
    },
    {
      "inputs": [],
      "name": "decimals",
      "outputs": [
        {
          "internalType": "uint8",
          "name": "",
          "type": "uint8"
        }
      ],
      "stateMutability": "view",
      "type": "function"
    },
    {
      "inputs": [],
      "name": "dexPair",
      "outputs": [
        {
          "internalType": "address",
          "name": "",
          "type": "address"
        }
      ],
      "stateMutability": "view",
      "type": "function"
    },
    {
      "inputs": [],
      "name": "factory",
      "outputs": [
        {
          "internalType": "address",
          "name": "",
          "type": "address"
        }
      ],
      "stateMutability": "view",
      "type": "function"
    },
    {
      "inputs": [],
      "name": "name",
      "outputs": [
        {
          "internalType": "string",
          "name": "",
          "type": "string"
        }
      ],
      "stateMutability": "view",
      "type": "function"
    },
    {
      "inputs": [],
      "name": "platformClaimable",
      "outputs": [
        {
          "internalType": "uint256",
          "name": "",
          "type": "uint256"
        }
      ],
      "stateMutability": "view",
      "type": "function"
    },
    {
      "inputs": [],
      "name": "platformFeeRecipient",
      "outputs": [
        {
          "internalType": "address",
          "name": "",
          "type": "address"
        }
      ],
      "stateMutability": "view",
      "type": "function"
    },
    {
      "inputs": [
        {
          "internalType": "address",
          "name": "pair",
          "type": "address"
        }
      ],
      "name": "setDexPair",
      "outputs": [],
      "stateMutability": "nonpayable",
      "type": "function"
    },
    {
      "inputs": [],
      "name": "symbol",
      "outputs": [
        {
          "internalType": "string",
          "name": "",
          "type": "string"
        }
      ],
      "stateMutability": "view",
      "type": "function"
    },
    {
      "inputs": [],
      "name": "totalSupply",
      "outputs": [
        {
          "internalType": "uint256",
          "name": "",
          "type": "uint256"
        }
      ],
      "stateMutability": "view",
      "type": "function"
    },
    {
      "inputs": [
        {
          "internalType": "address",
          "name": "to",
          "type": "address"
        },
        {
          "internalType": "uint256",
          "name": "amount",
          "type": "uint256"
        }
      ],
      "name": "transfer",
      "outputs": [
        {
          "internalType": "bool",
          "name": "",
          "type": "bool"
        }
      ],
      "stateMutability": "nonpayable",
      "type": "function"
    },
    {
      "inputs": [
        {
          "internalType": "address",
          "name": "from",
          "type": "address"
        },
        {
          "internalType": "address",
          "name": "to",
          "type": "address"
        },
        {
          "internalType": "uint256",
          "name": "amount",
          "type": "uint256"
        }
      ],
      "name": "transferFrom",
      "outputs": [
        {
          "internalType": "bool",
          "name": "",
          "type": "bool"
        }
      ],
      "stateMutability": "nonpayable",
      "type": "function"
    }
  ],
  "bytecode": "0x604060e08152346200054a57620013ea90813803806200001f816200054f565b938439820160c0838203126200054a5782516001600160401b0393908481116200054a57826200005191830162000575565b9160209081830151908682116200054a576200006f91840162000575565b9184810151906200008360608201620005e7565b90620000a060a06200009860808401620005e7565b9201620005e7565b918651156200051657855115620004e0578315620004aa576001600160a01b03818116979088156200047357808416156200043c57841615620004045780518a8111620003ee576000978854916001938484811c94168015620003e3575b8a851014620003cf578190601f948581116200037c575b508a9085831160011462000317578c926200030b575b5050600019600383901b1c191690841b1789555b80519b8c11620002f75782548381811c91168015620002ec575b89821014620002d85780838e92116200028e575b505087918c1160011462000217579a8091899a9b9c600080516020620013ca8339815191529a926200020b575b5050600019600383901b1c191690821b1790555b8360025560805260a05260c0528484526006825280868520558551908152a351610dcd9081620005fd8239608051818181610218015261026d015260a0518181816105360152610970015260c05181818161015601526106170152f35b0151905038806200019a565b8289528789209190601f198d168a5b818110620002785750918493918e600080516020620013ca8339815191529c9d9e9f94106200025e575b505050811b019055620001ae565b015160001960f88460031b161c1916905538808062000250565b82840151855593850193928a01928a0162000226565b848b52838a8c20918b82850160051c84019410620002ce575b0160051c019084905b828110620002c257508d91506200016d565b8b8155018490620002b0565b92508192620002a7565b634e487b7160e01b8a52602260045260248afd5b90607f169062000159565b634e487b7160e01b89526041600452602489fd5b0151905038806200012b565b8c80528b8d208794509190601f1984168e8e5b8282106200036457505084116200034a575b505050811b0189556200013f565b015160001960f88460031b161c191690553880806200033c565b8385015186558a979095019493840193018e6200032a565b9091508b80528a8c208580850160051c8201928d8610620003c5575b918891869594930160051c01915b828110620003b657505062000115565b8e8155859450889101620003a6565b9250819262000398565b634e487b7160e01b8b52602260045260248bfd5b93607f1693620000fe565b634e487b7160e01b600052604160045260246000fd5b885162461bcd60e51b81526004810187905260116024820152701c1b185d199bdc9b481c995c5d5a5c9959607a1b6044820152606490fd5b895162461bcd60e51b815260048101889052601060248201526f18dc99585d1bdc881c995c5d5a5c995960821b6044820152606490fd5b895162461bcd60e51b815260048101889052601060248201526f199858dd1bdc9e481c995c5d5a5c995960821b6044820152606490fd5b875162461bcd60e51b815260048101869052600f60248201526e1cdd5c1c1b1e481c995c5d5a5c9959608a1b6044820152606490fd5b875162461bcd60e51b815260048101869052600f60248201526e1cde5b589bdb081c995c5d5a5c9959608a1b6044820152606490fd5b875162461bcd60e51b815260048101869052600d60248201526c1b985b59481c995c5d5a5c9959609a1b6044820152606490fd5b600080fd5b6040519190601f01601f191682016001600160401b03811183821017620003ee57604052565b919080601f840112156200054a5782516001600160401b038111620003ee57602090620005ab601f8201601f191683016200054f565b928184528282870101116200054a5760005b818110620005d357508260009394955001015290565b8581018301518482018401528201620005bd565b51906001600160a01b03821682036200054a5756fe608060408181526004918236101561001657600080fd5b600092833560e01c91826302d05d3f1461095c57508163044991d81461093d57816306fdde0314610863578163095ea7b3146107f257816318160ddd146107d357816323b872dd146106cc5781632bebf6bf14610602578163313ce567146105e6578163351fee4614610522578163539aa77f1461050657816370a08231146104ce5781639185f598146104b257816395d89b411461038f5781639e5f358a14610371578163a9059cbb14610340578163ae36f5c81461024757508063c45a015514610204578063cc3cbd2a146101e9578063dd62ed3e146101a1578063e1a4521814610185578063eb13554f146101425763f242ab411461011757600080fd5b3461013e578160031936011261013e5760035490516001600160a01b039091168152602090f35b5080fd5b503461013e578160031936011261013e57517f00000000000000000000000000000000000000000000000000000000000000006001600160a01b03168152602090f35b503461013e578160031936011261013e57602090516127108152f35b503461013e578060031936011261013e57806020926101be6109e8565b6101c6610a03565b6001600160a01b0391821683526007865283832091168252845220549051908152f35b503461013e578160031936011261013e5760209051601e8152f35b503461013e578160031936011261013e57517f00000000000000000000000000000000000000000000000000000000000000006001600160a01b03168152602090f35b90503461033c57602036600319011261033c576102626109e8565b6001600160a01b03907f00000000000000000000000000000000000000000000000000000000000000008216330361030a57169182156102d7575050600380546001600160a01b031916821790557fc3cd203585fbc28dcc1692611d2ebc4190312a5b189047df793c69b157aa0d298280a280f35b906020606492519162461bcd60e51b8352820152600d60248201526c1c185a5c881c995c5d5a5c9959609a1b6044820152fd5b835162461bcd60e51b8152602081850152600c60248201526b6f6e6c7920666163746f727960a01b6044820152606490fd5b8280fd5b50503461013e578060031936011261013e5760209061036a6103606109e8565b6024359033610a88565b5160018152f35b90503461033c578260031936011261033c5760209250549051908152f35b83833461013e578160031936011261013e578051908260018054908160011c90600183169283156104a8575b6020938484108114610495578388529081156104795750600114610423575b505050829003601f01601f191682019267ffffffffffffffff841183851017610410575082918261040c92528261099f565b0390f35b634e487b7160e01b815260418552602490fd5b600187529192508591837fb10e2d527612073b26eecdfd717e6a320cf44b4afac2b0732d9fcbe2b7fa0cf65b83851061046557505050508301018580806103da565b80548886018301529301928490820161044f565b60ff1916878501525050151560051b84010190508580806103da565b634e487b7160e01b895260228a52602489fd5b91607f16916103bb565b50503461013e578160031936011261013e576020905160328152f35b50503461013e57602036600319011261013e5760209181906001600160a01b036104f66109e8565b1681526006845220549051908152f35b50503461013e578160031936011261013e576020905160148152f35b83833461013e578160031936011261013e577f00000000000000000000000000000000000000000000000000000000000000006001600160a01b03811690338290036105b45784610586916020965495869261057f841515610a3c565b5530610ca3565b7fd046302bdc39599e60a5981e59227dcd1c643f512f56f2e984390c3ac6eadedb848351858152a251908152f35b825162461bcd60e51b8152602081870152600c60248201526b37b7363c9031b932b0ba37b960a11b6044820152606490fd5b50503461013e578160031936011261013e576020905160128152f35b9190503461033c578260031936011261033c577f0000000000000000000000000000000000000000000000000000000000000000916001600160a01b0383169033829003610699575061066b602094600554948591610662831515610a3c565b60055530610ca3565b7f0636f1043cff5f4c437926a4412416778ddc5e970feb177685b587e81dad9095848351858152a251908152f35b606490602084519162461bcd60e51b8352820152600d60248201526c6f6e6c7920706c6174666f726d60981b6044820152fd5b9190503461033c57606036600319011261033c576106e86109e8565b6106f0610a03565b6044359160018060a01b038116808752602095600787528588203389528752858820549085821061079b57509480969761036a96866000198203610739575b5050505050610a88565b61074291610a19565b83825260078a528282203383528a528282205582815260078952818120338252895220549086519182527f8c5be1e5ebec7d5bd14f71427d1e84f3dd0314c0f7b2291e5b200ac8c7c3b925883393a3388581808661072f565b865162461bcd60e51b81529081018890526012602482015271185b1b1bddd85b98d948195e18d95959195960721b6044820152606490fd5b50503461013e578160031936011261013e576020906002549051908152f35b50503461013e578060031936011261013e57602091816108106109e8565b91602435918291338152600787528181209460018060a01b0316948582528752205582519081527f8c5be1e5ebec7d5bd14f71427d1e84f3dd0314c0f7b2291e5b200ac8c7c3b925843392a35160018152f35b83833461013e578160031936011261013e5780519082835460018160011c9060018316928315610933575b60209384841081146104955783885290811561047957506001146108de57505050829003601f01601f191682019267ffffffffffffffff841183851017610410575082918261040c92528261099f565b8680529192508591837f290decd9548b62a8d60345a988386fc84ba6bc95484008f6362f93160ef3e5635b83851061091f57505050508301018580806103da565b805488860183015293019284908201610909565b91607f169161088e565b50503461013e578160031936011261013e576020906005549051908152f35b84903461013e578160031936011261013e577f00000000000000000000000000000000000000000000000000000000000000006001600160a01b03168152602090f35b6020808252825181830181905290939260005b8281106109d457505060409293506000838284010152601f8019910116010190565b8181018601518482016040015285016109b2565b600435906001600160a01b03821682036109fe57565b600080fd5b602435906001600160a01b03821682036109fe57565b91908203918211610a2657565b634e487b7160e01b600052601160045260246000fd5b15610a4357565b60405162461bcd60e51b815260206004820152601060248201526f6e6f7468696e6720746f20636c61696d60801b6044820152606490fd5b91908201809211610a2657565b6001600160a01b03808316939192908415610c6f57831692600091848352602092600684526040918282205490868210610c3957610ac7908795610d5b565b80610c30575b610b22575b90610aff7fddf252ad1be2c89b69c2b068fc378daa952ba7f163c4a11628f55a4df523b3ef968493610a19565b878252600686528282205587815220610b19838254610a7b565b905551908152a3565b60328602861590878104603214821715610c1c576127108091049182610b4b575b505050610ad2565b90919550601e880290888204601e141715610c1c5788859493928b920485888a848d610b778685610a19565b93610b8191610a19565b9b8560045490610b9091610a7b565b6004558360055490610ba191610a7b565b600555308a5260068352848a2081815490610bbb91610a7b565b9055845190815230927fddf252ad1be2c89b69c2b068fc378daa952ba7f163c4a11628f55a4df523b3ef91a381519283528a8301527f93bd139ea85d53c55e02dec709128f827ebd5cb8a4a0d873193711b70b0a15b991a390913880610b43565b634e487b7160e01b84526011600452602484fd5b50851515610acd565b835162461bcd60e51b815260048101879052600f60248201526e62616c616e636520746f6f206c6f7760881b6044820152606490fd5b60405162461bcd60e51b815260206004820152600c60248201526b7a65726f206164647265737360a01b6044820152606490fd5b60018060a01b038091169160009383855260066020526040852054818110610d1d577fddf252ad1be2c89b69c2b068fc378daa952ba7f163c4a11628f55a4df523b3ef93602093610cf684604094610a19565b8789526006865283892055169586815220610d12828254610a7b565b9055604051908152a3565b60405162461bcd60e51b81526020600482015260166024820152751a5b9cdd59999a58da595b9d08199959481d985d5b1d60521b6044820152606490fd5b6003546001600160a01b03908116918215610d8e5781168214928315610d82575b50505090565b16149050388080610d7c565b5050505060009056fea2646970667358221220f8a62ec3e2585ff6eb6adf7ef35311b2103f2e59a28e39d345be98605fbde7c364736f6c63430008180033ddf252ad1be2c89b69c2b068fc378daa952ba7f163c4a11628f55a4df523b3ef",
  "linkReferences": {},
  "deployedLinkReferences": {}
}