{
  "_format": "hh-sol-artifact-1",
  "contractName": "MemePool",
  "sourceName": "contracts/MemePool.sol",
  "abi": [
    {
      "inputs": [
        {
          "internalType": "address",
          "name": "_token",
          "type": "address"
        },
        {
          "internalType": "address",
          "name": "_factory",
          "type": "address"
        },
        {
          "internalType": "address",
          "name": "_feeRecipient",
          "type": "address"
        },
        {
          "internalType": "uint256",
          "name": "_feeBps",
          "type": "uint256"
        },
        {
          "internalType": "uint256",
          "name": "_virtualEthReserve",
          "type": "uint256"
        },
        {
          "internalType": "uint256",
          "name": "_virtualTokenReserve",
          "type": "uint256"
        },
        {
          "internalType": "uint256",
          "name": "_graduationTargetEth",
          "type": "uint256"
        },
        {
          "internalType": "address",
          "name": "_dexRouter",
          "type": "address"
        },
        {
          "internalType": "address",
          "name": "_lpRecipient",
          "type": "address"
        }
      ],
      "stateMutability": "payable",
      "type": "constructor"
    },
    {
      "anonymous": false,
      "inputs": [
        {
          "indexed": true,
          "internalType": "address",
          "name": "buyer",
          "type": "address"
        },
        {
          "indexed": false,
          "internalType": "uint256",
          "name": "ethIn",
          "type": "uint256"
        },
        {
          "indexed": false,
          "internalType": "uint256",
          "name": "feePaid",
          "type": "uint256"
        },
        {
          "indexed": false,
          "internalType": "uint256",
          "name": "tokensOut",
          "type": "uint256"
        }
      ],
      "name": "Buy",
      "type": "event"
    },
    {
      "anonymous": false,
      "inputs": [
        {
          "indexed": true,
          "internalType": "address",
          "name": "recipient",
          "type": "address"
        },
        {
          "indexed": false,
          "internalType": "uint256",
          "name": "feeBps",
          "type": "uint256"
        }
      ],
      "name": "FeeConfigUpdated",
      "type": "event"
    },
    {
      "anonymous": false,
      "inputs": [
        {
          "indexed": true,
          "internalType": "address",
          "name": "pair",
          "type": "address"
        },
        {
          "indexed": false,
          "internalType": "uint256",
          "name": "tokenMigrated",
          "type": "uint256"
        },
        {
          "indexed": false,
          "internalType": "uint256",
          "name": "ethMigrated",
          "type": "uint256"
        },
        {
          "indexed": false,
          "internalType": "uint256",
          "name": "lpMinted",
          "type": "uint256"
        },
        {
          "indexed": false,
          "internalType": "uint256",
          "name": "timestamp",
          "type": "uint256"
        }
      ],
      "name": "Graduated",
      "type": "event"
    },
    {
      "anonymous": false,
      "inputs": [
        {
          "indexed": true,
          "internalType": "address",
          "name": "caller",
          "type": "address"
        },
        {
          "indexed": false,
          "internalType": "uint256",
          "name": "ethReserve",
          "type": "uint256"
        },
        {
          "indexed": false,
          "internalType": "uint256",
          "name": "tokenReserve",
          "type": "uint256"
        }
      ],
      "name": "InstantGraduationTriggered",
      "type": "event"
    },
    {
      "anonymous": false,
      "inputs": [
        {
          "indexed": false,
          "internalType": "address",
          "name": "dexRouter",
          "type": "address"
        },
        {
          "indexed": false,
          "internalType": "address",
          "name": "lpRecipient",
          "type": "address"
        },
        {
          "indexed": false,
          "internalType": "uint256",
          "name": "graduationTargetEth",
          "type": "uint256"
        }
      ],
      "name": "MigrationConfigUpdated",
      "type": "event"
    },
    {
      "anonymous": false,
      "inputs": [
        {
          "indexed": false,
          "internalType": "uint256",
          "name": "tokenLiquidity",
          "type": "uint256"
        }
      ],
      "name": "PoolSeeded",
      "type": "event"
    },
    {
      "anonymous": false,
      "inputs": [
        {
          "indexed": true,
          "internalType": "address",
          "name": "seller",
          "type": "address"
        },
        {
          "indexed": false,
          "internalType": "uint256",
          "name": "tokensIn",
          "type": "uint256"
        },
        {
          "indexed": false,
          "internalType": "uint256",
          "name": "ethOut",
          "type": "uint256"
        },
        {
          "indexed": false,
          "internalType": "uint256",
          "name": "feePaid",
          "type": "uint256"
        }
      ],
      "name": "Sell",
      "type": "event"
    },
    {
      "inputs": [],
      "name": "BPS_DENOMINATOR",
      "outputs": [
        {
          "internalType": "uint256",
          "name": "",
          "type": "uint256"
        }
      ],
      "stateMutability": "view",
      "type": "function"
    },
    {
      "inputs": [
        {
          "internalType": "uint256",
          "name": "minTokensOut",
          "type": "uint256"
        }
      ],
      "name": "buy",
      "outputs": [
        {
          "internalType": "uint256",
          "name": "tokensOut",
          "type": "uint256"
        }
      ],
      "stateMutability": "payable",
      "type": "function"
    },
    {
      "inputs": [
        {
          "internalType": "address",
          "name": "newRecipient",
          "type": "address"
        },
        {
          "internalType": "uint256",
          "name": "newFeeBps",
          "type": "uint256"
        }
      ],
      "name": "configureFees",
      "outputs": [],
      "stateMutability": "nonpayable",
      "type": "function"
    },
    {
      "inputs": [
        {
          "internalType": "address",
          "name": "newDexRouter",
          "type": "address"
        },
        {
          "internalType": "address",
          "name": "newLpRecipient",
          "type": "address"
        },
        {
          "internalType": "uint256",
          "name": "newTargetEth",
          "type": "uint256"
        }
      ],
      "name": "configureMigration",
      "outputs": [],
      "stateMutability": "nonpayable",
      "type": "function"
    },
    {
      "inputs": [],
      "name": "dexRouter",
      "outputs": [
        {
          "internalType": "address",
          "name": "",
          "type": "address"
        }
      ],
      "stateMutability": "view",
      "type": "function"
    },
    {
      "inputs": [],
      "name": "ethReserve",
      "outputs": [
        {
          "internalType": "uint256",
          "name": "",
          "type": "uint256"
        }
      ],
      "stateMutability": "view",
      "type": "function"
    },
    {
      "inputs": [],
      "name": "factory",
      "outputs": [
        {
          "internalType": "address",
          "name": "",
          "type": "address"
        }
      ],
      "stateMutability": "view",
      "type": "function"
    },
    {
      "inputs": [],
      "name": "feeBps",
      "outputs": [
        {
          "internalType": "uint256",
          "name": "",
          "type": "uint256"
        }
      ],
      "stateMutability": "view",
      "type": "function"
    },
    {
      "inputs": [],
      "name": "feeRecipient",
      "outputs": [
        {
          "internalType": "address",
          "name": "",
          "type": "address"
        }
      ],
      "stateMutability": "view",
      "type": "function"
    },
    {
      "inputs": [],
      "name": "graduateNow",
      "outputs": [],
      "stateMutability": "nonpayable",
      "type": "function"
    },
    {
      "inputs": [],
      "name": "graduated",
      "outputs": [
        {
          "internalType": "bool",
          "name": "",
          "type": "bool"
        }
      ],
      "stateMutability": "view",
      "type": "function"
    },
    {
      "inputs": [],
      "name": "graduatedAt",
      "outputs": [
        {
          "internalType": "uint256",
          "name": "",
          "type": "uint256"
        }
      ],
      "stateMutability": "view",
      "type": "function"
    },
    {
      "inputs": [],
      "name": "graduationTargetEth",
      "outputs": [
        {
          "internalType": "uint256",
          "name": "",
          "type": "uint256"
        }
      ],
      "stateMutability": "view",
      "type": "function"
    },
    {
      "inputs": [],
      "name": "lpRecipient",
      "outputs": [
        {
          "internalType": "address",
          "name": "",
          "type": "address"
        }
      ],
      "stateMutability": "view",
      "type": "function"
    },
    {
      "inputs": [],
      "name": "migratedPair",
      "outputs": [
        {
          "internalType": "address",
          "name": "",
          "type": "address"
        }
      ],
      "stateMutability": "view",
      "type": "function"
    },
    {
      "inputs": [
        {
          "internalType": "uint256",
          "name": "ethAmountIn",
          "type": "uint256"
        }
      ],
      "name": "quoteBuy",
      "outputs": [
        {
          "internalType": "uint256",
          "name": "tokensOut",
          "type": "uint256"
        },
        {
          "internalType": "uint256",
          "name": "feePaid",
          "type": "uint256"
        }
      ],
      "stateMutability": "view",
      "type": "function"
    },
    {
      "inputs": [
        {
          "internalType": "uint256",
          "name": "tokenAmountIn",
          "type": "uint256"
        }
      ],
      "name": "quoteSell",
      "outputs": [
        {
          "internalType": "uint256",
          "name": "ethOut",
          "type": "uint256"
        },
        {
          "internalType": "uint256",
          "name": "feePaid",
          "type": "uint256"
        }
      ],
      "stateMutability": "view",
      "type": "function"
    },
    {
      "inputs": [
        {
          "internalType": "uint256",
          "name": "tokenAmount",
          "type": "uint256"
        }
      ],
      "name": "seed",
      "outputs": [],
      "stateMutability": "nonpayable",
      "type": "function"
    },
    {
      "inputs": [],
      "name": "seeded",
      "outputs": [
        {
          "internalType": "bool",
          "name": "",
          "type": "bool"
        }
      ],
      "stateMutability": "view",
      "type": "function"
    },
    {
      "inputs": [
        {
          "internalType": "uint256",
          "name": "tokenAmountIn",
          "type": "uint256"
        },
        {
          "internalType": "uint256",
          "name": "minEthOut",
          "type": "uint256"
        }
      ],
      "name": "sell",
      "outputs": [
        {
          "internalType": "uint256",
          "name": "ethOut",
          "type": "uint256"
        }
      ],
      "stateMutability": "nonpayable",
      "type": "function"
    },
    {
      "inputs": [],
      "name": "spotPrice",
      "outputs": [
        {
          "internalType": "uint256",
          "name": "",
          "type": "uint256"
        }
      ],
      "stateMutability": "view",
      "type": "function"
    },
    {
      "inputs": [],
      "name": "targetProgressBps",
      "outputs": [
        {
          "internalType": "uint256",
          "name": "",
          "type": "uint256"
        }
      ],
      "stateMutability": "view",
      "type": "function"
    },
    {
      "inputs": [],
      "name": "token",
      "outputs": [
        {
          "internalType": "address",
          "name": "",
          "type": "address"
        }
      ],
      "stateMutability": "view",
      "type": "function"
    },
    {
      "inputs": [],
      "name": "tokenReserve",
      "outputs": [
        {
          "internalType": "uint256",
          "name": "",
          "type": "uint256"
        }
      ],
      "stateMutability": "view",
      "type": "function"
    },
    {
      "inputs": [],
      "name": "triggerGraduation",
      "outputs": [],
      "stateMutability": "nonpayable",
      "type": "function"
    },
    {
      "inputs": [],
      "name": "virtualEthReserve",
      "outputs": [
        {
          "internalType": "uint256",
          "name": "",
          "type": "uint256"
        }
      ],
      "stateMutability": "view",
      "type": "function"
    },
    {
      "inputs": [],
      "name": "virtualTokenReserve",
      "outputs": [
        {
          "internalType": "uint256",
          "name": "",
          "type": "uint256"
        }
      ],
      "stateMutability": "view",
      "type": "function"
    }
  ],
  "bytecode": "0x601f62001e5e38819003918201601f19166101009081019290916001600160401b03841183851017620003b257816101209284926040968752833981010312620003ad576200004e81620003c8565b6020906200005e828401620003c8565b916200006c858501620003c8565b926060850151608086015160a08701519160c088015193620000a06101006200009860e08c01620003c8565b9a01620003c8565b6001600160a01b03989097908982161562000378578983161562000341578916998a15620002fd5761012c8411620002ca57841562000286578515620002425786156200020c5789169687620001c1575b5060a05260805260018060a01b03199788600054161760005560015560c05260e052600455836005541617600555169060065416176006553460025551611a809081620003de8239608051818181610723015281816107a50152818161096801528181610cbc0152610dd4015260a051818181610161015281816102f80152818161054501528181610802015261148a015260c051818181610ac4015281816111040152818161193101526119c7015260e051818181610c43015281816110d10152818161196601526119f80152f35b898916620000f1576064908c519062461bcd60e51b82526004820152601560248201527f6c7020726563697069656e7420726571756972656400000000000000000000006044820152fd5b8b5162461bcd60e51b815260048101899052600f60248201526e1d185c99d95d081c995c5d5a5c9959608a1b6044820152606490fd5b8b5162461bcd60e51b815260048101899052601660248201527f7669727475616c20746f6b656e207265717569726564000000000000000000006044820152606490fd5b8b5162461bcd60e51b815260048101899052601460248201527f7669727475616c206574682072657175697265640000000000000000000000006044820152606490fd5b8b5162461bcd60e51b815260048101899052600c60248201526b0cccaca40e8dede40d0d2ced60a31b6044820152606490fd5b8b5162461bcd60e51b815260048101899052601660248201527f66656520726563697069656e74207265717569726564000000000000000000006044820152606490fd5b8b5162461bcd60e51b815260048101899052601060248201526f199858dd1bdc9e481c995c5d5a5c995960821b6044820152606490fd5b8b5162461bcd60e51b815260048101899052600e60248201526d1d1bdad95b881c995c5d5a5c995960921b6044820152606490fd5b600080fd5b634e487b7160e01b600052604160045260246000fd5b51906001600160a01b0382168203620003ad5756fe608060408181526004918236101561001657600080fd5b600092833560e01c9182630758d92414610f00575081631ad15bbc14610ed757816324a9d85314610eb85781632521772414610dbc5781632760eca114610d9f5781632a2c697214610c8d578163334041a614610c66578163343ee3b714610c2b578163398482d814610c075781634329742d14610b57578163452e68dd14610b2e5781634690484014610b065781634beb394c14610ae757816352b86d2b14610aac5781637f544e4914610a8d5781638c575aa31461092b578163955648371461077d578163a64190c414610752578163c45a01551461070e578163cbcb3171146106ef578163d62ccb3f146106d0578163d79875eb14610463578163d96a094a146101fa578163e1a45218146101dd578163e7c2b772146101b6578163f95a02d014610194575063fc0c546a1461014e57600080fd5b34610190578160031936011261019057517f00000000000000000000000000000000000000000000000000000000000000006001600160a01b03168152602090f35b5080fd5b9050346101b257826003193601126101b25760209250549051908152f35b8280fd5b50503461019057816003193601126101905760209060ff60065460a81c1690519015158152f35b505034610190578160031936011261019057602090516127108152f35b91905060209283600319360112610460576006549061021f60ff8360b01c1615610f7b565b60ff60b01b19918216600160b01b1760068190556102539060ff9061024960a082901c8316610fb4565b60a81c161561129a565b341561042e5761271061026860015434611032565b04906102748234611150565b9461027e86611923565b9561028a8715156112d2565b6102978235881015611314565b600354908188116103f2576102f3926102c1898b946102b982956002546110bc565b600255611150565b600355856103cb575b875163a9059cbb60e01b8152339181019182526020820192909252909283918291604090910190565b0381857f00000000000000000000000000000000000000000000000000000000000000006001600160a01b03165af19182156103c0579061033992610393575b50611363565b7fbeae048c6d270d9469f86cf6e8fedda3c60ad770f16c24c9fc131c8e9a09101d83518061037b87339534846040919493926060820195825260208201520152565b0390a2610386611a28565b6006541660065551908152f35b6103b39150873d89116103b9575b6103ab8183611204565b81019061134b565b38610333565b503d6103a1565b8551903d90823e3d90fd5b6103ed858080808a60018060a01b038254165af16103e76113a7565b506113e7565b6102ca565b865162461bcd60e51b81528084018a90526016602482015275696e73756666696369656e74206c697175696469747960501b6044820152606490fd5b825162461bcd60e51b8152808501869052600c60248201526b195d1a081c995c5d5a5c995960a21b6044820152606490fd5b80fd5b919050346101b257806003193601126101b25781356006549061048c60ff8360b01c1615610f7b565b60ff60b01b19918216600160b01b1760068190556104b69060ff9061024960a082901c8316610fb4565b6104c18115156111c0565b6104ca816119bb565b946104d68615156112d2565b600254861161068d576127106104ee60015488611032565b04956104fa8782611150565b95610509602435881015611314565b85516323b872dd60e01b81523382820190815230602082810191909152604082018790526001600160a01b0394929182908190606001038188887f0000000000000000000000000000000000000000000000000000000000000000165af19081156106835761059a929161058391879161066a5750611363565b61058f866003546110bc565b600355600254611150565b600255828080808a335af16105ad6113a7565b5015610631575086807f846c37eef631e0943682d87352ec117c20008eb7f425c9b85ac011a6d4774cc0936106049360209a610614575b505086519485525060208401879052604084015233929081906060820190565b0390a26006541660065551908152f35b81806106299481938254165af16103e76113a7565b8038806105e4565b606490602087519162461bcd60e51b83528201526013602482015272195d1a081d1c985b9cd9995c8819985a5b1959606a1b6044820152fd5b6103b3915060203d6020116103b9576103ab8183611204565b88513d87823e3d90fd5b835162461bcd60e51b8152602081870152601860248201527f696e73756666696369656e7420657468207265736572766500000000000000006044820152606490fd5b5050346101905781600319360112610190576020906002549051908152f35b5050346101905781600319360112610190576020906003549051908152f35b505034610190578160031936011261019057517f00000000000000000000000000000000000000000000000000000000000000006001600160a01b03168152602090f35b905082346104605760203660031901126104605750610771903561123c565b82519182526020820152f35b8391503461019057602090816003193601126101b2578035906001600160a01b03906107cc337f0000000000000000000000000000000000000000000000000000000000000000841614610f40565b6006549160ff8360a01c166108f757846024916107ea8615156111c0565b88516370a0823160e01b8152308582015292839182907f0000000000000000000000000000000000000000000000000000000000000000165afa9081156108ed5790849187916108b8575b501061087f575060ff60a01b1916600160a01b176006556003819055925192835290917fa71ed34ff06af8d6865a8f541aae52d72fa89f0e5ee15f01d48fa6c62c8569149190a180f35b855162461bcd60e51b81529081018490526013602482015272696e73756666696369656e7420746f6b656e7360681b6044820152606490fd5b809250868092503d83116108e6575b6108d18183611204565b810103126108e25783905188610835565b8580fd5b503d6108c7565b87513d88823e3d90fd5b865162461bcd60e51b8152808301869052600e60248201526d185b1c9958591e481cd95959195960921b6044820152606490fd5b8391503461019057606036600319011261019057610947610f25565b602435916001600160a01b03908184168085036108e2576044359261098f817f0000000000000000000000000000000000000000000000000000000000000000163314610f40565b600654906109a360ff8360a81c1615610ff2565b8415610a585785169081610a18575b600580546001600160a01b0319908116939093179055161760065581905593516001600160a01b039182168152911660208201526040810192909252907fbcdc4bff84f936019028a7bcbef6b449550d6334606377b822720e57e94276c490606090a180f35b826109b257885162461bcd60e51b815260208186015260156024820152741b1c081c9958da5c1a595b9d081c995c5d5a5c9959605a1b6044820152606490fd5b885162461bcd60e51b8152602081860152600f60248201526e1d185c99d95d081c995c5d5a5c9959608a1b6044820152606490fd5b5050346101905781600319360112610190576020906008549051908152f35b505034610190578160031936011261019057602090517f00000000000000000000000000000000000000000000000000000000000000008152f35b905082346104605760203660031901126104605750610771903561115d565b505034610190578160031936011261019057905490516001600160a01b039091168152602090f35b50503461019057816003193601126101905760065490516001600160a01b039091168152602090f35b9050346101b257826003193601126101b25760065491610b7d60ff8460b01c1615610f7b565b60ff60b01b19928316600160b01b176006819055610bb19060ff90610ba760a082901c8316610fb4565b60a81c1615610ff2565b600254825411610bcf575050610bc5611448565b6006541660065580f35b906020606492519162461bcd60e51b835282015260126024820152711d185c99d95d081b9bdd081c995858da195960721b6044820152fd5b505034610190578160031936011261019057602090610c246110c9565b9051908152f35b505034610190578160031936011261019057602090517f00000000000000000000000000000000000000000000000000000000000000008152f35b50503461019057816003193601126101905760209060ff60065460a01c1690519015158152f35b919050346101b257806003193601126101b257610ca8610f25565b60243591906001600160a01b0390610ce3337f0000000000000000000000000000000000000000000000000000000000000000841614610f40565b16928315610d685761012c8311610d37575083546001600160a01b031916831784556001829055519081527fe42708d93b95810922305119a3271ca42233da9ebe1e1e503f0e887817a32c7a90602090a280f35b6020606492519162461bcd60e51b8352820152600c60248201526b0cccaca40e8dede40d0d2ced60a31b6044820152fd5b6020606492519162461bcd60e51b835282015260126024820152711c9958da5c1a595b9d081c995c5d5a5c995960721b6044820152fd5b505034610190578160031936011261019057602090610c2461107b565b9050346101b257826003193601126101b257610e02337f00000000000000000000000000000000000000000000000000000000000000006001600160a01b031614610f40565b60065491610e1660ff8460b01c1615610f7b565b60ff60b01b19928316600160b01b176006819055610e409060ff90610ba760a082901c8316610fb4565b600254918215610e8557507f5d6dc6b9835f5448ae2351719684f59735b30dfa8e62677cc6f9e98bd4c08f7f90600354815193845260208401523392a2610bc5611448565b6020606492519162461bcd60e51b8352820152600e60248201526d6e6f20657468207265736572766560901b6044820152fd5b5050346101905781600319360112610190576020906001549051908152f35b50503461019057816003193601126101905760075490516001600160a01b039091168152602090f35b8490346101905781600319360112610190576005546001600160a01b03168152602090f35b600435906001600160a01b0382168203610f3b57565b600080fd5b15610f4757565b60405162461bcd60e51b815260206004820152600c60248201526b6f6e6c7920666163746f727960a01b6044820152606490fd5b15610f8257565b60405162461bcd60e51b815260206004820152600a6024820152697265656e7472616e637960b01b6044820152606490fd5b15610fbb57565b60405162461bcd60e51b815260206004820152600f60248201526e1c1bdbdb081b9bdd081cd959591959608a1b6044820152606490fd5b15610ff957565b60405162461bcd60e51b8152602060048201526011602482015270185b1c9958591e4819dc98591d585d1959607a1b6044820152606490fd5b8181029291811591840414171561104557565b634e487b7160e01b600052601160045260246000fd5b8115611065570490565b634e487b7160e01b600052601260045260246000fd5b60045480156110b6576002546127109182820291808304841490151715611045576110a59161105b565b908082116110b1575090565b905090565b50600090565b9190820180921161104557565b6110f66003547f0000000000000000000000000000000000000000000000000000000000000000906110bc565b80156110b6576111296002547f0000000000000000000000000000000000000000000000000000000000000000906110bc565b90670de0b6b3a7640000918281029281840414901517156110455761114d9161105b565b90565b9190820391821161104557565b60065460ff8160a01c16159081156111b2575b5080156111aa575b6111a15761119e61119961271061119160015485611032565b048093611150565b611923565b91565b50600090600090565b508015611178565b60ff915060a81c1638611170565b156111c757565b60405162461bcd60e51b81526020600482015260156024820152741d1bdad95b88185b5bdd5b9d081c995c5d5a5c9959605a1b6044820152606490fd5b90601f8019910116810190811067ffffffffffffffff82111761122657604052565b634e487b7160e01b600052604160045260246000fd5b60065460ff8160a01c161590811561128c575b508015611284575b6111a157611264906119bb565b80156111a15761119e61271061127c60015484611032565b048092611150565b508015611257565b60ff915060a81c163861124f565b156112a157565b60405162461bcd60e51b815260206004820152600960248201526819dc98591d585d195960ba1b6044820152606490fd5b156112d957565b60405162461bcd60e51b81526020600482015260136024820152721a5b9cdd59999a58da595b9d081bdd5d1c1d5d606a1b6044820152606490fd5b1561131b57565b60405162461bcd60e51b8152602060048201526008602482015267736c69707061676560c01b6044820152606490fd5b90816020910312610f3b57518015158103610f3b5790565b1561136a57565b60405162461bcd60e51b81526020600482015260156024820152741d1bdad95b881d1c985b9cd9995c8819985a5b1959605a1b6044820152606490fd5b3d156113e2573d9067ffffffffffffffff821161122657604051916113d6601f8201601f191660200184611204565b82523d6000602084013e565b606090565b156113ee57565b60405162461bcd60e51b8152602060048201526013602482015272199959481d1c985b9cd9995c8819985a5b1959606a1b6044820152606490fd5b90816020910312610f3b57516001600160a01b0381168103610f3b5790565b6005546001600160a01b039081169081156118e957600160a81b60ff60a81b1960065416176006554260085560035491600254906000928360035583600255807f0000000000000000000000000000000000000000000000000000000000000000169360409283518263095ea7b360e01b80835260049384840152602492828482015289816044816020998a945af180156118df579186918c936118c2575b50600554895191825288166001600160a01b0316868201908152602081019390935291829081906040010381858d5af18015611888576118a5575b50846005541694806006541695610e1042018042116118925760c48b8b6060948f948d519c8d96879563f305d71960e01b87528d8701528b860152896044860152896064860152608485015260a48401525af19788156118885782998397849a611844575b50600554895163c45a015560e01b815290841688828981845afa91821561181b578892918a918893611825575b508c516315ab88c960e31b815293849182905afa91821561181b578389878e95948d948b966117f5575b508160449495969751978896879563e6a4390560e01b8752860152168c840152165afa9081156117eb57918489928e9488916117be575b50169d8e6bffffffffffffffffffffffff60a01b60075416176007558381116116ed575b50505050868111611683575b505085519788525050508401528201524260608201527f71aa8c3702dbbc54247a4e6446450e64a46250dd72707a247ddb01d72eaef44590608090a2565b828092611691898394611150565b908254165af161169f6113a7565b50156116ad57808080611645565b60189060649386519362461bcd60e51b85528401528201527f6574682064757374207472616e73666572206661696c656400000000000000006044820152fd5b611734936116fa91611150565b86548c5163a9059cbb60e01b81529087166001600160a01b03168a8201908152602081019290925293849291839189918391604090910190565b03925af19081156117b4578491611797575b50156117555789863880611639565b875162461bcd60e51b8152808601879052601a818601527f746f6b656e2064757374207472616e73666572206661696c65640000000000006044820152606490fd5b6117ae9150873d89116103b9576103ab8183611204565b38611746565b89513d86823e3d90fd5b6117de9150843d86116117e4575b6117d68183611204565b810190611429565b38611615565b503d6117cc565b8a513d87823e3d90fd5b8596506118128391604496973d8a116117e4576117d68183611204565b969594506115de565b8b513d88823e3d90fd5b61183d919350823d84116117e4576117d68183611204565b91386115b4565b9a50985095506060893d606011611880575b8161186360609383611204565b810103126101905788519587868b01519a01519699969838611587565b3d9150611856565b87513d84823e3d90fd5b5050634e487b7160e01b82525060118352fd5b6118bb90853d87116103b9576103ab8183611204565b5038611522565b6118d890833d85116103b9576103ab8183611204565b50386114e7565b88513d85823e3d90fd5b60405162461bcd60e51b815260206004820152601260248201527119195e081c9bdd5d195c881b9bdd081cd95d60721b6044820152606490fd5b80156110b6576119566002547f0000000000000000000000000000000000000000000000000000000000000000906110bc565b906119a26003549261199c61198b7f0000000000000000000000000000000000000000000000000000000000000000866110bc565b936119968584611032565b926110bc565b9061105b565b808211156119b3576110a591611150565b505050600090565b600254906119a26119ec7f0000000000000000000000000000000000000000000000000000000000000000846110bc565b9161199c611a1d6003547f0000000000000000000000000000000000000000000000000000000000000000906110bc565b916119968386611032565b60ff60065460a81c16611a485760025460045411611a4857611a48611448565b56fea2646970667358221220a2d2c21743871442ce4b02c5554bb646ad2f4caaae2b91120a487832fdc24a2864736f6c63430008180033",
  "linkReferences": {},
  "deployedLinkReferences": {}
}